{
  "_format": "hh-sol-artifact-1",
  "contractName": "FinCoreInvestment",
  "sourceName": "src/FinCoreInvestment.sol",
  "abi": [
    {
      "inputs": [
        {
          "internalType": "address",
          "name": "_paymentToken",
          "type": "address"
        },
        {
          "internalType": "uint8",
          "name": "_paymentTokenDecimals",
          "type": "uint8"
        },
        {
          "internalType": "address",
          "name": "_feeRecipient",
          "type": "address"
        },
        {
          "internalType": "address",
          "name": "_admin",
          "type": "address"
        }
      ],
      "stateMutability": "nonpayable",
      "type": "constructor"
    },
    {
      "inputs": [],
      "name": "AccessControlBadConfirmation",
      "type": "error"
    },
    {
      "inputs": [
        {
          "internalType": "address",
          "name": "account",
          "type": "address"
        },
        {
          "internalType": "bytes32",
          "name": "neededRole",
          "type": "bytes32"
        }
      ],
      "name": "AccessControlUnauthorizedAccount",
      "type": "error"
    },
    {
      "inputs": [],
      "name": "EnforcedPause",
      "type": "error"
    },
    {
      "inputs": [],
      "name": "ExpectedPause",
      "type": "error"
    },
    {
      "inputs": [],
      "name": "ReentrancyGuardReentrantCall",
      "type": "error"
    },
    {
      "inputs": [
        {
          "internalType": "address",
          "name": "token",
          "type": "address"
        }
      ],
      "name": "SafeERC20FailedOperation",
      "type": "error"
    },
    {
      "anonymous": false,
      "inputs": [
        {
          "indexed": true,
          "internalType": "bytes32",
          "name": "projectId",
          "type": "bytes32"
        },
        {
          "indexed": false,
          "internalType": "uint256",
          "name": "totalAmount",
          "type": "uint256"
        },
        {
          "indexed": false,
          "internalType": "uint256",
          "name": "holdersCount",
          "type": "uint256"
        }
      ],
      "name": "DividendDistributed",
      "type": "event"
    },
    {
      "anonymous": false,
      "inputs": [
        {
          "indexed": false,
          "internalType": "uint256",
          "name": "newFeePercent",
          "type": "uint256"
        }
      ],
      "name": "FeeUpdated",
      "type": "event"
    },
    {
      "anonymous": false,
      "inputs": [
        {
          "indexed": true,
          "internalType": "bytes32",
          "name": "projectId",
          "type": "bytes32"
        },
        {
          "indexed": false,
          "internalType": "address",
          "name": "recipient",
          "type": "address"
        },
        {
          "indexed": false,
          "internalType": "uint256",
          "name": "amount",
          "type": "uint256"
        }
      ],
      "name": "FundsReleased",
      "type": "event"
    },
    {
      "anonymous": false,
      "inputs": [
        {
          "indexed": true,
          "internalType": "uint256",
          "name": "investmentId",
          "type": "uint256"
        },
        {
          "indexed": true,
          "internalType": "bytes32",
          "name": "projectId",
          "type": "bytes32"
        },
        {
          "indexed": true,
          "internalType": "address",
          "name": "investor",
          "type": "address"
        },
        {
          "indexed": false,
          "internalType": "uint256",
          "name": "amount",
          "type": "uint256"
        },
        {
          "indexed": false,
          "internalType": "uint256",
          "name": "tokenAmount",
          "type": "uint256"
        }
      ],
      "name": "InvestmentCreated",
      "type": "event"
    },
    {
      "anonymous": false,
      "inputs": [
        {
          "indexed": true,
          "internalType": "uint256",
          "name": "investmentId",
          "type": "uint256"
        },
        {
          "indexed": true,
          "internalType": "address",
          "name": "investor",
          "type": "address"
        },
        {
          "indexed": false,
          "internalType": "uint256",
          "name": "amount",
          "type": "uint256"
        }
      ],
      "name": "InvestmentRefunded",
      "type": "event"
    },
    {
      "anonymous": false,
      "inputs": [
        {
          "indexed": true,
          "internalType": "uint256",
          "name": "investmentId",
          "type": "uint256"
        },
        {
          "indexed": true,
          "internalType": "bytes32",
          "name": "projectId",
          "type": "bytes32"
        }
      ],
      "name": "InvestmentReleased",
      "type": "event"
    },
    {
      "anonymous": false,
      "inputs": [
        {
          "indexed": false,
          "internalType": "address",
          "name": "account",
          "type": "address"
        }
      ],
      "name": "Paused",
      "type": "event"
    },
    {
      "anonymous": false,
      "inputs": [
        {
          "indexed": false,
          "internalType": "address",
          "name": "newToken",
          "type": "address"
        }
      ],
      "name": "PaymentTokenUpdated",
      "type": "event"
    },
    {
      "anonymous": false,
      "inputs": [
        {
          "indexed": true,
          "internalType": "bytes32",
          "name": "projectId",
          "type": "bytes32"
        },
        {
          "indexed": false,
          "internalType": "address",
          "name": "tokenContract",
          "type": "address"
        },
        {
          "indexed": false,
          "internalType": "uint256",
          "name": "targetAmount",
          "type": "uint256"
        }
      ],
      "name": "ProjectCreated",
      "type": "event"
    },
    {
      "anonymous": false,
      "inputs": [
        {
          "indexed": true,
          "internalType": "bytes32",
          "name": "projectId",
          "type": "bytes32"
        },
        {
          "indexed": false,
          "internalType": "enum FinCoreInvestment.ProjectStatus",
          "name": "status",
          "type": "uint8"
        }
      ],
      "name": "ProjectStatusUpdated",
      "type": "event"
    },
    {
      "anonymous": false,
      "inputs": [
        {
          "indexed": true,
          "internalType": "bytes32",
          "name": "role",
          "type": "bytes32"
        },
        {
          "indexed": true,
          "internalType": "bytes32",
          "name": "previousAdminRole",
          "type": "bytes32"
        },
        {
          "indexed": true,
          "internalType": "bytes32",
          "name": "newAdminRole",
          "type": "bytes32"
        }
      ],
      "name": "RoleAdminChanged",
      "type": "event"
    },
    {
      "anonymous": false,
      "inputs": [
        {
          "indexed": true,
          "internalType": "bytes32",
          "name": "role",
          "type": "bytes32"
        },
        {
          "indexed": true,
          "internalType": "address",
          "name": "account",
          "type": "address"
        },
        {
          "indexed": true,
          "internalType": "address",
          "name": "sender",
          "type": "address"
        }
      ],
      "name": "RoleGranted",
      "type": "event"
    },
    {
      "anonymous": false,
      "inputs": [
        {
          "indexed": true,
          "internalType": "bytes32",
          "name": "role",
          "type": "bytes32"
        },
        {
          "indexed": true,
          "internalType": "address",
          "name": "account",
          "type": "address"
        },
        {
          "indexed": true,
          "internalType": "address",
          "name": "sender",
          "type": "address"
        }
      ],
      "name": "RoleRevoked",
      "type": "event"
    },
    {
      "anonymous": false,
      "inputs": [
        {
          "indexed": false,
          "internalType": "address",
          "name": "account",
          "type": "address"
        }
      ],
      "name": "Unpaused",
      "type": "event"
    },
    {
      "inputs": [],
      "name": "DEFAULT_ADMIN_ROLE",
      "outputs": [
        {
          "internalType": "bytes32",
          "name": "",
          "type": "bytes32"
        }
      ],
      "stateMutability": "view",
      "type": "function"
    },
    {
      "inputs": [],
      "name": "DIVIDEND_MANAGER_ROLE",
      "outputs": [
        {
          "internalType": "bytes32",
          "name": "",
          "type": "bytes32"
        }
      ],
      "stateMutability": "view",
      "type": "function"
    },
    {
      "inputs": [],
      "name": "OPERATOR_ROLE",
      "outputs": [
        {
          "internalType": "bytes32",
          "name": "",
          "type": "bytes32"
        }
      ],
      "stateMutability": "view",
      "type": "function"
    },
    {
      "inputs": [
        {
          "internalType": "bytes32",
          "name": "projectId",
          "type": "bytes32"
        }
      ],
      "name": "activateProject",
      "outputs": [],
      "stateMutability": "nonpayable",
      "type": "function"
    },
    {
      "inputs": [
        {
          "internalType": "bytes32",
          "name": "projectId",
          "type": "bytes32"
        }
      ],
      "name": "cancelProject",
      "outputs": [],
      "stateMutability": "nonpayable",
      "type": "function"
    },
    {
      "inputs": [
        {
          "internalType": "bytes32",
          "name": "projectId",
          "type": "bytes32"
        },
        {
          "internalType": "address",
          "name": "tokenContract",
          "type": "address"
        },
        {
          "internalType": "uint256",
          "name": "targetAmount",
          "type": "uint256"
        },
        {
          "internalType": "uint256",
          "name": "startTime",
          "type": "uint256"
        },
        {
          "internalType": "uint256",
          "name": "endTime",
          "type": "uint256"
        }
      ],
      "name": "createProject",
      "outputs": [],
      "stateMutability": "nonpayable",
      "type": "function"
    },
    {
      "inputs": [
        {
          "internalType": "bytes32",
          "name": "projectId",
          "type": "bytes32"
        },
        {
          "internalType": "uint256",
          "name": "totalAmount",
          "type": "uint256"
        },
        {
          "internalType": "address[]",
          "name": "holders",
          "type": "address[]"
        },
        {
          "internalType": "uint256[]",
          "name": "amounts",
          "type": "uint256[]"
        }
      ],
      "name": "distributeDividends",
      "outputs": [],
      "stateMutability": "nonpayable",
      "type": "function"
    },
    {
      "inputs": [],
      "name": "feeRecipient",
      "outputs": [
        {
          "internalType": "address",
          "name": "",
          "type": "address"
        }
      ],
      "stateMutability": "view",
      "type": "function"
    },
    {
      "inputs": [],
      "name": "getEscrowBalance",
      "outputs": [
        {
          "internalType": "uint256",
          "name": "",
          "type": "uint256"
        }
      ],
      "stateMutability": "view",
      "type": "function"
    },
    {
      "inputs": [
        {
          "internalType": "address",
          "name": "investor",
          "type": "address"
        }
      ],
      "name": "getInvestorInvestments",
      "outputs": [
        {
          "internalType": "uint256[]",
          "name": "",
          "type": "uint256[]"
        }
      ],
      "stateMutability": "view",
      "type": "function"
    },
    {
      "inputs": [
        {
          "internalType": "bytes32",
          "name": "projectId",
          "type": "bytes32"
        }
      ],
      "name": "getProject",
      "outputs": [
        {
          "internalType": "address",
          "name": "tokenContract",
          "type": "address"
        },
        {
          "internalType": "uint256",
          "name": "targetAmount",
          "type": "uint256"
        },
        {
          "internalType": "uint256",
          "name": "raisedAmount",
          "type": "uint256"
        },
        {
          "internalType": "uint256",
          "name": "startTime",
          "type": "uint256"
        },
        {
          "internalType": "uint256",
          "name": "endTime",
          "type": "uint256"
        },
        {
          "internalType": "bool",
          "name": "fundingComplete",
          "type": "bool"
        },
        {
          "internalType": "bool",
          "name": "fundsReleased",
          "type": "bool"
        },
        {
          "internalType": "enum FinCoreInvestment.ProjectStatus",
          "name": "status",
          "type": "uint8"
        }
      ],
      "stateMutability": "view",
      "type": "function"
    },
    {
      "inputs": [
        {
          "internalType": "bytes32",
          "name": "projectId",
          "type": "bytes32"
        }
      ],
      "name": "getProjectInvestments",
      "outputs": [
        {
          "internalType": "uint256[]",
          "name": "",
          "type": "uint256[]"
        }
      ],
      "stateMutability": "view",
      "type": "function"
    },
    {
      "inputs": [
        {
          "internalType": "bytes32",
          "name": "role",
          "type": "bytes32"
        }
      ],
      "name": "getRoleAdmin",
      "outputs": [
        {
          "internalType": "bytes32",
          "name": "",
          "type": "bytes32"
        }
      ],
      "stateMutability": "view",
      "type": "function"
    },
    {
      "inputs": [
        {
          "internalType": "bytes32",
          "name": "role",
          "type": "bytes32"
        },
        {
          "internalType": "address",
          "name": "account",
          "type": "address"
        }
      ],
      "name": "grantRole",
      "outputs": [],
      "stateMutability": "nonpayable",
      "type": "function"
    },
    {
      "inputs": [
        {
          "internalType": "bytes32",
          "name": "role",
          "type": "bytes32"
        },
        {
          "internalType": "address",
          "name": "account",
          "type": "address"
        }
      ],
      "name": "hasRole",
      "outputs": [
        {
          "internalType": "bool",
          "name": "",
          "type": "bool"
        }
      ],
      "stateMutability": "view",
      "type": "function"
    },
    {
      "inputs": [
        {
          "internalType": "bytes32",
          "name": "projectId",
          "type": "bytes32"
        },
        {
          "internalType": "uint256",
          "name": "amount",
          "type": "uint256"
        },
        {
          "internalType": "uint256",
          "name": "tokenAmount",
          "type": "uint256"
        }
      ],
      "name": "invest",
      "outputs": [],
      "stateMutability": "nonpayable",
      "type": "function"
    },
    {
      "inputs": [
        {
          "internalType": "uint256",
          "name": "",
          "type": "uint256"
        }
      ],
      "name": "investments",
      "outputs": [
        {
          "internalType": "bytes32",
          "name": "projectId",
          "type": "bytes32"
        },
        {
          "internalType": "address",
          "name": "investor",
          "type": "address"
        },
        {
          "internalType": "uint256",
          "name": "amount",
          "type": "uint256"
        },
        {
          "internalType": "uint256",
          "name": "tokenAmount",
          "type": "uint256"
        },
        {
          "internalType": "uint256",
          "name": "createdAt",
          "type": "uint256"
        },
        {
          "internalType": "bool",
          "name": "released",
          "type": "bool"
        },
        {
          "internalType": "bool",
          "name": "refunded",
          "type": "bool"
        }
      ],
      "stateMutability": "view",
      "type": "function"
    },
    {
      "inputs": [
        {
          "internalType": "address",
          "name": "",
          "type": "address"
        },
        {
          "internalType": "uint256",
          "name": "",
          "type": "uint256"
        }
      ],
      "name": "investorInvestments",
      "outputs": [
        {
          "internalType": "uint256",
          "name": "",
          "type": "uint256"
        }
      ],
      "stateMutability": "view",
      "type": "function"
    },
    {
      "inputs": [
        {
          "internalType": "bytes32",
          "name": "",
          "type": "bytes32"
        },
        {
          "internalType": "address",
          "name": "",
          "type": "address"
        }
      ],
      "name": "investorProjectBalance",
      "outputs": [
        {
          "internalType": "uint256",
          "name": "",
          "type": "uint256"
        }
      ],
      "stateMutability": "view",
      "type": "function"
    },
    {
      "inputs": [],
      "name": "maxInvestmentAmount",
      "outputs": [
        {
          "internalType": "uint256",
          "name": "",
          "type": "uint256"
        }
      ],
      "stateMutability": "view",
      "type": "function"
    },
    {
      "inputs": [],
      "name": "minInvestmentAmount",
      "outputs": [
        {
          "internalType": "uint256",
          "name": "",
          "type": "uint256"
        }
      ],
      "stateMutability": "view",
      "type": "function"
    },
    {
      "inputs": [],
      "name": "nextInvestmentId",
      "outputs": [
        {
          "internalType": "uint256",
          "name": "",
          "type": "uint256"
        }
      ],
      "stateMutability": "view",
      "type": "function"
    },
    {
      "inputs": [],
      "name": "pause",
      "outputs": [],
      "stateMutability": "nonpayable",
      "type": "function"
    },
    {
      "inputs": [],
      "name": "paused",
      "outputs": [
        {
          "internalType": "bool",
          "name": "",
          "type": "bool"
        }
      ],
      "stateMutability": "view",
      "type": "function"
    },
    {
      "inputs": [],
      "name": "paymentToken",
      "outputs": [
        {
          "internalType": "contract IERC20",
          "name": "",
          "type": "address"
        }
      ],
      "stateMutability": "view",
      "type": "function"
    },
    {
      "inputs": [],
      "name": "paymentTokenDecimals",
      "outputs": [
        {
          "internalType": "uint8",
          "name": "",
          "type": "uint8"
        }
      ],
      "stateMutability": "view",
      "type": "function"
    },
    {
      "inputs": [],
      "name": "platformFeePercent",
      "outputs": [
        {
          "internalType": "uint256",
          "name": "",
          "type": "uint256"
        }
      ],
      "stateMutability": "view",
      "type": "function"
    },
    {
      "inputs": [
        {
          "internalType": "bytes32",
          "name": "",
          "type": "bytes32"
        },
        {
          "internalType": "uint256",
          "name": "",
          "type": "uint256"
        }
      ],
      "name": "projectInvestments",
      "outputs": [
        {
          "internalType": "uint256",
          "name": "",
          "type": "uint256"
        }
      ],
      "stateMutability": "view",
      "type": "function"
    },
    {
      "inputs": [
        {
          "internalType": "bytes32",
          "name": "",
          "type": "bytes32"
        }
      ],
      "name": "projects",
      "outputs": [
        {
          "internalType": "bytes32",
          "name": "id",
          "type": "bytes32"
        },
        {
          "internalType": "address",
          "name": "tokenContract",
          "type": "address"
        },
        {
          "internalType": "uint256",
          "name": "targetAmount",
          "type": "uint256"
        },
        {
          "internalType": "uint256",
          "name": "raisedAmount",
          "type": "uint256"
        },
        {
          "internalType": "uint256",
          "name": "startTime",
          "type": "uint256"
        },
        {
          "internalType": "uint256",
          "name": "endTime",
          "type": "uint256"
        },
        {
          "internalType": "bool",
          "name": "fundingComplete",
          "type": "bool"
        },
        {
          "internalType": "bool",
          "name": "fundsReleased",
          "type": "bool"
        },
        {
          "internalType": "enum FinCoreInvestment.ProjectStatus",
          "name": "status",
          "type": "uint8"
        }
      ],
      "stateMutability": "view",
      "type": "function"
    },
    {
      "inputs": [
        {
          "internalType": "uint256",
          "name": "investmentId",
          "type": "uint256"
        }
      ],
      "name": "refundInvestment",
      "outputs": [],
      "stateMutability": "nonpayable",
      "type": "function"
    },
    {
      "inputs": [
        {
          "internalType": "bytes32",
          "name": "projectId",
          "type": "bytes32"
        },
        {
          "internalType": "address",
          "name": "recipient",
          "type": "address"
        }
      ],
      "name": "releaseFunds",
      "outputs": [],
      "stateMutability": "nonpayable",
      "type": "function"
    },
    {
      "inputs": [
        {
          "internalType": "bytes32",
          "name": "role",
          "type": "bytes32"
        },
        {
          "internalType": "address",
          "name": "callerConfirmation",
          "type": "address"
        }
      ],
      "name": "renounceRole",
      "outputs": [],
      "stateMutability": "nonpayable",
      "type": "function"
    },
    {
      "inputs": [
        {
          "internalType": "bytes32",
          "name": "role",
          "type": "bytes32"
        },
        {
          "internalType": "address",
          "name": "account",
          "type": "address"
        }
      ],
      "name": "revokeRole",
      "outputs": [],
      "stateMutability": "nonpayable",
      "type": "function"
    },
    {
      "inputs": [
        {
          "internalType": "uint256",
          "name": "newFeePercent",
          "type": "uint256"
        }
      ],
      "name": "setFee",
      "outputs": [],
      "stateMutability": "nonpayable",
      "type": "function"
    },
    {
      "inputs": [
        {
          "internalType": "address",
          "name": "newRecipient",
          "type": "address"
        }
      ],
      "name": "setFeeRecipient",
      "outputs": [],
      "stateMutability": "nonpayable",
      "type": "function"
    },
    {
      "inputs": [
        {
          "internalType": "uint256",
          "name": "minAmount",
          "type": "uint256"
        },
        {
          "internalType": "uint256",
          "name": "maxAmount",
          "type": "uint256"
        }
      ],
      "name": "setInvestmentLimits",
      "outputs": [],
      "stateMutability": "nonpayable",
      "type": "function"
    },
    {
      "inputs": [
        {
          "internalType": "address",
          "name": "newToken",
          "type": "address"
        },
        {
          "internalType": "uint8",
          "name": "decimals",
          "type": "uint8"
        }
      ],
      "name": "setPaymentToken",
      "outputs": [],
      "stateMutability": "nonpayable",
      "type": "function"
    },
    {
      "inputs": [
        {
          "internalType": "bytes4",
          "name": "interfaceId",
          "type": "bytes4"
        }
      ],
      "name": "supportsInterface",
      "outputs": [
        {
          "internalType": "bool",
          "name": "",
          "type": "bool"
        }
      ],
      "stateMutability": "view",
      "type": "function"
    },
    {
      "inputs": [],
      "name": "unpause",
      "outputs": [],
      "stateMutability": "nonpayable",
      "type": "function"
    }
  ],
  "bytecode": "0x6080346200024f57601f6200262638819003918201601f191683019291906001600160401b03841183851017620002545781608092849260409687528339810103126200024f5762000051816200026a565b9060208101519060ff821682036200024f576200007e6060620000768684016200026a565b92016200026a565b60017f9b779b17422d0df92223018b32b4d1fa46e071723d6817e2486d003becc55f0055926001600160a01b0391828216156200020b578216918215620001c757841615620001935760018054610100600160b01b031916600892831b610100600160a81b03161760a885901b60ff60a81b16179055600980546001600160a01b031916929092179091556064905562000118816200027f565b90816064029160648304036200017d576200013691600a556200027f565b90620f424091808302928304036200017d576200016e91600b556200015b8162000291565b50620001678162000311565b50620003b3565b50516121b59081620004518239f35b634e487b7160e01b600052601160045260246000fd5b845162461bcd60e51b815260206004820152600d60248201526c24b73b30b634b21030b236b4b760991b6044820152606490fd5b855162461bcd60e51b815260206004820152601560248201527f496e76616c69642066656520726563697069656e7400000000000000000000006044820152606490fd5b855162461bcd60e51b815260206004820152601560248201527f496e76616c6964207061796d656e7420746f6b656e00000000000000000000006044820152606490fd5b600080fd5b634e487b7160e01b600052604160045260246000fd5b51906001600160a01b03821682036200024f57565b60ff16604d81116200017d57600a0a90565b6001600160a01b031660008181527fad3228b676f7d3cd4284a5443f17f1962b36e491b30a40b2405849e597ba5fb5602052604081205490919060ff166200030d57818052816020526040822081835260205260408220600160ff198254161790553391600080516020620026068339815191528180a4600190565b5090565b6001600160a01b031660008181527fee57cd81e84075558e8fcc182a1f4393f91fc97f963a136e66b7f949a62f319f60205260408120549091907f97667070c54ef182b0f5858b034beac1b6f3089aa2d3188bb1e8929f4fa9b9299060ff16620003ae57808352826020526040832082845260205260408320600160ff1982541617905560008051602062002606833981519152339380a4600190565b505090565b6001600160a01b031660008181527f792c0af42d95a40a8803de265a2327cabbb80439e83c29fee7e193bb1ea9e42360205260408120549091907f983122906625f2f7c0e71d99e0185fea9817cf07cd649b03ca16d13a0a12976c9060ff16620003ae57808352826020526040832082845260205260408320600160ff1982541617905560008051602062002606833981519152339380a460019056fe608060408181526004908136101561001657600080fd5b600060e0938135851c90816301ffc9a714611b74575080630f1af43914611a68578063248a9ca314611a3e5780632e1aaf5a146119665780632f2ff15d1461193c5780633013ce291461190f578063325cd796146118ea57806333c910551461188657806336568abe146118405780633f4ba83a146117d657806346904840146117ad5780634b5f748a146117205780634c431f001461169e5780634d298a071461167f578063562509f6146116495780635b2440f21461160e5780635c975abb146115ea57806369fe0e2d1461155f5780637b6a686e1461151d5780637d25e89d146112db5780638456cb59146112815780638a027cb314610e9f5780638c639a8514610e8057806391d1485414610e3a578063a217fddf14610e1f578063a6685c4614610b23578063b96ea12d14610a89578063c56e610e146109ee578063d547741f146109af578063db64239414610990578063dfabb02614610971578063e358f6a2146108a9578063e74b981b1461085d578063eef90b6214610807578063f4154fbd1461050a578063f5b541a6146104cb578063fb903b1d14610463578063fcf3a4c2146102495763fd345c8a146101d257600080fd5b3461024657602036600319011261024657908060ff928435815260036020522080549360018060a01b03600183015416926002830154906005600385015493850154940154948151978852602088015286015260608501526080840152818116151560a084015260081c16151560c0820152f35b80fd5b50913461045f5760208060031936011261045b57813591610268612012565b8285526003825283852060018101546001600160a01b039190821633036104225760058101805461029c60ff821615612042565b60ff8160081c166103ec57825494858a5260028752888a2060068101549060ff8260101c169160058310156103d957600383149283156103a3575b50505015610369575061034b927fc6a2f493a6e1d86aa8d73122837edb3ae830ccf081d0b273177ed6f6ea2b43bd9695949261010060029361ff0019161790550192835490895260068552878920338a528552610338888a209182546120c1565b905560015460081c1682549033906120ce565b5493519384523393a360016000805160206121608339815191525580f35b885162461bcd60e51b81529081018790526014602482015273526566756e64206e6f7420617661696c61626c6560601b6044820152606490fd5b600114925090826103cb575b50816103bf575b508b80806102d7565b60ff915016158b6103b6565b60050154421191508c6103af565b634e487b7160e01b8d526021845260248dfd5b875162461bcd60e51b8152808601879052601060248201526f105b1c9958591e481c99599d5b99195960821b6044820152606490fd5b855162461bcd60e51b81528084018590526013602482015272139bdd081e5bdd5c881a5b9d995cdd1b595b9d606a1b6044820152606490fd5b8380fd5b8280fd5b50913461045f578160031936011261045f5780359060243592610484611d30565b83831015610497575050600a55600b5580f35b906020606492519162461bcd60e51b8352820152600e60248201526d496e76616c6964206c696d69747360901b6044820152fd5b509034610506578160031936011261050657602090517f97667070c54ef182b0f5858b034beac1b6f3089aa2d3188bb1e8929f4fa9b9298152f35b5080fd5b508234610506576080366003190112610506578035602493843560449384359667ffffffffffffffff97888111610803576105489036908401611c85565b9290986064359081116107ff576105629036908301611c85565b9190977f983122906625f2f7c0e71d99e0185fea9817cf07cd649b03ca16d13a0a12976c93848b526020948b8652888c20338d52865260ff898d205416156107e857506105ad612012565b8386036107b557851561078757888b526002855260ff6006898d206105d481541515611ebb565b015460101c16600581101561077557830361073c57868b8c5b868d81831061071257505050036106df5750506001805490986008936001600160a01b0393509161062790889030903390881c8716611f67565b8a5b868110610674578b8b8b7f42825cab1bcf7f1b4d38787f69d4eecb7fdf52e229c08ffaeb247e32e4ae6ea08c8c8c8c8351928352820152a26000805160206121608339815191525580f35b8c87858d61068385888861212f565b3561069b575b5050505061069690611f1e565b610629565b54881c16916106ab91849161212f565b3585811681036106db5782916106d0916106c961069695888861212f565b35916120ce565b90508c87858d610689565b8d80fd5b875162461bcd60e51b8152928301859052600f908301526e082dadeeadce840dad2e6dac2e8c6d608b1b90820152606490fd5b8261072e93955061073494926107279261212f565b3590611efb565b91611f1e565b9088916105ed565b875162461bcd60e51b815292830185905260159083015274141c9bda9958dd081b9bdd0818dbdb5c1b195d1959605a1b90820152606490fd5b50634e487b7160e01b8b52602183528afd5b875162461bcd60e51b8152928301859052600a90830152694e6f20686f6c6465727360b01b90820152606490fd5b875162461bcd60e51b8152928301859052600f908301526e098cadccee8d040dad2e6dac2e8c6d608b1b90820152606490fd5b885163e2517d3f60e01b8152338186015291820152fd5b8880fd5b8780fd5b509034610506578060031936011261050657610821611bc8565b6001600160a01b03168252600560205280822080546024359390841015610246575060209261084f91611c57565b91905490519160031b1c8152f35b503461024657602036600319011261024657610877611bc8565b61087f611d30565b6001600160a01b0316610893811515612081565b6001600160601b0360a01b600954161760095580f35b5092503461045f57602036600319011261045f578135916108c8611cb6565b828452600260205260068285206108e181541515611ebb565b019081549060ff8260101c16600581101561095e57610924575062ff0000191662010000179055516001815260008051602061214083398151915290602090a280f35b606490602085519162461bcd60e51b83528201526014602482015273141c9bda9958dd081b9bdd081a5b88191c98599d60621b6044820152fd5b634e487b7160e01b875260218252602487fd5b509034610506578160031936011261050657602090600b549051908152f35b5090346105065781600319360112610506576020906007549051908152f35b5092503461045f578060031936011261045f576109ea91356109e560016109d4611be3565b938387528660205286200154611d6a565b611e0e565b5080f35b5092503461045f578260031936011261045f5760015481516370a0823160e01b815230938101939093526020908390602490829060081c6001600160a01b03165afa918215610a7f578392610a48575b6020838351908152f35b9091506020813d8211610a77575b81610a6360209383611e83565b8101031261045f5760209250519038610a3e565b3d9150610a56565b81513d85823e3d90fd5b5091833461045b57602036600319011261045b5790610b219183610120958335815260026020522080549460018060a01b036001830154169360028301546003840154918401549260066005860154950154968151998a5260208a01528801526060870152608086015260a085015260ff8216151560c085015260ff8260081c1615159084015260ff61010084019160101c16611c34565bf35b5091923461045f5760a036600319011261045f57833591610b42611be3565b90604492833593606490813560843590610b5a611cb6565b888a5260209360028552868b2054610de7576001600160a01b03888116949091908515610daf578a15610d7057428410610d315783851115610cf2575050865193610120850185811067ffffffffffffffff821117610cde57918c918c97969594938a52878652868601908152898601918c83528a60608801948086526080890196875260a0890197885260c089019b818d52890199818b526101008a019b828d528252600290522096518755600187019151166001600160601b0360a01b825416179055516002850155516003840155518b83015551600582015560060192511515610c5390849060ff801983541691151516179055565b51825461ff00191690151560081b61ff0016178255516005811015610ccb57815462ff0000191660109190911b62ff000016179055516001600160a01b03909116815260208101919091527f0180774375ef39389cb651d758650eb357746210f60ee333a675d3b6c4343b259080604081010390a280f35b634e487b7160e01b875260218852602487fd5b50634e487b7160e01b8c5260418d5260248cfd5b7f456e64206d7573742062652061667465722073746172740000000000000000008e91888b519362461bcd60e51b855284015260176024840152820152fd5b7f53746172742074696d65206d75737420626520696e20667574757265000000008e91888b519362461bcd60e51b8552840152601c6024840152820152fd5b7f546172676574206d75737420626520706f7369746976650000000000000000008e91888b519362461bcd60e51b855284015260176024840152820152fd5b75125b9d985b1a59081d1bdad95b8818dbdb9d1c9858dd60521b8e91888b519362461bcd60e51b855284015260166024840152820152fd5b865162461bcd60e51b8152808d01869052601660248201527550726f6a65637420616c72656164792065786973747360501b81860152fd5b50903461050657816003193601126105065751908152602090f35b50913461045f578160031936011261045f578160209360ff92610e5b611be3565b903582528186528282206001600160a01b039091168252855220549151911615158152f35b5090346105065781600319360112610506576020906008549051908152f35b5082843461045f57606036600319011261045f578135906024948535936044803591610ec9612012565b610ed1611ff4565b85885260209160028352848920610eea81541515611ebb565b600681019260ff845460101c16600581101561126f576001036112395780820154421061120257600582015442116111d157600a548a1061119057600b548a1161114f5760038201926002610f408c8654611efb565b93019283541061111d57506001546001600160a01b039890610f6c908c903090339060081c8d16611f67565b60075498610f798a611f1e565b600755885191820182811067ffffffffffffffff82111761110b578d9e509c61104d60058e9f948e9f9d9e8f907feaab3ffedef9a605a09e866a86cc8123e3247e2730ea9b6e8ff01c3aadd0c6739f8f8f92988f91899a6110649c8252875289600384890194338652838a0196875260608a0197885260808a0198428a5260a08b019e8f5260c08b019d8e528352522095518655600186019151166001600160601b0360a01b82541617905551600284015551600383015551878201550192511515839060ff801983541691151516179055565b51815461ff00191690151560081b61ff0016179055565b898c52845261107588878d20611f2d565b338b526005845261108888878d20611f2d565b888b5260068452858b20338c528452858b206110a58b8254611efb565b90556110b28a8354611efb565b8092555411156110de575b5082519687528601523394a460016000805160206121608339815191525580f35b6202000162ff00ff198254161790558560008051602061214083398151915282855160028152a2886110bd565b634e487b7160e01b8e52604184528e8efd5b875162461bcd60e51b8152918201869052600e828e01526d115e18d959591cc81d185c99d95d60921b90820152606490fd5b865162461bcd60e51b81529081018590526018818d01527f41626f7665206d6178696d756d20696e766573746d656e74000000000000000081840152606490fd5b865162461bcd60e51b81529081018590526018818d01527f42656c6f77206d696e696d756d20696e766573746d656e74000000000000000081840152606490fd5b865162461bcd60e51b8152908101859052600d818d01526c119d5b991a5b99c8195b991959609a1b81840152606490fd5b865162461bcd60e51b81529081018590526013818d015272119d5b991a5b99c81b9bdd081cdd185c9d1959606a1b81840152606490fd5b865162461bcd60e51b81529081018590526012818d01527150726f6a656374206e6f742061637469766560701b81840152606490fd5b634e487b7160e01b8c52602182528c8cfd5b50903461050657816003193601126105065760207f62e78cea01bee320cd4e420270b5ea74000d11b0c9f74754ebdbfc544b05a258916112bf611d30565b6112c7611ff4565b600160ff198154161760015551338152a180f35b5092503461045f578060031936011261045f578135906112f9611be3565b611301611cb6565b611309612012565b828552602093600285528286209261132384541515611ebb565b600684019586549260ff8460101c16936005948581101561150a576002036114db5761135560ff8260081c1615612042565b6001600160a01b039561136b8188161515612081565b60038098015499600854808c02908c8204148c1517156114c857611398612710620401009204809d6120c1565b9362ffff001916179055888b52828452848b20968b5b8c895482101561142257908b61141d927f97baecea6c563f419056a279e67e77ede2ae5ea626790b8c2b1ec451d3121c7d8d611410858f8f8f8f86906113f48686611c57565b905490831b1c8a5252872001805460ff19166001179055611c57565b9054911b1c9180a3611f1e565b6113ae565b8b600080516020612140833981519152888f8b847f75d86e5bfa1175e2dc677f3abe3aebba3069f2db6ae492f1734d4b4bc65f61c18b8b6114758f96828e8592806114ab575b5060015460081c166120ce565b84516001600160a01b039190911681526020810191909152604090a251908152a260016000805160206121608339815191525580f35b6114c2908260015460081c168360095416906120ce565b8e611468565b634e487b7160e01b8d526011855260248dfd5b50915162461bcd60e51b815291820152600a602482015269139bdd08199d5b99195960b21b6044820152606490fd5b634e487b7160e01b8b526021835260248bfd5b50913461045f578160031936011261045f57602092829161153c611be3565b90358252600685528282206001600160a01b039091168252845220549051908152f35b5092503461045f57602036600319011261045f5781359161157e611d30565b6103e883116115b95750816020917f8c4d35e54a3f2ef1134138fd8ea3daee6a3c89e10d2665996babdf70261e2c769360085551908152a180f35b6020606492519162461bcd60e51b8352820152600c60248201526b08ccaca40e8dede40d0d2ced60a31b6044820152fd5b50903461050657816003193601126105065760209060ff6001541690519015158152f35b509034610506578160031936011261050657602090517f983122906625f2f7c0e71d99e0185fea9817cf07cd649b03ca16d13a0a12976c8152f35b50346102465781600319360112610246576024359280358252602052818120908154841015610246575060209261084f91611c57565b509034610506578160031936011261050657602090600a549051908152f35b509034610506576020908160031936011261045f576001600160a01b036116c3611bc8565b168352600582528083209281518093808654928381520195835280832092905b8282106117095761170586866116fb828b0383611e83565b5191829182611bf9565b0390f35b8354875295860195600193840193909101906116e3565b5091833461045b57602036600319011261045b579060ff610b219284610100968435815260026020522060018060a01b03600182015416956002820154946003830154908301549160066005850154940154968151998a5260208a015288015260608701526080860152818316151560a0860152818360081c16151560c086015284019160101c16611c34565b50903461050657816003193601126105065760095490516001600160a01b039091168152602090f35b50913461045f578260031936011261045f576117f0611d30565b6001549060ff821615611832575060ff1916600155513381527f5db9ee0a495bf2e6ff9c91a7834c1ba4fdd244a5e8aa4e537bd38aeae4b073aa90602090a180f35b8251638dfc202b60e01b8152fd5b50903461050657806003193601126105065761185a611be3565b90336001600160a01b0383160361187757506109ea919235611e0e565b5163334bd91960e11b81528390fd5b5092503461045f576020918260031936011261045b578035845282528083209281518093808654928381520195835280832092905b8282106118d35761170586866116fb828b0383611e83565b8354875295860195600193840193909101906118bb565b50903461050657816003193601126105065760209060ff60015460a81c169051908152f35b509034610506578160031936011261050657600154905160089190911c6001600160a01b03168152602090f35b5092503461045f578060031936011261045f576109ea913561196160016109d4611be3565b611d90565b5092503461045f578060031936011261045f57611981611bc8565b60243560ff81168103611a3a57611996611d30565b6001600160a01b038216938415611a07575060018054610100600160b01b03191660089390931b610100600160a81b03169290921760a89190911b60ff60a81b16179055519081527fbd4032c1c91da2791730ea1bbc82c6b6f857da7c0a8318143d19ef74e62cd91390602090a180f35b606490602085519162461bcd60e51b8352820152600d60248201526c24b73b30b634b2103a37b5b2b760991b6044820152fd5b8480fd5b50913461045f57602036600319011261045f57816020936001923581528085522001549051908152f35b5092503461045f57602036600319011261045f57813591611a87611cb6565b82845260026020526006828520611aa081541515611ebb565b019081549060ff8260101c16600581101561095e578015908115611b69575b5015611b365760ff8260081c16611afa575062ff0000191662030000179055516003815260008051602061214083398151915290602090a280f35b606490602085519162461bcd60e51b83528201526016602482015275119d5b991cc8185b1c9958591e481c995b19585cd95960521b6044820152fd5b606490602085519162461bcd60e51b8352820152600d60248201526c10d85b9b9bdd0818d85b98d95b609a1b6044820152fd5b600191501438611abf565b9050833461045f57602036600319011261045f573563ffffffff60e01b811680910361045f5760209250637965db0b60e01b8114908115611bb7575b5015158152f35b6301ffc9a760e01b14905083611bb0565b600435906001600160a01b0382168203611bde57565b600080fd5b602435906001600160a01b0382168203611bde57565b6020908160408183019282815285518094520193019160005b828110611c20575050505090565b835185529381019392810192600101611c12565b906005821015611c415752565b634e487b7160e01b600052602160045260246000fd5b8054821015611c6f5760005260206000200190600090565b634e487b7160e01b600052603260045260246000fd5b9181601f84011215611bde5782359167ffffffffffffffff8311611bde576020808501948460051b010111611bde57565b3360009081527fee57cd81e84075558e8fcc182a1f4393f91fc97f963a136e66b7f949a62f319f60205260409020547f97667070c54ef182b0f5858b034beac1b6f3089aa2d3188bb1e8929f4fa9b9299060ff1615611d125750565b6044906040519063e2517d3f60e01b82523360048301526024820152fd5b3360009081527fad3228b676f7d3cd4284a5443f17f1962b36e491b30a40b2405849e597ba5fb5602052604081205460ff1615611d125750565b80600052600060205260406000203360005260205260ff6040600020541615611d125750565b9060009180835282602052604083209160018060a01b03169182845260205260ff60408420541615600014611e0957808352826020526040832082845260205260408320600160ff198254161790557f2f8788117e7eff1d82e926ec794901d17c78024a50270940304540a733656f0d339380a4600190565b505090565b9060009180835282602052604083209160018060a01b03169182845260205260ff604084205416600014611e095780835282602052604083208284526020526040832060ff1981541690557ff6391f5c32d9c69d2a47ea670b442974b53935d1edc7fd64eb21e047a839171b339380a4600190565b90601f8019910116810190811067ffffffffffffffff821117611ea557604052565b634e487b7160e01b600052604160045260246000fd5b15611ec257565b60405162461bcd60e51b8152602060048201526011602482015270141c9bda9958dd081b9bdd08199bdd5b99607a1b6044820152606490fd5b91908201809211611f0857565b634e487b7160e01b600052601160045260246000fd5b6000198114611f085760010190565b805468010000000000000000811015611ea557611f4f91600182018155611c57565b819291549060031b91821b91600019901b1916179055565b6040516323b872dd60e01b60009081526001600160a01b03938416600452938316602452604494909452909160209060648180855af1600160005114811615611fd4575b83604052600060605215611fbe57505050565b635274afe760e01b835216600482015260249150fd5b6001811516611fea57813b15153d151616611fab565b833d6000823e3d90fd5b60ff6001541661200057565b60405163d93c066560e01b8152600490fd5b60008051602061216083398151915260028154146120305760029055565b604051633ee5aeb560e01b8152600490fd5b1561204957565b60405162461bcd60e51b815260206004820152601060248201526f105b1c9958591e481c995b19585cd95960821b6044820152606490fd5b1561208857565b60405162461bcd60e51b8152602060048201526011602482015270125b9d985b1a59081c9958da5c1a595b9d607a1b6044820152606490fd5b91908203918211611f0857565b60405163a9059cbb60e01b60009081526001600160a01b039384166004526024949094529260209060448180855af1600160005114811615612119575b8360405215611fbe57505050565b6001811516611fea57813b15153d15161661210b565b9190811015611c6f5760051b019056fe9429ffd66955b0a50202aef461a5c7cc17723d8735de36b6119776d3511d7c4f9b779b17422d0df92223018b32b4d1fa46e071723d6817e2486d003becc55f00a26469706673582212203135324b60ee8e77d20cf6a67ad1c4ae356ee7b078f9bd48deb95969afd146ef64736f6c634300081400332f8788117e7eff1d82e926ec794901d17c78024a50270940304540a733656f0d",
  "linkReferences": {},
  "deployedLinkReferences": {}
}