{
  "_format": "hh-sol-artifact-1",
  "contractName": "FinCoreProjectToken",
  "sourceName": "src/FinCoreProjectToken.sol",
  "abi": [
    {
      "inputs": [
        {
          "internalType": "string",
          "name": "name_",
          "type": "string"
        },
        {
          "internalType": "string",
          "name": "symbol_",
          "type": "string"
        },
        {
          "internalType": "bytes32",
          "name": "projectId_",
          "type": "bytes32"
        },
        {
          "internalType": "uint256",
          "name": "totalSupply_",
          "type": "uint256"
        },
        {
          "internalType": "uint256",
          "name": "pricePerToken_",
          "type": "uint256"
        },
        {
          "internalType": "address",
          "name": "admin",
          "type": "address"
        }
      ],
      "stateMutability": "nonpayable",
      "type": "constructor"
    },
    {
      "inputs": [],
      "name": "AccessControlBadConfirmation",
      "type": "error"
    },
    {
      "inputs": [
        {
          "internalType": "address",
          "name": "account",
          "type": "address"
        },
        {
          "internalType": "bytes32",
          "name": "neededRole",
          "type": "bytes32"
        }
      ],
      "name": "AccessControlUnauthorizedAccount",
      "type": "error"
    },
    {
      "inputs": [
        {
          "internalType": "address",
          "name": "spender",
          "type": "address"
        },
        {
          "internalType": "uint256",
          "name": "allowance",
          "type": "uint256"
        },
        {
          "internalType": "uint256",
          "name": "needed",
          "type": "uint256"
        }
      ],
      "name": "ERC20InsufficientAllowance",
      "type": "error"
    },
    {
      "inputs": [
        {
          "internalType": "address",
          "name": "sender",
          "type": "address"
        },
        {
          "internalType": "uint256",
          "name": "balance",
          "type": "uint256"
        },
        {
          "internalType": "uint256",
          "name": "needed",
          "type": "uint256"
        }
      ],
      "name": "ERC20InsufficientBalance",
      "type": "error"
    },
    {
      "inputs": [
        {
          "internalType": "address",
          "name": "approver",
          "type": "address"
        }
      ],
      "name": "ERC20InvalidApprover",
      "type": "error"
    },
    {
      "inputs": [
        {
          "internalType": "address",
          "name": "receiver",
          "type": "address"
        }
      ],
      "name": "ERC20InvalidReceiver",
      "type": "error"
    },
    {
      "inputs": [
        {
          "internalType": "address",
          "name": "sender",
          "type": "address"
        }
      ],
      "name": "ERC20InvalidSender",
      "type": "error"
    },
    {
      "inputs": [
        {
          "internalType": "address",
          "name": "spender",
          "type": "address"
        }
      ],
      "name": "ERC20InvalidSpender",
      "type": "error"
    },
    {
      "inputs": [],
      "name": "EnforcedPause",
      "type": "error"
    },
    {
      "inputs": [],
      "name": "ExpectedPause",
      "type": "error"
    },
    {
      "inputs": [],
      "name": "ReentrancyGuardReentrantCall",
      "type": "error"
    },
    {
      "anonymous": false,
      "inputs": [
        {
          "indexed": true,
          "internalType": "address",
          "name": "owner",
          "type": "address"
        },
        {
          "indexed": true,
          "internalType": "address",
          "name": "spender",
          "type": "address"
        },
        {
          "indexed": false,
          "internalType": "uint256",
          "name": "value",
          "type": "uint256"
        }
      ],
      "name": "Approval",
      "type": "event"
    },
    {
      "anonymous": false,
      "inputs": [
        {
          "indexed": true,
          "internalType": "address",
          "name": "account",
          "type": "address"
        },
        {
          "indexed": false,
          "internalType": "bool",
          "name": "approved",
          "type": "bool"
        }
      ],
      "name": "KYCStatusUpdated",
      "type": "event"
    },
    {
      "anonymous": false,
      "inputs": [
        {
          "indexed": false,
          "internalType": "address",
          "name": "account",
          "type": "address"
        }
      ],
      "name": "Paused",
      "type": "event"
    },
    {
      "anonymous": false,
      "inputs": [
        {
          "indexed": false,
          "internalType": "uint256",
          "name": "newValuation",
          "type": "uint256"
        }
      ],
      "name": "ProjectValuationUpdated",
      "type": "event"
    },
    {
      "anonymous": false,
      "inputs": [
        {
          "indexed": true,
          "internalType": "bytes32",
          "name": "role",
          "type": "bytes32"
        },
        {
          "indexed": true,
          "internalType": "bytes32",
          "name": "previousAdminRole",
          "type": "bytes32"
        },
        {
          "indexed": true,
          "internalType": "bytes32",
          "name": "newAdminRole",
          "type": "bytes32"
        }
      ],
      "name": "RoleAdminChanged",
      "type": "event"
    },
    {
      "anonymous": false,
      "inputs": [
        {
          "indexed": true,
          "internalType": "bytes32",
          "name": "role",
          "type": "bytes32"
        },
        {
          "indexed": true,
          "internalType": "address",
          "name": "account",
          "type": "address"
        },
        {
          "indexed": true,
          "internalType": "address",
          "name": "sender",
          "type": "address"
        }
      ],
      "name": "RoleGranted",
      "type": "event"
    },
    {
      "anonymous": false,
      "inputs": [
        {
          "indexed": true,
          "internalType": "bytes32",
          "name": "role",
          "type": "bytes32"
        },
        {
          "indexed": true,
          "internalType": "address",
          "name": "account",
          "type": "address"
        },
        {
          "indexed": true,
          "internalType": "address",
          "name": "sender",
          "type": "address"
        }
      ],
      "name": "RoleRevoked",
      "type": "event"
    },
    {
      "anonymous": false,
      "inputs": [
        {
          "indexed": true,
          "internalType": "address",
          "name": "account",
          "type": "address"
        },
        {
          "indexed": false,
          "internalType": "uint256",
          "name": "until",
          "type": "uint256"
        }
      ],
      "name": "TokensLocked",
      "type": "event"
    },
    {
      "anonymous": false,
      "inputs": [
        {
          "indexed": true,
          "internalType": "address",
          "name": "buyer",
          "type": "address"
        },
        {
          "indexed": false,
          "internalType": "uint256",
          "name": "amount",
          "type": "uint256"
        },
        {
          "indexed": false,
          "internalType": "uint256",
          "name": "totalPaid",
          "type": "uint256"
        }
      ],
      "name": "TokensPurchased",
      "type": "event"
    },
    {
      "anonymous": false,
      "inputs": [
        {
          "indexed": true,
          "internalType": "address",
          "name": "account",
          "type": "address"
        }
      ],
      "name": "TokensUnlocked",
      "type": "event"
    },
    {
      "anonymous": false,
      "inputs": [
        {
          "indexed": true,
          "internalType": "address",
          "name": "from",
          "type": "address"
        },
        {
          "indexed": true,
          "internalType": "address",
          "name": "to",
          "type": "address"
        },
        {
          "indexed": false,
          "internalType": "uint256",
          "name": "value",
          "type": "uint256"
        }
      ],
      "name": "Transfer",
      "type": "event"
    },
    {
      "anonymous": false,
      "inputs": [
        {
          "indexed": false,
          "internalType": "bool",
          "name": "enabled",
          "type": "bool"
        }
      ],
      "name": "TransfersToggled",
      "type": "event"
    },
    {
      "anonymous": false,
      "inputs": [
        {
          "indexed": false,
          "internalType": "address",
          "name": "account",
          "type": "address"
        }
      ],
      "name": "Unpaused",
      "type": "event"
    },
    {
      "inputs": [],
      "name": "DEFAULT_ADMIN_ROLE",
      "outputs": [
        {
          "internalType": "bytes32",
          "name": "",
          "type": "bytes32"
        }
      ],
      "stateMutability": "view",
      "type": "function"
    },
    {
      "inputs": [],
      "name": "MINTER_ROLE",
      "outputs": [
        {
          "internalType": "bytes32",
          "name": "",
          "type": "bytes32"
        }
      ],
      "stateMutability": "view",
      "type": "function"
    },
    {
      "inputs": [],
      "name": "PAUSER_ROLE",
      "outputs": [
        {
          "internalType": "bytes32",
          "name": "",
          "type": "bytes32"
        }
      ],
      "stateMutability": "view",
      "type": "function"
    },
    {
      "inputs": [],
      "name": "TRANSFER_AGENT_ROLE",
      "outputs": [
        {
          "internalType": "bytes32",
          "name": "",
          "type": "bytes32"
        }
      ],
      "stateMutability": "view",
      "type": "function"
    },
    {
      "inputs": [
        {
          "internalType": "address",
          "name": "owner",
          "type": "address"
        },
        {
          "internalType": "address",
          "name": "spender",
          "type": "address"
        }
      ],
      "name": "allowance",
      "outputs": [
        {
          "internalType": "uint256",
          "name": "",
          "type": "uint256"
        }
      ],
      "stateMutability": "view",
      "type": "function"
    },
    {
      "inputs": [
        {
          "internalType": "address",
          "name": "spender",
          "type": "address"
        },
        {
          "internalType": "uint256",
          "name": "value",
          "type": "uint256"
        }
      ],
      "name": "approve",
      "outputs": [
        {
          "internalType": "bool",
          "name": "",
          "type": "bool"
        }
      ],
      "stateMutability": "nonpayable",
      "type": "function"
    },
    {
      "inputs": [
        {
          "internalType": "address",
          "name": "account",
          "type": "address"
        }
      ],
      "name": "availableBalance",
      "outputs": [
        {
          "internalType": "uint256",
          "name": "",
          "type": "uint256"
        }
      ],
      "stateMutability": "view",
      "type": "function"
    },
    {
      "inputs": [
        {
          "internalType": "address",
          "name": "account",
          "type": "address"
        }
      ],
      "name": "balanceOf",
      "outputs": [
        {
          "internalType": "uint256",
          "name": "",
          "type": "uint256"
        }
      ],
      "stateMutability": "view",
      "type": "function"
    },
    {
      "inputs": [
        {
          "internalType": "address[]",
          "name": "accounts",
          "type": "address[]"
        },
        {
          "internalType": "bool",
          "name": "approved",
          "type": "bool"
        }
      ],
      "name": "batchSetKYCStatus",
      "outputs": [],
      "stateMutability": "nonpayable",
      "type": "function"
    },
    {
      "inputs": [
        {
          "internalType": "uint256",
          "name": "value",
          "type": "uint256"
        }
      ],
      "name": "burn",
      "outputs": [],
      "stateMutability": "nonpayable",
      "type": "function"
    },
    {
      "inputs": [
        {
          "internalType": "address",
          "name": "account",
          "type": "address"
        },
        {
          "internalType": "uint256",
          "name": "value",
          "type": "uint256"
        }
      ],
      "name": "burnFrom",
      "outputs": [],
      "stateMutability": "nonpayable",
      "type": "function"
    },
    {
      "inputs": [],
      "name": "decimals",
      "outputs": [
        {
          "internalType": "uint8",
          "name": "",
          "type": "uint8"
        }
      ],
      "stateMutability": "view",
      "type": "function"
    },
    {
      "inputs": [],
      "name": "getProjectInfo",
      "outputs": [
        {
          "internalType": "bytes32",
          "name": "_projectId",
          "type": "bytes32"
        },
        {
          "internalType": "uint256",
          "name": "_valuation",
          "type": "uint256"
        },
        {
          "internalType": "uint256",
          "name": "_totalForSale",
          "type": "uint256"
        },
        {
          "internalType": "uint256",
          "name": "_sold",
          "type": "uint256"
        },
        {
          "internalType": "uint256",
          "name": "_price",
          "type": "uint256"
        },
        {
          "internalType": "bool",
          "name": "_transfersEnabled",
          "type": "bool"
        }
      ],
      "stateMutability": "view",
      "type": "function"
    },
    {
      "inputs": [
        {
          "internalType": "bytes32",
          "name": "role",
          "type": "bytes32"
        }
      ],
      "name": "getRoleAdmin",
      "outputs": [
        {
          "internalType": "bytes32",
          "name": "",
          "type": "bytes32"
        }
      ],
      "stateMutability": "view",
      "type": "function"
    },
    {
      "inputs": [
        {
          "internalType": "bytes32",
          "name": "role",
          "type": "bytes32"
        },
        {
          "internalType": "address",
          "name": "account",
          "type": "address"
        }
      ],
      "name": "grantRole",
      "outputs": [],
      "stateMutability": "nonpayable",
      "type": "function"
    },
    {
      "inputs": [
        {
          "internalType": "bytes32",
          "name": "role",
          "type": "bytes32"
        },
        {
          "internalType": "address",
          "name": "account",
          "type": "address"
        }
      ],
      "name": "hasRole",
      "outputs": [
        {
          "internalType": "bool",
          "name": "",
          "type": "bool"
        }
      ],
      "stateMutability": "view",
      "type": "function"
    },
    {
      "inputs": [
        {
          "internalType": "address",
          "name": "",
          "type": "address"
        }
      ],
      "name": "kycApproved",
      "outputs": [
        {
          "internalType": "bool",
          "name": "",
          "type": "bool"
        }
      ],
      "stateMutability": "view",
      "type": "function"
    },
    {
      "inputs": [],
      "name": "kycRequired",
      "outputs": [
        {
          "internalType": "bool",
          "name": "",
          "type": "bool"
        }
      ],
      "stateMutability": "view",
      "type": "function"
    },
    {
      "inputs": [
        {
          "internalType": "address",
          "name": "account",
          "type": "address"
        },
        {
          "internalType": "uint256",
          "name": "until",
          "type": "uint256"
        }
      ],
      "name": "lockTokens",
      "outputs": [],
      "stateMutability": "nonpayable",
      "type": "function"
    },
    {
      "inputs": [
        {
          "internalType": "address",
          "name": "",
          "type": "address"
        }
      ],
      "name": "lockedUntil",
      "outputs": [
        {
          "internalType": "uint256",
          "name": "",
          "type": "uint256"
        }
      ],
      "stateMutability": "view",
      "type": "function"
    },
    {
      "inputs": [],
      "name": "maxInvestmentPerWallet",
      "outputs": [
        {
          "internalType": "uint256",
          "name": "",
          "type": "uint256"
        }
      ],
      "stateMutability": "view",
      "type": "function"
    },
    {
      "inputs": [],
      "name": "minInvestmentTokens",
      "outputs": [
        {
          "internalType": "uint256",
          "name": "",
          "type": "uint256"
        }
      ],
      "stateMutability": "view",
      "type": "function"
    },
    {
      "inputs": [
        {
          "internalType": "address",
          "name": "to",
          "type": "address"
        },
        {
          "internalType": "uint256",
          "name": "amount",
          "type": "uint256"
        }
      ],
      "name": "mint",
      "outputs": [],
      "stateMutability": "nonpayable",
      "type": "function"
    },
    {
      "inputs": [],
      "name": "name",
      "outputs": [
        {
          "internalType": "string",
          "name": "",
          "type": "string"
        }
      ],
      "stateMutability": "view",
      "type": "function"
    },
    {
      "inputs": [],
      "name": "pause",
      "outputs": [],
      "stateMutability": "nonpayable",
      "type": "function"
    },
    {
      "inputs": [],
      "name": "paused",
      "outputs": [
        {
          "internalType": "bool",
          "name": "",
          "type": "bool"
        }
      ],
      "stateMutability": "view",
      "type": "function"
    },
    {
      "inputs": [],
      "name": "pricePerToken",
      "outputs": [
        {
          "internalType": "uint256",
          "name": "",
          "type": "uint256"
        }
      ],
      "stateMutability": "view",
      "type": "function"
    },
    {
      "inputs": [],
      "name": "projectId",
      "outputs": [
        {
          "internalType": "bytes32",
          "name": "",
          "type": "bytes32"
        }
      ],
      "stateMutability": "view",
      "type": "function"
    },
    {
      "inputs": [],
      "name": "projectValuation",
      "outputs": [
        {
          "internalType": "uint256",
          "name": "",
          "type": "uint256"
        }
      ],
      "stateMutability": "view",
      "type": "function"
    },
    {
      "inputs": [
        {
          "internalType": "uint256",
          "name": "amount",
          "type": "uint256"
        }
      ],
      "name": "purchaseTokens",
      "outputs": [],
      "stateMutability": "nonpayable",
      "type": "function"
    },
    {
      "inputs": [
        {
          "internalType": "bytes32",
          "name": "role",
          "type": "bytes32"
        },
        {
          "internalType": "address",
          "name": "callerConfirmation",
          "type": "address"
        }
      ],
      "name": "renounceRole",
      "outputs": [],
      "stateMutability": "nonpayable",
      "type": "function"
    },
    {
      "inputs": [
        {
          "internalType": "bytes32",
          "name": "role",
          "type": "bytes32"
        },
        {
          "internalType": "address",
          "name": "account",
          "type": "address"
        }
      ],
      "name": "revokeRole",
      "outputs": [],
      "stateMutability": "nonpayable",
      "type": "function"
    },
    {
      "inputs": [
        {
          "internalType": "address",
          "name": "account",
          "type": "address"
        },
        {
          "internalType": "bool",
          "name": "approved",
          "type": "bool"
        }
      ],
      "name": "setKYCStatus",
      "outputs": [],
      "stateMutability": "nonpayable",
      "type": "function"
    },
    {
      "inputs": [
        {
          "internalType": "bytes4",
          "name": "interfaceId",
          "type": "bytes4"
        }
      ],
      "name": "supportsInterface",
      "outputs": [
        {
          "internalType": "bool",
          "name": "",
          "type": "bool"
        }
      ],
      "stateMutability": "view",
      "type": "function"
    },
    {
      "inputs": [],
      "name": "symbol",
      "outputs": [
        {
          "internalType": "string",
          "name": "",
          "type": "string"
        }
      ],
      "stateMutability": "view",
      "type": "function"
    },
    {
      "inputs": [
        {
          "internalType": "bool",
          "name": "enabled",
          "type": "bool"
        }
      ],
      "name": "toggleTransfers",
      "outputs": [],
      "stateMutability": "nonpayable",
      "type": "function"
    },
    {
      "inputs": [],
      "name": "tokensSold",
      "outputs": [
        {
          "internalType": "uint256",
          "name": "",
          "type": "uint256"
        }
      ],
      "stateMutability": "view",
      "type": "function"
    },
    {
      "inputs": [],
      "name": "totalSupply",
      "outputs": [
        {
          "internalType": "uint256",
          "name": "",
          "type": "uint256"
        }
      ],
      "stateMutability": "view",
      "type": "function"
    },
    {
      "inputs": [],
      "name": "totalTokensForSale",
      "outputs": [
        {
          "internalType": "uint256",
          "name": "",
          "type": "uint256"
        }
      ],
      "stateMutability": "view",
      "type": "function"
    },
    {
      "inputs": [
        {
          "internalType": "address",
          "name": "to",
          "type": "address"
        },
        {
          "internalType": "uint256",
          "name": "value",
          "type": "uint256"
        }
      ],
      "name": "transfer",
      "outputs": [
        {
          "internalType": "bool",
          "name": "",
          "type": "bool"
        }
      ],
      "stateMutability": "nonpayable",
      "type": "function"
    },
    {
      "inputs": [
        {
          "internalType": "address",
          "name": "from",
          "type": "address"
        },
        {
          "internalType": "address",
          "name": "to",
          "type": "address"
        },
        {
          "internalType": "uint256",
          "name": "value",
          "type": "uint256"
        }
      ],
      "name": "transferFrom",
      "outputs": [
        {
          "internalType": "bool",
          "name": "",
          "type": "bool"
        }
      ],
      "stateMutability": "nonpayable",
      "type": "function"
    },
    {
      "inputs": [],
      "name": "transfersEnabled",
      "outputs": [
        {
          "internalType": "bool",
          "name": "",
          "type": "bool"
        }
      ],
      "stateMutability": "view",
      "type": "function"
    },
    {
      "inputs": [
        {
          "internalType": "address",
          "name": "account",
          "type": "address"
        }
      ],
      "name": "unlockTokens",
      "outputs": [],
      "stateMutability": "nonpayable",
      "type": "function"
    },
    {
      "inputs": [],
      "name": "unpause",
      "outputs": [],
      "stateMutability": "nonpayable",
      "type": "function"
    },
    {
      "inputs": [
        {
          "internalType": "uint256",
          "name": "minTokens",
          "type": "uint256"
        },
        {
          "internalType": "uint256",
          "name": "maxPerWallet",
          "type": "uint256"
        }
      ],
      "name": "updateInvestmentLimits",
      "outputs": [],
      "stateMutability": "nonpayable",
      "type": "function"
    },
    {
      "inputs": [
        {
          "internalType": "uint256",
          "name": "newValuation",
          "type": "uint256"
        }
      ],
      "name": "updateProjectValuation",
      "outputs": [],
      "stateMutability": "nonpayable",
      "type": "function"
    },
    {
      "inputs": [
        {
          "internalType": "address",
          "name": "",
          "type": "address"
        }
      ],
      "name": "walletInvestments",
      "outputs": [
        {
          "internalType": "uint256",
          "name": "",
          "type": "uint256"
        }
      ],
      "stateMutability": "view",
      "type": "function"
    }
  ],
  "bytecode": "0x60406080815234620004d4576200221b803803806200001e81620004d9565b92833981019060c081830312620004d45780516001600160401b039190828111620004d4578362000051918301620004ff565b926020908183015190848211620004d4576200006f918401620004ff565b90858301519060608401519460a060808601519501519660018060a01b03881691828903620004d4578151818111620003d4576003908154906001948583811c93168015620004c9575b88841014620004b3578190601f938481116200045d575b508890848311600114620003f657600092620003ea575b505060001982851b1c191690851b1782555b8751928311620003d45760049788548581811c91168015620003c9575b88821014620003b45790818386959493116200035a575b5087918411600114620002ef57600093620002e3575b505082841b92600019911b1c19161785555b7f9b779b17422d0df92223018b32b4d1fa46e071723d6817e2486d003becc55f005515620002a15784156200025f5783156200021d57506007558260095581600b558183029183830403620002085750600855600c805461ffff1916610100179055670de0b6b3a7640000600e55600a9004600f55620001f990620001da8162000571565b50620001e681620005f2565b50620001f28162000695565b5062000733565b5051611a299081620007d28239f35b601190634e487b7160e01b6000525260246000fd5b8260649188519162461bcd60e51b8352820152601660248201527f5072696365206d75737420626520706f736974697665000000000000000000006044820152fd5b8260649188519162461bcd60e51b8352820152601d60248201527f546f74616c20737570706c79206d75737420626520706f7369746976650000006044820152fd5b8260649188519162461bcd60e51b8352820152601560248201527f496e76616c69642061646d696e206164647265737300000000000000000000006044820152fd5b01519150388062000143565b9190859450601f198416928a600052886000209360005b8a82821062000343575050851162000328575b50505050811b01855562000155565b01519060f884600019921b161c191690553880808062000319565b838501518755899890960195938401930162000306565b909192935089600052876000208380870160051c8201928a8810620003aa575b9188918897969594930160051c01915b8281106200039a5750506200012d565b600081558796508891016200038a565b925081926200037a565b60228a634e487b7160e01b6000525260246000fd5b90607f169062000116565b634e487b7160e01b600052604160045260246000fd5b015190503880620000e7565b90879350601f19831691866000528a6000209260005b8c8282106200044657505084116200042d575b505050811b018255620000f9565b015160001983871b60f8161c191690553880806200041f565b8385015186558b979095019493840193016200040c565b90915084600052886000208480850160051c8201928b8610620004a9575b918991869594930160051c01915b82811062000499575050620000d0565b6000815585945089910162000489565b925081926200047b565b634e487b7160e01b600052602260045260246000fd5b92607f1692620000b9565b600080fd5b6040519190601f01601f191682016001600160401b03811183821017620003d457604052565b919080601f84011215620004d45782516001600160401b038111620003d45760209062000535601f8201601f19168301620004d9565b92818452828287010111620004d45760005b8181106200055d57508260009394955001015290565b858101830151848201840152820162000547565b6001600160a01b031660008181527f54cdd369e4e8a8515e52ca72ec816c2101831ad1f18bf44102ed171459c9b4f8602052604081205490919060ff16620005ee5781805260066020526040822081835260205260408220600160ff198254161790553391600080516020620021fb8339815191528180a4600190565b5090565b6001600160a01b031660008181527f3195c024b2ddd6d9b8f6c836aa52f67fe69376c8903d009b80229b3ce4425f5160205260408120549091907f9f2df0fed2c77648de5860a4cc508cd0818c85b8b8a1ab4ceeef8d981c8956a69060ff16620006905780835260066020526040832082845260205260408320600160ff19825416179055600080516020620021fb833981519152339380a4600190565b505090565b6001600160a01b031660008181527fe09f975e15f8f53f24cbbc282b13c40b84df485fcdb8d3997fa103dc5a4ef84160205260408120549091907f65d7a28e3265b37a6474929f336521b332c1681b933f6cb9f3376673440d862a9060ff16620006905780835260066020526040832082845260205260408320600160ff19825416179055600080516020620021fb833981519152339380a4600190565b6001600160a01b031660008181527ffc2f5a9d8a25527e912ea683c7998ea980e35d4dab4f20b6b4e7d4cbc6c7782060205260408120549091907f90601cb45097851a246a5f8a72fbb27b3ef393b2a92d8fdd7aa24b1be6b2ed3b9060ff16620006905780835260066020526040832082845260205260408320600160ff19825416179055600080516020620021fb833981519152339380a460019056fe608060408181526004918236101561001657600080fd5b600092833560e01c91826301ffc9a71461124257508163021f4bf01461120a57816306fdde0314611130578163095ea7b3146110865781630c371cea14610f7257816318160ddd14610f5357816323b872dd14610f16578163248a9ca314610eeb5781632f2ff15d14610ec1578163313ce56714610ea557816336568abe14610e5f5781633f4ba83a14610df55781633fafa12714610dd657816340c10f1914610d0157816342966c6814610ce3578163454f7edd14610cc4578163518ab2a814610ca55781635c975abb14610c8157816360219c7b14610c625781636069087714610c3b5781636641cc6414610bfd57816367c897fe14610bae5781636850415814610b4b57816370a0823114610b1457816379cc679014610ade5781637b1b1de614610abf5781637b97008d146108675781638456cb591461080c5781638b296693146107ed57816391d14854146107a657816395d89b41146106875781639bc289f11461064f578163a0821be314610622578163a217fddf14610607578163a3f569ae1461058c578163a9059cbb1461055b578163abed7ce91461053c578163b1c2558614610485578163b96990911461045e578163bef97c871461043a578163cb67f948146103da578163d53913931461039f578163d547741f1461035b578163db1c13d814610320578163dd62ed3e146102d7578163e3b591ea14610267575063e63ab1e91461022a57600080fd5b34610263578160031936011261026357602090517f65d7a28e3265b37a6474929f336521b332c1681b933f6cb9f3376673440d862a8152f35b5080fd5b838334610263576020366003190112610263578235906102856113f4565b8160085560025480156102c4578204600b55519081527f813e23bbdb11ae64914d473b2af0f4dbd1566c80ce4031ecdcae9e99deb9cd9190602090a180f35b634e487b7160e01b845260128552602484fd5b505034610263578060031936011261026357806020926102f5611295565b6102fd6112b0565b6001600160a01b0391821683526001865283832091168252845220549051908152f35b505034610263578160031936011261026357602090517f90601cb45097851a246a5f8a72fbb27b3ef393b2a92d8fdd7aa24b1be6b2ed3b8152f35b9190503461039b578060031936011261039b57610397913561039260016103806112b0565b9383875260066020528620015461142e565b6114d4565b5080f35b8280fd5b505034610263578160031936011261026357602090517f9f2df0fed2c77648de5860a4cc508cd0818c85b8b8a1ab4ceeef8d981c8956a68152f35b50503461026357602036600319011261026357816103f6611295565b6103fe6113f4565b6001600160a01b03168082526011602052918120557fcf96a7404357442bbc147c389fc2942cb6eedcaf1aad90bb8eb4b67ce43d4fb28280a280f35b50503461026357816003193601126102635760209060ff600c541690519015158152f35b50503461026357816003193601126102635760209060ff600c5460081c1690519015158152f35b90503461039b578160031936011261039b5761049f611295565b602435916104ab6113f4565b428311156104f957506001600160a01b0316808452601160209081528385208390559251918252917fac87f20a77d28ee8bbb58ec87ea8fa968b3393efae1a368fd50b767c2847391c91a280f35b606490602085519162461bcd60e51b8352820152601b60248201527f4c6f636b2074696d65206d75737420626520696e2066757475726500000000006044820152fd5b505034610263578160031936011261026357602090600f549051908152f35b50503461026357806003193601126102635760209061058561057b611295565b602435903361154b565b5160018152f35b5050346102635780600319360112610263577f2df1cad2a2659e001c3804c872f69655356013e35c18c2e77a5d568078ab788f60206105c9611295565b6105d161130f565b906105da61131e565b6001600160a01b0316808652600d8352848620805460ff191660ff8415151617905593519015158152a280f35b50503461026357816003193601126102635751908152602090f35b50503461026357602036600319011261026357602090610648610643611295565b6119c2565b9051908152f35b5050346102635760203660031901126102635760209181906001600160a01b03610677611295565b1681526011845220549051908152f35b838334610263578160031936011261026357805190828454600181811c9080831692831561079c575b60209384841081146107895783885290811561076d5750600114610718575b505050829003601f01601f191682019267ffffffffffffffff84118385101761070557508291826107019252826112c6565b0390f35b634e487b7160e01b815260418552602490fd5b8787529192508591837f8a35acfbc15ff81a39ae7d344fd709f28e8600b4aa8c65c6b64bfe7fe36bd19b5b83851061075957505050508301018580806106cf565b805488860183015293019284908201610743565b60ff1916878501525050151560051b84010190508580806106cf565b634e487b7160e01b895260228a52602489fd5b91607f16916106b0565b90503461039b578160031936011261039b578160209360ff926107c76112b0565b90358252600686528282206001600160a01b039091168252855220549151911615158152f35b505034610263578160031936011261026357602090600e549051908152f35b50503461026357816003193601126102635760207f62e78cea01bee320cd4e420270b5ea74000d11b0c9f74754ebdbfc544b05a2589161084a611398565b61085261196a565b600160ff19600554161760055551338152a180f35b838334610263576020908160031936011261039b578335907f9b779b17422d0df92223018b32b4d1fa46e071723d6817e2486d003becc55f00926002845414610aaf57600284556108b661196a565b600e548310610a6d57600a546108cc84826118e1565b60095410610a2a57338652601082526108e884848820546118e1565b600f54106109dd5760ff600c5460081c16610995575b600b54908185029185830414851517156109825791670de0b6b3a764000085949261094d600198977f8fafebcaf9d154343dad25669bfa277f4fbacd7ac6b0c4fed522580e040a0f33966118e1565b600a55338952601083528389206109658782546118e1565b90556109718633611904565b835195865204908401523392a25580f35b634e487b7160e01b875260118852602487fd5b338652600d825260ff83872054166108fe57825162461bcd60e51b8152808801839052601060248201526f12d650c81b9bdd08185c1c1c9bdd995960821b6044820152606490fd5b825162461bcd60e51b8152808801839052602160248201527f45786365656473206d617820696e766573746d656e74207065722077616c6c656044820152601d60fa1b6064820152608490fd5b825162461bcd60e51b8152808801839052601b60248201527f4e6f7420656e6f75676820746f6b656e7320617661696c61626c6500000000006044820152606490fd5b8590606492519162461bcd60e51b8352820152601860248201527f42656c6f77206d696e696d756d20696e766573746d656e7400000000000000006044820152fd5b8151633ee5aeb560e01b81528690fd5b505034610263578160031936011261026357602090600b549051908152f35b50503461026357366003190112610b1157610b0e610afa611295565b60243590610b09823383611767565b61183a565b80f35b80fd5b5050346102635760203660031901126102635760209181906001600160a01b03610b3c611295565b16815280845220549051908152f35b90503461039b57602036600319011261039b57359081151580920361039b577fe1965432af4c9923f6ebb98f1721262967cfa6178008742d23041dc8ee74ee8f91602091610b976113f4565b60ff19600c541660ff831617600c5551908152a180f35b50503461026357816003193601126102635760c0906007549060085490600954600a5490600b549260ff600c5416948151968752602087015285015260608401526080830152151560a0820152f35b5050346102635760203660031901126102635760209160ff9082906001600160a01b03610c28611295565b168152600d855220541690519015158152f35b9190503461039b5736600319011261026357610c556113f4565b35600e55602435600f5580f35b5050346102635781600319360112610263576020906009549051908152f35b50503461026357816003193601126102635760209060ff6005541690519015158152f35b505034610263578160031936011261026357602090600a549051908152f35b5050346102635781600319360112610263576020906008549051908152f35b83903461026357602036600319011261026357610b0e90353361183a565b90503461039b578160031936011261039b57610d1b611295565b917f9f2df0fed2c77648de5860a4cc508cd0818c85b8b8a1ab4ceeef8d981c8956a6808552600660205281852033865260205260ff828620541615610dba57506001600160a01b03831615610d775783610b0e60243585611904565b906020606492519162461bcd60e51b8352820152601b60248201527f43616e6e6f74206d696e7420746f207a65726f206164647265737300000000006044820152fd5b60449291519163e2517d3f60e01b835233908301526024820152fd5b5050346102635781600319360112610263576020906007549051908152f35b90503461039b578260031936011261039b57610e0f611398565b6005549060ff821615610e51575060ff1916600555513381527f5db9ee0a495bf2e6ff9c91a7834c1ba4fdd244a5e8aa4e537bd38aeae4b073aa90602090a180f35b8251638dfc202b60e01b8152fd5b838334610263578060031936011261026357610e796112b0565b90336001600160a01b03831603610e9657506103979192356114d4565b5163334bd91960e11b81528390fd5b5050346102635781600319360112610263576020905160128152f35b9190503461039b578060031936011261039b576103979135610ee660016103806112b0565b611454565b90503461039b57602036600319011261039b5781602093600192358152600685522001549051908152f35b50503461026357606036600319011261026357602090610585610f37611295565b610f3f6112b0565b60443591610f4e833383611767565b61154b565b5050346102635781600319360112610263576020906002549051908152f35b9190503461039b578060031936011261039b5781359167ffffffffffffffff918284116110825736602385011215611082578382013592831161108257602493848101908536918660051b01011161107e5792610fcd61130f565b610fd561131e565b80151591875b818110610fe6578880f35b887f2df1cad2a2659e001c3804c872f69655356013e35c18c2e77a5d568078ab788f6001600160a01b038061102461101f86888e611988565b6119ae565b1683526110458689602095600d8752209060ff801983541691151516179055565b61105361101f85878d611988565b16918751878152a2600019811461106c57600101610fdb565b634e487b7160e01b8952601186528789fd5b8580fd5b8480fd5b90503461039b578160031936011261039b576110a0611295565b602435903315611119576001600160a01b031691821561110257508083602095338152600187528181208582528752205582519081527f8c5be1e5ebec7d5bd14f71427d1e84f3dd0314c0f7b2291e5b200ac8c7c3b925843392a35160018152f35b8351634a1406b160e11b8152908101859052602490fd5b835163e602df0560e01b8152808401869052602490fd5b83833461026357816003193601126102635780519082600354600181811c90808316928315611200575b60209384841081146107895783885290811561076d57506001146111aa57505050829003601f01601f191682019267ffffffffffffffff84118385101761070557508291826107019252826112c6565b600387529192508591837fc2575a0e9e593c00f959f8c92f12db2869c3395a3b0502d05e2516446f71f85b5b8385106111ec57505050508301018580806106cf565b8054888601830152930192849082016111d6565b91607f169161115a565b5050346102635760203660031901126102635760209181906001600160a01b03611232611295565b1681526010845220549051908152f35b84913461039b57602036600319011261039b573563ffffffff60e01b811680910361039b5760209250637965db0b60e01b8114908115611284575b5015158152f35b6301ffc9a760e01b1490508361127d565b600435906001600160a01b03821682036112ab57565b600080fd5b602435906001600160a01b03821682036112ab57565b6020808252825181830181905290939260005b8281106112fb57505060409293506000838284010152601f8019910116010190565b8181018601518482016040015285016112d9565b6024359081151582036112ab57565b3360009081527ffc2f5a9d8a25527e912ea683c7998ea980e35d4dab4f20b6b4e7d4cbc6c7782060205260409020547f90601cb45097851a246a5f8a72fbb27b3ef393b2a92d8fdd7aa24b1be6b2ed3b9060ff161561137a5750565b6044906040519063e2517d3f60e01b82523360048301526024820152fd5b3360009081527fe09f975e15f8f53f24cbbc282b13c40b84df485fcdb8d3997fa103dc5a4ef84160205260409020547f65d7a28e3265b37a6474929f336521b332c1681b933f6cb9f3376673440d862a9060ff161561137a5750565b3360009081527f54cdd369e4e8a8515e52ca72ec816c2101831ad1f18bf44102ed171459c9b4f8602052604081205460ff161561137a5750565b80600052600660205260406000203360005260205260ff604060002054161561137a5750565b906000918083526006602052604083209160018060a01b03169182845260205260ff604084205416156000146114cf5780835260066020526040832082845260205260408320600160ff198254161790557f2f8788117e7eff1d82e926ec794901d17c78024a50270940304540a733656f0d339380a4600190565b505090565b906000918083526006602052604083209160018060a01b03169182845260205260ff6040842054166000146114cf578083526006602052604083208284526020526040832060ff1981541690557ff6391f5c32d9c69d2a47ea670b442974b53935d1edc7fd64eb21e047a839171b339380a4600190565b916001600160a01b0380841692831561174e571692831561173557600c5460ff811680156116fd575b156116c05760081c60ff16611665575b6000838152601160205260409182822054421061162d576115a361196a565b8482528160205282822054908482106115fc575091808285602095887fddf252ad1be2c89b69c2b068fc378daa952ba7f163c4a11628f55a4df523b3ef98965282875203828220558781522082815401905551908152a3565b835163391434e360e21b81526001600160a01b03919091166004820152602481019190915260448101849052606490fd5b825162461bcd60e51b8152602060048201526011602482015270151bdad95b9cc8185c99481b1bd8dad959607a1b6044820152606490fd5b83600052600d60205260ff604060002054166115845760405162461bcd60e51b815260206004820152601a60248201527f526563697069656e74204b5943206e6f7420617070726f7665640000000000006044820152606490fd5b60405162461bcd60e51b8152602060048201526015602482015274151c985b9cd9995c9cc81b9bdd08195b98589b1959605a1b6044820152606490fd5b503360009081527ffc2f5a9d8a25527e912ea683c7998ea980e35d4dab4f20b6b4e7d4cbc6c77820602052604090205460ff16611574565b60405163ec442f0560e01b815260006004820152602490fd5b604051634b637e8f60e11b815260006004820152602490fd5b9160018060a01b0380931691600093838552600160205260409384862091831691828752602052848620549260001984106117a6575b50505050505050565b84841061180a575080156117f25781156117da5785526001602052838520908552602052039120553880808080808061179d565b8451634a1406b160e11b815260048101879052602490fd5b845163e602df0560e01b815260048101879052602490fd5b8551637dc7a0d960e11b81526001600160a01b039190911660048201526024810184905260448101859052606490fd5b906001600160a01b03821690811561174e5761185461196a565b600092828452836020526040842054908282106118af5750817fddf252ad1be2c89b69c2b068fc378daa952ba7f163c4a11628f55a4df523b3ef926020928587528684520360408620558060025403600255604051908152a3565b60405163391434e360e21b81526001600160a01b03919091166004820152602481019190915260448101829052606490fd5b919082018092116118ee57565b634e487b7160e01b600052601160045260246000fd5b6001600160a01b0316908115611735577fddf252ad1be2c89b69c2b068fc378daa952ba7f163c4a11628f55a4df523b3ef602060009261194261196a565b61194e816002546118e1565b60025584845283825260408420818154019055604051908152a3565b60ff6005541661197657565b60405163d93c066560e01b8152600490fd5b91908110156119985760051b0190565b634e487b7160e01b600052603260045260246000fd5b356001600160a01b03811681036112ab5790565b6001600160a01b031660009081526011602052604090205442106119ee57600060205260406000205490565b60009056fea2646970667358221220847f1673c62f01b004b15a80657ff469dbfae4c62c4a1d184c9891bce5bcbc1164736f6c634300081400332f8788117e7eff1d82e926ec794901d17c78024a50270940304540a733656f0d",
  "linkReferences": {},
  "deployedLinkReferences": {}
}