{"src/FinCoreRemittance.sol":{"FinCoreRemittance":{"abi":[{"inputs":[{"internalType":"address","name":"_liquidityPool","type":"address"},{"internalType":"uint256","name":"_platformFeeBps","type":"uint256"}],"stateMutability":"nonpayable","type":"constructor"},{"inputs":[],"name":"AccessControlBadConfirmation","type":"error"},{"inputs":[{"internalType":"address","name":"account","type":"address"},{"internalType":"bytes32","name":"neededRole","type":"bytes32"}],"name":"AccessControlUnauthorizedAccount","type":"error"},{"inputs":[],"name":"AlreadyExpired","type":"error"},{"inputs":[],"name":"EnforcedPause","type":"error"},{"inputs":[],"name":"ExpectedPause","type":"error"},{"inputs":[],"name":"InvalidAddress","type":"error"},{"inputs":[],"name":"InvalidAmount","type":"error"},{"inputs":[],"name":"InvalidState","type":"error"},{"inputs":[],"name":"NotExpired","type":"error"},{"inputs":[],"name":"NotSender","type":"error"},{"inputs":[],"name":"ReentrancyGuardReentrantCall","type":"error"},{"inputs":[],"name":"ReferenceAlreadyUsed","type":"error"},{"inputs":[],"name":"RemittanceNotFound","type":"error"},{"inputs":[{"internalType":"address","name":"token","type":"address"}],"name":"SafeERC20FailedOperation","type":"error"},{"inputs":[],"name":"TokenNotSupported","type":"error"},{"anonymous":false,"inputs":[{"indexed":true,"internalType":"address","name":"oldPool","type":"address"},{"indexed":true,"internalType":"address","name":"newPool","type":"address"}],"name":"LiquidityPoolUpdated","type":"event"},{"anonymous":false,"inputs":[{"indexed":false,"internalType":"address","name":"account","type":"address"}],"name":"Paused","type":"event"},{"anonymous":false,"inputs":[{"indexed":false,"internalType":"uint256","name":"oldFee","type":"uint256"},{"indexed":false,"internalType":"uint256","name":"newFee","type":"uint256"}],"name":"PlatformFeeUpdated","type":"event"},{"anonymous":false,"inputs":[{"indexed":true,"internalType":"uint256","name":"remittanceId","type":"uint256"},{"indexed":true,"internalType":"bytes32","name":"referenceId","type":"bytes32"},{"indexed":true,"internalType":"address","name":"sender","type":"address"},{"indexed":false,"internalType":"address","name":"token","type":"address"},{"indexed":false,"internalType":"uint256","name":"amount","type":"uint256"},{"indexed":false,"internalType":"uint256","name":"fee","type":"uint256"},{"indexed":false,"internalType":"uint256","name":"expiresAt","type":"uint256"}],"name":"RemittanceCreated","type":"event"},{"anonymous":false,"inputs":[{"indexed":true,"internalType":"uint256","name":"remittanceId","type":"uint256"},{"indexed":true,"internalType":"bytes32","name":"referenceId","type":"bytes32"},{"indexed":true,"internalType":"address","name":"sender","type":"address"},{"indexed":false,"internalType":"uint256","name":"amount","type":"uint256"}],"name":"RemittanceRefunded","type":"event"},{"anonymous":false,"inputs":[{"indexed":true,"internalType":"uint256","name":"remittanceId","type":"uint256"},{"indexed":true,"internalType":"bytes32","name":"referenceId","type":"bytes32"},{"indexed":true,"internalType":"address","name":"operator","type":"address"},{"indexed":false,"internalType":"uint256","name":"amount","type":"uint256"}],"name":"RemittanceReleased","type":"event"},{"anonymous":false,"inputs":[{"indexed":true,"internalType":"bytes32","name":"role","type":"bytes32"},{"indexed":true,"internalType":"bytes32","name":"previousAdminRole","type":"bytes32"},{"indexed":true,"internalType":"bytes32","name":"newAdminRole","type":"bytes32"}],"name":"RoleAdminChanged","type":"event"},{"anonymous":false,"inputs":[{"indexed":true,"internalType":"bytes32","name":"role","type":"bytes32"},{"indexed":true,"internalType":"address","name":"account","type":"address"},{"indexed":true,"internalType":"address","name":"sender","type":"address"}],"name":"RoleGranted","type":"event"},{"anonymous":false,"inputs":[{"indexed":true,"internalType":"bytes32","name":"role","type":"bytes32"},{"indexed":true,"internalType":"address","name":"account","type":"address"},{"indexed":true,"internalType":"address","name":"sender","type":"address"}],"name":"RoleRevoked","type":"event"},{"anonymous":false,"inputs":[{"indexed":true,"internalType":"address","name":"token","type":"address"}],"name":"TokenAdded","type":"event"},{"anonymous":false,"inputs":[{"indexed":true,"internalType":"address","name":"token","type":"address"}],"name":"TokenRemoved","type":"event"},{"anonymous":false,"inputs":[{"indexed":false,"internalType":"address","name":"account","type":"address"}],"name":"Unpaused","type":"event"},{"inputs":[],"name":"ADMIN_ROLE","outputs":[{"internalType":"bytes32","name":"","type":"bytes32"}],"stateMutability":"view","type":"function"},{"inputs":[],"name":"DEFAULT_ADMIN_ROLE","outputs":[{"internalType":"bytes32","name":"","type":"bytes32"}],"stateMutability":"view","type":"function"},{"inputs":[],"name":"MAX_AMOUNT","outputs":[{"internalType":"uint256","name":"","type":"uint256"}],"stateMutability":"view","type":"function"},{"inputs":[],"name":"MIN_AMOUNT","outputs":[{"internalType":"uint256","name":"","type":"uint256"}],"stateMutability":"view","type":"function"},{"inputs":[],"name":"OPERATOR_ROLE","outputs":[{"internalType":"bytes32","name":"","type":"bytes32"}],"stateMutability":"view","type":"function"},{"inputs":[],"name":"TIMELOCK_DURATION","outputs":[{"internalType":"uint256","name":"","type":"uint256"}],"stateMutability":"view","type":"function"},{"inputs":[{"internalType":"address","name":"token","type":"address"}],"name":"addSupportedToken","outputs":[],"stateMutability":"nonpayable","type":"function"},{"inputs":[{"internalType":"uint256","name":"remittanceId","type":"uint256"}],"name":"canRefund","outputs":[{"internalType":"bool","name":"","type":"bool"}],"stateMutability":"view","type":"function"},{"inputs":[{"internalType":"uint256","name":"remittanceId","type":"uint256"}],"name":"cancelBySender","outputs":[],"stateMutability":"nonpayable","type":"function"},{"inputs":[{"internalType":"uint256","name":"remittanceId","type":"uint256"}],"name":"getRemittance","outputs":[{"internalType":"bytes32","name":"referenceId","type":"bytes32"},{"internalType":"address","name":"sender","type":"address"},{"internalType":"address","name":"token","type":"address"},{"internalType":"uint256","name":"amount","type":"uint256"},{"internalType":"uint256","name":"platformFee","type":"uint256"},{"internalType":"uint256","name":"createdAt","type":"uint256"},{"internalType":"uint256","name":"expiresAt","type":"uint256"},{"internalType":"enum FinCoreRemittance.RemittanceState","name":"state","type":"uint8"}],"stateMutability":"view","type":"function"},{"inputs":[{"internalType":"bytes32","name":"referenceId","type":"bytes32"}],"name":"getRemittanceByReference","outputs":[{"internalType":"uint256","name":"","type":"uint256"}],"stateMutability":"view","type":"function"},{"inputs":[{"internalType":"bytes32","name":"role","type":"bytes32"}],"name":"getRoleAdmin","outputs":[{"internalType":"bytes32","name":"","type":"bytes32"}],"stateMutability":"view","type":"function"},{"inputs":[],"name":"getTotals","outputs":[{"internalType":"uint256","name":"locked","type":"uint256"},{"internalType":"uint256","name":"released","type":"uint256"},{"internalType":"uint256","name":"refunded","type":"uint256"},{"internalType":"uint256","name":"fees","type":"uint256"}],"stateMutability":"view","type":"function"},{"inputs":[{"internalType":"bytes32","name":"role","type":"bytes32"},{"internalType":"address","name":"account","type":"address"}],"name":"grantRole","outputs":[],"stateMutability":"nonpayable","type":"function"},{"inputs":[{"internalType":"bytes32","name":"role","type":"bytes32"},{"internalType":"address","name":"account","type":"address"}],"name":"hasRole","outputs":[{"internalType":"bool","name":"","type":"bool"}],"stateMutability":"view","type":"function"},{"inputs":[],"name":"liquidityPool","outputs":[{"internalType":"address","name":"","type":"address"}],"stateMutability":"view","type":"function"},{"inputs":[{"internalType":"bytes32","name":"referenceId","type":"bytes32"},{"internalType":"address","name":"token","type":"address"},{"internalType":"uint256","name":"amount","type":"uint256"}],"name":"lockFunds","outputs":[{"internalType":"uint256","name":"remittanceId","type":"uint256"}],"stateMutability":"nonpayable","type":"function"},{"inputs":[],"name":"nextRemittanceId","outputs":[{"internalType":"uint256","name":"","type":"uint256"}],"stateMutability":"view","type":"function"},{"inputs":[],"name":"pause","outputs":[],"stateMutability":"nonpayable","type":"function"},{"inputs":[],"name":"paused","outputs":[{"internalType":"bool","name":"","type":"bool"}],"stateMutability":"view","type":"function"},{"inputs":[],"name":"platformFeeBps","outputs":[{"internalType":"uint256","name":"","type":"uint256"}],"stateMutability":"view","type":"function"},{"inputs":[{"internalType":"bytes32","name":"","type":"bytes32"}],"name":"referenceToId","outputs":[{"internalType":"uint256","name":"","type":"uint256"}],"stateMutability":"view","type":"function"},{"inputs":[{"internalType":"uint256","name":"remittanceId","type":"uint256"}],"name":"refund","outputs":[],"stateMutability":"nonpayable","type":"function"},{"inputs":[{"internalType":"uint256","name":"remittanceId","type":"uint256"}],"name":"releaseFunds","outputs":[],"stateMutability":"nonpayable","type":"function"},{"inputs":[{"internalType":"uint256","name":"","type":"uint256"}],"name":"remittances","outputs":[{"internalType":"bytes32","name":"referenceId","type":"bytes32"},{"internalType":"address","name":"sender","type":"address"},{"internalType":"address","name":"token","type":"address"},{"internalType":"uint256","name":"amount","type":"uint256"},{"internalType":"uint256","name":"platformFee","type":"uint256"},{"internalType":"uint256","name":"createdAt","type":"uint256"},{"internalType":"uint256","name":"expiresAt","type":"uint256"},{"internalType":"enum FinCoreRemittance.RemittanceState","name":"state","type":"uint8"}],"stateMutability":"view","type":"function"},{"inputs":[{"internalType":"address","name":"token","type":"address"}],"name":"removeSupportedToken","outputs":[],"stateMutability":"nonpayable","type":"function"},{"inputs":[{"internalType":"bytes32","name":"role","type":"bytes32"},{"internalType":"address","name":"callerConfirmation","type":"address"}],"name":"renounceRole","outputs":[],"stateMutability":"nonpayable","type":"function"},{"inputs":[{"internalType":"address","name":"token","type":"address"},{"internalType":"address","name":"to","type":"address"},{"internalType":"uint256","name":"amount","type":"uint256"}],"name":"rescueTokens","outputs":[],"stateMutability":"nonpayable","type":"function"},{"inputs":[{"internalType":"bytes32","name":"role","type":"bytes32"},{"internalType":"address","name":"account","type":"address"}],"name":"revokeRole","outputs":[],"stateMutability":"nonpayable","type":"function"},{"inputs":[{"internalType":"address","name":"newPool","type":"address"}],"name":"setLiquidityPool","outputs":[],"stateMutability":"nonpayable","type":"function"},{"inputs":[{"internalType":"uint256","name":"newFeeBps","type":"uint256"}],"name":"setPlatformFee","outputs":[],"stateMutability":"nonpayable","type":"function"},{"inputs":[{"internalType":"address","name":"","type":"address"}],"name":"supportedTokens","outputs":[{"internalType":"bool","name":"","type":"bool"}],"stateMutability":"view","type":"function"},{"inputs":[{"internalType":"bytes4","name":"interfaceId","type":"bytes4"}],"name":"supportsInterface","outputs":[{"internalType":"bool","name":"","type":"bool"}],"stateMutability":"view","type":"function"},{"inputs":[],"name":"totalFeesCollected","outputs":[{"internalType":"uint256","name":"","type":"uint256"}],"stateMutability":"view","type":"function"},{"inputs":[],"name":"totalLocked","outputs":[{"internalType":"uint256","name":"","type":"uint256"}],"stateMutability":"view","type":"function"},{"inputs":[],"name":"totalRefunded","outputs":[{"internalType":"uint256","name":"","type":"uint256"}],"stateMutability":"view","type":"function"},{"inputs":[],"name":"totalReleased","outputs":[{"internalType":"uint256","name":"","type":"uint256"}],"stateMutability":"view","type":"function"},{"inputs":[],"name":"unpause","outputs":[],"stateMutability":"nonpayable","type":"function"}],"evm":{"bytecode":{"linkReferences":{},"object":"608034620000e457601f620017a638819003918201601f19168301916001600160401b03831184841017620000e9578084926040948552833981010312620000e45780516001600160a01b0381169190829003620000e457602001519060017f9b779b17422d0df92223018b32b4d1fa46e071723d6817e2486d003becc55f00558015620000d2576200009233620000ff565b506200009e336200017f565b50620000aa3362000221565b50600680546001600160a01b0319169190911790556007556040516114c79081620002bf8239f35b60405163e6c4247b60e01b8152600490fd5b600080fd5b634e487b7160e01b600052604160045260246000fd5b6001600160a01b031660008181527fad3228b676f7d3cd4284a5443f17f1962b36e491b30a40b2405849e597ba5fb5602052604081205490919060ff166200017b57818052816020526040822081835260205260408220600160ff198254161790553391600080516020620017868339815191528180a4600190565b5090565b6001600160a01b031660008181527f7d7ffb7a348e1c6a02869081a26547b49160dd3df72d1d75a570eb9b698292ec60205260408120549091907fa49807205ce4d355092ef5a8a18f56e8913cf4a201fbe287825b095693c217759060ff166200021c57808352826020526040832082845260205260408320600160ff1982541617905560008051602062001786833981519152339380a4600190565b505090565b6001600160a01b031660008181527fee57cd81e84075558e8fcc182a1f4393f91fc97f963a136e66b7f949a62f319f60205260408120549091907f97667070c54ef182b0f5858b034beac1b6f3089aa2d3188bb1e8929f4fa9b9299060ff166200021c57808352826020526040832082845260205260408320600160ff1982541617905560008051602062001786833981519152339380a460019056fe6040608081526004908136101561001557600080fd5b600090813560e01c806301877020146110c857806301ffc9a71461107357806302288cda14610d5057806312e8e2c314610cbd5780631a42233814610c9f57806322dcd13e14610c81578063248a9ca314610c57578063278ecde114610b6d5780632f2ff15d14610b4357806336568abe14610afe5780633f4ba83a14610a945780634623c81e14610a775780634d68282f1461090557806356891412146108e75780635c975abb146108c457806360c6d8ae146108a6578063665a11ca1461087e57806368c4ac26146108415780636a06ad721461066b5780636d69fcaf146107c257806373e66f431461059f57806375b238fc1461078857806376319190146107235780638456cb59146106ca57806384e10a901461069257806390087a041461066b57806391d1485414610625578063a217fddf1461060b578063b4ea0d5f1461059f578063cea9d26f14610455578063d40dc87014610436578063d547741f146103f7578063d9082962146103d9578063ddbcb5fa146103bc578063e12edb1314610286578063e33b7de314610268578063f5b541a61461022e5763fc8cc92b146101c357600080fd5b3461022a57602036600319011261022a578235825260026020528082209160ff6007840154169084821015610217575060209350159182610208575b50519015158152f35b600601544210159150386101ff565b634e487b7160e01b815260218552602490fd5b5080fd5b503461022a578160031936011261022a57602090517f97667070c54ef182b0f5858b034beac1b6f3089aa2d3188bb1e8929f4fa9b9298152f35b503461022a578160031936011261022a576020906009549051908152f35b5082346103b85760203660031901126103b85780356102a3611441565b6102ab611423565b808452600260205282842092600184019260018060a01b03908185541680156103a957600787019182549160ff831682811015610396576103875733036103795750917f91740d42dcd72a43e1afc3dba7bb72cb61e750b9d8cc9804c066afeb35cdae009391600360209460ff1916179055600387019661032f8854600854611372565b60085561033f8854600a54611395565b600a5561035882600283015416838954168a54916113a2565b5495541695549051908152a460016000805160206114728339815191525580f35b845163b2c3aa6b60e01b8152fd5b50845163baf3f0f760e01b8152fd5b634e487b7160e01b8b526021835260248bfd5b508251630638c3db60e41b8152fd5b8280fd5b503461022a578160031936011261022a5760209051620f42408152f35b503461022a578160031936011261022a57602090600a549051908152f35b508290346103b857806003193601126103b857610432913561042d600161041c61116a565b938387528660205286200154611259565b6112fd565b5080f35b503461022a578160031936011261022a576020905164174876e8008152f35b50913461022a57606036600319011261022a5761047061114f565b9061047961116a565b90604435926104866111df565b6001600160a01b03908382161561058f57169085516370a0823160e01b81523082820152602081602481865afa8015610585578690610526575b6104ce915060085490611372565b84116104e357506104e09394506113a2565b80f35b606490602087519162461bcd60e51b8352820152601c60248201527f43616e6e6f74207769746864726177206c6f636b65642066756e6473000000006044820152fd5b5060203d811161057e575b601f8101601f1916820167ffffffffffffffff81118382101761056b5760209183918a5281010312610567576104ce90516104c0565b8580fd5b634e487b7160e01b885260418452602488fd5b503d610531565b87513d88823e3d90fd5b865163e6c4247b60e01b81528390fd5b509034610608576020366003190112610608578161060491843581526002602052209182549260018060a01b03948560018301541695600283015416906003830154908301549060058401549260ff6007600687015496015416955198899889611180565b0390f35b80fd5b503461022a578160031936011261022a5751908152602090f35b5082346103b857816003193601126103b8578160209360ff9261064661116a565b903582528186528282206001600160a01b039091168252855220549151911615158152f35b5082346103b85760203660031901126103b857602092818392358252845220549051908152f35b503461022a578160031936011261022a576080906008549060095490600a5490600b5492815194855260208501528301526060820152f35b503461022a578160031936011261022a5760207f62e78cea01bee320cd4e420270b5ea74000d11b0c9f74754ebdbfc544b05a258916107076111df565b61070f611423565b600160ff198154161760015551338152a180f35b503461022a57602036600319011261022a5761073d61114f565b6107456111df565b6001600160a01b03168083526005602052908220805460ff191690557f4c910b69fe65a61f7531b9c5042b2329ca7179c77290aa7e2eb3afa3c8511fd38280a280f35b503461022a578160031936011261022a57602090517fa49807205ce4d355092ef5a8a18f56e8913cf4a201fbe287825b095693c217758152f35b508290346103b85760203660031901126103b8576107de61114f565b6107e66111df565b6001600160a01b0316918215610833575081835260056020528220805460ff191660011790557f784c8f4dbf0ffedd6e72c76501c545a70f8b203b30a26ce542bf92ba87c248a48280a280f35b905163e6c4247b60e01b8152fd5b503461022a57602036600319011261022a5760209160ff9082906001600160a01b0361086b61114f565b1681526005855220541690519015158152f35b503461022a578160031936011261022a5760065490516001600160a01b039091168152602090f35b503461022a578160031936011261022a57602090600b549051908152f35b503461022a578160031936011261022a5760209060ff6001541690519015158152f35b503461022a578160031936011261022a576020906008549051908152f35b5082346103b85760203660031901126103b8578035610922611441565b61092a611423565b7f97667070c54ef182b0f5858b034beac1b6f3089aa2d3188bb1e8929f4fa9b9298085528460205283852033865260205260ff848620541615610a5a5750808452600260205282842060018101546001600160a01b039390841615610a4c57600782019081549060ff821681811015610a3957610a2b575060019060ff19161790556109e860038201936109c18554600854611372565b6008556109d18554600954611395565b6009558060028401541690600654168554916113a2565b54915492519283527f14502c27e43424f994441985819da7251c70de7c2d51c3606c2b2332c288403260203394a460016000805160206114728339815191525580f35b865163baf3f0f760e01b8152fd5b634e487b7160e01b895260218252602489fd5b8451630638c3db60e41b8152fd5b9050604492519163e2517d3f60e01b835233908301526024820152fd5b503461022a578160031936011261022a57602090516202a3008152f35b5082346103b857826003193601126103b857610aae6111df565b6001549060ff821615610af0575060ff1916600155513381527f5db9ee0a495bf2e6ff9c91a7834c1ba4fdd244a5e8aa4e537bd38aeae4b073aa90602090a180f35b8251638dfc202b60e01b8152fd5b503461022a578060031936011261022a57610b1761116a565b90336001600160a01b03831603610b3457506104329192356112fd565b5163334bd91960e11b81528390fd5b508290346103b857806003193601126103b8576104329135610b68600161041c61116a565b61127f565b5082346103b85760203660031901126103b8578035610b8a611441565b610b92611423565b808452600260205282842092600184019260018060a01b03908185541615610c4957600786019081549060ff821681811015610c3657610c285760068801544210610c1a5750917f91740d42dcd72a43e1afc3dba7bb72cb61e750b9d8cc9804c066afeb35cdae009391600260209460ff1916179055600387019661032f8854600854611372565b845163d0404f8560e01b8152fd5b845163baf3f0f760e01b8152fd5b634e487b7160e01b8a526021825260248afd5b8251630638c3db60e41b8152fd5b5082346103b85760203660031901126103b857816020936001923581528085522001549051908152f35b503461022a578160031936011261022a576020906007549051908152f35b503461022a578160031936011261022a576020906003549051908152f35b5082346103b85760203660031901126103b857803590610cdb6111df565b6101f48211610d1e5750907fd347e206f25a89b917fc9482f1a2d294d749baa4dc9bde7fb495ee11fe49164391600754908060075582519182526020820152a180f35b606490602084519162461bcd60e51b8352820152600c60248201526b08ccaca40e8dede40d0d2ced60a31b6044820152fd5b508290346103b85760603660031901126103b8578135610d6e61116a565b9060443594610d7b611441565b610d83611423565b620f424086108015611065575b6110555760018060a01b03809316928382526020966005885260ff86842054161561104557838352868852858320546110365760075480820290828204148215171561102357612710900491610de68383611372565b9160035460001981146110105760010198896003556202a300420195864211610ffe578951610100810181811067ffffffffffffffff821117610feb578c91898f8a8f8f8f918d9260079882528752848701903382528088019283526060880193845260808801948552600260a089019642885260c08a0198895260e08a019b8d8d528d52528a20965187558c60018801915116906bffffffffffffffffffffffff60a01b91828254161790558c6002880192511690825416179055516003850155518784015551600583015551600682015501905183811015610fd85760ff80198354169116179055878152818c528a8a822055610ee785600854611395565b6008558951926323b872dd60e01b8252338352306024526044528b81606481808d5af1906001815114821615610fb7575b838b5260605215610fa35750508280610f7f575b5050855194855287850152848401526060830152837ffbe3be2ed61062b120c6ac817172274d21f1f586d4d125c4d7111a1eed2d3cd760803394a460016000805160206114728339815191525551908152f35b610f8d9160065416876113a2565b610f9982600b54611395565b600b558882610f2c565b635274afe760e01b82528101879052602490fd5b906001811516610fcf57893b15153d15161690610f18565b833d83823e3d90fd5b634e487b7160e01b835260218452602483fd5b634e487b7160e01b835260418452602483fd5b6011602492634e487b7160e01b835252fd5b634e487b7160e01b865260118a52602486fd5b634e487b7160e01b845260118852602484fd5b8551624c4af360e01b81528790fd5b8551633dd1b30560e01b81528790fd5b5050505163162908e360e11b8152fd5b5064174876e8008611610d90565b5082346103b85760203660031901126103b857359063ffffffff60e01b82168092036103b85760209250637965db0b60e01b82149182156110b75750519015158152f35b6301ffc9a760e01b149150836101ff565b5082346103b85760203660031901126103b8576110e361114f565b906110ec6111df565b6001600160a01b03918216928315611142575050600654826bffffffffffffffffffffffff60a01b821617600655167fa4a29e0283fd61d880802985b3502e86002e8c3119dc94a034dcf1b28a513e9d8380a380f35b5163e6c4247b60e01b8152fd5b600435906001600160a01b038216820361116557565b600080fd5b602435906001600160a01b038216820361116557565b959391909897969492610100870199875260018060a01b0380921660208801521660408601526060850152608084015260a083015260c082015260048210156111c95760e00152565b634e487b7160e01b600052602160045260246000fd5b3360009081527f7d7ffb7a348e1c6a02869081a26547b49160dd3df72d1d75a570eb9b698292ec60205260409020547fa49807205ce4d355092ef5a8a18f56e8913cf4a201fbe287825b095693c217759060ff161561123b5750565b6044906040519063e2517d3f60e01b82523360048301526024820152fd5b80600052600060205260406000203360005260205260ff604060002054161561123b5750565b9060009180835282602052604083209160018060a01b03169182845260205260ff604084205416156000146112f857808352826020526040832082845260205260408320600160ff198254161790557f2f8788117e7eff1d82e926ec794901d17c78024a50270940304540a733656f0d339380a4600190565b505090565b9060009180835282602052604083209160018060a01b03169182845260205260ff6040842054166000146112f85780835282602052604083208284526020526040832060ff1981541690557ff6391f5c32d9c69d2a47ea670b442974b53935d1edc7fd64eb21e047a839171b339380a4600190565b9190820391821161137f57565b634e487b7160e01b600052601160045260246000fd5b9190820180921161137f57565b60405163a9059cbb60e01b60009081526001600160a01b039384166004526024949094529260209060448180855af1600160005114811615611403575b83604052156113ed57505050565b635274afe760e01b835216600482015260249150fd5b600181151661141957813b15153d1516166113df565b833d6000823e3d90fd5b60ff6001541661142f57565b60405163d93c066560e01b8152600490fd5b600080516020611472833981519152600281541461145f5760029055565b604051633ee5aeb560e01b8152600490fdfe9b779b17422d0df92223018b32b4d1fa46e071723d6817e2486d003becc55f00a26469706673582212209c04159ba2af115d7807d258b27835cb332f1a93bbbb2d55a47e8a6893ccb90f64736f6c634300081400332f8788117e7eff1d82e926ec794901d17c78024a50270940304540a733656f0d","opcodes":"PUSH1 0x80 CALLVALUE PUSH3 0xE4 JUMPI PUSH1 0x1F PUSH3 0x17A6 CODESIZE DUP2 SWAP1 SUB SWAP2 DUP3 ADD PUSH1 0x1F NOT AND DUP4 ADD SWAP2 PUSH1 0x1 PUSH1 0x1 PUSH1 0x40 SHL SUB DUP4 GT DUP5 DUP5 LT OR PUSH3 0xE9 JUMPI DUP1 DUP5 SWAP3 PUSH1 0x40 SWAP5 DUP6 MSTORE DUP4 CODECOPY DUP2 ADD SUB SLT PUSH3 0xE4 JUMPI DUP1 MLOAD PUSH1 0x1 PUSH1 0x1 PUSH1 0xA0 SHL SUB DUP2 AND SWAP2 SWAP1 DUP3 SWAP1 SUB PUSH3 0xE4 JUMPI PUSH1 0x20 ADD MLOAD SWAP1 PUSH1 0x1 PUSH32 0x9B779B17422D0DF92223018B32B4D1FA46E071723D6817E2486D003BECC55F00 SSTORE DUP1 ISZERO PUSH3 0xD2 JUMPI PUSH3 0x92 CALLER PUSH3 0xFF JUMP JUMPDEST POP PUSH3 0x9E CALLER PUSH3 0x17F JUMP JUMPDEST POP PUSH3 0xAA CALLER PUSH3 0x221 JUMP JUMPDEST POP PUSH1 0x6 DUP1 SLOAD PUSH1 0x1 PUSH1 0x1 PUSH1 0xA0 SHL SUB NOT AND SWAP2 SWAP1 SWAP2 OR SWAP1 SSTORE PUSH1 0x7 SSTORE PUSH1 0x40 MLOAD PUSH2 0x14C7 SWAP1 DUP2 PUSH3 0x2BF DUP3 CODECOPY RETURN JUMPDEST PUSH1 0x40 MLOAD PUSH4 0xE6C4247B PUSH1 0xE0 SHL DUP2 MSTORE PUSH1 0x4 SWAP1 REVERT JUMPDEST PUSH1 0x0 DUP1 REVERT JUMPDEST PUSH4 0x4E487B71 PUSH1 0xE0 SHL PUSH1 0x0 MSTORE PUSH1 0x41 PUSH1 0x4 MSTORE PUSH1 0x24 PUSH1 0x0 REVERT JUMPDEST PUSH1 0x1 PUSH1 0x1 PUSH1 0xA0 SHL SUB AND PUSH1 0x0 DUP2 DUP2 MSTORE PUSH32 0xAD3228B676F7D3CD4284A5443F17F1962B36E491B30A40B2405849E597BA5FB5 PUSH1 0x20 MSTORE PUSH1 0x40 DUP2 KECCAK256 SLOAD SWAP1 SWAP2 SWAP1 PUSH1 0xFF AND PUSH3 0x17B JUMPI DUP2 DUP1 MSTORE DUP2 PUSH1 0x20 MSTORE PUSH1 0x40 DUP3 KECCAK256 DUP2 DUP4 MSTORE PUSH1 0x20 MSTORE PUSH1 0x40 DUP3 KECCAK256 PUSH1 0x1 PUSH1 0xFF NOT DUP3 SLOAD AND OR SWAP1 SSTORE CALLER SWAP2 PUSH1 0x0 DUP1 MLOAD PUSH1 0x20 PUSH3 0x1786 DUP4 CODECOPY DUP2 MLOAD SWAP2 MSTORE DUP2 DUP1 LOG4 PUSH1 0x1 SWAP1 JUMP JUMPDEST POP SWAP1 JUMP JUMPDEST PUSH1 0x1 PUSH1 0x1 PUSH1 0xA0 SHL SUB AND PUSH1 0x0 DUP2 DUP2 MSTORE PUSH32 0x7D7FFB7A348E1C6A02869081A26547B49160DD3DF72D1D75A570EB9B698292EC PUSH1 0x20 MSTORE PUSH1 0x40 DUP2 KECCAK256 SLOAD SWAP1 SWAP2 SWAP1 PUSH32 0xA49807205CE4D355092EF5A8A18F56E8913CF4A201FBE287825B095693C21775 SWAP1 PUSH1 0xFF AND PUSH3 0x21C JUMPI DUP1 DUP4 MSTORE DUP3 PUSH1 0x20 MSTORE PUSH1 0x40 DUP4 KECCAK256 DUP3 DUP5 MSTORE PUSH1 0x20 MSTORE PUSH1 0x40 DUP4 KECCAK256 PUSH1 0x1 PUSH1 0xFF NOT DUP3 SLOAD AND OR SWAP1 SSTORE PUSH1 0x0 DUP1 MLOAD PUSH1 0x20 PUSH3 0x1786 DUP4 CODECOPY DUP2 MLOAD SWAP2 MSTORE CALLER SWAP4 DUP1 LOG4 PUSH1 0x1 SWAP1 JUMP JUMPDEST POP POP SWAP1 JUMP JUMPDEST PUSH1 0x1 PUSH1 0x1 PUSH1 0xA0 SHL SUB AND PUSH1 0x0 DUP2 DUP2 MSTORE PUSH32 0xEE57CD81E84075558E8FCC182A1F4393F91FC97F963A136E66B7F949A62F319F PUSH1 0x20 MSTORE PUSH1 0x40 DUP2 KECCAK256 SLOAD SWAP1 SWAP2 SWAP1 PUSH32 0x97667070C54EF182B0F5858B034BEAC1B6F3089AA2D3188BB1E8929F4FA9B929 SWAP1 PUSH1 0xFF AND PUSH3 0x21C JUMPI DUP1 DUP4 MSTORE DUP3 PUSH1 0x20 MSTORE PUSH1 0x40 DUP4 KECCAK256 DUP3 DUP5 MSTORE PUSH1 0x20 MSTORE PUSH1 0x40 DUP4 KECCAK256 PUSH1 0x1 PUSH1 0xFF NOT DUP3 SLOAD AND OR SWAP1 SSTORE PUSH1 0x0 DUP1 MLOAD PUSH1 0x20 PUSH3 0x1786 DUP4 CODECOPY DUP2 MLOAD SWAP2 MSTORE CALLER SWAP4 DUP1 LOG4 PUSH1 0x1 SWAP1 JUMP INVALID PUSH1 0x40 PUSH1 0x80 DUP2 MSTORE PUSH1 0x4 SWAP1 DUP2 CALLDATASIZE LT ISZERO PUSH2 0x15 JUMPI PUSH1 0x0 DUP1 REVERT JUMPDEST PUSH1 0x0 SWAP1 DUP2 CALLDATALOAD PUSH1 0xE0 SHR DUP1 PUSH4 0x1877020 EQ PUSH2 0x10C8 JUMPI DUP1 PUSH4 0x1FFC9A7 EQ PUSH2 0x1073 JUMPI DUP1 PUSH4 0x2288CDA EQ PUSH2 0xD50 JUMPI DUP1 PUSH4 0x12E8E2C3 EQ PUSH2 0xCBD JUMPI DUP1 PUSH4 0x1A422338 EQ PUSH2 0xC9F JUMPI DUP1 PUSH4 0x22DCD13E EQ PUSH2 0xC81 JUMPI DUP1 PUSH4 0x248A9CA3 EQ PUSH2 0xC57 JUMPI DUP1 PUSH4 0x278ECDE1 EQ PUSH2 0xB6D JUMPI DUP1 PUSH4 0x2F2FF15D EQ PUSH2 0xB43 JUMPI DUP1 PUSH4 0x36568ABE EQ PUSH2 0xAFE JUMPI DUP1 PUSH4 0x3F4BA83A EQ PUSH2 0xA94 JUMPI DUP1 PUSH4 0x4623C81E EQ PUSH2 0xA77 JUMPI DUP1 PUSH4 0x4D68282F EQ PUSH2 0x905 JUMPI DUP1 PUSH4 0x56891412 EQ PUSH2 0x8E7 JUMPI DUP1 PUSH4 0x5C975ABB EQ PUSH2 0x8C4 JUMPI DUP1 PUSH4 0x60C6D8AE EQ PUSH2 0x8A6 JUMPI DUP1 PUSH4 0x665A11CA EQ PUSH2 0x87E JUMPI DUP1 PUSH4 0x68C4AC26 EQ PUSH2 0x841 JUMPI DUP1 PUSH4 0x6A06AD72 EQ PUSH2 0x66B JUMPI DUP1 PUSH4 0x6D69FCAF EQ PUSH2 0x7C2 JUMPI DUP1 PUSH4 0x73E66F43 EQ PUSH2 0x59F JUMPI DUP1 PUSH4 0x75B238FC EQ PUSH2 0x788 JUMPI DUP1 PUSH4 0x76319190 EQ PUSH2 0x723 JUMPI DUP1 PUSH4 0x8456CB59 EQ PUSH2 0x6CA JUMPI DUP1 PUSH4 0x84E10A90 EQ PUSH2 0x692 JUMPI DUP1 PUSH4 0x90087A04 EQ PUSH2 0x66B JUMPI DUP1 PUSH4 0x91D14854 EQ PUSH2 0x625 JUMPI DUP1 PUSH4 0xA217FDDF EQ PUSH2 0x60B JUMPI DUP1 PUSH4 0xB4EA0D5F EQ PUSH2 0x59F JUMPI DUP1 PUSH4 0xCEA9D26F EQ PUSH2 0x455 JUMPI DUP1 PUSH4 0xD40DC870 EQ PUSH2 0x436 JUMPI DUP1 PUSH4 0xD547741F EQ PUSH2 0x3F7 JUMPI DUP1 PUSH4 0xD9082962 EQ PUSH2 0x3D9 JUMPI DUP1 PUSH4 0xDDBCB5FA EQ PUSH2 0x3BC JUMPI DUP1 PUSH4 0xE12EDB13 EQ PUSH2 0x286 JUMPI DUP1 PUSH4 0xE33B7DE3 EQ PUSH2 0x268 JUMPI DUP1 PUSH4 0xF5B541A6 EQ PUSH2 0x22E JUMPI PUSH4 0xFC8CC92B EQ PUSH2 0x1C3 JUMPI PUSH1 0x0 DUP1 REVERT JUMPDEST CALLVALUE PUSH2 0x22A JUMPI PUSH1 0x20 CALLDATASIZE PUSH1 0x3 NOT ADD SLT PUSH2 0x22A JUMPI DUP3 CALLDATALOAD DUP3 MSTORE PUSH1 0x2 PUSH1 0x20 MSTORE DUP1 DUP3 KECCAK256 SWAP2 PUSH1 0xFF PUSH1 0x7 DUP5 ADD SLOAD AND SWAP1 DUP5 DUP3 LT ISZERO PUSH2 0x217 JUMPI POP PUSH1 0x20 SWAP4 POP ISZERO SWAP2 DUP3 PUSH2 0x208 JUMPI JUMPDEST POP MLOAD SWAP1 ISZERO ISZERO DUP2 MSTORE RETURN JUMPDEST PUSH1 0x6 ADD SLOAD TIMESTAMP LT ISZERO SWAP2 POP CODESIZE PUSH2 0x1FF JUMP JUMPDEST PUSH4 0x4E487B71 PUSH1 0xE0 SHL DUP2 MSTORE PUSH1 0x21 DUP6 MSTORE PUSH1 0x24 SWAP1 REVERT JUMPDEST POP DUP1 REVERT JUMPDEST POP CALLVALUE PUSH2 0x22A JUMPI DUP2 PUSH1 0x3 NOT CALLDATASIZE ADD SLT PUSH2 0x22A JUMPI PUSH1 0x20 SWAP1 MLOAD PUSH32 0x97667070C54EF182B0F5858B034BEAC1B6F3089AA2D3188BB1E8929F4FA9B929 DUP2 MSTORE RETURN JUMPDEST POP CALLVALUE PUSH2 0x22A JUMPI DUP2 PUSH1 0x3 NOT CALLDATASIZE ADD SLT PUSH2 0x22A JUMPI PUSH1 0x20 SWAP1 PUSH1 0x9 SLOAD SWAP1 MLOAD SWAP1 DUP2 MSTORE RETURN JUMPDEST POP DUP3 CALLVALUE PUSH2 0x3B8 JUMPI PUSH1 0x20 CALLDATASIZE PUSH1 0x3 NOT ADD SLT PUSH2 0x3B8 JUMPI DUP1 CALLDATALOAD PUSH2 0x2A3 PUSH2 0x1441 JUMP JUMPDEST PUSH2 0x2AB PUSH2 0x1423 JUMP JUMPDEST DUP1 DUP5 MSTORE PUSH1 0x2 PUSH1 0x20 MSTORE DUP3 DUP5 KECCAK256 SWAP3 PUSH1 0x1 DUP5 ADD SWAP3 PUSH1 0x1 DUP1 PUSH1 0xA0 SHL SUB SWAP1 DUP2 DUP6 SLOAD AND DUP1 ISZERO PUSH2 0x3A9 JUMPI PUSH1 0x7 DUP8 ADD SWAP2 DUP3 SLOAD SWAP2 PUSH1 0xFF DUP4 AND DUP3 DUP2 LT ISZERO PUSH2 0x396 JUMPI PUSH2 0x387 JUMPI CALLER SUB PUSH2 0x379 JUMPI POP SWAP2 PUSH32 0x91740D42DCD72A43E1AFC3DBA7BB72CB61E750B9D8CC9804C066AFEB35CDAE00 SWAP4 SWAP2 PUSH1 0x3 PUSH1 0x20 SWAP5 PUSH1 0xFF NOT AND OR SWAP1 SSTORE PUSH1 0x3 DUP8 ADD SWAP7 PUSH2 0x32F DUP9 SLOAD PUSH1 0x8 SLOAD PUSH2 0x1372 JUMP JUMPDEST PUSH1 0x8 SSTORE PUSH2 0x33F DUP9 SLOAD PUSH1 0xA SLOAD PUSH2 0x1395 JUMP JUMPDEST PUSH1 0xA SSTORE PUSH2 0x358 DUP3 PUSH1 0x2 DUP4 ADD SLOAD AND DUP4 DUP10 SLOAD AND DUP11 SLOAD SWAP2 PUSH2 0x13A2 JUMP JUMPDEST SLOAD SWAP6 SLOAD AND SWAP6 SLOAD SWAP1 MLOAD SWAP1 DUP2 MSTORE LOG4 PUSH1 0x1 PUSH1 0x0 DUP1 MLOAD PUSH1 0x20 PUSH2 0x1472 DUP4 CODECOPY DUP2 MLOAD SWAP2 MSTORE SSTORE DUP1 RETURN JUMPDEST DUP5 MLOAD PUSH4 0xB2C3AA6B PUSH1 0xE0 SHL DUP2 MSTORE REVERT JUMPDEST POP DUP5 MLOAD PUSH4 0xBAF3F0F7 PUSH1 0xE0 SHL DUP2 MSTORE REVERT JUMPDEST PUSH4 0x4E487B71 PUSH1 0xE0 SHL DUP12 MSTORE PUSH1 0x21 DUP4 MSTORE PUSH1 0x24 DUP12 REVERT JUMPDEST POP DUP3 MLOAD PUSH4 0x638C3DB PUSH1 0xE4 SHL DUP2 MSTORE REVERT JUMPDEST DUP3 DUP1 REVERT JUMPDEST POP CALLVALUE PUSH2 0x22A JUMPI DUP2 PUSH1 0x3 NOT CALLDATASIZE ADD SLT PUSH2 0x22A JUMPI PUSH1 0x20 SWAP1 MLOAD PUSH3 0xF4240 DUP2 MSTORE RETURN JUMPDEST POP CALLVALUE PUSH2 0x22A JUMPI DUP2 PUSH1 0x3 NOT CALLDATASIZE ADD SLT PUSH2 0x22A JUMPI PUSH1 0x20 SWAP1 PUSH1 0xA SLOAD SWAP1 MLOAD SWAP1 DUP2 MSTORE RETURN JUMPDEST POP DUP3 SWAP1 CALLVALUE PUSH2 0x3B8 JUMPI DUP1 PUSH1 0x3 NOT CALLDATASIZE ADD SLT PUSH2 0x3B8 JUMPI PUSH2 0x432 SWAP2 CALLDATALOAD PUSH2 0x42D PUSH1 0x1 PUSH2 0x41C PUSH2 0x116A JUMP JUMPDEST SWAP4 DUP4 DUP8 MSTORE DUP7 PUSH1 0x20 MSTORE DUP7 KECCAK256 ADD SLOAD PUSH2 0x1259 JUMP JUMPDEST PUSH2 0x12FD JUMP JUMPDEST POP DUP1 RETURN JUMPDEST POP CALLVALUE PUSH2 0x22A JUMPI DUP2 PUSH1 0x3 NOT CALLDATASIZE ADD SLT PUSH2 0x22A JUMPI PUSH1 0x20 SWAP1 MLOAD PUSH5 0x174876E800 DUP2 MSTORE RETURN JUMPDEST POP SWAP2 CALLVALUE PUSH2 0x22A JUMPI PUSH1 0x60 CALLDATASIZE PUSH1 0x3 NOT ADD SLT PUSH2 0x22A JUMPI PUSH2 0x470 PUSH2 0x114F JUMP JUMPDEST SWAP1 PUSH2 0x479 PUSH2 0x116A JUMP JUMPDEST SWAP1 PUSH1 0x44 CALLDATALOAD SWAP3 PUSH2 0x486 PUSH2 0x11DF JUMP JUMPDEST PUSH1 0x1 PUSH1 0x1 PUSH1 0xA0 SHL SUB SWAP1 DUP4 DUP3 AND ISZERO PUSH2 0x58F JUMPI AND SWAP1 DUP6 MLOAD PUSH4 0x70A08231 PUSH1 0xE0 SHL DUP2 MSTORE ADDRESS DUP3 DUP3 ADD MSTORE PUSH1 0x20 DUP2 PUSH1 0x24 DUP2 DUP7 GAS STATICCALL DUP1 ISZERO PUSH2 0x585 JUMPI DUP7 SWAP1 PUSH2 0x526 JUMPI JUMPDEST PUSH2 0x4CE SWAP2 POP PUSH1 0x8 SLOAD SWAP1 PUSH2 0x1372 JUMP JUMPDEST DUP5 GT PUSH2 0x4E3 JUMPI POP PUSH2 0x4E0 SWAP4 SWAP5 POP PUSH2 0x13A2 JUMP JUMPDEST DUP1 RETURN JUMPDEST PUSH1 0x64 SWAP1 PUSH1 0x20 DUP8 MLOAD SWAP2 PUSH3 0x461BCD PUSH1 0xE5 SHL DUP4 MSTORE DUP3 ADD MSTORE PUSH1 0x1C PUSH1 0x24 DUP3 ADD MSTORE PUSH32 0x43616E6E6F74207769746864726177206C6F636B65642066756E647300000000 PUSH1 0x44 DUP3 ADD MSTORE REVERT JUMPDEST POP PUSH1 0x20 RETURNDATASIZE DUP2 GT PUSH2 0x57E JUMPI JUMPDEST PUSH1 0x1F DUP2 ADD PUSH1 0x1F NOT AND DUP3 ADD PUSH8 0xFFFFFFFFFFFFFFFF DUP2 GT DUP4 DUP3 LT OR PUSH2 0x56B JUMPI PUSH1 0x20 SWAP2 DUP4 SWAP2 DUP11 MSTORE DUP2 ADD SUB SLT PUSH2 0x567 JUMPI PUSH2 0x4CE SWAP1 MLOAD PUSH2 0x4C0 JUMP JUMPDEST DUP6 DUP1 REVERT JUMPDEST PUSH4 0x4E487B71 PUSH1 0xE0 SHL DUP9 MSTORE PUSH1 0x41 DUP5 MSTORE PUSH1 0x24 DUP9 REVERT JUMPDEST POP RETURNDATASIZE PUSH2 0x531 JUMP JUMPDEST DUP8 MLOAD RETURNDATASIZE DUP9 DUP3 RETURNDATACOPY RETURNDATASIZE SWAP1 REVERT JUMPDEST DUP7 MLOAD PUSH4 0xE6C4247B PUSH1 0xE0 SHL DUP2 MSTORE DUP4 SWAP1 REVERT JUMPDEST POP SWAP1 CALLVALUE PUSH2 0x608 JUMPI PUSH1 0x20 CALLDATASIZE PUSH1 0x3 NOT ADD SLT PUSH2 0x608 JUMPI DUP2 PUSH2 0x604 SWAP2 DUP5 CALLDATALOAD DUP2 MSTORE PUSH1 0x2 PUSH1 0x20 MSTORE KECCAK256 SWAP2 DUP3 SLOAD SWAP3 PUSH1 0x1 DUP1 PUSH1 0xA0 SHL SUB SWAP5 DUP6 PUSH1 0x1 DUP4 ADD SLOAD AND SWAP6 PUSH1 0x2 DUP4 ADD SLOAD AND SWAP1 PUSH1 0x3 DUP4 ADD SLOAD SWAP1 DUP4 ADD SLOAD SWAP1 PUSH1 0x5 DUP5 ADD SLOAD SWAP3 PUSH1 0xFF PUSH1 0x7 PUSH1 0x6 DUP8 ADD SLOAD SWAP7 ADD SLOAD AND SWAP6 MLOAD SWAP9 DUP10 SWAP9 DUP10 PUSH2 0x1180 JUMP JUMPDEST SUB SWAP1 RETURN JUMPDEST DUP1 REVERT JUMPDEST POP CALLVALUE PUSH2 0x22A JUMPI DUP2 PUSH1 0x3 NOT CALLDATASIZE ADD SLT PUSH2 0x22A JUMPI MLOAD SWAP1 DUP2 MSTORE PUSH1 0x20 SWAP1 RETURN JUMPDEST POP DUP3 CALLVALUE PUSH2 0x3B8 JUMPI DUP2 PUSH1 0x3 NOT CALLDATASIZE ADD SLT PUSH2 0x3B8 JUMPI DUP2 PUSH1 0x20 SWAP4 PUSH1 0xFF SWAP3 PUSH2 0x646 PUSH2 0x116A JUMP JUMPDEST SWAP1 CALLDATALOAD DUP3 MSTORE DUP2 DUP7 MSTORE DUP3 DUP3 KECCAK256 PUSH1 0x1 PUSH1 0x1 PUSH1 0xA0 SHL SUB SWAP1 SWAP2 AND DUP3 MSTORE DUP6 MSTORE KECCAK256 SLOAD SWAP2 MLOAD SWAP2 AND ISZERO ISZERO DUP2 MSTORE RETURN JUMPDEST POP DUP3 CALLVALUE PUSH2 0x3B8 JUMPI PUSH1 0x20 CALLDATASIZE PUSH1 0x3 NOT ADD SLT PUSH2 0x3B8 JUMPI PUSH1 0x20 SWAP3 DUP2 DUP4 SWAP3 CALLDATALOAD DUP3 MSTORE DUP5 MSTORE KECCAK256 SLOAD SWAP1 MLOAD SWAP1 DUP2 MSTORE RETURN JUMPDEST POP CALLVALUE PUSH2 0x22A JUMPI DUP2 PUSH1 0x3 NOT CALLDATASIZE ADD SLT PUSH2 0x22A JUMPI PUSH1 0x80 SWAP1 PUSH1 0x8 SLOAD SWAP1 PUSH1 0x9 SLOAD SWAP1 PUSH1 0xA SLOAD SWAP1 PUSH1 0xB SLOAD SWAP3 DUP2 MLOAD SWAP5 DUP6 MSTORE PUSH1 0x20 DUP6 ADD MSTORE DUP4 ADD MSTORE PUSH1 0x60 DUP3 ADD MSTORE RETURN JUMPDEST POP CALLVALUE PUSH2 0x22A JUMPI DUP2 PUSH1 0x3 NOT CALLDATASIZE ADD SLT PUSH2 0x22A JUMPI PUSH1 0x20 PUSH32 0x62E78CEA01BEE320CD4E420270B5EA74000D11B0C9F74754EBDBFC544B05A258 SWAP2 PUSH2 0x707 PUSH2 0x11DF JUMP JUMPDEST PUSH2 0x70F PUSH2 0x1423 JUMP JUMPDEST PUSH1 0x1 PUSH1 0xFF NOT DUP2 SLOAD AND OR PUSH1 0x1 SSTORE MLOAD CALLER DUP2 MSTORE LOG1 DUP1 RETURN JUMPDEST POP CALLVALUE PUSH2 0x22A JUMPI PUSH1 0x20 CALLDATASIZE PUSH1 0x3 NOT ADD SLT PUSH2 0x22A JUMPI PUSH2 0x73D PUSH2 0x114F JUMP JUMPDEST PUSH2 0x745 PUSH2 0x11DF JUMP JUMPDEST PUSH1 0x1 PUSH1 0x1 PUSH1 0xA0 SHL SUB AND DUP1 DUP4 MSTORE PUSH1 0x5 PUSH1 0x20 MSTORE SWAP1 DUP3 KECCAK256 DUP1 SLOAD PUSH1 0xFF NOT AND SWAP1 SSTORE PUSH32 0x4C910B69FE65A61F7531B9C5042B2329CA7179C77290AA7E2EB3AFA3C8511FD3 DUP3 DUP1 LOG2 DUP1 RETURN JUMPDEST POP CALLVALUE PUSH2 0x22A JUMPI DUP2 PUSH1 0x3 NOT CALLDATASIZE ADD SLT PUSH2 0x22A JUMPI PUSH1 0x20 SWAP1 MLOAD PUSH32 0xA49807205CE4D355092EF5A8A18F56E8913CF4A201FBE287825B095693C21775 DUP2 MSTORE RETURN JUMPDEST POP DUP3 SWAP1 CALLVALUE PUSH2 0x3B8 JUMPI PUSH1 0x20 CALLDATASIZE PUSH1 0x3 NOT ADD SLT PUSH2 0x3B8 JUMPI PUSH2 0x7DE PUSH2 0x114F JUMP JUMPDEST PUSH2 0x7E6 PUSH2 0x11DF JUMP JUMPDEST PUSH1 0x1 PUSH1 0x1 PUSH1 0xA0 SHL SUB AND SWAP2 DUP3 ISZERO PUSH2 0x833 JUMPI POP DUP2 DUP4 MSTORE PUSH1 0x5 PUSH1 0x20 MSTORE DUP3 KECCAK256 DUP1 SLOAD PUSH1 0xFF NOT AND PUSH1 0x1 OR SWAP1 SSTORE PUSH32 0x784C8F4DBF0FFEDD6E72C76501C545A70F8B203B30A26CE542BF92BA87C248A4 DUP3 DUP1 LOG2 DUP1 RETURN JUMPDEST SWAP1 MLOAD PUSH4 0xE6C4247B PUSH1 0xE0 SHL DUP2 MSTORE REVERT JUMPDEST POP CALLVALUE PUSH2 0x22A JUMPI PUSH1 0x20 CALLDATASIZE PUSH1 0x3 NOT ADD SLT PUSH2 0x22A JUMPI PUSH1 0x20 SWAP2 PUSH1 0xFF SWAP1 DUP3 SWAP1 PUSH1 0x1 PUSH1 0x1 PUSH1 0xA0 SHL SUB PUSH2 0x86B PUSH2 0x114F JUMP JUMPDEST AND DUP2 MSTORE PUSH1 0x5 DUP6 MSTORE KECCAK256 SLOAD AND SWAP1 MLOAD SWAP1 ISZERO ISZERO DUP2 MSTORE RETURN JUMPDEST POP CALLVALUE PUSH2 0x22A JUMPI DUP2 PUSH1 0x3 NOT CALLDATASIZE ADD SLT PUSH2 0x22A JUMPI PUSH1 0x6 SLOAD SWAP1 MLOAD PUSH1 0x1 PUSH1 0x1 PUSH1 0xA0 SHL SUB SWAP1 SWAP2 AND DUP2 MSTORE PUSH1 0x20 SWAP1 RETURN JUMPDEST POP CALLVALUE PUSH2 0x22A JUMPI DUP2 PUSH1 0x3 NOT CALLDATASIZE ADD SLT PUSH2 0x22A JUMPI PUSH1 0x20 SWAP1 PUSH1 0xB SLOAD SWAP1 MLOAD SWAP1 DUP2 MSTORE RETURN JUMPDEST POP CALLVALUE PUSH2 0x22A JUMPI DUP2 PUSH1 0x3 NOT CALLDATASIZE ADD SLT PUSH2 0x22A JUMPI PUSH1 0x20 SWAP1 PUSH1 0xFF PUSH1 0x1 SLOAD AND SWAP1 MLOAD SWAP1 ISZERO ISZERO DUP2 MSTORE RETURN JUMPDEST POP CALLVALUE PUSH2 0x22A JUMPI DUP2 PUSH1 0x3 NOT CALLDATASIZE ADD SLT PUSH2 0x22A JUMPI PUSH1 0x20 SWAP1 PUSH1 0x8 SLOAD SWAP1 MLOAD SWAP1 DUP2 MSTORE RETURN JUMPDEST POP DUP3 CALLVALUE PUSH2 0x3B8 JUMPI PUSH1 0x20 CALLDATASIZE PUSH1 0x3 NOT ADD SLT PUSH2 0x3B8 JUMPI DUP1 CALLDATALOAD PUSH2 0x922 PUSH2 0x1441 JUMP JUMPDEST PUSH2 0x92A PUSH2 0x1423 JUMP JUMPDEST PUSH32 0x97667070C54EF182B0F5858B034BEAC1B6F3089AA2D3188BB1E8929F4FA9B929 DUP1 DUP6 MSTORE DUP5 PUSH1 0x20 MSTORE DUP4 DUP6 KECCAK256 CALLER DUP7 MSTORE PUSH1 0x20 MSTORE PUSH1 0xFF DUP5 DUP7 KECCAK256 SLOAD AND ISZERO PUSH2 0xA5A JUMPI POP DUP1 DUP5 MSTORE PUSH1 0x2 PUSH1 0x20 MSTORE DUP3 DUP5 KECCAK256 PUSH1 0x1 DUP2 ADD SLOAD PUSH1 0x1 PUSH1 0x1 PUSH1 0xA0 SHL SUB SWAP4 SWAP1 DUP5 AND ISZERO PUSH2 0xA4C JUMPI PUSH1 0x7 DUP3 ADD SWAP1 DUP2 SLOAD SWAP1 PUSH1 0xFF DUP3 AND DUP2 DUP2 LT ISZERO PUSH2 0xA39 JUMPI PUSH2 0xA2B JUMPI POP PUSH1 0x1 SWAP1 PUSH1 0xFF NOT AND OR SWAP1 SSTORE PUSH2 0x9E8 PUSH1 0x3 DUP3 ADD SWAP4 PUSH2 0x9C1 DUP6 SLOAD PUSH1 0x8 SLOAD PUSH2 0x1372 JUMP JUMPDEST PUSH1 0x8 SSTORE PUSH2 0x9D1 DUP6 SLOAD PUSH1 0x9 SLOAD PUSH2 0x1395 JUMP JUMPDEST PUSH1 0x9 SSTORE DUP1 PUSH1 0x2 DUP5 ADD SLOAD AND SWAP1 PUSH1 0x6 SLOAD AND DUP6 SLOAD SWAP2 PUSH2 0x13A2 JUMP JUMPDEST SLOAD SWAP2 SLOAD SWAP3 MLOAD SWAP3 DUP4 MSTORE PUSH32 0x14502C27E43424F994441985819DA7251C70DE7C2D51C3606C2B2332C2884032 PUSH1 0x20 CALLER SWAP5 LOG4 PUSH1 0x1 PUSH1 0x0 DUP1 MLOAD PUSH1 0x20 PUSH2 0x1472 DUP4 CODECOPY DUP2 MLOAD SWAP2 MSTORE SSTORE DUP1 RETURN JUMPDEST DUP7 MLOAD PUSH4 0xBAF3F0F7 PUSH1 0xE0 SHL DUP2 MSTORE REVERT JUMPDEST PUSH4 0x4E487B71 PUSH1 0xE0 SHL DUP10 MSTORE PUSH1 0x21 DUP3 MSTORE PUSH1 0x24 DUP10 REVERT JUMPDEST DUP5 MLOAD PUSH4 0x638C3DB PUSH1 0xE4 SHL DUP2 MSTORE REVERT JUMPDEST SWAP1 POP PUSH1 0x44 SWAP3 MLOAD SWAP2 PUSH4 0xE2517D3F PUSH1 0xE0 SHL DUP4 MSTORE CALLER SWAP1 DUP4 ADD MSTORE PUSH1 0x24 DUP3 ADD MSTORE REVERT JUMPDEST POP CALLVALUE PUSH2 0x22A JUMPI DUP2 PUSH1 0x3 NOT CALLDATASIZE ADD SLT PUSH2 0x22A JUMPI PUSH1 0x20 SWAP1 MLOAD PUSH3 0x2A300 DUP2 MSTORE RETURN JUMPDEST POP DUP3 CALLVALUE PUSH2 0x3B8 JUMPI DUP3 PUSH1 0x3 NOT CALLDATASIZE ADD SLT PUSH2 0x3B8 JUMPI PUSH2 0xAAE PUSH2 0x11DF JUMP JUMPDEST PUSH1 0x1 SLOAD SWAP1 PUSH1 0xFF DUP3 AND ISZERO PUSH2 0xAF0 JUMPI POP PUSH1 0xFF NOT AND PUSH1 0x1 SSTORE MLOAD CALLER DUP2 MSTORE PUSH32 0x5DB9EE0A495BF2E6FF9C91A7834C1BA4FDD244A5E8AA4E537BD38AEAE4B073AA SWAP1 PUSH1 0x20 SWAP1 LOG1 DUP1 RETURN JUMPDEST DUP3 MLOAD PUSH4 0x8DFC202B PUSH1 0xE0 SHL DUP2 MSTORE REVERT JUMPDEST POP CALLVALUE PUSH2 0x22A JUMPI DUP1 PUSH1 0x3 NOT CALLDATASIZE ADD SLT PUSH2 0x22A JUMPI PUSH2 0xB17 PUSH2 0x116A JUMP JUMPDEST SWAP1 CALLER PUSH1 0x1 PUSH1 0x1 PUSH1 0xA0 SHL SUB DUP4 AND SUB PUSH2 0xB34 JUMPI POP PUSH2 0x432 SWAP2 SWAP3 CALLDATALOAD PUSH2 0x12FD JUMP JUMPDEST MLOAD PUSH4 0x334BD919 PUSH1 0xE1 SHL DUP2 MSTORE DUP4 SWAP1 REVERT JUMPDEST POP DUP3 SWAP1 CALLVALUE PUSH2 0x3B8 JUMPI DUP1 PUSH1 0x3 NOT CALLDATASIZE ADD SLT PUSH2 0x3B8 JUMPI PUSH2 0x432 SWAP2 CALLDATALOAD PUSH2 0xB68 PUSH1 0x1 PUSH2 0x41C PUSH2 0x116A JUMP JUMPDEST PUSH2 0x127F JUMP JUMPDEST POP DUP3 CALLVALUE PUSH2 0x3B8 JUMPI PUSH1 0x20 CALLDATASIZE PUSH1 0x3 NOT ADD SLT PUSH2 0x3B8 JUMPI DUP1 CALLDATALOAD PUSH2 0xB8A PUSH2 0x1441 JUMP JUMPDEST PUSH2 0xB92 PUSH2 0x1423 JUMP JUMPDEST DUP1 DUP5 MSTORE PUSH1 0x2 PUSH1 0x20 MSTORE DUP3 DUP5 KECCAK256 SWAP3 PUSH1 0x1 DUP5 ADD SWAP3 PUSH1 0x1 DUP1 PUSH1 0xA0 SHL SUB SWAP1 DUP2 DUP6 SLOAD AND ISZERO PUSH2 0xC49 JUMPI PUSH1 0x7 DUP7 ADD SWAP1 DUP2 SLOAD SWAP1 PUSH1 0xFF DUP3 AND DUP2 DUP2 LT ISZERO PUSH2 0xC36 JUMPI PUSH2 0xC28 JUMPI PUSH1 0x6 DUP9 ADD SLOAD TIMESTAMP LT PUSH2 0xC1A JUMPI POP SWAP2 PUSH32 0x91740D42DCD72A43E1AFC3DBA7BB72CB61E750B9D8CC9804C066AFEB35CDAE00 SWAP4 SWAP2 PUSH1 0x2 PUSH1 0x20 SWAP5 PUSH1 0xFF NOT AND OR SWAP1 SSTORE PUSH1 0x3 DUP8 ADD SWAP7 PUSH2 0x32F DUP9 SLOAD PUSH1 0x8 SLOAD PUSH2 0x1372 JUMP JUMPDEST DUP5 MLOAD PUSH4 0xD0404F85 PUSH1 0xE0 SHL DUP2 MSTORE REVERT JUMPDEST DUP5 MLOAD PUSH4 0xBAF3F0F7 PUSH1 0xE0 SHL DUP2 MSTORE REVERT JUMPDEST PUSH4 0x4E487B71 PUSH1 0xE0 SHL DUP11 MSTORE PUSH1 0x21 DUP3 MSTORE PUSH1 0x24 DUP11 REVERT JUMPDEST DUP3 MLOAD PUSH4 0x638C3DB PUSH1 0xE4 SHL DUP2 MSTORE REVERT JUMPDEST POP DUP3 CALLVALUE PUSH2 0x3B8 JUMPI PUSH1 0x20 CALLDATASIZE PUSH1 0x3 NOT ADD SLT PUSH2 0x3B8 JUMPI DUP2 PUSH1 0x20 SWAP4 PUSH1 0x1 SWAP3 CALLDATALOAD DUP2 MSTORE DUP1 DUP6 MSTORE KECCAK256 ADD SLOAD SWAP1 MLOAD SWAP1 DUP2 MSTORE RETURN JUMPDEST POP CALLVALUE PUSH2 0x22A JUMPI DUP2 PUSH1 0x3 NOT CALLDATASIZE ADD SLT PUSH2 0x22A JUMPI PUSH1 0x20 SWAP1 PUSH1 0x7 SLOAD SWAP1 MLOAD SWAP1 DUP2 MSTORE RETURN JUMPDEST POP CALLVALUE PUSH2 0x22A JUMPI DUP2 PUSH1 0x3 NOT CALLDATASIZE ADD SLT PUSH2 0x22A JUMPI PUSH1 0x20 SWAP1 PUSH1 0x3 SLOAD SWAP1 MLOAD SWAP1 DUP2 MSTORE RETURN JUMPDEST POP DUP3 CALLVALUE PUSH2 0x3B8 JUMPI PUSH1 0x20 CALLDATASIZE PUSH1 0x3 NOT ADD SLT PUSH2 0x3B8 JUMPI DUP1 CALLDATALOAD SWAP1 PUSH2 0xCDB PUSH2 0x11DF JUMP JUMPDEST PUSH2 0x1F4 DUP3 GT PUSH2 0xD1E JUMPI POP SWAP1 PUSH32 0xD347E206F25A89B917FC9482F1A2D294D749BAA4DC9BDE7FB495EE11FE491643 SWAP2 PUSH1 0x7 SLOAD SWAP1 DUP1 PUSH1 0x7 SSTORE DUP3 MLOAD SWAP2 DUP3 MSTORE PUSH1 0x20 DUP3 ADD MSTORE LOG1 DUP1 RETURN JUMPDEST PUSH1 0x64 SWAP1 PUSH1 0x20 DUP5 MLOAD SWAP2 PUSH3 0x461BCD PUSH1 0xE5 SHL DUP4 MSTORE DUP3 ADD MSTORE PUSH1 0xC PUSH1 0x24 DUP3 ADD MSTORE PUSH12 0x8CCACA40E8DEDE40D0D2CED PUSH1 0xA3 SHL PUSH1 0x44 DUP3 ADD MSTORE REVERT JUMPDEST POP DUP3 SWAP1 CALLVALUE PUSH2 0x3B8 JUMPI PUSH1 0x60 CALLDATASIZE PUSH1 0x3 NOT ADD SLT PUSH2 0x3B8 JUMPI DUP2 CALLDATALOAD PUSH2 0xD6E PUSH2 0x116A JUMP JUMPDEST SWAP1 PUSH1 0x44 CALLDATALOAD SWAP5 PUSH2 0xD7B PUSH2 0x1441 JUMP JUMPDEST PUSH2 0xD83 PUSH2 0x1423 JUMP JUMPDEST PUSH3 0xF4240 DUP7 LT DUP1 ISZERO PUSH2 0x1065 JUMPI JUMPDEST PUSH2 0x1055 JUMPI PUSH1 0x1 DUP1 PUSH1 0xA0 SHL SUB DUP1 SWAP4 AND SWAP3 DUP4 DUP3 MSTORE PUSH1 0x20 SWAP7 PUSH1 0x5 DUP9 MSTORE PUSH1 0xFF DUP7 DUP5 KECCAK256 SLOAD AND ISZERO PUSH2 0x1045 JUMPI DUP4 DUP4 MSTORE DUP7 DUP9 MSTORE DUP6 DUP4 KECCAK256 SLOAD PUSH2 0x1036 JUMPI PUSH1 0x7 SLOAD DUP1 DUP3 MUL SWAP1 DUP3 DUP3 DIV EQ DUP3 ISZERO OR ISZERO PUSH2 0x1023 JUMPI PUSH2 0x2710 SWAP1 DIV SWAP2 PUSH2 0xDE6 DUP4 DUP4 PUSH2 0x1372 JUMP JUMPDEST SWAP2 PUSH1 0x3 SLOAD PUSH1 0x0 NOT DUP2 EQ PUSH2 0x1010 JUMPI PUSH1 0x1 ADD SWAP9 DUP10 PUSH1 0x3 SSTORE PUSH3 0x2A300 TIMESTAMP ADD SWAP6 DUP7 TIMESTAMP GT PUSH2 0xFFE JUMPI DUP10 MLOAD PUSH2 0x100 DUP2 ADD DUP2 DUP2 LT PUSH8 0xFFFFFFFFFFFFFFFF DUP3 GT OR PUSH2 0xFEB JUMPI DUP13 SWAP2 DUP10 DUP16 DUP11 DUP16 DUP16 DUP16 SWAP2 DUP14 SWAP3 PUSH1 0x7 SWAP9 DUP3 MSTORE DUP8 MSTORE DUP5 DUP8 ADD SWAP1 CALLER DUP3 MSTORE DUP1 DUP9 ADD SWAP3 DUP4 MSTORE PUSH1 0x60 DUP9 ADD SWAP4 DUP5 MSTORE PUSH1 0x80 DUP9 ADD SWAP5 DUP6 MSTORE PUSH1 0x2 PUSH1 0xA0 DUP10 ADD SWAP7 TIMESTAMP DUP9 MSTORE PUSH1 0xC0 DUP11 ADD SWAP9 DUP10 MSTORE PUSH1 0xE0 DUP11 ADD SWAP12 DUP14 DUP14 MSTORE DUP14 MSTORE MSTORE DUP11 KECCAK256 SWAP7 MLOAD DUP8 SSTORE DUP13 PUSH1 0x1 DUP9 ADD SWAP2 MLOAD AND SWAP1 PUSH12 0xFFFFFFFFFFFFFFFFFFFFFFFF PUSH1 0xA0 SHL SWAP2 DUP3 DUP3 SLOAD AND OR SWAP1 SSTORE DUP13 PUSH1 0x2 DUP9 ADD SWAP3 MLOAD AND SWAP1 DUP3 SLOAD AND OR SWAP1 SSTORE MLOAD PUSH1 0x3 DUP6 ADD SSTORE MLOAD DUP8 DUP5 ADD SSTORE MLOAD PUSH1 0x5 DUP4 ADD SSTORE MLOAD PUSH1 0x6 DUP3 ADD SSTORE ADD SWAP1 MLOAD DUP4 DUP2 LT ISZERO PUSH2 0xFD8 JUMPI PUSH1 0xFF DUP1 NOT DUP4 SLOAD AND SWAP2 AND OR SWAP1 SSTORE DUP8 DUP2 MSTORE DUP2 DUP13 MSTORE DUP11 DUP11 DUP3 KECCAK256 SSTORE PUSH2 0xEE7 DUP6 PUSH1 0x8 SLOAD PUSH2 0x1395 JUMP JUMPDEST PUSH1 0x8 SSTORE DUP10 MLOAD SWAP3 PUSH4 0x23B872DD PUSH1 0xE0 SHL DUP3 MSTORE CALLER DUP4 MSTORE ADDRESS PUSH1 0x24 MSTORE PUSH1 0x44 MSTORE DUP12 DUP2 PUSH1 0x64 DUP2 DUP1 DUP14 GAS CALL SWAP1 PUSH1 0x1 DUP2 MLOAD EQ DUP3 AND ISZERO PUSH2 0xFB7 JUMPI JUMPDEST DUP4 DUP12 MSTORE PUSH1 0x60 MSTORE ISZERO PUSH2 0xFA3 JUMPI POP POP DUP3 DUP1 PUSH2 0xF7F JUMPI JUMPDEST POP POP DUP6 MLOAD SWAP5 DUP6 MSTORE DUP8 DUP6 ADD MSTORE DUP5 DUP5 ADD MSTORE PUSH1 0x60 DUP4 ADD MSTORE DUP4 PUSH32 0xFBE3BE2ED61062B120C6AC817172274D21F1F586D4D125C4D7111A1EED2D3CD7 PUSH1 0x80 CALLER SWAP5 LOG4 PUSH1 0x1 PUSH1 0x0 DUP1 MLOAD PUSH1 0x20 PUSH2 0x1472 DUP4 CODECOPY DUP2 MLOAD SWAP2 MSTORE SSTORE MLOAD SWAP1 DUP2 MSTORE RETURN JUMPDEST PUSH2 0xF8D SWAP2 PUSH1 0x6 SLOAD AND DUP8 PUSH2 0x13A2 JUMP JUMPDEST PUSH2 0xF99 DUP3 PUSH1 0xB SLOAD PUSH2 0x1395 JUMP JUMPDEST PUSH1 0xB SSTORE DUP9 DUP3 PUSH2 0xF2C JUMP JUMPDEST PUSH4 0x5274AFE7 PUSH1 0xE0 SHL DUP3 MSTORE DUP2 ADD DUP8 SWAP1 MSTORE PUSH1 0x24 SWAP1 REVERT JUMPDEST SWAP1 PUSH1 0x1 DUP2 ISZERO AND PUSH2 0xFCF JUMPI DUP10 EXTCODESIZE ISZERO ISZERO RETURNDATASIZE ISZERO AND AND SWAP1 PUSH2 0xF18 JUMP JUMPDEST DUP4 RETURNDATASIZE DUP4 DUP3 RETURNDATACOPY RETURNDATASIZE SWAP1 REVERT JUMPDEST PUSH4 0x4E487B71 PUSH1 0xE0 SHL DUP4 MSTORE PUSH1 0x21 DUP5 MSTORE PUSH1 0x24 DUP4 REVERT JUMPDEST PUSH4 0x4E487B71 PUSH1 0xE0 SHL DUP4 MSTORE PUSH1 0x41 DUP5 MSTORE PUSH1 0x24 DUP4 REVERT JUMPDEST PUSH1 0x11 PUSH1 0x24 SWAP3 PUSH4 0x4E487B71 PUSH1 0xE0 SHL DUP4 MSTORE MSTORE REVERT JUMPDEST PUSH4 0x4E487B71 PUSH1 0xE0 SHL DUP7 MSTORE PUSH1 0x11 DUP11 MSTORE PUSH1 0x24 DUP7 REVERT JUMPDEST PUSH4 0x4E487B71 PUSH1 0xE0 SHL DUP5 MSTORE PUSH1 0x11 DUP9 MSTORE PUSH1 0x24 DUP5 REVERT JUMPDEST DUP6 MLOAD PUSH3 0x4C4AF3 PUSH1 0xE0 SHL DUP2 MSTORE DUP8 SWAP1 REVERT JUMPDEST DUP6 MLOAD PUSH4 0x3DD1B305 PUSH1 0xE0 SHL DUP2 MSTORE DUP8 SWAP1 REVERT JUMPDEST POP POP POP MLOAD PUSH4 0x162908E3 PUSH1 0xE1 SHL DUP2 MSTORE REVERT JUMPDEST POP PUSH5 0x174876E800 DUP7 GT PUSH2 0xD90 JUMP JUMPDEST POP DUP3 CALLVALUE PUSH2 0x3B8 JUMPI PUSH1 0x20 CALLDATASIZE PUSH1 0x3 NOT ADD SLT PUSH2 0x3B8 JUMPI CALLDATALOAD SWAP1 PUSH4 0xFFFFFFFF PUSH1 0xE0 SHL DUP3 AND DUP1 SWAP3 SUB PUSH2 0x3B8 JUMPI PUSH1 0x20 SWAP3 POP PUSH4 0x7965DB0B PUSH1 0xE0 SHL DUP3 EQ SWAP2 DUP3 ISZERO PUSH2 0x10B7 JUMPI POP MLOAD SWAP1 ISZERO ISZERO DUP2 MSTORE RETURN JUMPDEST PUSH4 0x1FFC9A7 PUSH1 0xE0 SHL EQ SWAP2 POP DUP4 PUSH2 0x1FF JUMP JUMPDEST POP DUP3 CALLVALUE PUSH2 0x3B8 JUMPI PUSH1 0x20 CALLDATASIZE PUSH1 0x3 NOT ADD SLT PUSH2 0x3B8 JUMPI PUSH2 0x10E3 PUSH2 0x114F JUMP JUMPDEST SWAP1 PUSH2 0x10EC PUSH2 0x11DF JUMP JUMPDEST PUSH1 0x1 PUSH1 0x1 PUSH1 0xA0 SHL SUB SWAP2 DUP3 AND SWAP3 DUP4 ISZERO PUSH2 0x1142 JUMPI POP POP PUSH1 0x6 SLOAD DUP3 PUSH12 0xFFFFFFFFFFFFFFFFFFFFFFFF PUSH1 0xA0 SHL DUP3 AND OR PUSH1 0x6 SSTORE AND PUSH32 0xA4A29E0283FD61D880802985B3502E86002E8C3119DC94A034DCF1B28A513E9D DUP4 DUP1 LOG3 DUP1 RETURN JUMPDEST MLOAD PUSH4 0xE6C4247B PUSH1 0xE0 SHL DUP2 MSTORE REVERT JUMPDEST PUSH1 0x4 CALLDATALOAD SWAP1 PUSH1 0x1 PUSH1 0x1 PUSH1 0xA0 SHL SUB DUP3 AND DUP3 SUB PUSH2 0x1165 JUMPI JUMP JUMPDEST PUSH1 0x0 DUP1 REVERT JUMPDEST PUSH1 0x24 CALLDATALOAD SWAP1 PUSH1 0x1 PUSH1 0x1 PUSH1 0xA0 SHL SUB DUP3 AND DUP3 SUB PUSH2 0x1165 JUMPI JUMP JUMPDEST SWAP6 SWAP4 SWAP2 SWAP1 SWAP9 SWAP8 SWAP7 SWAP5 SWAP3 PUSH2 0x100 DUP8 ADD SWAP10 DUP8 MSTORE PUSH1 0x1 DUP1 PUSH1 0xA0 SHL SUB DUP1 SWAP3 AND PUSH1 0x20 DUP9 ADD MSTORE AND PUSH1 0x40 DUP7 ADD MSTORE PUSH1 0x60 DUP6 ADD MSTORE PUSH1 0x80 DUP5 ADD MSTORE PUSH1 0xA0 DUP4 ADD MSTORE PUSH1 0xC0 DUP3 ADD MSTORE PUSH1 0x4 DUP3 LT ISZERO PUSH2 0x11C9 JUMPI PUSH1 0xE0 ADD MSTORE JUMP JUMPDEST PUSH4 0x4E487B71 PUSH1 0xE0 SHL PUSH1 0x0 MSTORE PUSH1 0x21 PUSH1 0x4 MSTORE PUSH1 0x24 PUSH1 0x0 REVERT JUMPDEST CALLER PUSH1 0x0 SWAP1 DUP2 MSTORE PUSH32 0x7D7FFB7A348E1C6A02869081A26547B49160DD3DF72D1D75A570EB9B698292EC PUSH1 0x20 MSTORE PUSH1 0x40 SWAP1 KECCAK256 SLOAD PUSH32 0xA49807205CE4D355092EF5A8A18F56E8913CF4A201FBE287825B095693C21775 SWAP1 PUSH1 0xFF AND ISZERO PUSH2 0x123B JUMPI POP JUMP JUMPDEST PUSH1 0x44 SWAP1 PUSH1 0x40 MLOAD SWAP1 PUSH4 0xE2517D3F PUSH1 0xE0 SHL DUP3 MSTORE CALLER PUSH1 0x4 DUP4 ADD MSTORE PUSH1 0x24 DUP3 ADD MSTORE REVERT JUMPDEST DUP1 PUSH1 0x0 MSTORE PUSH1 0x0 PUSH1 0x20 MSTORE PUSH1 0x40 PUSH1 0x0 KECCAK256 CALLER PUSH1 0x0 MSTORE PUSH1 0x20 MSTORE PUSH1 0xFF PUSH1 0x40 PUSH1 0x0 KECCAK256 SLOAD AND ISZERO PUSH2 0x123B JUMPI POP JUMP JUMPDEST SWAP1 PUSH1 0x0 SWAP2 DUP1 DUP4 MSTORE DUP3 PUSH1 0x20 MSTORE PUSH1 0x40 DUP4 KECCAK256 SWAP2 PUSH1 0x1 DUP1 PUSH1 0xA0 SHL SUB AND SWAP2 DUP3 DUP5 MSTORE PUSH1 0x20 MSTORE PUSH1 0xFF PUSH1 0x40 DUP5 KECCAK256 SLOAD AND ISZERO PUSH1 0x0 EQ PUSH2 0x12F8 JUMPI DUP1 DUP4 MSTORE DUP3 PUSH1 0x20 MSTORE PUSH1 0x40 DUP4 KECCAK256 DUP3 DUP5 MSTORE PUSH1 0x20 MSTORE PUSH1 0x40 DUP4 KECCAK256 PUSH1 0x1 PUSH1 0xFF NOT DUP3 SLOAD AND OR SWAP1 SSTORE PUSH32 0x2F8788117E7EFF1D82E926EC794901D17C78024A50270940304540A733656F0D CALLER SWAP4 DUP1 LOG4 PUSH1 0x1 SWAP1 JUMP JUMPDEST POP POP SWAP1 JUMP JUMPDEST SWAP1 PUSH1 0x0 SWAP2 DUP1 DUP4 MSTORE DUP3 PUSH1 0x20 MSTORE PUSH1 0x40 DUP4 KECCAK256 SWAP2 PUSH1 0x1 DUP1 PUSH1 0xA0 SHL SUB AND SWAP2 DUP3 DUP5 MSTORE PUSH1 0x20 MSTORE PUSH1 0xFF PUSH1 0x40 DUP5 KECCAK256 SLOAD AND PUSH1 0x0 EQ PUSH2 0x12F8 JUMPI DUP1 DUP4 MSTORE DUP3 PUSH1 0x20 MSTORE PUSH1 0x40 DUP4 KECCAK256 DUP3 DUP5 MSTORE PUSH1 0x20 MSTORE PUSH1 0x40 DUP4 KECCAK256 PUSH1 0xFF NOT DUP2 SLOAD AND SWAP1 SSTORE PUSH32 0xF6391F5C32D9C69D2A47EA670B442974B53935D1EDC7FD64EB21E047A839171B CALLER SWAP4 DUP1 LOG4 PUSH1 0x1 SWAP1 JUMP JUMPDEST SWAP2 SWAP1 DUP3 SUB SWAP2 DUP3 GT PUSH2 0x137F JUMPI JUMP JUMPDEST PUSH4 0x4E487B71 PUSH1 0xE0 SHL PUSH1 0x0 MSTORE PUSH1 0x11 PUSH1 0x4 MSTORE PUSH1 0x24 PUSH1 0x0 REVERT JUMPDEST SWAP2 SWAP1 DUP3 ADD DUP1 SWAP3 GT PUSH2 0x137F JUMPI JUMP JUMPDEST PUSH1 0x40 MLOAD PUSH4 0xA9059CBB PUSH1 0xE0 SHL PUSH1 0x0 SWAP1 DUP2 MSTORE PUSH1 0x1 PUSH1 0x1 PUSH1 0xA0 SHL SUB SWAP4 DUP5 AND PUSH1 0x4 MSTORE PUSH1 0x24 SWAP5 SWAP1 SWAP5 MSTORE SWAP3 PUSH1 0x20 SWAP1 PUSH1 0x44 DUP2 DUP1 DUP6 GAS CALL PUSH1 0x1 PUSH1 0x0 MLOAD EQ DUP2 AND ISZERO PUSH2 0x1403 JUMPI JUMPDEST DUP4 PUSH1 0x40 MSTORE ISZERO PUSH2 0x13ED JUMPI POP POP POP JUMP JUMPDEST PUSH4 0x5274AFE7 PUSH1 0xE0 SHL DUP4 MSTORE AND PUSH1 0x4 DUP3 ADD MSTORE PUSH1 0x24 SWAP2 POP REVERT JUMPDEST PUSH1 0x1 DUP2 ISZERO AND PUSH2 0x1419 JUMPI DUP2 EXTCODESIZE ISZERO ISZERO RETURNDATASIZE ISZERO AND AND PUSH2 0x13DF JUMP JUMPDEST DUP4 RETURNDATASIZE PUSH1 0x0 DUP3 RETURNDATACOPY RETURNDATASIZE SWAP1 REVERT JUMPDEST PUSH1 0xFF PUSH1 0x1 SLOAD AND PUSH2 0x142F JUMPI JUMP JUMPDEST PUSH1 0x40 MLOAD PUSH4 0xD93C0665 PUSH1 0xE0 SHL DUP2 MSTORE PUSH1 0x4 SWAP1 REVERT JUMPDEST PUSH1 0x0 DUP1 MLOAD PUSH1 0x20 PUSH2 0x1472 DUP4 CODECOPY DUP2 MLOAD SWAP2 MSTORE PUSH1 0x2 DUP2 SLOAD EQ PUSH2 0x145F JUMPI PUSH1 0x2 SWAP1 SSTORE JUMP JUMPDEST PUSH1 0x40 MLOAD PUSH4 0x3EE5AEB5 PUSH1 0xE0 SHL DUP2 MSTORE PUSH1 0x4 SWAP1 REVERT INVALID SWAP12 PUSH24 0x9B17422D0DF92223018B32B4D1FA46E071723D6817E2486D STOP EXTCODESIZE 0xEC 0xC5 PUSH0 STOP LOG2 PUSH5 0x6970667358 0x22 SLT KECCAK256 SWAP13 DIV ISZERO SWAP12 LOG2 0xAF GT 0x5D PUSH25 0x7D258B27835CB332F1A93BBBB2D55A47E8A6893CCB90F6473 PUSH16 0x6C634300081400332F8788117E7EFF1D DUP3 0xE9 0x26 0xEC PUSH26 0x4901D17C78024A50270940304540A733656F0D00000000000000 "},"methodIdentifiers":{"ADMIN_ROLE()":"75b238fc","DEFAULT_ADMIN_ROLE()":"a217fddf","MAX_AMOUNT()":"d40dc870","MIN_AMOUNT()":"ddbcb5fa","OPERATOR_ROLE()":"f5b541a6","TIMELOCK_DURATION()":"4623c81e","addSupportedToken(address)":"6d69fcaf","canRefund(uint256)":"fc8cc92b","cancelBySender(uint256)":"e12edb13","getRemittance(uint256)":"73e66f43","getRemittanceByReference(bytes32)":"6a06ad72","getRoleAdmin(bytes32)":"248a9ca3","getTotals()":"84e10a90","grantRole(bytes32,address)":"2f2ff15d","hasRole(bytes32,address)":"91d14854","liquidityPool()":"665a11ca","lockFunds(bytes32,address,uint256)":"02288cda","nextRemittanceId()":"1a422338","pause()":"8456cb59","paused()":"5c975abb","platformFeeBps()":"22dcd13e","referenceToId(bytes32)":"90087a04","refund(uint256)":"278ecde1","releaseFunds(uint256)":"4d68282f","remittances(uint256)":"b4ea0d5f","removeSupportedToken(address)":"76319190","renounceRole(bytes32,address)":"36568abe","rescueTokens(address,address,uint256)":"cea9d26f","revokeRole(bytes32,address)":"d547741f","setLiquidityPool(address)":"01877020","setPlatformFee(uint256)":"12e8e2c3","supportedTokens(address)":"68c4ac26","supportsInterface(bytes4)":"01ffc9a7","totalFeesCollected()":"60c6d8ae","totalLocked()":"56891412","totalRefunded()":"d9082962","totalReleased()":"e33b7de3","unpause()":"3f4ba83a"}}}}}