{"src/FinCoreProjectToken.sol":{"FinCoreProjectToken":{"abi":[{"inputs":[{"internalType":"string","name":"name_","type":"string"},{"internalType":"string","name":"symbol_","type":"string"},{"internalType":"bytes32","name":"projectId_","type":"bytes32"},{"internalType":"uint256","name":"totalSupply_","type":"uint256"},{"internalType":"uint256","name":"pricePerToken_","type":"uint256"},{"internalType":"address","name":"admin","type":"address"}],"stateMutability":"nonpayable","type":"constructor"},{"inputs":[],"name":"AccessControlBadConfirmation","type":"error"},{"inputs":[{"internalType":"address","name":"account","type":"address"},{"internalType":"bytes32","name":"neededRole","type":"bytes32"}],"name":"AccessControlUnauthorizedAccount","type":"error"},{"inputs":[{"internalType":"address","name":"spender","type":"address"},{"internalType":"uint256","name":"allowance","type":"uint256"},{"internalType":"uint256","name":"needed","type":"uint256"}],"name":"ERC20InsufficientAllowance","type":"error"},{"inputs":[{"internalType":"address","name":"sender","type":"address"},{"internalType":"uint256","name":"balance","type":"uint256"},{"internalType":"uint256","name":"needed","type":"uint256"}],"name":"ERC20InsufficientBalance","type":"error"},{"inputs":[{"internalType":"address","name":"approver","type":"address"}],"name":"ERC20InvalidApprover","type":"error"},{"inputs":[{"internalType":"address","name":"receiver","type":"address"}],"name":"ERC20InvalidReceiver","type":"error"},{"inputs":[{"internalType":"address","name":"sender","type":"address"}],"name":"ERC20InvalidSender","type":"error"},{"inputs":[{"internalType":"address","name":"spender","type":"address"}],"name":"ERC20InvalidSpender","type":"error"},{"inputs":[],"name":"EnforcedPause","type":"error"},{"inputs":[],"name":"ExpectedPause","type":"error"},{"inputs":[],"name":"ReentrancyGuardReentrantCall","type":"error"},{"anonymous":false,"inputs":[{"indexed":true,"internalType":"address","name":"owner","type":"address"},{"indexed":true,"internalType":"address","name":"spender","type":"address"},{"indexed":false,"internalType":"uint256","name":"value","type":"uint256"}],"name":"Approval","type":"event"},{"anonymous":false,"inputs":[{"indexed":true,"internalType":"address","name":"account","type":"address"},{"indexed":false,"internalType":"bool","name":"approved","type":"bool"}],"name":"KYCStatusUpdated","type":"event"},{"anonymous":false,"inputs":[{"indexed":false,"internalType":"address","name":"account","type":"address"}],"name":"Paused","type":"event"},{"anonymous":false,"inputs":[{"indexed":false,"internalType":"uint256","name":"newValuation","type":"uint256"}],"name":"ProjectValuationUpdated","type":"event"},{"anonymous":false,"inputs":[{"indexed":true,"internalType":"bytes32","name":"role","type":"bytes32"},{"indexed":true,"internalType":"bytes32","name":"previousAdminRole","type":"bytes32"},{"indexed":true,"internalType":"bytes32","name":"newAdminRole","type":"bytes32"}],"name":"RoleAdminChanged","type":"event"},{"anonymous":false,"inputs":[{"indexed":true,"internalType":"bytes32","name":"role","type":"bytes32"},{"indexed":true,"internalType":"address","name":"account","type":"address"},{"indexed":true,"internalType":"address","name":"sender","type":"address"}],"name":"RoleGranted","type":"event"},{"anonymous":false,"inputs":[{"indexed":true,"internalType":"bytes32","name":"role","type":"bytes32"},{"indexed":true,"internalType":"address","name":"account","type":"address"},{"indexed":true,"internalType":"address","name":"sender","type":"address"}],"name":"RoleRevoked","type":"event"},{"anonymous":false,"inputs":[{"indexed":true,"internalType":"address","name":"account","type":"address"},{"indexed":false,"internalType":"uint256","name":"until","type":"uint256"}],"name":"TokensLocked","type":"event"},{"anonymous":false,"inputs":[{"indexed":true,"internalType":"address","name":"buyer","type":"address"},{"indexed":false,"internalType":"uint256","name":"amount","type":"uint256"},{"indexed":false,"internalType":"uint256","name":"totalPaid","type":"uint256"}],"name":"TokensPurchased","type":"event"},{"anonymous":false,"inputs":[{"indexed":true,"internalType":"address","name":"account","type":"address"}],"name":"TokensUnlocked","type":"event"},{"anonymous":false,"inputs":[{"indexed":true,"internalType":"address","name":"from","type":"address"},{"indexed":true,"internalType":"address","name":"to","type":"address"},{"indexed":false,"internalType":"uint256","name":"value","type":"uint256"}],"name":"Transfer","type":"event"},{"anonymous":false,"inputs":[{"indexed":false,"internalType":"bool","name":"enabled","type":"bool"}],"name":"TransfersToggled","type":"event"},{"anonymous":false,"inputs":[{"indexed":false,"internalType":"address","name":"account","type":"address"}],"name":"Unpaused","type":"event"},{"inputs":[],"name":"DEFAULT_ADMIN_ROLE","outputs":[{"internalType":"bytes32","name":"","type":"bytes32"}],"stateMutability":"view","type":"function"},{"inputs":[],"name":"MINTER_ROLE","outputs":[{"internalType":"bytes32","name":"","type":"bytes32"}],"stateMutability":"view","type":"function"},{"inputs":[],"name":"PAUSER_ROLE","outputs":[{"internalType":"bytes32","name":"","type":"bytes32"}],"stateMutability":"view","type":"function"},{"inputs":[],"name":"TRANSFER_AGENT_ROLE","outputs":[{"internalType":"bytes32","name":"","type":"bytes32"}],"stateMutability":"view","type":"function"},{"inputs":[{"internalType":"address","name":"owner","type":"address"},{"internalType":"address","name":"spender","type":"address"}],"name":"allowance","outputs":[{"internalType":"uint256","name":"","type":"uint256"}],"stateMutability":"view","type":"function"},{"inputs":[{"internalType":"address","name":"spender","type":"address"},{"internalType":"uint256","name":"value","type":"uint256"}],"name":"approve","outputs":[{"internalType":"bool","name":"","type":"bool"}],"stateMutability":"nonpayable","type":"function"},{"inputs":[{"internalType":"address","name":"account","type":"address"}],"name":"availableBalance","outputs":[{"internalType":"uint256","name":"","type":"uint256"}],"stateMutability":"view","type":"function"},{"inputs":[{"internalType":"address","name":"account","type":"address"}],"name":"balanceOf","outputs":[{"internalType":"uint256","name":"","type":"uint256"}],"stateMutability":"view","type":"function"},{"inputs":[{"internalType":"address[]","name":"accounts","type":"address[]"},{"internalType":"bool","name":"approved","type":"bool"}],"name":"batchSetKYCStatus","outputs":[],"stateMutability":"nonpayable","type":"function"},{"inputs":[{"internalType":"uint256","name":"value","type":"uint256"}],"name":"burn","outputs":[],"stateMutability":"nonpayable","type":"function"},{"inputs":[{"internalType":"address","name":"account","type":"address"},{"internalType":"uint256","name":"value","type":"uint256"}],"name":"burnFrom","outputs":[],"stateMutability":"nonpayable","type":"function"},{"inputs":[],"name":"decimals","outputs":[{"internalType":"uint8","name":"","type":"uint8"}],"stateMutability":"view","type":"function"},{"inputs":[],"name":"getProjectInfo","outputs":[{"internalType":"bytes32","name":"_projectId","type":"bytes32"},{"internalType":"uint256","name":"_valuation","type":"uint256"},{"internalType":"uint256","name":"_totalForSale","type":"uint256"},{"internalType":"uint256","name":"_sold","type":"uint256"},{"internalType":"uint256","name":"_price","type":"uint256"},{"internalType":"bool","name":"_transfersEnabled","type":"bool"}],"stateMutability":"view","type":"function"},{"inputs":[{"internalType":"bytes32","name":"role","type":"bytes32"}],"name":"getRoleAdmin","outputs":[{"internalType":"bytes32","name":"","type":"bytes32"}],"stateMutability":"view","type":"function"},{"inputs":[{"internalType":"bytes32","name":"role","type":"bytes32"},{"internalType":"address","name":"account","type":"address"}],"name":"grantRole","outputs":[],"stateMutability":"nonpayable","type":"function"},{"inputs":[{"internalType":"bytes32","name":"role","type":"bytes32"},{"internalType":"address","name":"account","type":"address"}],"name":"hasRole","outputs":[{"internalType":"bool","name":"","type":"bool"}],"stateMutability":"view","type":"function"},{"inputs":[{"internalType":"address","name":"","type":"address"}],"name":"kycApproved","outputs":[{"internalType":"bool","name":"","type":"bool"}],"stateMutability":"view","type":"function"},{"inputs":[],"name":"kycRequired","outputs":[{"internalType":"bool","name":"","type":"bool"}],"stateMutability":"view","type":"function"},{"inputs":[{"internalType":"address","name":"account","type":"address"},{"internalType":"uint256","name":"until","type":"uint256"}],"name":"lockTokens","outputs":[],"stateMutability":"nonpayable","type":"function"},{"inputs":[{"internalType":"address","name":"","type":"address"}],"name":"lockedUntil","outputs":[{"internalType":"uint256","name":"","type":"uint256"}],"stateMutability":"view","type":"function"},{"inputs":[],"name":"maxInvestmentPerWallet","outputs":[{"internalType":"uint256","name":"","type":"uint256"}],"stateMutability":"view","type":"function"},{"inputs":[],"name":"minInvestmentTokens","outputs":[{"internalType":"uint256","name":"","type":"uint256"}],"stateMutability":"view","type":"function"},{"inputs":[{"internalType":"address","name":"to","type":"address"},{"internalType":"uint256","name":"amount","type":"uint256"}],"name":"mint","outputs":[],"stateMutability":"nonpayable","type":"function"},{"inputs":[],"name":"name","outputs":[{"internalType":"string","name":"","type":"string"}],"stateMutability":"view","type":"function"},{"inputs":[],"name":"pause","outputs":[],"stateMutability":"nonpayable","type":"function"},{"inputs":[],"name":"paused","outputs":[{"internalType":"bool","name":"","type":"bool"}],"stateMutability":"view","type":"function"},{"inputs":[],"name":"pricePerToken","outputs":[{"internalType":"uint256","name":"","type":"uint256"}],"stateMutability":"view","type":"function"},{"inputs":[],"name":"projectId","outputs":[{"internalType":"bytes32","name":"","type":"bytes32"}],"stateMutability":"view","type":"function"},{"inputs":[],"name":"projectValuation","outputs":[{"internalType":"uint256","name":"","type":"uint256"}],"stateMutability":"view","type":"function"},{"inputs":[{"internalType":"uint256","name":"amount","type":"uint256"}],"name":"purchaseTokens","outputs":[],"stateMutability":"nonpayable","type":"function"},{"inputs":[{"internalType":"bytes32","name":"role","type":"bytes32"},{"internalType":"address","name":"callerConfirmation","type":"address"}],"name":"renounceRole","outputs":[],"stateMutability":"nonpayable","type":"function"},{"inputs":[{"internalType":"bytes32","name":"role","type":"bytes32"},{"internalType":"address","name":"account","type":"address"}],"name":"revokeRole","outputs":[],"stateMutability":"nonpayable","type":"function"},{"inputs":[{"internalType":"address","name":"account","type":"address"},{"internalType":"bool","name":"approved","type":"bool"}],"name":"setKYCStatus","outputs":[],"stateMutability":"nonpayable","type":"function"},{"inputs":[{"internalType":"bytes4","name":"interfaceId","type":"bytes4"}],"name":"supportsInterface","outputs":[{"internalType":"bool","name":"","type":"bool"}],"stateMutability":"view","type":"function"},{"inputs":[],"name":"symbol","outputs":[{"internalType":"string","name":"","type":"string"}],"stateMutability":"view","type":"function"},{"inputs":[{"internalType":"bool","name":"enabled","type":"bool"}],"name":"toggleTransfers","outputs":[],"stateMutability":"nonpayable","type":"function"},{"inputs":[],"name":"tokensSold","outputs":[{"internalType":"uint256","name":"","type":"uint256"}],"stateMutability":"view","type":"function"},{"inputs":[],"name":"totalSupply","outputs":[{"internalType":"uint256","name":"","type":"uint256"}],"stateMutability":"view","type":"function"},{"inputs":[],"name":"totalTokensForSale","outputs":[{"internalType":"uint256","name":"","type":"uint256"}],"stateMutability":"view","type":"function"},{"inputs":[{"internalType":"address","name":"to","type":"address"},{"internalType":"uint256","name":"value","type":"uint256"}],"name":"transfer","outputs":[{"internalType":"bool","name":"","type":"bool"}],"stateMutability":"nonpayable","type":"function"},{"inputs":[{"internalType":"address","name":"from","type":"address"},{"internalType":"address","name":"to","type":"address"},{"internalType":"uint256","name":"value","type":"uint256"}],"name":"transferFrom","outputs":[{"internalType":"bool","name":"","type":"bool"}],"stateMutability":"nonpayable","type":"function"},{"inputs":[],"name":"transfersEnabled","outputs":[{"internalType":"bool","name":"","type":"bool"}],"stateMutability":"view","type":"function"},{"inputs":[{"internalType":"address","name":"account","type":"address"}],"name":"unlockTokens","outputs":[],"stateMutability":"nonpayable","type":"function"},{"inputs":[],"name":"unpause","outputs":[],"stateMutability":"nonpayable","type":"function"},{"inputs":[{"internalType":"uint256","name":"minTokens","type":"uint256"},{"internalType":"uint256","name":"maxPerWallet","type":"uint256"}],"name":"updateInvestmentLimits","outputs":[],"stateMutability":"nonpayable","type":"function"},{"inputs":[{"internalType":"uint256","name":"newValuation","type":"uint256"}],"name":"updateProjectValuation","outputs":[],"stateMutability":"nonpayable","type":"function"},{"inputs":[{"internalType":"address","name":"","type":"address"}],"name":"walletInvestments","outputs":[{"internalType":"uint256","name":"","type":"uint256"}],"stateMutability":"view","type":"function"}],"evm":{"bytecode":{"linkReferences":{},"object":"60406080815234620004d4576200221b803803806200001e81620004d9565b92833981019060c081830312620004d45780516001600160401b039190828111620004d4578362000051918301620004ff565b926020908183015190848211620004d4576200006f918401620004ff565b90858301519060608401519460a060808601519501519660018060a01b03881691828903620004d4578151818111620003d4576003908154906001948583811c93168015620004c9575b88841014620004b3578190601f938481116200045d575b508890848311600114620003f657600092620003ea575b505060001982851b1c191690851b1782555b8751928311620003d45760049788548581811c91168015620003c9575b88821014620003b45790818386959493116200035a575b5087918411600114620002ef57600093620002e3575b505082841b92600019911b1c19161785555b7f9b779b17422d0df92223018b32b4d1fa46e071723d6817e2486d003becc55f005515620002a15784156200025f5783156200021d57506007558260095581600b558183029183830403620002085750600855600c805461ffff1916610100179055670de0b6b3a7640000600e55600a9004600f55620001f990620001da8162000571565b50620001e681620005f2565b50620001f28162000695565b5062000733565b5051611a299081620007d28239f35b601190634e487b7160e01b6000525260246000fd5b8260649188519162461bcd60e51b8352820152601660248201527f5072696365206d75737420626520706f736974697665000000000000000000006044820152fd5b8260649188519162461bcd60e51b8352820152601d60248201527f546f74616c20737570706c79206d75737420626520706f7369746976650000006044820152fd5b8260649188519162461bcd60e51b8352820152601560248201527f496e76616c69642061646d696e206164647265737300000000000000000000006044820152fd5b01519150388062000143565b9190859450601f198416928a600052886000209360005b8a82821062000343575050851162000328575b50505050811b01855562000155565b01519060f884600019921b161c191690553880808062000319565b838501518755899890960195938401930162000306565b909192935089600052876000208380870160051c8201928a8810620003aa575b9188918897969594930160051c01915b8281106200039a5750506200012d565b600081558796508891016200038a565b925081926200037a565b60228a634e487b7160e01b6000525260246000fd5b90607f169062000116565b634e487b7160e01b600052604160045260246000fd5b015190503880620000e7565b90879350601f19831691866000528a6000209260005b8c8282106200044657505084116200042d575b505050811b018255620000f9565b015160001983871b60f8161c191690553880806200041f565b8385015186558b979095019493840193016200040c565b90915084600052886000208480850160051c8201928b8610620004a9575b918991869594930160051c01915b82811062000499575050620000d0565b6000815585945089910162000489565b925081926200047b565b634e487b7160e01b600052602260045260246000fd5b92607f1692620000b9565b600080fd5b6040519190601f01601f191682016001600160401b03811183821017620003d457604052565b919080601f84011215620004d45782516001600160401b038111620003d45760209062000535601f8201601f19168301620004d9565b92818452828287010111620004d45760005b8181106200055d57508260009394955001015290565b858101830151848201840152820162000547565b6001600160a01b031660008181527f54cdd369e4e8a8515e52ca72ec816c2101831ad1f18bf44102ed171459c9b4f8602052604081205490919060ff16620005ee5781805260066020526040822081835260205260408220600160ff198254161790553391600080516020620021fb8339815191528180a4600190565b5090565b6001600160a01b031660008181527f3195c024b2ddd6d9b8f6c836aa52f67fe69376c8903d009b80229b3ce4425f5160205260408120549091907f9f2df0fed2c77648de5860a4cc508cd0818c85b8b8a1ab4ceeef8d981c8956a69060ff16620006905780835260066020526040832082845260205260408320600160ff19825416179055600080516020620021fb833981519152339380a4600190565b505090565b6001600160a01b031660008181527fe09f975e15f8f53f24cbbc282b13c40b84df485fcdb8d3997fa103dc5a4ef84160205260408120549091907f65d7a28e3265b37a6474929f336521b332c1681b933f6cb9f3376673440d862a9060ff16620006905780835260066020526040832082845260205260408320600160ff19825416179055600080516020620021fb833981519152339380a4600190565b6001600160a01b031660008181527ffc2f5a9d8a25527e912ea683c7998ea980e35d4dab4f20b6b4e7d4cbc6c7782060205260408120549091907f90601cb45097851a246a5f8a72fbb27b3ef393b2a92d8fdd7aa24b1be6b2ed3b9060ff16620006905780835260066020526040832082845260205260408320600160ff19825416179055600080516020620021fb833981519152339380a460019056fe608060408181526004918236101561001657600080fd5b600092833560e01c91826301ffc9a71461124257508163021f4bf01461120a57816306fdde0314611130578163095ea7b3146110865781630c371cea14610f7257816318160ddd14610f5357816323b872dd14610f16578163248a9ca314610eeb5781632f2ff15d14610ec1578163313ce56714610ea557816336568abe14610e5f5781633f4ba83a14610df55781633fafa12714610dd657816340c10f1914610d0157816342966c6814610ce3578163454f7edd14610cc4578163518ab2a814610ca55781635c975abb14610c8157816360219c7b14610c625781636069087714610c3b5781636641cc6414610bfd57816367c897fe14610bae5781636850415814610b4b57816370a0823114610b1457816379cc679014610ade5781637b1b1de614610abf5781637b97008d146108675781638456cb591461080c5781638b296693146107ed57816391d14854146107a657816395d89b41146106875781639bc289f11461064f578163a0821be314610622578163a217fddf14610607578163a3f569ae1461058c578163a9059cbb1461055b578163abed7ce91461053c578163b1c2558614610485578163b96990911461045e578163bef97c871461043a578163cb67f948146103da578163d53913931461039f578163d547741f1461035b578163db1c13d814610320578163dd62ed3e146102d7578163e3b591ea14610267575063e63ab1e91461022a57600080fd5b34610263578160031936011261026357602090517f65d7a28e3265b37a6474929f336521b332c1681b933f6cb9f3376673440d862a8152f35b5080fd5b838334610263576020366003190112610263578235906102856113f4565b8160085560025480156102c4578204600b55519081527f813e23bbdb11ae64914d473b2af0f4dbd1566c80ce4031ecdcae9e99deb9cd9190602090a180f35b634e487b7160e01b845260128552602484fd5b505034610263578060031936011261026357806020926102f5611295565b6102fd6112b0565b6001600160a01b0391821683526001865283832091168252845220549051908152f35b505034610263578160031936011261026357602090517f90601cb45097851a246a5f8a72fbb27b3ef393b2a92d8fdd7aa24b1be6b2ed3b8152f35b9190503461039b578060031936011261039b57610397913561039260016103806112b0565b9383875260066020528620015461142e565b6114d4565b5080f35b8280fd5b505034610263578160031936011261026357602090517f9f2df0fed2c77648de5860a4cc508cd0818c85b8b8a1ab4ceeef8d981c8956a68152f35b50503461026357602036600319011261026357816103f6611295565b6103fe6113f4565b6001600160a01b03168082526011602052918120557fcf96a7404357442bbc147c389fc2942cb6eedcaf1aad90bb8eb4b67ce43d4fb28280a280f35b50503461026357816003193601126102635760209060ff600c541690519015158152f35b50503461026357816003193601126102635760209060ff600c5460081c1690519015158152f35b90503461039b578160031936011261039b5761049f611295565b602435916104ab6113f4565b428311156104f957506001600160a01b0316808452601160209081528385208390559251918252917fac87f20a77d28ee8bbb58ec87ea8fa968b3393efae1a368fd50b767c2847391c91a280f35b606490602085519162461bcd60e51b8352820152601b60248201527f4c6f636b2074696d65206d75737420626520696e2066757475726500000000006044820152fd5b505034610263578160031936011261026357602090600f549051908152f35b50503461026357806003193601126102635760209061058561057b611295565b602435903361154b565b5160018152f35b5050346102635780600319360112610263577f2df1cad2a2659e001c3804c872f69655356013e35c18c2e77a5d568078ab788f60206105c9611295565b6105d161130f565b906105da61131e565b6001600160a01b0316808652600d8352848620805460ff191660ff8415151617905593519015158152a280f35b50503461026357816003193601126102635751908152602090f35b50503461026357602036600319011261026357602090610648610643611295565b6119c2565b9051908152f35b5050346102635760203660031901126102635760209181906001600160a01b03610677611295565b1681526011845220549051908152f35b838334610263578160031936011261026357805190828454600181811c9080831692831561079c575b60209384841081146107895783885290811561076d5750600114610718575b505050829003601f01601f191682019267ffffffffffffffff84118385101761070557508291826107019252826112c6565b0390f35b634e487b7160e01b815260418552602490fd5b8787529192508591837f8a35acfbc15ff81a39ae7d344fd709f28e8600b4aa8c65c6b64bfe7fe36bd19b5b83851061075957505050508301018580806106cf565b805488860183015293019284908201610743565b60ff1916878501525050151560051b84010190508580806106cf565b634e487b7160e01b895260228a52602489fd5b91607f16916106b0565b90503461039b578160031936011261039b578160209360ff926107c76112b0565b90358252600686528282206001600160a01b039091168252855220549151911615158152f35b505034610263578160031936011261026357602090600e549051908152f35b50503461026357816003193601126102635760207f62e78cea01bee320cd4e420270b5ea74000d11b0c9f74754ebdbfc544b05a2589161084a611398565b61085261196a565b600160ff19600554161760055551338152a180f35b838334610263576020908160031936011261039b578335907f9b779b17422d0df92223018b32b4d1fa46e071723d6817e2486d003becc55f00926002845414610aaf57600284556108b661196a565b600e548310610a6d57600a546108cc84826118e1565b60095410610a2a57338652601082526108e884848820546118e1565b600f54106109dd5760ff600c5460081c16610995575b600b54908185029185830414851517156109825791670de0b6b3a764000085949261094d600198977f8fafebcaf9d154343dad25669bfa277f4fbacd7ac6b0c4fed522580e040a0f33966118e1565b600a55338952601083528389206109658782546118e1565b90556109718633611904565b835195865204908401523392a25580f35b634e487b7160e01b875260118852602487fd5b338652600d825260ff83872054166108fe57825162461bcd60e51b8152808801839052601060248201526f12d650c81b9bdd08185c1c1c9bdd995960821b6044820152606490fd5b825162461bcd60e51b8152808801839052602160248201527f45786365656473206d617820696e766573746d656e74207065722077616c6c656044820152601d60fa1b6064820152608490fd5b825162461bcd60e51b8152808801839052601b60248201527f4e6f7420656e6f75676820746f6b656e7320617661696c61626c6500000000006044820152606490fd5b8590606492519162461bcd60e51b8352820152601860248201527f42656c6f77206d696e696d756d20696e766573746d656e7400000000000000006044820152fd5b8151633ee5aeb560e01b81528690fd5b505034610263578160031936011261026357602090600b549051908152f35b50503461026357366003190112610b1157610b0e610afa611295565b60243590610b09823383611767565b61183a565b80f35b80fd5b5050346102635760203660031901126102635760209181906001600160a01b03610b3c611295565b16815280845220549051908152f35b90503461039b57602036600319011261039b57359081151580920361039b577fe1965432af4c9923f6ebb98f1721262967cfa6178008742d23041dc8ee74ee8f91602091610b976113f4565b60ff19600c541660ff831617600c5551908152a180f35b50503461026357816003193601126102635760c0906007549060085490600954600a5490600b549260ff600c5416948151968752602087015285015260608401526080830152151560a0820152f35b5050346102635760203660031901126102635760209160ff9082906001600160a01b03610c28611295565b168152600d855220541690519015158152f35b9190503461039b5736600319011261026357610c556113f4565b35600e55602435600f5580f35b5050346102635781600319360112610263576020906009549051908152f35b50503461026357816003193601126102635760209060ff6005541690519015158152f35b505034610263578160031936011261026357602090600a549051908152f35b5050346102635781600319360112610263576020906008549051908152f35b83903461026357602036600319011261026357610b0e90353361183a565b90503461039b578160031936011261039b57610d1b611295565b917f9f2df0fed2c77648de5860a4cc508cd0818c85b8b8a1ab4ceeef8d981c8956a6808552600660205281852033865260205260ff828620541615610dba57506001600160a01b03831615610d775783610b0e60243585611904565b906020606492519162461bcd60e51b8352820152601b60248201527f43616e6e6f74206d696e7420746f207a65726f206164647265737300000000006044820152fd5b60449291519163e2517d3f60e01b835233908301526024820152fd5b5050346102635781600319360112610263576020906007549051908152f35b90503461039b578260031936011261039b57610e0f611398565b6005549060ff821615610e51575060ff1916600555513381527f5db9ee0a495bf2e6ff9c91a7834c1ba4fdd244a5e8aa4e537bd38aeae4b073aa90602090a180f35b8251638dfc202b60e01b8152fd5b838334610263578060031936011261026357610e796112b0565b90336001600160a01b03831603610e9657506103979192356114d4565b5163334bd91960e11b81528390fd5b5050346102635781600319360112610263576020905160128152f35b9190503461039b578060031936011261039b576103979135610ee660016103806112b0565b611454565b90503461039b57602036600319011261039b5781602093600192358152600685522001549051908152f35b50503461026357606036600319011261026357602090610585610f37611295565b610f3f6112b0565b60443591610f4e833383611767565b61154b565b5050346102635781600319360112610263576020906002549051908152f35b9190503461039b578060031936011261039b5781359167ffffffffffffffff918284116110825736602385011215611082578382013592831161108257602493848101908536918660051b01011161107e5792610fcd61130f565b610fd561131e565b80151591875b818110610fe6578880f35b887f2df1cad2a2659e001c3804c872f69655356013e35c18c2e77a5d568078ab788f6001600160a01b038061102461101f86888e611988565b6119ae565b1683526110458689602095600d8752209060ff801983541691151516179055565b61105361101f85878d611988565b16918751878152a2600019811461106c57600101610fdb565b634e487b7160e01b8952601186528789fd5b8580fd5b8480fd5b90503461039b578160031936011261039b576110a0611295565b602435903315611119576001600160a01b031691821561110257508083602095338152600187528181208582528752205582519081527f8c5be1e5ebec7d5bd14f71427d1e84f3dd0314c0f7b2291e5b200ac8c7c3b925843392a35160018152f35b8351634a1406b160e11b8152908101859052602490fd5b835163e602df0560e01b8152808401869052602490fd5b83833461026357816003193601126102635780519082600354600181811c90808316928315611200575b60209384841081146107895783885290811561076d57506001146111aa57505050829003601f01601f191682019267ffffffffffffffff84118385101761070557508291826107019252826112c6565b600387529192508591837fc2575a0e9e593c00f959f8c92f12db2869c3395a3b0502d05e2516446f71f85b5b8385106111ec57505050508301018580806106cf565b8054888601830152930192849082016111d6565b91607f169161115a565b5050346102635760203660031901126102635760209181906001600160a01b03611232611295565b1681526010845220549051908152f35b84913461039b57602036600319011261039b573563ffffffff60e01b811680910361039b5760209250637965db0b60e01b8114908115611284575b5015158152f35b6301ffc9a760e01b1490508361127d565b600435906001600160a01b03821682036112ab57565b600080fd5b602435906001600160a01b03821682036112ab57565b6020808252825181830181905290939260005b8281106112fb57505060409293506000838284010152601f8019910116010190565b8181018601518482016040015285016112d9565b6024359081151582036112ab57565b3360009081527ffc2f5a9d8a25527e912ea683c7998ea980e35d4dab4f20b6b4e7d4cbc6c7782060205260409020547f90601cb45097851a246a5f8a72fbb27b3ef393b2a92d8fdd7aa24b1be6b2ed3b9060ff161561137a5750565b6044906040519063e2517d3f60e01b82523360048301526024820152fd5b3360009081527fe09f975e15f8f53f24cbbc282b13c40b84df485fcdb8d3997fa103dc5a4ef84160205260409020547f65d7a28e3265b37a6474929f336521b332c1681b933f6cb9f3376673440d862a9060ff161561137a5750565b3360009081527f54cdd369e4e8a8515e52ca72ec816c2101831ad1f18bf44102ed171459c9b4f8602052604081205460ff161561137a5750565b80600052600660205260406000203360005260205260ff604060002054161561137a5750565b906000918083526006602052604083209160018060a01b03169182845260205260ff604084205416156000146114cf5780835260066020526040832082845260205260408320600160ff198254161790557f2f8788117e7eff1d82e926ec794901d17c78024a50270940304540a733656f0d339380a4600190565b505090565b906000918083526006602052604083209160018060a01b03169182845260205260ff6040842054166000146114cf578083526006602052604083208284526020526040832060ff1981541690557ff6391f5c32d9c69d2a47ea670b442974b53935d1edc7fd64eb21e047a839171b339380a4600190565b916001600160a01b0380841692831561174e571692831561173557600c5460ff811680156116fd575b156116c05760081c60ff16611665575b6000838152601160205260409182822054421061162d576115a361196a565b8482528160205282822054908482106115fc575091808285602095887fddf252ad1be2c89b69c2b068fc378daa952ba7f163c4a11628f55a4df523b3ef98965282875203828220558781522082815401905551908152a3565b835163391434e360e21b81526001600160a01b03919091166004820152602481019190915260448101849052606490fd5b825162461bcd60e51b8152602060048201526011602482015270151bdad95b9cc8185c99481b1bd8dad959607a1b6044820152606490fd5b83600052600d60205260ff604060002054166115845760405162461bcd60e51b815260206004820152601a60248201527f526563697069656e74204b5943206e6f7420617070726f7665640000000000006044820152606490fd5b60405162461bcd60e51b8152602060048201526015602482015274151c985b9cd9995c9cc81b9bdd08195b98589b1959605a1b6044820152606490fd5b503360009081527ffc2f5a9d8a25527e912ea683c7998ea980e35d4dab4f20b6b4e7d4cbc6c77820602052604090205460ff16611574565b60405163ec442f0560e01b815260006004820152602490fd5b604051634b637e8f60e11b815260006004820152602490fd5b9160018060a01b0380931691600093838552600160205260409384862091831691828752602052848620549260001984106117a6575b50505050505050565b84841061180a575080156117f25781156117da5785526001602052838520908552602052039120553880808080808061179d565b8451634a1406b160e11b815260048101879052602490fd5b845163e602df0560e01b815260048101879052602490fd5b8551637dc7a0d960e11b81526001600160a01b039190911660048201526024810184905260448101859052606490fd5b906001600160a01b03821690811561174e5761185461196a565b600092828452836020526040842054908282106118af5750817fddf252ad1be2c89b69c2b068fc378daa952ba7f163c4a11628f55a4df523b3ef926020928587528684520360408620558060025403600255604051908152a3565b60405163391434e360e21b81526001600160a01b03919091166004820152602481019190915260448101829052606490fd5b919082018092116118ee57565b634e487b7160e01b600052601160045260246000fd5b6001600160a01b0316908115611735577fddf252ad1be2c89b69c2b068fc378daa952ba7f163c4a11628f55a4df523b3ef602060009261194261196a565b61194e816002546118e1565b60025584845283825260408420818154019055604051908152a3565b60ff6005541661197657565b60405163d93c066560e01b8152600490fd5b91908110156119985760051b0190565b634e487b7160e01b600052603260045260246000fd5b356001600160a01b03811681036112ab5790565b6001600160a01b031660009081526011602052604090205442106119ee57600060205260406000205490565b60009056fea2646970667358221220847f1673c62f01b004b15a80657ff469dbfae4c62c4a1d184c9891bce5bcbc1164736f6c634300081400332f8788117e7eff1d82e926ec794901d17c78024a50270940304540a733656f0d","opcodes":"PUSH1 0x40 PUSH1 0x80 DUP2 MSTORE CALLVALUE PUSH3 0x4D4 JUMPI PUSH3 0x221B DUP1 CODESIZE SUB DUP1 PUSH3 0x1E DUP2 PUSH3 0x4D9 JUMP JUMPDEST SWAP3 DUP4 CODECOPY DUP2 ADD SWAP1 PUSH1 0xC0 DUP2 DUP4 SUB SLT PUSH3 0x4D4 JUMPI DUP1 MLOAD PUSH1 0x1 PUSH1 0x1 PUSH1 0x40 SHL SUB SWAP2 SWAP1 DUP3 DUP2 GT PUSH3 0x4D4 JUMPI DUP4 PUSH3 0x51 SWAP2 DUP4 ADD PUSH3 0x4FF JUMP JUMPDEST SWAP3 PUSH1 0x20 SWAP1 DUP2 DUP4 ADD MLOAD SWAP1 DUP5 DUP3 GT PUSH3 0x4D4 JUMPI PUSH3 0x6F SWAP2 DUP5 ADD PUSH3 0x4FF JUMP JUMPDEST SWAP1 DUP6 DUP4 ADD MLOAD SWAP1 PUSH1 0x60 DUP5 ADD MLOAD SWAP5 PUSH1 0xA0 PUSH1 0x80 DUP7 ADD MLOAD SWAP6 ADD MLOAD SWAP7 PUSH1 0x1 DUP1 PUSH1 0xA0 SHL SUB DUP9 AND SWAP2 DUP3 DUP10 SUB PUSH3 0x4D4 JUMPI DUP2 MLOAD DUP2 DUP2 GT PUSH3 0x3D4 JUMPI PUSH1 0x3 SWAP1 DUP2 SLOAD SWAP1 PUSH1 0x1 SWAP5 DUP6 DUP4 DUP2 SHR SWAP4 AND DUP1 ISZERO PUSH3 0x4C9 JUMPI JUMPDEST DUP9 DUP5 LT EQ PUSH3 0x4B3 JUMPI DUP2 SWAP1 PUSH1 0x1F SWAP4 DUP5 DUP2 GT PUSH3 0x45D JUMPI JUMPDEST POP DUP9 SWAP1 DUP5 DUP4 GT PUSH1 0x1 EQ PUSH3 0x3F6 JUMPI PUSH1 0x0 SWAP3 PUSH3 0x3EA JUMPI JUMPDEST POP POP PUSH1 0x0 NOT DUP3 DUP6 SHL SHR NOT AND SWAP1 DUP6 SHL OR DUP3 SSTORE JUMPDEST DUP8 MLOAD SWAP3 DUP4 GT PUSH3 0x3D4 JUMPI PUSH1 0x4 SWAP8 DUP9 SLOAD DUP6 DUP2 DUP2 SHR SWAP2 AND DUP1 ISZERO PUSH3 0x3C9 JUMPI JUMPDEST DUP9 DUP3 LT EQ PUSH3 0x3B4 JUMPI SWAP1 DUP2 DUP4 DUP7 SWAP6 SWAP5 SWAP4 GT PUSH3 0x35A JUMPI JUMPDEST POP DUP8 SWAP2 DUP5 GT PUSH1 0x1 EQ PUSH3 0x2EF JUMPI PUSH1 0x0 SWAP4 PUSH3 0x2E3 JUMPI JUMPDEST POP POP DUP3 DUP5 SHL SWAP3 PUSH1 0x0 NOT SWAP2 SHL SHR NOT AND OR DUP6 SSTORE JUMPDEST PUSH32 0x9B779B17422D0DF92223018B32B4D1FA46E071723D6817E2486D003BECC55F00 SSTORE ISZERO PUSH3 0x2A1 JUMPI DUP5 ISZERO PUSH3 0x25F JUMPI DUP4 ISZERO PUSH3 0x21D JUMPI POP PUSH1 0x7 SSTORE DUP3 PUSH1 0x9 SSTORE DUP2 PUSH1 0xB SSTORE DUP2 DUP4 MUL SWAP2 DUP4 DUP4 DIV SUB PUSH3 0x208 JUMPI POP PUSH1 0x8 SSTORE PUSH1 0xC DUP1 SLOAD PUSH2 0xFFFF NOT AND PUSH2 0x100 OR SWAP1 SSTORE PUSH8 0xDE0B6B3A7640000 PUSH1 0xE SSTORE PUSH1 0xA SWAP1 DIV PUSH1 0xF SSTORE PUSH3 0x1F9 SWAP1 PUSH3 0x1DA DUP2 PUSH3 0x571 JUMP JUMPDEST POP PUSH3 0x1E6 DUP2 PUSH3 0x5F2 JUMP JUMPDEST POP PUSH3 0x1F2 DUP2 PUSH3 0x695 JUMP JUMPDEST POP PUSH3 0x733 JUMP JUMPDEST POP MLOAD PUSH2 0x1A29 SWAP1 DUP2 PUSH3 0x7D2 DUP3 CODECOPY RETURN JUMPDEST PUSH1 0x11 SWAP1 PUSH4 0x4E487B71 PUSH1 0xE0 SHL PUSH1 0x0 MSTORE MSTORE PUSH1 0x24 PUSH1 0x0 REVERT JUMPDEST DUP3 PUSH1 0x64 SWAP2 DUP9 MLOAD SWAP2 PUSH3 0x461BCD PUSH1 0xE5 SHL DUP4 MSTORE DUP3 ADD MSTORE PUSH1 0x16 PUSH1 0x24 DUP3 ADD MSTORE PUSH32 0x5072696365206D75737420626520706F73697469766500000000000000000000 PUSH1 0x44 DUP3 ADD MSTORE REVERT JUMPDEST DUP3 PUSH1 0x64 SWAP2 DUP9 MLOAD SWAP2 PUSH3 0x461BCD PUSH1 0xE5 SHL DUP4 MSTORE DUP3 ADD MSTORE PUSH1 0x1D PUSH1 0x24 DUP3 ADD MSTORE PUSH32 0x546F74616C20737570706C79206D75737420626520706F736974697665000000 PUSH1 0x44 DUP3 ADD MSTORE REVERT JUMPDEST DUP3 PUSH1 0x64 SWAP2 DUP9 MLOAD SWAP2 PUSH3 0x461BCD PUSH1 0xE5 SHL DUP4 MSTORE DUP3 ADD MSTORE PUSH1 0x15 PUSH1 0x24 DUP3 ADD MSTORE PUSH32 0x496E76616C69642061646D696E20616464726573730000000000000000000000 PUSH1 0x44 DUP3 ADD MSTORE REVERT JUMPDEST ADD MLOAD SWAP2 POP CODESIZE DUP1 PUSH3 0x143 JUMP JUMPDEST SWAP2 SWAP1 DUP6 SWAP5 POP PUSH1 0x1F NOT DUP5 AND SWAP3 DUP11 PUSH1 0x0 MSTORE DUP9 PUSH1 0x0 KECCAK256 SWAP4 PUSH1 0x0 JUMPDEST DUP11 DUP3 DUP3 LT PUSH3 0x343 JUMPI POP POP DUP6 GT PUSH3 0x328 JUMPI JUMPDEST POP POP POP POP DUP2 SHL ADD DUP6 SSTORE PUSH3 0x155 JUMP JUMPDEST ADD MLOAD SWAP1 PUSH1 0xF8 DUP5 PUSH1 0x0 NOT SWAP3 SHL AND SHR NOT AND SWAP1 SSTORE CODESIZE DUP1 DUP1 DUP1 PUSH3 0x319 JUMP JUMPDEST DUP4 DUP6 ADD MLOAD DUP8 SSTORE DUP10 SWAP9 SWAP1 SWAP7 ADD SWAP6 SWAP4 DUP5 ADD SWAP4 ADD PUSH3 0x306 JUMP JUMPDEST SWAP1 SWAP2 SWAP3 SWAP4 POP DUP10 PUSH1 0x0 MSTORE DUP8 PUSH1 0x0 KECCAK256 DUP4 DUP1 DUP8 ADD PUSH1 0x5 SHR DUP3 ADD SWAP3 DUP11 DUP9 LT PUSH3 0x3AA JUMPI JUMPDEST SWAP2 DUP9 SWAP2 DUP9 SWAP8 SWAP7 SWAP6 SWAP5 SWAP4 ADD PUSH1 0x5 SHR ADD SWAP2 JUMPDEST DUP3 DUP2 LT PUSH3 0x39A JUMPI POP POP PUSH3 0x12D JUMP JUMPDEST PUSH1 0x0 DUP2 SSTORE DUP8 SWAP7 POP DUP9 SWAP2 ADD PUSH3 0x38A JUMP JUMPDEST SWAP3 POP DUP2 SWAP3 PUSH3 0x37A JUMP JUMPDEST PUSH1 0x22 DUP11 PUSH4 0x4E487B71 PUSH1 0xE0 SHL PUSH1 0x0 MSTORE MSTORE PUSH1 0x24 PUSH1 0x0 REVERT JUMPDEST SWAP1 PUSH1 0x7F AND SWAP1 PUSH3 0x116 JUMP JUMPDEST PUSH4 0x4E487B71 PUSH1 0xE0 SHL PUSH1 0x0 MSTORE PUSH1 0x41 PUSH1 0x4 MSTORE PUSH1 0x24 PUSH1 0x0 REVERT JUMPDEST ADD MLOAD SWAP1 POP CODESIZE DUP1 PUSH3 0xE7 JUMP JUMPDEST SWAP1 DUP8 SWAP4 POP PUSH1 0x1F NOT DUP4 AND SWAP2 DUP7 PUSH1 0x0 MSTORE DUP11 PUSH1 0x0 KECCAK256 SWAP3 PUSH1 0x0 JUMPDEST DUP13 DUP3 DUP3 LT PUSH3 0x446 JUMPI POP POP DUP5 GT PUSH3 0x42D JUMPI JUMPDEST POP POP POP DUP2 SHL ADD DUP3 SSTORE PUSH3 0xF9 JUMP JUMPDEST ADD MLOAD PUSH1 0x0 NOT DUP4 DUP8 SHL PUSH1 0xF8 AND SHR NOT AND SWAP1 SSTORE CODESIZE DUP1 DUP1 PUSH3 0x41F JUMP JUMPDEST DUP4 DUP6 ADD MLOAD DUP7 SSTORE DUP12 SWAP8 SWAP1 SWAP6 ADD SWAP5 SWAP4 DUP5 ADD SWAP4 ADD PUSH3 0x40C JUMP JUMPDEST SWAP1 SWAP2 POP DUP5 PUSH1 0x0 MSTORE DUP9 PUSH1 0x0 KECCAK256 DUP5 DUP1 DUP6 ADD PUSH1 0x5 SHR DUP3 ADD SWAP3 DUP12 DUP7 LT PUSH3 0x4A9 JUMPI JUMPDEST SWAP2 DUP10 SWAP2 DUP7 SWAP6 SWAP5 SWAP4 ADD PUSH1 0x5 SHR ADD SWAP2 JUMPDEST DUP3 DUP2 LT PUSH3 0x499 JUMPI POP POP PUSH3 0xD0 JUMP JUMPDEST PUSH1 0x0 DUP2 SSTORE DUP6 SWAP5 POP DUP10 SWAP2 ADD PUSH3 0x489 JUMP JUMPDEST SWAP3 POP DUP2 SWAP3 PUSH3 0x47B JUMP JUMPDEST PUSH4 0x4E487B71 PUSH1 0xE0 SHL PUSH1 0x0 MSTORE PUSH1 0x22 PUSH1 0x4 MSTORE PUSH1 0x24 PUSH1 0x0 REVERT JUMPDEST SWAP3 PUSH1 0x7F AND SWAP3 PUSH3 0xB9 JUMP JUMPDEST PUSH1 0x0 DUP1 REVERT JUMPDEST PUSH1 0x40 MLOAD SWAP2 SWAP1 PUSH1 0x1F ADD PUSH1 0x1F NOT AND DUP3 ADD PUSH1 0x1 PUSH1 0x1 PUSH1 0x40 SHL SUB DUP2 GT DUP4 DUP3 LT OR PUSH3 0x3D4 JUMPI PUSH1 0x40 MSTORE JUMP JUMPDEST SWAP2 SWAP1 DUP1 PUSH1 0x1F DUP5 ADD SLT ISZERO PUSH3 0x4D4 JUMPI DUP3 MLOAD PUSH1 0x1 PUSH1 0x1 PUSH1 0x40 SHL SUB DUP2 GT PUSH3 0x3D4 JUMPI PUSH1 0x20 SWAP1 PUSH3 0x535 PUSH1 0x1F DUP3 ADD PUSH1 0x1F NOT AND DUP4 ADD PUSH3 0x4D9 JUMP JUMPDEST SWAP3 DUP2 DUP5 MSTORE DUP3 DUP3 DUP8 ADD ADD GT PUSH3 0x4D4 JUMPI PUSH1 0x0 JUMPDEST DUP2 DUP2 LT PUSH3 0x55D JUMPI POP DUP3 PUSH1 0x0 SWAP4 SWAP5 SWAP6 POP ADD ADD MSTORE SWAP1 JUMP JUMPDEST DUP6 DUP2 ADD DUP4 ADD MLOAD DUP5 DUP3 ADD DUP5 ADD MSTORE DUP3 ADD PUSH3 0x547 JUMP JUMPDEST PUSH1 0x1 PUSH1 0x1 PUSH1 0xA0 SHL SUB AND PUSH1 0x0 DUP2 DUP2 MSTORE PUSH32 0x54CDD369E4E8A8515E52CA72EC816C2101831AD1F18BF44102ED171459C9B4F8 PUSH1 0x20 MSTORE PUSH1 0x40 DUP2 KECCAK256 SLOAD SWAP1 SWAP2 SWAP1 PUSH1 0xFF AND PUSH3 0x5EE JUMPI DUP2 DUP1 MSTORE PUSH1 0x6 PUSH1 0x20 MSTORE PUSH1 0x40 DUP3 KECCAK256 DUP2 DUP4 MSTORE PUSH1 0x20 MSTORE PUSH1 0x40 DUP3 KECCAK256 PUSH1 0x1 PUSH1 0xFF NOT DUP3 SLOAD AND OR SWAP1 SSTORE CALLER SWAP2 PUSH1 0x0 DUP1 MLOAD PUSH1 0x20 PUSH3 0x21FB DUP4 CODECOPY DUP2 MLOAD SWAP2 MSTORE DUP2 DUP1 LOG4 PUSH1 0x1 SWAP1 JUMP JUMPDEST POP SWAP1 JUMP JUMPDEST PUSH1 0x1 PUSH1 0x1 PUSH1 0xA0 SHL SUB AND PUSH1 0x0 DUP2 DUP2 MSTORE PUSH32 0x3195C024B2DDD6D9B8F6C836AA52F67FE69376C8903D009B80229B3CE4425F51 PUSH1 0x20 MSTORE PUSH1 0x40 DUP2 KECCAK256 SLOAD SWAP1 SWAP2 SWAP1 PUSH32 0x9F2DF0FED2C77648DE5860A4CC508CD0818C85B8B8A1AB4CEEEF8D981C8956A6 SWAP1 PUSH1 0xFF AND PUSH3 0x690 JUMPI DUP1 DUP4 MSTORE PUSH1 0x6 PUSH1 0x20 MSTORE PUSH1 0x40 DUP4 KECCAK256 DUP3 DUP5 MSTORE PUSH1 0x20 MSTORE PUSH1 0x40 DUP4 KECCAK256 PUSH1 0x1 PUSH1 0xFF NOT DUP3 SLOAD AND OR SWAP1 SSTORE PUSH1 0x0 DUP1 MLOAD PUSH1 0x20 PUSH3 0x21FB DUP4 CODECOPY DUP2 MLOAD SWAP2 MSTORE CALLER SWAP4 DUP1 LOG4 PUSH1 0x1 SWAP1 JUMP JUMPDEST POP POP SWAP1 JUMP JUMPDEST PUSH1 0x1 PUSH1 0x1 PUSH1 0xA0 SHL SUB AND PUSH1 0x0 DUP2 DUP2 MSTORE PUSH32 0xE09F975E15F8F53F24CBBC282B13C40B84DF485FCDB8D3997FA103DC5A4EF841 PUSH1 0x20 MSTORE PUSH1 0x40 DUP2 KECCAK256 SLOAD SWAP1 SWAP2 SWAP1 PUSH32 0x65D7A28E3265B37A6474929F336521B332C1681B933F6CB9F3376673440D862A SWAP1 PUSH1 0xFF AND PUSH3 0x690 JUMPI DUP1 DUP4 MSTORE PUSH1 0x6 PUSH1 0x20 MSTORE PUSH1 0x40 DUP4 KECCAK256 DUP3 DUP5 MSTORE PUSH1 0x20 MSTORE PUSH1 0x40 DUP4 KECCAK256 PUSH1 0x1 PUSH1 0xFF NOT DUP3 SLOAD AND OR SWAP1 SSTORE PUSH1 0x0 DUP1 MLOAD PUSH1 0x20 PUSH3 0x21FB DUP4 CODECOPY DUP2 MLOAD SWAP2 MSTORE CALLER SWAP4 DUP1 LOG4 PUSH1 0x1 SWAP1 JUMP JUMPDEST PUSH1 0x1 PUSH1 0x1 PUSH1 0xA0 SHL SUB AND PUSH1 0x0 DUP2 DUP2 MSTORE PUSH32 0xFC2F5A9D8A25527E912EA683C7998EA980E35D4DAB4F20B6B4E7D4CBC6C77820 PUSH1 0x20 MSTORE PUSH1 0x40 DUP2 KECCAK256 SLOAD SWAP1 SWAP2 SWAP1 PUSH32 0x90601CB45097851A246A5F8A72FBB27B3EF393B2A92D8FDD7AA24B1BE6B2ED3B SWAP1 PUSH1 0xFF AND PUSH3 0x690 JUMPI DUP1 DUP4 MSTORE PUSH1 0x6 PUSH1 0x20 MSTORE PUSH1 0x40 DUP4 KECCAK256 DUP3 DUP5 MSTORE PUSH1 0x20 MSTORE PUSH1 0x40 DUP4 KECCAK256 PUSH1 0x1 PUSH1 0xFF NOT DUP3 SLOAD AND OR SWAP1 SSTORE PUSH1 0x0 DUP1 MLOAD PUSH1 0x20 PUSH3 0x21FB DUP4 CODECOPY DUP2 MLOAD SWAP2 MSTORE CALLER SWAP4 DUP1 LOG4 PUSH1 0x1 SWAP1 JUMP INVALID PUSH1 0x80 PUSH1 0x40 DUP2 DUP2 MSTORE PUSH1 0x4 SWAP2 DUP3 CALLDATASIZE LT ISZERO PUSH2 0x16 JUMPI PUSH1 0x0 DUP1 REVERT JUMPDEST PUSH1 0x0 SWAP3 DUP4 CALLDATALOAD PUSH1 0xE0 SHR SWAP2 DUP3 PUSH4 0x1FFC9A7 EQ PUSH2 0x1242 JUMPI POP DUP2 PUSH4 0x21F4BF0 EQ PUSH2 0x120A JUMPI DUP2 PUSH4 0x6FDDE03 EQ PUSH2 0x1130 JUMPI DUP2 PUSH4 0x95EA7B3 EQ PUSH2 0x1086 JUMPI DUP2 PUSH4 0xC371CEA EQ PUSH2 0xF72 JUMPI DUP2 PUSH4 0x18160DDD EQ PUSH2 0xF53 JUMPI DUP2 PUSH4 0x23B872DD EQ PUSH2 0xF16 JUMPI DUP2 PUSH4 0x248A9CA3 EQ PUSH2 0xEEB JUMPI DUP2 PUSH4 0x2F2FF15D EQ PUSH2 0xEC1 JUMPI DUP2 PUSH4 0x313CE567 EQ PUSH2 0xEA5 JUMPI DUP2 PUSH4 0x36568ABE EQ PUSH2 0xE5F JUMPI DUP2 PUSH4 0x3F4BA83A EQ PUSH2 0xDF5 JUMPI DUP2 PUSH4 0x3FAFA127 EQ PUSH2 0xDD6 JUMPI DUP2 PUSH4 0x40C10F19 EQ PUSH2 0xD01 JUMPI DUP2 PUSH4 0x42966C68 EQ PUSH2 0xCE3 JUMPI DUP2 PUSH4 0x454F7EDD EQ PUSH2 0xCC4 JUMPI DUP2 PUSH4 0x518AB2A8 EQ PUSH2 0xCA5 JUMPI DUP2 PUSH4 0x5C975ABB EQ PUSH2 0xC81 JUMPI DUP2 PUSH4 0x60219C7B EQ PUSH2 0xC62 JUMPI DUP2 PUSH4 0x60690877 EQ PUSH2 0xC3B JUMPI DUP2 PUSH4 0x6641CC64 EQ PUSH2 0xBFD JUMPI DUP2 PUSH4 0x67C897FE EQ PUSH2 0xBAE JUMPI DUP2 PUSH4 0x68504158 EQ PUSH2 0xB4B JUMPI DUP2 PUSH4 0x70A08231 EQ PUSH2 0xB14 JUMPI DUP2 PUSH4 0x79CC6790 EQ PUSH2 0xADE JUMPI DUP2 PUSH4 0x7B1B1DE6 EQ PUSH2 0xABF JUMPI DUP2 PUSH4 0x7B97008D EQ PUSH2 0x867 JUMPI DUP2 PUSH4 0x8456CB59 EQ PUSH2 0x80C JUMPI DUP2 PUSH4 0x8B296693 EQ PUSH2 0x7ED JUMPI DUP2 PUSH4 0x91D14854 EQ PUSH2 0x7A6 JUMPI DUP2 PUSH4 0x95D89B41 EQ PUSH2 0x687 JUMPI DUP2 PUSH4 0x9BC289F1 EQ PUSH2 0x64F JUMPI DUP2 PUSH4 0xA0821BE3 EQ PUSH2 0x622 JUMPI DUP2 PUSH4 0xA217FDDF EQ PUSH2 0x607 JUMPI DUP2 PUSH4 0xA3F569AE EQ PUSH2 0x58C JUMPI DUP2 PUSH4 0xA9059CBB EQ PUSH2 0x55B JUMPI DUP2 PUSH4 0xABED7CE9 EQ PUSH2 0x53C JUMPI DUP2 PUSH4 0xB1C25586 EQ PUSH2 0x485 JUMPI DUP2 PUSH4 0xB9699091 EQ PUSH2 0x45E JUMPI DUP2 PUSH4 0xBEF97C87 EQ PUSH2 0x43A JUMPI DUP2 PUSH4 0xCB67F948 EQ PUSH2 0x3DA JUMPI DUP2 PUSH4 0xD5391393 EQ PUSH2 0x39F JUMPI DUP2 PUSH4 0xD547741F EQ PUSH2 0x35B JUMPI DUP2 PUSH4 0xDB1C13D8 EQ PUSH2 0x320 JUMPI DUP2 PUSH4 0xDD62ED3E EQ PUSH2 0x2D7 JUMPI DUP2 PUSH4 0xE3B591EA EQ PUSH2 0x267 JUMPI POP PUSH4 0xE63AB1E9 EQ PUSH2 0x22A JUMPI PUSH1 0x0 DUP1 REVERT JUMPDEST CALLVALUE PUSH2 0x263 JUMPI DUP2 PUSH1 0x3 NOT CALLDATASIZE ADD SLT PUSH2 0x263 JUMPI PUSH1 0x20 SWAP1 MLOAD PUSH32 0x65D7A28E3265B37A6474929F336521B332C1681B933F6CB9F3376673440D862A DUP2 MSTORE RETURN JUMPDEST POP DUP1 REVERT JUMPDEST DUP4 DUP4 CALLVALUE PUSH2 0x263 JUMPI PUSH1 0x20 CALLDATASIZE PUSH1 0x3 NOT ADD SLT PUSH2 0x263 JUMPI DUP3 CALLDATALOAD SWAP1 PUSH2 0x285 PUSH2 0x13F4 JUMP JUMPDEST DUP2 PUSH1 0x8 SSTORE PUSH1 0x2 SLOAD DUP1 ISZERO PUSH2 0x2C4 JUMPI DUP3 DIV PUSH1 0xB SSTORE MLOAD SWAP1 DUP2 MSTORE PUSH32 0x813E23BBDB11AE64914D473B2AF0F4DBD1566C80CE4031ECDCAE9E99DEB9CD91 SWAP1 PUSH1 0x20 SWAP1 LOG1 DUP1 RETURN JUMPDEST PUSH4 0x4E487B71 PUSH1 0xE0 SHL DUP5 MSTORE PUSH1 0x12 DUP6 MSTORE PUSH1 0x24 DUP5 REVERT JUMPDEST POP POP CALLVALUE PUSH2 0x263 JUMPI DUP1 PUSH1 0x3 NOT CALLDATASIZE ADD SLT PUSH2 0x263 JUMPI DUP1 PUSH1 0x20 SWAP3 PUSH2 0x2F5 PUSH2 0x1295 JUMP JUMPDEST PUSH2 0x2FD PUSH2 0x12B0 JUMP JUMPDEST PUSH1 0x1 PUSH1 0x1 PUSH1 0xA0 SHL SUB SWAP2 DUP3 AND DUP4 MSTORE PUSH1 0x1 DUP7 MSTORE DUP4 DUP4 KECCAK256 SWAP2 AND DUP3 MSTORE DUP5 MSTORE KECCAK256 SLOAD SWAP1 MLOAD SWAP1 DUP2 MSTORE RETURN JUMPDEST POP POP CALLVALUE PUSH2 0x263 JUMPI DUP2 PUSH1 0x3 NOT CALLDATASIZE ADD SLT PUSH2 0x263 JUMPI PUSH1 0x20 SWAP1 MLOAD PUSH32 0x90601CB45097851A246A5F8A72FBB27B3EF393B2A92D8FDD7AA24B1BE6B2ED3B DUP2 MSTORE RETURN JUMPDEST SWAP2 SWAP1 POP CALLVALUE PUSH2 0x39B JUMPI DUP1 PUSH1 0x3 NOT CALLDATASIZE ADD SLT PUSH2 0x39B JUMPI PUSH2 0x397 SWAP2 CALLDATALOAD PUSH2 0x392 PUSH1 0x1 PUSH2 0x380 PUSH2 0x12B0 JUMP JUMPDEST SWAP4 DUP4 DUP8 MSTORE PUSH1 0x6 PUSH1 0x20 MSTORE DUP7 KECCAK256 ADD SLOAD PUSH2 0x142E JUMP JUMPDEST PUSH2 0x14D4 JUMP JUMPDEST POP DUP1 RETURN JUMPDEST DUP3 DUP1 REVERT JUMPDEST POP POP CALLVALUE PUSH2 0x263 JUMPI DUP2 PUSH1 0x3 NOT CALLDATASIZE ADD SLT PUSH2 0x263 JUMPI PUSH1 0x20 SWAP1 MLOAD PUSH32 0x9F2DF0FED2C77648DE5860A4CC508CD0818C85B8B8A1AB4CEEEF8D981C8956A6 DUP2 MSTORE RETURN JUMPDEST POP POP CALLVALUE PUSH2 0x263 JUMPI PUSH1 0x20 CALLDATASIZE PUSH1 0x3 NOT ADD SLT PUSH2 0x263 JUMPI DUP2 PUSH2 0x3F6 PUSH2 0x1295 JUMP JUMPDEST PUSH2 0x3FE PUSH2 0x13F4 JUMP JUMPDEST PUSH1 0x1 PUSH1 0x1 PUSH1 0xA0 SHL SUB AND DUP1 DUP3 MSTORE PUSH1 0x11 PUSH1 0x20 MSTORE SWAP2 DUP2 KECCAK256 SSTORE PUSH32 0xCF96A7404357442BBC147C389FC2942CB6EEDCAF1AAD90BB8EB4B67CE43D4FB2 DUP3 DUP1 LOG2 DUP1 RETURN JUMPDEST POP POP CALLVALUE PUSH2 0x263 JUMPI DUP2 PUSH1 0x3 NOT CALLDATASIZE ADD SLT PUSH2 0x263 JUMPI PUSH1 0x20 SWAP1 PUSH1 0xFF PUSH1 0xC SLOAD AND SWAP1 MLOAD SWAP1 ISZERO ISZERO DUP2 MSTORE RETURN JUMPDEST POP POP CALLVALUE PUSH2 0x263 JUMPI DUP2 PUSH1 0x3 NOT CALLDATASIZE ADD SLT PUSH2 0x263 JUMPI PUSH1 0x20 SWAP1 PUSH1 0xFF PUSH1 0xC SLOAD PUSH1 0x8 SHR AND SWAP1 MLOAD SWAP1 ISZERO ISZERO DUP2 MSTORE RETURN JUMPDEST SWAP1 POP CALLVALUE PUSH2 0x39B JUMPI DUP2 PUSH1 0x3 NOT CALLDATASIZE ADD SLT PUSH2 0x39B JUMPI PUSH2 0x49F PUSH2 0x1295 JUMP JUMPDEST PUSH1 0x24 CALLDATALOAD SWAP2 PUSH2 0x4AB PUSH2 0x13F4 JUMP JUMPDEST TIMESTAMP DUP4 GT ISZERO PUSH2 0x4F9 JUMPI POP PUSH1 0x1 PUSH1 0x1 PUSH1 0xA0 SHL SUB AND DUP1 DUP5 MSTORE PUSH1 0x11 PUSH1 0x20 SWAP1 DUP2 MSTORE DUP4 DUP6 KECCAK256 DUP4 SWAP1 SSTORE SWAP3 MLOAD SWAP2 DUP3 MSTORE SWAP2 PUSH32 0xAC87F20A77D28EE8BBB58EC87EA8FA968B3393EFAE1A368FD50B767C2847391C SWAP2 LOG2 DUP1 RETURN JUMPDEST PUSH1 0x64 SWAP1 PUSH1 0x20 DUP6 MLOAD SWAP2 PUSH3 0x461BCD PUSH1 0xE5 SHL DUP4 MSTORE DUP3 ADD MSTORE PUSH1 0x1B PUSH1 0x24 DUP3 ADD MSTORE PUSH32 0x4C6F636B2074696D65206D75737420626520696E206675747572650000000000 PUSH1 0x44 DUP3 ADD MSTORE REVERT JUMPDEST POP POP CALLVALUE PUSH2 0x263 JUMPI DUP2 PUSH1 0x3 NOT CALLDATASIZE ADD SLT PUSH2 0x263 JUMPI PUSH1 0x20 SWAP1 PUSH1 0xF SLOAD SWAP1 MLOAD SWAP1 DUP2 MSTORE RETURN JUMPDEST POP POP CALLVALUE PUSH2 0x263 JUMPI DUP1 PUSH1 0x3 NOT CALLDATASIZE ADD SLT PUSH2 0x263 JUMPI PUSH1 0x20 SWAP1 PUSH2 0x585 PUSH2 0x57B PUSH2 0x1295 JUMP JUMPDEST PUSH1 0x24 CALLDATALOAD SWAP1 CALLER PUSH2 0x154B JUMP JUMPDEST MLOAD PUSH1 0x1 DUP2 MSTORE RETURN JUMPDEST POP POP CALLVALUE PUSH2 0x263 JUMPI DUP1 PUSH1 0x3 NOT CALLDATASIZE ADD SLT PUSH2 0x263 JUMPI PUSH32 0x2DF1CAD2A2659E001C3804C872F69655356013E35C18C2E77A5D568078AB788F PUSH1 0x20 PUSH2 0x5C9 PUSH2 0x1295 JUMP JUMPDEST PUSH2 0x5D1 PUSH2 0x130F JUMP JUMPDEST SWAP1 PUSH2 0x5DA PUSH2 0x131E JUMP JUMPDEST PUSH1 0x1 PUSH1 0x1 PUSH1 0xA0 SHL SUB AND DUP1 DUP7 MSTORE PUSH1 0xD DUP4 MSTORE DUP5 DUP7 KECCAK256 DUP1 SLOAD PUSH1 0xFF NOT AND PUSH1 0xFF DUP5 ISZERO ISZERO AND OR SWAP1 SSTORE SWAP4 MLOAD SWAP1 ISZERO ISZERO DUP2 MSTORE LOG2 DUP1 RETURN JUMPDEST POP POP CALLVALUE PUSH2 0x263 JUMPI DUP2 PUSH1 0x3 NOT CALLDATASIZE ADD SLT PUSH2 0x263 JUMPI MLOAD SWAP1 DUP2 MSTORE PUSH1 0x20 SWAP1 RETURN JUMPDEST POP POP CALLVALUE PUSH2 0x263 JUMPI PUSH1 0x20 CALLDATASIZE PUSH1 0x3 NOT ADD SLT PUSH2 0x263 JUMPI PUSH1 0x20 SWAP1 PUSH2 0x648 PUSH2 0x643 PUSH2 0x1295 JUMP JUMPDEST PUSH2 0x19C2 JUMP JUMPDEST SWAP1 MLOAD SWAP1 DUP2 MSTORE RETURN JUMPDEST POP POP CALLVALUE PUSH2 0x263 JUMPI PUSH1 0x20 CALLDATASIZE PUSH1 0x3 NOT ADD SLT PUSH2 0x263 JUMPI PUSH1 0x20 SWAP2 DUP2 SWAP1 PUSH1 0x1 PUSH1 0x1 PUSH1 0xA0 SHL SUB PUSH2 0x677 PUSH2 0x1295 JUMP JUMPDEST AND DUP2 MSTORE PUSH1 0x11 DUP5 MSTORE KECCAK256 SLOAD SWAP1 MLOAD SWAP1 DUP2 MSTORE RETURN JUMPDEST DUP4 DUP4 CALLVALUE PUSH2 0x263 JUMPI DUP2 PUSH1 0x3 NOT CALLDATASIZE ADD SLT PUSH2 0x263 JUMPI DUP1 MLOAD SWAP1 DUP3 DUP5 SLOAD PUSH1 0x1 DUP2 DUP2 SHR SWAP1 DUP1 DUP4 AND SWAP3 DUP4 ISZERO PUSH2 0x79C JUMPI JUMPDEST PUSH1 0x20 SWAP4 DUP5 DUP5 LT DUP2 EQ PUSH2 0x789 JUMPI DUP4 DUP9 MSTORE SWAP1 DUP2 ISZERO PUSH2 0x76D JUMPI POP PUSH1 0x1 EQ PUSH2 0x718 JUMPI JUMPDEST POP POP POP DUP3 SWAP1 SUB PUSH1 0x1F ADD PUSH1 0x1F NOT AND DUP3 ADD SWAP3 PUSH8 0xFFFFFFFFFFFFFFFF DUP5 GT DUP4 DUP6 LT OR PUSH2 0x705 JUMPI POP DUP3 SWAP2 DUP3 PUSH2 0x701 SWAP3 MSTORE DUP3 PUSH2 0x12C6 JUMP JUMPDEST SUB SWAP1 RETURN JUMPDEST PUSH4 0x4E487B71 PUSH1 0xE0 SHL DUP2 MSTORE PUSH1 0x41 DUP6 MSTORE PUSH1 0x24 SWAP1 REVERT JUMPDEST DUP8 DUP8 MSTORE SWAP2 SWAP3 POP DUP6 SWAP2 DUP4 PUSH32 0x8A35ACFBC15FF81A39AE7D344FD709F28E8600B4AA8C65C6B64BFE7FE36BD19B JUMPDEST DUP4 DUP6 LT PUSH2 0x759 JUMPI POP POP POP POP DUP4 ADD ADD DUP6 DUP1 DUP1 PUSH2 0x6CF JUMP JUMPDEST DUP1 SLOAD DUP9 DUP7 ADD DUP4 ADD MSTORE SWAP4 ADD SWAP3 DUP5 SWAP1 DUP3 ADD PUSH2 0x743 JUMP JUMPDEST PUSH1 0xFF NOT AND DUP8 DUP6 ADD MSTORE POP POP ISZERO ISZERO PUSH1 0x5 SHL DUP5 ADD ADD SWAP1 POP DUP6 DUP1 DUP1 PUSH2 0x6CF JUMP JUMPDEST PUSH4 0x4E487B71 PUSH1 0xE0 SHL DUP10 MSTORE PUSH1 0x22 DUP11 MSTORE PUSH1 0x24 DUP10 REVERT JUMPDEST SWAP2 PUSH1 0x7F AND SWAP2 PUSH2 0x6B0 JUMP JUMPDEST SWAP1 POP CALLVALUE PUSH2 0x39B JUMPI DUP2 PUSH1 0x3 NOT CALLDATASIZE ADD SLT PUSH2 0x39B JUMPI DUP2 PUSH1 0x20 SWAP4 PUSH1 0xFF SWAP3 PUSH2 0x7C7 PUSH2 0x12B0 JUMP JUMPDEST SWAP1 CALLDATALOAD DUP3 MSTORE PUSH1 0x6 DUP7 MSTORE DUP3 DUP3 KECCAK256 PUSH1 0x1 PUSH1 0x1 PUSH1 0xA0 SHL SUB SWAP1 SWAP2 AND DUP3 MSTORE DUP6 MSTORE KECCAK256 SLOAD SWAP2 MLOAD SWAP2 AND ISZERO ISZERO DUP2 MSTORE RETURN JUMPDEST POP POP CALLVALUE PUSH2 0x263 JUMPI DUP2 PUSH1 0x3 NOT CALLDATASIZE ADD SLT PUSH2 0x263 JUMPI PUSH1 0x20 SWAP1 PUSH1 0xE SLOAD SWAP1 MLOAD SWAP1 DUP2 MSTORE RETURN JUMPDEST POP POP CALLVALUE PUSH2 0x263 JUMPI DUP2 PUSH1 0x3 NOT CALLDATASIZE ADD SLT PUSH2 0x263 JUMPI PUSH1 0x20 PUSH32 0x62E78CEA01BEE320CD4E420270B5EA74000D11B0C9F74754EBDBFC544B05A258 SWAP2 PUSH2 0x84A PUSH2 0x1398 JUMP JUMPDEST PUSH2 0x852 PUSH2 0x196A JUMP JUMPDEST PUSH1 0x1 PUSH1 0xFF NOT PUSH1 0x5 SLOAD AND OR PUSH1 0x5 SSTORE MLOAD CALLER DUP2 MSTORE LOG1 DUP1 RETURN JUMPDEST DUP4 DUP4 CALLVALUE PUSH2 0x263 JUMPI PUSH1 0x20 SWAP1 DUP2 PUSH1 0x3 NOT CALLDATASIZE ADD SLT PUSH2 0x39B JUMPI DUP4 CALLDATALOAD SWAP1 PUSH32 0x9B779B17422D0DF92223018B32B4D1FA46E071723D6817E2486D003BECC55F00 SWAP3 PUSH1 0x2 DUP5 SLOAD EQ PUSH2 0xAAF JUMPI PUSH1 0x2 DUP5 SSTORE PUSH2 0x8B6 PUSH2 0x196A JUMP JUMPDEST PUSH1 0xE SLOAD DUP4 LT PUSH2 0xA6D JUMPI PUSH1 0xA SLOAD PUSH2 0x8CC DUP5 DUP3 PUSH2 0x18E1 JUMP JUMPDEST PUSH1 0x9 SLOAD LT PUSH2 0xA2A JUMPI CALLER DUP7 MSTORE PUSH1 0x10 DUP3 MSTORE PUSH2 0x8E8 DUP5 DUP5 DUP9 KECCAK256 SLOAD PUSH2 0x18E1 JUMP JUMPDEST PUSH1 0xF SLOAD LT PUSH2 0x9DD JUMPI PUSH1 0xFF PUSH1 0xC SLOAD PUSH1 0x8 SHR AND PUSH2 0x995 JUMPI JUMPDEST PUSH1 0xB SLOAD SWAP1 DUP2 DUP6 MUL SWAP2 DUP6 DUP4 DIV EQ DUP6 ISZERO OR ISZERO PUSH2 0x982 JUMPI SWAP2 PUSH8 0xDE0B6B3A7640000 DUP6 SWAP5 SWAP3 PUSH2 0x94D PUSH1 0x1 SWAP9 SWAP8 PUSH32 0x8FAFEBCAF9D154343DAD25669BFA277F4FBACD7AC6B0C4FED522580E040A0F33 SWAP7 PUSH2 0x18E1 JUMP JUMPDEST PUSH1 0xA SSTORE CALLER DUP10 MSTORE PUSH1 0x10 DUP4 MSTORE DUP4 DUP10 KECCAK256 PUSH2 0x965 DUP8 DUP3 SLOAD PUSH2 0x18E1 JUMP JUMPDEST SWAP1 SSTORE PUSH2 0x971 DUP7 CALLER PUSH2 0x1904 JUMP JUMPDEST DUP4 MLOAD SWAP6 DUP7 MSTORE DIV SWAP1 DUP5 ADD MSTORE CALLER SWAP3 LOG2 SSTORE DUP1 RETURN JUMPDEST PUSH4 0x4E487B71 PUSH1 0xE0 SHL DUP8 MSTORE PUSH1 0x11 DUP9 MSTORE PUSH1 0x24 DUP8 REVERT JUMPDEST CALLER DUP7 MSTORE PUSH1 0xD DUP3 MSTORE PUSH1 0xFF DUP4 DUP8 KECCAK256 SLOAD AND PUSH2 0x8FE JUMPI DUP3 MLOAD PUSH3 0x461BCD PUSH1 0xE5 SHL DUP2 MSTORE DUP1 DUP9 ADD DUP4 SWAP1 MSTORE PUSH1 0x10 PUSH1 0x24 DUP3 ADD MSTORE PUSH16 0x12D650C81B9BDD08185C1C1C9BDD9959 PUSH1 0x82 SHL PUSH1 0x44 DUP3 ADD MSTORE PUSH1 0x64 SWAP1 REVERT JUMPDEST DUP3 MLOAD PUSH3 0x461BCD PUSH1 0xE5 SHL DUP2 MSTORE DUP1 DUP9 ADD DUP4 SWAP1 MSTORE PUSH1 0x21 PUSH1 0x24 DUP3 ADD MSTORE PUSH32 0x45786365656473206D617820696E766573746D656E74207065722077616C6C65 PUSH1 0x44 DUP3 ADD MSTORE PUSH1 0x1D PUSH1 0xFA SHL PUSH1 0x64 DUP3 ADD MSTORE PUSH1 0x84 SWAP1 REVERT JUMPDEST DUP3 MLOAD PUSH3 0x461BCD PUSH1 0xE5 SHL DUP2 MSTORE DUP1 DUP9 ADD DUP4 SWAP1 MSTORE PUSH1 0x1B PUSH1 0x24 DUP3 ADD MSTORE PUSH32 0x4E6F7420656E6F75676820746F6B656E7320617661696C61626C650000000000 PUSH1 0x44 DUP3 ADD MSTORE PUSH1 0x64 SWAP1 REVERT JUMPDEST DUP6 SWAP1 PUSH1 0x64 SWAP3 MLOAD SWAP2 PUSH3 0x461BCD PUSH1 0xE5 SHL DUP4 MSTORE DUP3 ADD MSTORE PUSH1 0x18 PUSH1 0x24 DUP3 ADD MSTORE PUSH32 0x42656C6F77206D696E696D756D20696E766573746D656E740000000000000000 PUSH1 0x44 DUP3 ADD MSTORE REVERT JUMPDEST DUP2 MLOAD PUSH4 0x3EE5AEB5 PUSH1 0xE0 SHL DUP2 MSTORE DUP7 SWAP1 REVERT JUMPDEST POP POP CALLVALUE PUSH2 0x263 JUMPI DUP2 PUSH1 0x3 NOT CALLDATASIZE ADD SLT PUSH2 0x263 JUMPI PUSH1 0x20 SWAP1 PUSH1 0xB SLOAD SWAP1 MLOAD SWAP1 DUP2 MSTORE RETURN JUMPDEST POP POP CALLVALUE PUSH2 0x263 JUMPI CALLDATASIZE PUSH1 0x3 NOT ADD SLT PUSH2 0xB11 JUMPI PUSH2 0xB0E PUSH2 0xAFA PUSH2 0x1295 JUMP JUMPDEST PUSH1 0x24 CALLDATALOAD SWAP1 PUSH2 0xB09 DUP3 CALLER DUP4 PUSH2 0x1767 JUMP JUMPDEST PUSH2 0x183A JUMP JUMPDEST DUP1 RETURN JUMPDEST DUP1 REVERT JUMPDEST POP POP CALLVALUE PUSH2 0x263 JUMPI PUSH1 0x20 CALLDATASIZE PUSH1 0x3 NOT ADD SLT PUSH2 0x263 JUMPI PUSH1 0x20 SWAP2 DUP2 SWAP1 PUSH1 0x1 PUSH1 0x1 PUSH1 0xA0 SHL SUB PUSH2 0xB3C PUSH2 0x1295 JUMP JUMPDEST AND DUP2 MSTORE DUP1 DUP5 MSTORE KECCAK256 SLOAD SWAP1 MLOAD SWAP1 DUP2 MSTORE RETURN JUMPDEST SWAP1 POP CALLVALUE PUSH2 0x39B JUMPI PUSH1 0x20 CALLDATASIZE PUSH1 0x3 NOT ADD SLT PUSH2 0x39B JUMPI CALLDATALOAD SWAP1 DUP2 ISZERO ISZERO DUP1 SWAP3 SUB PUSH2 0x39B JUMPI PUSH32 0xE1965432AF4C9923F6EBB98F1721262967CFA6178008742D23041DC8EE74EE8F SWAP2 PUSH1 0x20 SWAP2 PUSH2 0xB97 PUSH2 0x13F4 JUMP JUMPDEST PUSH1 0xFF NOT PUSH1 0xC SLOAD AND PUSH1 0xFF DUP4 AND OR PUSH1 0xC SSTORE MLOAD SWAP1 DUP2 MSTORE LOG1 DUP1 RETURN JUMPDEST POP POP CALLVALUE PUSH2 0x263 JUMPI DUP2 PUSH1 0x3 NOT CALLDATASIZE ADD SLT PUSH2 0x263 JUMPI PUSH1 0xC0 SWAP1 PUSH1 0x7 SLOAD SWAP1 PUSH1 0x8 SLOAD SWAP1 PUSH1 0x9 SLOAD PUSH1 0xA SLOAD SWAP1 PUSH1 0xB SLOAD SWAP3 PUSH1 0xFF PUSH1 0xC SLOAD AND SWAP5 DUP2 MLOAD SWAP7 DUP8 MSTORE PUSH1 0x20 DUP8 ADD MSTORE DUP6 ADD MSTORE PUSH1 0x60 DUP5 ADD MSTORE PUSH1 0x80 DUP4 ADD MSTORE ISZERO ISZERO PUSH1 0xA0 DUP3 ADD MSTORE RETURN JUMPDEST POP POP CALLVALUE PUSH2 0x263 JUMPI PUSH1 0x20 CALLDATASIZE PUSH1 0x3 NOT ADD SLT PUSH2 0x263 JUMPI PUSH1 0x20 SWAP2 PUSH1 0xFF SWAP1 DUP3 SWAP1 PUSH1 0x1 PUSH1 0x1 PUSH1 0xA0 SHL SUB PUSH2 0xC28 PUSH2 0x1295 JUMP JUMPDEST AND DUP2 MSTORE PUSH1 0xD DUP6 MSTORE KECCAK256 SLOAD AND SWAP1 MLOAD SWAP1 ISZERO ISZERO DUP2 MSTORE RETURN JUMPDEST SWAP2 SWAP1 POP CALLVALUE PUSH2 0x39B JUMPI CALLDATASIZE PUSH1 0x3 NOT ADD SLT PUSH2 0x263 JUMPI PUSH2 0xC55 PUSH2 0x13F4 JUMP JUMPDEST CALLDATALOAD PUSH1 0xE SSTORE PUSH1 0x24 CALLDATALOAD PUSH1 0xF SSTORE DUP1 RETURN JUMPDEST POP POP CALLVALUE PUSH2 0x263 JUMPI DUP2 PUSH1 0x3 NOT CALLDATASIZE ADD SLT PUSH2 0x263 JUMPI PUSH1 0x20 SWAP1 PUSH1 0x9 SLOAD SWAP1 MLOAD SWAP1 DUP2 MSTORE RETURN JUMPDEST POP POP CALLVALUE PUSH2 0x263 JUMPI DUP2 PUSH1 0x3 NOT CALLDATASIZE ADD SLT PUSH2 0x263 JUMPI PUSH1 0x20 SWAP1 PUSH1 0xFF PUSH1 0x5 SLOAD AND SWAP1 MLOAD SWAP1 ISZERO ISZERO DUP2 MSTORE RETURN JUMPDEST POP POP CALLVALUE PUSH2 0x263 JUMPI DUP2 PUSH1 0x3 NOT CALLDATASIZE ADD SLT PUSH2 0x263 JUMPI PUSH1 0x20 SWAP1 PUSH1 0xA SLOAD SWAP1 MLOAD SWAP1 DUP2 MSTORE RETURN JUMPDEST POP POP CALLVALUE PUSH2 0x263 JUMPI DUP2 PUSH1 0x3 NOT CALLDATASIZE ADD SLT PUSH2 0x263 JUMPI PUSH1 0x20 SWAP1 PUSH1 0x8 SLOAD SWAP1 MLOAD SWAP1 DUP2 MSTORE RETURN JUMPDEST DUP4 SWAP1 CALLVALUE PUSH2 0x263 JUMPI PUSH1 0x20 CALLDATASIZE PUSH1 0x3 NOT ADD SLT PUSH2 0x263 JUMPI PUSH2 0xB0E SWAP1 CALLDATALOAD CALLER PUSH2 0x183A JUMP JUMPDEST SWAP1 POP CALLVALUE PUSH2 0x39B JUMPI DUP2 PUSH1 0x3 NOT CALLDATASIZE ADD SLT PUSH2 0x39B JUMPI PUSH2 0xD1B PUSH2 0x1295 JUMP JUMPDEST SWAP2 PUSH32 0x9F2DF0FED2C77648DE5860A4CC508CD0818C85B8B8A1AB4CEEEF8D981C8956A6 DUP1 DUP6 MSTORE PUSH1 0x6 PUSH1 0x20 MSTORE DUP2 DUP6 KECCAK256 CALLER DUP7 MSTORE PUSH1 0x20 MSTORE PUSH1 0xFF DUP3 DUP7 KECCAK256 SLOAD AND ISZERO PUSH2 0xDBA JUMPI POP PUSH1 0x1 PUSH1 0x1 PUSH1 0xA0 SHL SUB DUP4 AND ISZERO PUSH2 0xD77 JUMPI DUP4 PUSH2 0xB0E PUSH1 0x24 CALLDATALOAD DUP6 PUSH2 0x1904 JUMP JUMPDEST SWAP1 PUSH1 0x20 PUSH1 0x64 SWAP3 MLOAD SWAP2 PUSH3 0x461BCD PUSH1 0xE5 SHL DUP4 MSTORE DUP3 ADD MSTORE PUSH1 0x1B PUSH1 0x24 DUP3 ADD MSTORE PUSH32 0x43616E6E6F74206D696E7420746F207A65726F20616464726573730000000000 PUSH1 0x44 DUP3 ADD MSTORE REVERT JUMPDEST PUSH1 0x44 SWAP3 SWAP2 MLOAD SWAP2 PUSH4 0xE2517D3F PUSH1 0xE0 SHL DUP4 MSTORE CALLER SWAP1 DUP4 ADD MSTORE PUSH1 0x24 DUP3 ADD MSTORE REVERT JUMPDEST POP POP CALLVALUE PUSH2 0x263 JUMPI DUP2 PUSH1 0x3 NOT CALLDATASIZE ADD SLT PUSH2 0x263 JUMPI PUSH1 0x20 SWAP1 PUSH1 0x7 SLOAD SWAP1 MLOAD SWAP1 DUP2 MSTORE RETURN JUMPDEST SWAP1 POP CALLVALUE PUSH2 0x39B JUMPI DUP3 PUSH1 0x3 NOT CALLDATASIZE ADD SLT PUSH2 0x39B JUMPI PUSH2 0xE0F PUSH2 0x1398 JUMP JUMPDEST PUSH1 0x5 SLOAD SWAP1 PUSH1 0xFF DUP3 AND ISZERO PUSH2 0xE51 JUMPI POP PUSH1 0xFF NOT AND PUSH1 0x5 SSTORE MLOAD CALLER DUP2 MSTORE PUSH32 0x5DB9EE0A495BF2E6FF9C91A7834C1BA4FDD244A5E8AA4E537BD38AEAE4B073AA SWAP1 PUSH1 0x20 SWAP1 LOG1 DUP1 RETURN JUMPDEST DUP3 MLOAD PUSH4 0x8DFC202B PUSH1 0xE0 SHL DUP2 MSTORE REVERT JUMPDEST DUP4 DUP4 CALLVALUE PUSH2 0x263 JUMPI DUP1 PUSH1 0x3 NOT CALLDATASIZE ADD SLT PUSH2 0x263 JUMPI PUSH2 0xE79 PUSH2 0x12B0 JUMP JUMPDEST SWAP1 CALLER PUSH1 0x1 PUSH1 0x1 PUSH1 0xA0 SHL SUB DUP4 AND SUB PUSH2 0xE96 JUMPI POP PUSH2 0x397 SWAP2 SWAP3 CALLDATALOAD PUSH2 0x14D4 JUMP JUMPDEST MLOAD PUSH4 0x334BD919 PUSH1 0xE1 SHL DUP2 MSTORE DUP4 SWAP1 REVERT JUMPDEST POP POP CALLVALUE PUSH2 0x263 JUMPI DUP2 PUSH1 0x3 NOT CALLDATASIZE ADD SLT PUSH2 0x263 JUMPI PUSH1 0x20 SWAP1 MLOAD PUSH1 0x12 DUP2 MSTORE RETURN JUMPDEST SWAP2 SWAP1 POP CALLVALUE PUSH2 0x39B JUMPI DUP1 PUSH1 0x3 NOT CALLDATASIZE ADD SLT PUSH2 0x39B JUMPI PUSH2 0x397 SWAP2 CALLDATALOAD PUSH2 0xEE6 PUSH1 0x1 PUSH2 0x380 PUSH2 0x12B0 JUMP JUMPDEST PUSH2 0x1454 JUMP JUMPDEST SWAP1 POP CALLVALUE PUSH2 0x39B JUMPI PUSH1 0x20 CALLDATASIZE PUSH1 0x3 NOT ADD SLT PUSH2 0x39B JUMPI DUP2 PUSH1 0x20 SWAP4 PUSH1 0x1 SWAP3 CALLDATALOAD DUP2 MSTORE PUSH1 0x6 DUP6 MSTORE KECCAK256 ADD SLOAD SWAP1 MLOAD SWAP1 DUP2 MSTORE RETURN JUMPDEST POP POP CALLVALUE PUSH2 0x263 JUMPI PUSH1 0x60 CALLDATASIZE PUSH1 0x3 NOT ADD SLT PUSH2 0x263 JUMPI PUSH1 0x20 SWAP1 PUSH2 0x585 PUSH2 0xF37 PUSH2 0x1295 JUMP JUMPDEST PUSH2 0xF3F PUSH2 0x12B0 JUMP JUMPDEST PUSH1 0x44 CALLDATALOAD SWAP2 PUSH2 0xF4E DUP4 CALLER DUP4 PUSH2 0x1767 JUMP JUMPDEST PUSH2 0x154B JUMP JUMPDEST POP POP CALLVALUE PUSH2 0x263 JUMPI DUP2 PUSH1 0x3 NOT CALLDATASIZE ADD SLT PUSH2 0x263 JUMPI PUSH1 0x20 SWAP1 PUSH1 0x2 SLOAD SWAP1 MLOAD SWAP1 DUP2 MSTORE RETURN JUMPDEST SWAP2 SWAP1 POP CALLVALUE PUSH2 0x39B JUMPI DUP1 PUSH1 0x3 NOT CALLDATASIZE ADD SLT PUSH2 0x39B JUMPI DUP2 CALLDATALOAD SWAP2 PUSH8 0xFFFFFFFFFFFFFFFF SWAP2 DUP3 DUP5 GT PUSH2 0x1082 JUMPI CALLDATASIZE PUSH1 0x23 DUP6 ADD SLT ISZERO PUSH2 0x1082 JUMPI DUP4 DUP3 ADD CALLDATALOAD SWAP3 DUP4 GT PUSH2 0x1082 JUMPI PUSH1 0x24 SWAP4 DUP5 DUP2 ADD SWAP1 DUP6 CALLDATASIZE SWAP2 DUP7 PUSH1 0x5 SHL ADD ADD GT PUSH2 0x107E JUMPI SWAP3 PUSH2 0xFCD PUSH2 0x130F JUMP JUMPDEST PUSH2 0xFD5 PUSH2 0x131E JUMP JUMPDEST DUP1 ISZERO ISZERO SWAP2 DUP8 JUMPDEST DUP2 DUP2 LT PUSH2 0xFE6 JUMPI DUP9 DUP1 RETURN JUMPDEST DUP9 PUSH32 0x2DF1CAD2A2659E001C3804C872F69655356013E35C18C2E77A5D568078AB788F PUSH1 0x1 PUSH1 0x1 PUSH1 0xA0 SHL SUB DUP1 PUSH2 0x1024 PUSH2 0x101F DUP7 DUP9 DUP15 PUSH2 0x1988 JUMP JUMPDEST PUSH2 0x19AE JUMP JUMPDEST AND DUP4 MSTORE PUSH2 0x1045 DUP7 DUP10 PUSH1 0x20 SWAP6 PUSH1 0xD DUP8 MSTORE KECCAK256 SWAP1 PUSH1 0xFF DUP1 NOT DUP4 SLOAD AND SWAP2 ISZERO ISZERO AND OR SWAP1 SSTORE JUMP JUMPDEST PUSH2 0x1053 PUSH2 0x101F DUP6 DUP8 DUP14 PUSH2 0x1988 JUMP JUMPDEST AND SWAP2 DUP8 MLOAD DUP8 DUP2 MSTORE LOG2 PUSH1 0x0 NOT DUP2 EQ PUSH2 0x106C JUMPI PUSH1 0x1 ADD PUSH2 0xFDB JUMP JUMPDEST PUSH4 0x4E487B71 PUSH1 0xE0 SHL DUP10 MSTORE PUSH1 0x11 DUP7 MSTORE DUP8 DUP10 REVERT JUMPDEST DUP6 DUP1 REVERT JUMPDEST DUP5 DUP1 REVERT JUMPDEST SWAP1 POP CALLVALUE PUSH2 0x39B JUMPI DUP2 PUSH1 0x3 NOT CALLDATASIZE ADD SLT PUSH2 0x39B JUMPI PUSH2 0x10A0 PUSH2 0x1295 JUMP JUMPDEST PUSH1 0x24 CALLDATALOAD SWAP1 CALLER ISZERO PUSH2 0x1119 JUMPI PUSH1 0x1 PUSH1 0x1 PUSH1 0xA0 SHL SUB AND SWAP2 DUP3 ISZERO PUSH2 0x1102 JUMPI POP DUP1 DUP4 PUSH1 0x20 SWAP6 CALLER DUP2 MSTORE PUSH1 0x1 DUP8 MSTORE DUP2 DUP2 KECCAK256 DUP6 DUP3 MSTORE DUP8 MSTORE KECCAK256 SSTORE DUP3 MLOAD SWAP1 DUP2 MSTORE PUSH32 0x8C5BE1E5EBEC7D5BD14F71427D1E84F3DD0314C0F7B2291E5B200AC8C7C3B925 DUP5 CALLER SWAP3 LOG3 MLOAD PUSH1 0x1 DUP2 MSTORE RETURN JUMPDEST DUP4 MLOAD PUSH4 0x4A1406B1 PUSH1 0xE1 SHL DUP2 MSTORE SWAP1 DUP2 ADD DUP6 SWAP1 MSTORE PUSH1 0x24 SWAP1 REVERT JUMPDEST DUP4 MLOAD PUSH4 0xE602DF05 PUSH1 0xE0 SHL DUP2 MSTORE DUP1 DUP5 ADD DUP7 SWAP1 MSTORE PUSH1 0x24 SWAP1 REVERT JUMPDEST DUP4 DUP4 CALLVALUE PUSH2 0x263 JUMPI DUP2 PUSH1 0x3 NOT CALLDATASIZE ADD SLT PUSH2 0x263 JUMPI DUP1 MLOAD SWAP1 DUP3 PUSH1 0x3 SLOAD PUSH1 0x1 DUP2 DUP2 SHR SWAP1 DUP1 DUP4 AND SWAP3 DUP4 ISZERO PUSH2 0x1200 JUMPI JUMPDEST PUSH1 0x20 SWAP4 DUP5 DUP5 LT DUP2 EQ PUSH2 0x789 JUMPI DUP4 DUP9 MSTORE SWAP1 DUP2 ISZERO PUSH2 0x76D JUMPI POP PUSH1 0x1 EQ PUSH2 0x11AA JUMPI POP POP POP DUP3 SWAP1 SUB PUSH1 0x1F ADD PUSH1 0x1F NOT AND DUP3 ADD SWAP3 PUSH8 0xFFFFFFFFFFFFFFFF DUP5 GT DUP4 DUP6 LT OR PUSH2 0x705 JUMPI POP DUP3 SWAP2 DUP3 PUSH2 0x701 SWAP3 MSTORE DUP3 PUSH2 0x12C6 JUMP JUMPDEST PUSH1 0x3 DUP8 MSTORE SWAP2 SWAP3 POP DUP6 SWAP2 DUP4 PUSH32 0xC2575A0E9E593C00F959F8C92F12DB2869C3395A3B0502D05E2516446F71F85B JUMPDEST DUP4 DUP6 LT PUSH2 0x11EC JUMPI POP POP POP POP DUP4 ADD ADD DUP6 DUP1 DUP1 PUSH2 0x6CF JUMP JUMPDEST DUP1 SLOAD DUP9 DUP7 ADD DUP4 ADD MSTORE SWAP4 ADD SWAP3 DUP5 SWAP1 DUP3 ADD PUSH2 0x11D6 JUMP JUMPDEST SWAP2 PUSH1 0x7F AND SWAP2 PUSH2 0x115A JUMP JUMPDEST POP POP CALLVALUE PUSH2 0x263 JUMPI PUSH1 0x20 CALLDATASIZE PUSH1 0x3 NOT ADD SLT PUSH2 0x263 JUMPI PUSH1 0x20 SWAP2 DUP2 SWAP1 PUSH1 0x1 PUSH1 0x1 PUSH1 0xA0 SHL SUB PUSH2 0x1232 PUSH2 0x1295 JUMP JUMPDEST AND DUP2 MSTORE PUSH1 0x10 DUP5 MSTORE KECCAK256 SLOAD SWAP1 MLOAD SWAP1 DUP2 MSTORE RETURN JUMPDEST DUP5 SWAP2 CALLVALUE PUSH2 0x39B JUMPI PUSH1 0x20 CALLDATASIZE PUSH1 0x3 NOT ADD SLT PUSH2 0x39B JUMPI CALLDATALOAD PUSH4 0xFFFFFFFF PUSH1 0xE0 SHL DUP2 AND DUP1 SWAP2 SUB PUSH2 0x39B JUMPI PUSH1 0x20 SWAP3 POP PUSH4 0x7965DB0B PUSH1 0xE0 SHL DUP2 EQ SWAP1 DUP2 ISZERO PUSH2 0x1284 JUMPI JUMPDEST POP ISZERO ISZERO DUP2 MSTORE RETURN JUMPDEST PUSH4 0x1FFC9A7 PUSH1 0xE0 SHL EQ SWAP1 POP DUP4 PUSH2 0x127D JUMP JUMPDEST PUSH1 0x4 CALLDATALOAD SWAP1 PUSH1 0x1 PUSH1 0x1 PUSH1 0xA0 SHL SUB DUP3 AND DUP3 SUB PUSH2 0x12AB JUMPI JUMP JUMPDEST PUSH1 0x0 DUP1 REVERT JUMPDEST PUSH1 0x24 CALLDATALOAD SWAP1 PUSH1 0x1 PUSH1 0x1 PUSH1 0xA0 SHL SUB DUP3 AND DUP3 SUB PUSH2 0x12AB JUMPI JUMP JUMPDEST PUSH1 0x20 DUP1 DUP3 MSTORE DUP3 MLOAD DUP2 DUP4 ADD DUP2 SWAP1 MSTORE SWAP1 SWAP4 SWAP3 PUSH1 0x0 JUMPDEST DUP3 DUP2 LT PUSH2 0x12FB JUMPI POP POP PUSH1 0x40 SWAP3 SWAP4 POP PUSH1 0x0 DUP4 DUP3 DUP5 ADD ADD MSTORE PUSH1 0x1F DUP1 NOT SWAP2 ADD AND ADD ADD SWAP1 JUMP JUMPDEST DUP2 DUP2 ADD DUP7 ADD MLOAD DUP5 DUP3 ADD PUSH1 0x40 ADD MSTORE DUP6 ADD PUSH2 0x12D9 JUMP JUMPDEST PUSH1 0x24 CALLDATALOAD SWAP1 DUP2 ISZERO ISZERO DUP3 SUB PUSH2 0x12AB JUMPI JUMP JUMPDEST CALLER PUSH1 0x0 SWAP1 DUP2 MSTORE PUSH32 0xFC2F5A9D8A25527E912EA683C7998EA980E35D4DAB4F20B6B4E7D4CBC6C77820 PUSH1 0x20 MSTORE PUSH1 0x40 SWAP1 KECCAK256 SLOAD PUSH32 0x90601CB45097851A246A5F8A72FBB27B3EF393B2A92D8FDD7AA24B1BE6B2ED3B SWAP1 PUSH1 0xFF AND ISZERO PUSH2 0x137A JUMPI POP JUMP JUMPDEST PUSH1 0x44 SWAP1 PUSH1 0x40 MLOAD SWAP1 PUSH4 0xE2517D3F PUSH1 0xE0 SHL DUP3 MSTORE CALLER PUSH1 0x4 DUP4 ADD MSTORE PUSH1 0x24 DUP3 ADD MSTORE REVERT JUMPDEST CALLER PUSH1 0x0 SWAP1 DUP2 MSTORE PUSH32 0xE09F975E15F8F53F24CBBC282B13C40B84DF485FCDB8D3997FA103DC5A4EF841 PUSH1 0x20 MSTORE PUSH1 0x40 SWAP1 KECCAK256 SLOAD PUSH32 0x65D7A28E3265B37A6474929F336521B332C1681B933F6CB9F3376673440D862A SWAP1 PUSH1 0xFF AND ISZERO PUSH2 0x137A JUMPI POP JUMP JUMPDEST CALLER PUSH1 0x0 SWAP1 DUP2 MSTORE PUSH32 0x54CDD369E4E8A8515E52CA72EC816C2101831AD1F18BF44102ED171459C9B4F8 PUSH1 0x20 MSTORE PUSH1 0x40 DUP2 KECCAK256 SLOAD PUSH1 0xFF AND ISZERO PUSH2 0x137A JUMPI POP JUMP JUMPDEST DUP1 PUSH1 0x0 MSTORE PUSH1 0x6 PUSH1 0x20 MSTORE PUSH1 0x40 PUSH1 0x0 KECCAK256 CALLER PUSH1 0x0 MSTORE PUSH1 0x20 MSTORE PUSH1 0xFF PUSH1 0x40 PUSH1 0x0 KECCAK256 SLOAD AND ISZERO PUSH2 0x137A JUMPI POP JUMP JUMPDEST SWAP1 PUSH1 0x0 SWAP2 DUP1 DUP4 MSTORE PUSH1 0x6 PUSH1 0x20 MSTORE PUSH1 0x40 DUP4 KECCAK256 SWAP2 PUSH1 0x1 DUP1 PUSH1 0xA0 SHL SUB AND SWAP2 DUP3 DUP5 MSTORE PUSH1 0x20 MSTORE PUSH1 0xFF PUSH1 0x40 DUP5 KECCAK256 SLOAD AND ISZERO PUSH1 0x0 EQ PUSH2 0x14CF JUMPI DUP1 DUP4 MSTORE PUSH1 0x6 PUSH1 0x20 MSTORE PUSH1 0x40 DUP4 KECCAK256 DUP3 DUP5 MSTORE PUSH1 0x20 MSTORE PUSH1 0x40 DUP4 KECCAK256 PUSH1 0x1 PUSH1 0xFF NOT DUP3 SLOAD AND OR SWAP1 SSTORE PUSH32 0x2F8788117E7EFF1D82E926EC794901D17C78024A50270940304540A733656F0D CALLER SWAP4 DUP1 LOG4 PUSH1 0x1 SWAP1 JUMP JUMPDEST POP POP SWAP1 JUMP JUMPDEST SWAP1 PUSH1 0x0 SWAP2 DUP1 DUP4 MSTORE PUSH1 0x6 PUSH1 0x20 MSTORE PUSH1 0x40 DUP4 KECCAK256 SWAP2 PUSH1 0x1 DUP1 PUSH1 0xA0 SHL SUB AND SWAP2 DUP3 DUP5 MSTORE PUSH1 0x20 MSTORE PUSH1 0xFF PUSH1 0x40 DUP5 KECCAK256 SLOAD AND PUSH1 0x0 EQ PUSH2 0x14CF JUMPI DUP1 DUP4 MSTORE PUSH1 0x6 PUSH1 0x20 MSTORE PUSH1 0x40 DUP4 KECCAK256 DUP3 DUP5 MSTORE PUSH1 0x20 MSTORE PUSH1 0x40 DUP4 KECCAK256 PUSH1 0xFF NOT DUP2 SLOAD AND SWAP1 SSTORE PUSH32 0xF6391F5C32D9C69D2A47EA670B442974B53935D1EDC7FD64EB21E047A839171B CALLER SWAP4 DUP1 LOG4 PUSH1 0x1 SWAP1 JUMP JUMPDEST SWAP2 PUSH1 0x1 PUSH1 0x1 PUSH1 0xA0 SHL SUB DUP1 DUP5 AND SWAP3 DUP4 ISZERO PUSH2 0x174E JUMPI AND SWAP3 DUP4 ISZERO PUSH2 0x1735 JUMPI PUSH1 0xC SLOAD PUSH1 0xFF DUP2 AND DUP1 ISZERO PUSH2 0x16FD JUMPI JUMPDEST ISZERO PUSH2 0x16C0 JUMPI PUSH1 0x8 SHR PUSH1 0xFF AND PUSH2 0x1665 JUMPI JUMPDEST PUSH1 0x0 DUP4 DUP2 MSTORE PUSH1 0x11 PUSH1 0x20 MSTORE PUSH1 0x40 SWAP2 DUP3 DUP3 KECCAK256 SLOAD TIMESTAMP LT PUSH2 0x162D JUMPI PUSH2 0x15A3 PUSH2 0x196A JUMP JUMPDEST DUP5 DUP3 MSTORE DUP2 PUSH1 0x20 MSTORE DUP3 DUP3 KECCAK256 SLOAD SWAP1 DUP5 DUP3 LT PUSH2 0x15FC JUMPI POP SWAP2 DUP1 DUP3 DUP6 PUSH1 0x20 SWAP6 DUP9 PUSH32 0xDDF252AD1BE2C89B69C2B068FC378DAA952BA7F163C4A11628F55A4DF523B3EF SWAP9 SWAP7 MSTORE DUP3 DUP8 MSTORE SUB DUP3 DUP3 KECCAK256 SSTORE DUP8 DUP2 MSTORE KECCAK256 DUP3 DUP2 SLOAD ADD SWAP1 SSTORE MLOAD SWAP1 DUP2 MSTORE LOG3 JUMP JUMPDEST DUP4 MLOAD PUSH4 0x391434E3 PUSH1 0xE2 SHL DUP2 MSTORE PUSH1 0x1 PUSH1 0x1 PUSH1 0xA0 SHL SUB SWAP2 SWAP1 SWAP2 AND PUSH1 0x4 DUP3 ADD MSTORE PUSH1 0x24 DUP2 ADD SWAP2 SWAP1 SWAP2 MSTORE PUSH1 0x44 DUP2 ADD DUP5 SWAP1 MSTORE PUSH1 0x64 SWAP1 REVERT JUMPDEST DUP3 MLOAD PUSH3 0x461BCD PUSH1 0xE5 SHL DUP2 MSTORE PUSH1 0x20 PUSH1 0x4 DUP3 ADD MSTORE PUSH1 0x11 PUSH1 0x24 DUP3 ADD MSTORE PUSH17 0x151BDAD95B9CC8185C99481B1BD8DAD959 PUSH1 0x7A SHL PUSH1 0x44 DUP3 ADD MSTORE PUSH1 0x64 SWAP1 REVERT JUMPDEST DUP4 PUSH1 0x0 MSTORE PUSH1 0xD PUSH1 0x20 MSTORE PUSH1 0xFF PUSH1 0x40 PUSH1 0x0 KECCAK256 SLOAD AND PUSH2 0x1584 JUMPI PUSH1 0x40 MLOAD PUSH3 0x461BCD PUSH1 0xE5 SHL DUP2 MSTORE PUSH1 0x20 PUSH1 0x4 DUP3 ADD MSTORE PUSH1 0x1A PUSH1 0x24 DUP3 ADD MSTORE PUSH32 0x526563697069656E74204B5943206E6F7420617070726F766564000000000000 PUSH1 0x44 DUP3 ADD MSTORE PUSH1 0x64 SWAP1 REVERT JUMPDEST PUSH1 0x40 MLOAD PUSH3 0x461BCD PUSH1 0xE5 SHL DUP2 MSTORE PUSH1 0x20 PUSH1 0x4 DUP3 ADD MSTORE PUSH1 0x15 PUSH1 0x24 DUP3 ADD MSTORE PUSH21 0x151C985B9CD9995C9CC81B9BDD08195B98589B1959 PUSH1 0x5A SHL PUSH1 0x44 DUP3 ADD MSTORE PUSH1 0x64 SWAP1 REVERT JUMPDEST POP CALLER PUSH1 0x0 SWAP1 DUP2 MSTORE PUSH32 0xFC2F5A9D8A25527E912EA683C7998EA980E35D4DAB4F20B6B4E7D4CBC6C77820 PUSH1 0x20 MSTORE PUSH1 0x40 SWAP1 KECCAK256 SLOAD PUSH1 0xFF AND PUSH2 0x1574 JUMP JUMPDEST PUSH1 0x40 MLOAD PUSH4 0xEC442F05 PUSH1 0xE0 SHL DUP2 MSTORE PUSH1 0x0 PUSH1 0x4 DUP3 ADD MSTORE PUSH1 0x24 SWAP1 REVERT JUMPDEST PUSH1 0x40 MLOAD PUSH4 0x4B637E8F PUSH1 0xE1 SHL DUP2 MSTORE PUSH1 0x0 PUSH1 0x4 DUP3 ADD MSTORE PUSH1 0x24 SWAP1 REVERT JUMPDEST SWAP2 PUSH1 0x1 DUP1 PUSH1 0xA0 SHL SUB DUP1 SWAP4 AND SWAP2 PUSH1 0x0 SWAP4 DUP4 DUP6 MSTORE PUSH1 0x1 PUSH1 0x20 MSTORE PUSH1 0x40 SWAP4 DUP5 DUP7 KECCAK256 SWAP2 DUP4 AND SWAP2 DUP3 DUP8 MSTORE PUSH1 0x20 MSTORE DUP5 DUP7 KECCAK256 SLOAD SWAP3 PUSH1 0x0 NOT DUP5 LT PUSH2 0x17A6 JUMPI JUMPDEST POP POP POP POP POP POP POP JUMP JUMPDEST DUP5 DUP5 LT PUSH2 0x180A JUMPI POP DUP1 ISZERO PUSH2 0x17F2 JUMPI DUP2 ISZERO PUSH2 0x17DA JUMPI DUP6 MSTORE PUSH1 0x1 PUSH1 0x20 MSTORE DUP4 DUP6 KECCAK256 SWAP1 DUP6 MSTORE PUSH1 0x20 MSTORE SUB SWAP2 KECCAK256 SSTORE CODESIZE DUP1 DUP1 DUP1 DUP1 DUP1 DUP1 PUSH2 0x179D JUMP JUMPDEST DUP5 MLOAD PUSH4 0x4A1406B1 PUSH1 0xE1 SHL DUP2 MSTORE PUSH1 0x4 DUP2 ADD DUP8 SWAP1 MSTORE PUSH1 0x24 SWAP1 REVERT JUMPDEST DUP5 MLOAD PUSH4 0xE602DF05 PUSH1 0xE0 SHL DUP2 MSTORE PUSH1 0x4 DUP2 ADD DUP8 SWAP1 MSTORE PUSH1 0x24 SWAP1 REVERT JUMPDEST DUP6 MLOAD PUSH4 0x7DC7A0D9 PUSH1 0xE1 SHL DUP2 MSTORE PUSH1 0x1 PUSH1 0x1 PUSH1 0xA0 SHL SUB SWAP2 SWAP1 SWAP2 AND PUSH1 0x4 DUP3 ADD MSTORE PUSH1 0x24 DUP2 ADD DUP5 SWAP1 MSTORE PUSH1 0x44 DUP2 ADD DUP6 SWAP1 MSTORE PUSH1 0x64 SWAP1 REVERT JUMPDEST SWAP1 PUSH1 0x1 PUSH1 0x1 PUSH1 0xA0 SHL SUB DUP3 AND SWAP1 DUP2 ISZERO PUSH2 0x174E JUMPI PUSH2 0x1854 PUSH2 0x196A JUMP JUMPDEST PUSH1 0x0 SWAP3 DUP3 DUP5 MSTORE DUP4 PUSH1 0x20 MSTORE PUSH1 0x40 DUP5 KECCAK256 SLOAD SWAP1 DUP3 DUP3 LT PUSH2 0x18AF JUMPI POP DUP2 PUSH32 0xDDF252AD1BE2C89B69C2B068FC378DAA952BA7F163C4A11628F55A4DF523B3EF SWAP3 PUSH1 0x20 SWAP3 DUP6 DUP8 MSTORE DUP7 DUP5 MSTORE SUB PUSH1 0x40 DUP7 KECCAK256 SSTORE DUP1 PUSH1 0x2 SLOAD SUB PUSH1 0x2 SSTORE PUSH1 0x40 MLOAD SWAP1 DUP2 MSTORE LOG3 JUMP JUMPDEST PUSH1 0x40 MLOAD PUSH4 0x391434E3 PUSH1 0xE2 SHL DUP2 MSTORE PUSH1 0x1 PUSH1 0x1 PUSH1 0xA0 SHL SUB SWAP2 SWAP1 SWAP2 AND PUSH1 0x4 DUP3 ADD MSTORE PUSH1 0x24 DUP2 ADD SWAP2 SWAP1 SWAP2 MSTORE PUSH1 0x44 DUP2 ADD DUP3 SWAP1 MSTORE PUSH1 0x64 SWAP1 REVERT JUMPDEST SWAP2 SWAP1 DUP3 ADD DUP1 SWAP3 GT PUSH2 0x18EE JUMPI JUMP JUMPDEST PUSH4 0x4E487B71 PUSH1 0xE0 SHL PUSH1 0x0 MSTORE PUSH1 0x11 PUSH1 0x4 MSTORE PUSH1 0x24 PUSH1 0x0 REVERT JUMPDEST PUSH1 0x1 PUSH1 0x1 PUSH1 0xA0 SHL SUB AND SWAP1 DUP2 ISZERO PUSH2 0x1735 JUMPI PUSH32 0xDDF252AD1BE2C89B69C2B068FC378DAA952BA7F163C4A11628F55A4DF523B3EF PUSH1 0x20 PUSH1 0x0 SWAP3 PUSH2 0x1942 PUSH2 0x196A JUMP JUMPDEST PUSH2 0x194E DUP2 PUSH1 0x2 SLOAD PUSH2 0x18E1 JUMP JUMPDEST PUSH1 0x2 SSTORE DUP5 DUP5 MSTORE DUP4 DUP3 MSTORE PUSH1 0x40 DUP5 KECCAK256 DUP2 DUP2 SLOAD ADD SWAP1 SSTORE PUSH1 0x40 MLOAD SWAP1 DUP2 MSTORE LOG3 JUMP JUMPDEST PUSH1 0xFF PUSH1 0x5 SLOAD AND PUSH2 0x1976 JUMPI JUMP JUMPDEST PUSH1 0x40 MLOAD PUSH4 0xD93C0665 PUSH1 0xE0 SHL DUP2 MSTORE PUSH1 0x4 SWAP1 REVERT JUMPDEST SWAP2 SWAP1 DUP2 LT ISZERO PUSH2 0x1998 JUMPI PUSH1 0x5 SHL ADD SWAP1 JUMP JUMPDEST PUSH4 0x4E487B71 PUSH1 0xE0 SHL PUSH1 0x0 MSTORE PUSH1 0x32 PUSH1 0x4 MSTORE PUSH1 0x24 PUSH1 0x0 REVERT JUMPDEST CALLDATALOAD PUSH1 0x1 PUSH1 0x1 PUSH1 0xA0 SHL SUB DUP2 AND DUP2 SUB PUSH2 0x12AB JUMPI SWAP1 JUMP JUMPDEST PUSH1 0x1 PUSH1 0x1 PUSH1 0xA0 SHL SUB AND PUSH1 0x0 SWAP1 DUP2 MSTORE PUSH1 0x11 PUSH1 0x20 MSTORE PUSH1 0x40 SWAP1 KECCAK256 SLOAD TIMESTAMP LT PUSH2 0x19EE JUMPI PUSH1 0x0 PUSH1 0x20 MSTORE PUSH1 0x40 PUSH1 0x0 KECCAK256 SLOAD SWAP1 JUMP JUMPDEST PUSH1 0x0 SWAP1 JUMP INVALID LOG2 PUSH5 0x6970667358 0x22 SLT KECCAK256 DUP5 PUSH32 0x1673C62F01B004B15A80657FF469DBFAE4C62C4A1D184C9891BCE5BCBC116473 PUSH16 0x6C634300081400332F8788117E7EFF1D DUP3 0xE9 0x26 0xEC PUSH26 0x4901D17C78024A50270940304540A733656F0D00000000000000 "},"methodIdentifiers":{"DEFAULT_ADMIN_ROLE()":"a217fddf","MINTER_ROLE()":"d5391393","PAUSER_ROLE()":"e63ab1e9","TRANSFER_AGENT_ROLE()":"db1c13d8","allowance(address,address)":"dd62ed3e","approve(address,uint256)":"095ea7b3","availableBalance(address)":"a0821be3","balanceOf(address)":"70a08231","batchSetKYCStatus(address[],bool)":"0c371cea","burn(uint256)":"42966c68","burnFrom(address,uint256)":"79cc6790","decimals()":"313ce567","getProjectInfo()":"67c897fe","getRoleAdmin(bytes32)":"248a9ca3","grantRole(bytes32,address)":"2f2ff15d","hasRole(bytes32,address)":"91d14854","kycApproved(address)":"6641cc64","kycRequired()":"b9699091","lockTokens(address,uint256)":"b1c25586","lockedUntil(address)":"9bc289f1","maxInvestmentPerWallet()":"abed7ce9","minInvestmentTokens()":"8b296693","mint(address,uint256)":"40c10f19","name()":"06fdde03","pause()":"8456cb59","paused()":"5c975abb","pricePerToken()":"7b1b1de6","projectId()":"3fafa127","projectValuation()":"454f7edd","purchaseTokens(uint256)":"7b97008d","renounceRole(bytes32,address)":"36568abe","revokeRole(bytes32,address)":"d547741f","setKYCStatus(address,bool)":"a3f569ae","supportsInterface(bytes4)":"01ffc9a7","symbol()":"95d89b41","toggleTransfers(bool)":"68504158","tokensSold()":"518ab2a8","totalSupply()":"18160ddd","totalTokensForSale()":"60219c7b","transfer(address,uint256)":"a9059cbb","transferFrom(address,address,uint256)":"23b872dd","transfersEnabled()":"bef97c87","unlockTokens(address)":"cb67f948","unpause()":"3f4ba83a","updateInvestmentLimits(uint256,uint256)":"60690877","updateProjectValuation(uint256)":"e3b591ea","walletInvestments(address)":"021f4bf0"}}}}}