{"src/FinCoreKYC.sol":{"FinCoreKYC":{"abi":[{"inputs":[{"internalType":"address","name":"admin","type":"address"},{"internalType":"uint256","name":"_defaultValidityPeriod","type":"uint256"}],"stateMutability":"nonpayable","type":"constructor"},{"inputs":[],"name":"AccessControlBadConfirmation","type":"error"},{"inputs":[{"internalType":"address","name":"account","type":"address"},{"internalType":"bytes32","name":"neededRole","type":"bytes32"}],"name":"AccessControlUnauthorizedAccount","type":"error"},{"inputs":[],"name":"EnforcedPause","type":"error"},{"inputs":[],"name":"ExpectedPause","type":"error"},{"anonymous":false,"inputs":[{"indexed":true,"internalType":"address","name":"account","type":"address"},{"indexed":false,"internalType":"enum FinCoreKYC.KYCLevel","name":"oldLevel","type":"uint8"},{"indexed":false,"internalType":"enum FinCoreKYC.KYCLevel","name":"newLevel","type":"uint8"}],"name":"KYCLevelUpgraded","type":"event"},{"anonymous":false,"inputs":[{"indexed":true,"internalType":"address","name":"account","type":"address"},{"indexed":true,"internalType":"bytes32","name":"kycHash","type":"bytes32"},{"indexed":false,"internalType":"uint256","name":"newExpiresAt","type":"uint256"}],"name":"KYCRenewed","type":"event"},{"anonymous":false,"inputs":[{"indexed":true,"internalType":"address","name":"account","type":"address"},{"indexed":true,"internalType":"bytes32","name":"kycHash","type":"bytes32"},{"indexed":false,"internalType":"address","name":"revoker","type":"address"},{"indexed":false,"internalType":"string","name":"reason","type":"string"}],"name":"KYCRevoked","type":"event"},{"anonymous":false,"inputs":[{"indexed":true,"internalType":"address","name":"account","type":"address"},{"indexed":true,"internalType":"bytes32","name":"kycHash","type":"bytes32"},{"indexed":false,"internalType":"enum FinCoreKYC.KYCLevel","name":"level","type":"uint8"},{"indexed":false,"internalType":"address","name":"verifier","type":"address"},{"indexed":false,"internalType":"uint256","name":"expiresAt","type":"uint256"}],"name":"KYCVerified","type":"event"},{"anonymous":false,"inputs":[{"indexed":false,"internalType":"address","name":"account","type":"address"}],"name":"Paused","type":"event"},{"anonymous":false,"inputs":[{"indexed":true,"internalType":"bytes32","name":"role","type":"bytes32"},{"indexed":true,"internalType":"bytes32","name":"previousAdminRole","type":"bytes32"},{"indexed":true,"internalType":"bytes32","name":"newAdminRole","type":"bytes32"}],"name":"RoleAdminChanged","type":"event"},{"anonymous":false,"inputs":[{"indexed":true,"internalType":"bytes32","name":"role","type":"bytes32"},{"indexed":true,"internalType":"address","name":"account","type":"address"},{"indexed":true,"internalType":"address","name":"sender","type":"address"}],"name":"RoleGranted","type":"event"},{"anonymous":false,"inputs":[{"indexed":true,"internalType":"bytes32","name":"role","type":"bytes32"},{"indexed":true,"internalType":"address","name":"account","type":"address"},{"indexed":true,"internalType":"address","name":"sender","type":"address"}],"name":"RoleRevoked","type":"event"},{"anonymous":false,"inputs":[{"indexed":false,"internalType":"address","name":"account","type":"address"}],"name":"Unpaused","type":"event"},{"anonymous":false,"inputs":[{"indexed":false,"internalType":"enum FinCoreKYC.KYCLevel","name":"level","type":"uint8"},{"indexed":false,"internalType":"uint256","name":"period","type":"uint256"}],"name":"ValidityPeriodUpdated","type":"event"},{"inputs":[],"name":"DEFAULT_ADMIN_ROLE","outputs":[{"internalType":"bytes32","name":"","type":"bytes32"}],"stateMutability":"view","type":"function"},{"inputs":[],"name":"REVOKER_ROLE","outputs":[{"internalType":"bytes32","name":"","type":"bytes32"}],"stateMutability":"view","type":"function"},{"inputs":[],"name":"VERIFIER_ROLE","outputs":[{"internalType":"bytes32","name":"","type":"bytes32"}],"stateMutability":"view","type":"function"},{"inputs":[{"internalType":"address[]","name":"accounts","type":"address[]"},{"internalType":"bytes32[]","name":"kycHashes","type":"bytes32[]"},{"internalType":"enum FinCoreKYC.KYCLevel[]","name":"levels","type":"uint8[]"}],"name":"batchVerifyKYC","outputs":[],"stateMutability":"nonpayable","type":"function"},{"inputs":[],"name":"defaultValidityPeriod","outputs":[{"internalType":"uint256","name":"","type":"uint256"}],"stateMutability":"view","type":"function"},{"inputs":[{"internalType":"bytes32","name":"kycHash","type":"bytes32"}],"name":"getAddressForHash","outputs":[{"internalType":"address","name":"","type":"address"}],"stateMutability":"view","type":"function"},{"inputs":[{"internalType":"address","name":"account","type":"address"}],"name":"getKYCRecord","outputs":[{"internalType":"bytes32","name":"kycHash","type":"bytes32"},{"internalType":"enum FinCoreKYC.KYCLevel","name":"level","type":"uint8"},{"internalType":"uint256","name":"verifiedAt","type":"uint256"},{"internalType":"uint256","name":"expiresAt","type":"uint256"},{"internalType":"address","name":"verifier","type":"address"},{"internalType":"bool","name":"revoked","type":"bool"},{"internalType":"string","name":"revokeReason","type":"string"}],"stateMutability":"view","type":"function"},{"inputs":[{"internalType":"bytes32","name":"role","type":"bytes32"}],"name":"getRoleAdmin","outputs":[{"internalType":"bytes32","name":"","type":"bytes32"}],"stateMutability":"view","type":"function"},{"inputs":[],"name":"getStats","outputs":[{"internalType":"uint256","name":"_totalVerified","type":"uint256"},{"internalType":"uint256","name":"_totalRevoked","type":"uint256"},{"internalType":"uint256","name":"_activeCount","type":"uint256"}],"stateMutability":"view","type":"function"},{"inputs":[{"internalType":"bytes32","name":"role","type":"bytes32"},{"internalType":"address","name":"account","type":"address"}],"name":"grantRole","outputs":[],"stateMutability":"nonpayable","type":"function"},{"inputs":[{"internalType":"address","name":"account","type":"address"},{"internalType":"enum FinCoreKYC.KYCLevel","name":"minLevel","type":"uint8"}],"name":"hasMinimumKYCLevel","outputs":[{"internalType":"bool","name":"","type":"bool"}],"stateMutability":"view","type":"function"},{"inputs":[{"internalType":"bytes32","name":"role","type":"bytes32"},{"internalType":"address","name":"account","type":"address"}],"name":"hasRole","outputs":[{"internalType":"bool","name":"","type":"bool"}],"stateMutability":"view","type":"function"},{"inputs":[{"internalType":"bytes32","name":"","type":"bytes32"}],"name":"hashToAddress","outputs":[{"internalType":"address","name":"","type":"address"}],"stateMutability":"view","type":"function"},{"inputs":[{"internalType":"address","name":"account","type":"address"}],"name":"isKYCValid","outputs":[{"internalType":"bool","name":"","type":"bool"}],"stateMutability":"view","type":"function"},{"inputs":[{"internalType":"address","name":"","type":"address"}],"name":"kycRecords","outputs":[{"internalType":"bytes32","name":"kycHash","type":"bytes32"},{"internalType":"enum FinCoreKYC.KYCLevel","name":"level","type":"uint8"},{"internalType":"uint256","name":"verifiedAt","type":"uint256"},{"internalType":"uint256","name":"expiresAt","type":"uint256"},{"internalType":"address","name":"verifier","type":"address"},{"internalType":"bool","name":"revoked","type":"bool"},{"internalType":"string","name":"revokeReason","type":"string"}],"stateMutability":"view","type":"function"},{"inputs":[{"internalType":"enum FinCoreKYC.KYCLevel","name":"","type":"uint8"}],"name":"levelValidityPeriods","outputs":[{"internalType":"uint256","name":"","type":"uint256"}],"stateMutability":"view","type":"function"},{"inputs":[],"name":"pause","outputs":[],"stateMutability":"nonpayable","type":"function"},{"inputs":[],"name":"paused","outputs":[{"internalType":"bool","name":"","type":"bool"}],"stateMutability":"view","type":"function"},{"inputs":[{"internalType":"address","name":"account","type":"address"},{"internalType":"uint256","name":"additionalTime","type":"uint256"}],"name":"renewKYC","outputs":[],"stateMutability":"nonpayable","type":"function"},{"inputs":[{"internalType":"bytes32","name":"role","type":"bytes32"},{"internalType":"address","name":"callerConfirmation","type":"address"}],"name":"renounceRole","outputs":[],"stateMutability":"nonpayable","type":"function"},{"inputs":[{"internalType":"address","name":"account","type":"address"},{"internalType":"string","name":"reason","type":"string"}],"name":"revokeKYC","outputs":[],"stateMutability":"nonpayable","type":"function"},{"inputs":[{"internalType":"bytes32","name":"role","type":"bytes32"},{"internalType":"address","name":"account","type":"address"}],"name":"revokeRole","outputs":[],"stateMutability":"nonpayable","type":"function"},{"inputs":[{"internalType":"uint256","name":"period","type":"uint256"}],"name":"setDefaultValidityPeriod","outputs":[],"stateMutability":"nonpayable","type":"function"},{"inputs":[{"internalType":"enum FinCoreKYC.KYCLevel","name":"level","type":"uint8"},{"internalType":"uint256","name":"period","type":"uint256"}],"name":"setValidityPeriod","outputs":[],"stateMutability":"nonpayable","type":"function"},{"inputs":[{"internalType":"bytes4","name":"interfaceId","type":"bytes4"}],"name":"supportsInterface","outputs":[{"internalType":"bool","name":"","type":"bool"}],"stateMutability":"view","type":"function"},{"inputs":[],"name":"totalRevoked","outputs":[{"internalType":"uint256","name":"","type":"uint256"}],"stateMutability":"view","type":"function"},{"inputs":[],"name":"totalVerified","outputs":[{"internalType":"uint256","name":"","type":"uint256"}],"stateMutability":"view","type":"function"},{"inputs":[],"name":"unpause","outputs":[],"stateMutability":"nonpayable","type":"function"},{"inputs":[{"internalType":"address","name":"account","type":"address"},{"internalType":"enum FinCoreKYC.KYCLevel","name":"newLevel","type":"uint8"}],"name":"upgradeKYCLevel","outputs":[],"stateMutability":"nonpayable","type":"function"},{"inputs":[{"internalType":"address","name":"account","type":"address"},{"internalType":"bytes32","name":"kycHash","type":"bytes32"},{"internalType":"enum FinCoreKYC.KYCLevel","name":"level","type":"uint8"}],"name":"verifyKYC","outputs":[],"stateMutability":"nonpayable","type":"function"},{"inputs":[{"internalType":"address","name":"account","type":"address"},{"internalType":"bytes32","name":"kycHash","type":"bytes32"}],"name":"verifyKYCHash","outputs":[{"internalType":"bool","name":"","type":"bool"}],"stateMutability":"view","type":"function"}],"evm":{"bytecode":{"linkReferences":{},"object":"6080346200016a5762001e6590601f38839003908101601f19168201906001600160401b038211838310176200016f57808391604095869485528339810103126200016a5780516001600160a01b038116918282036200016a5760200151911562000136578115620000f2576201518080830292830403620000dc57620000cd916004556303c267008360006001815260056020526276a70082822055600281526301e1338082822055600381522055620000ba8162000185565b50620000c68162000205565b50620002a7565b5051611b009081620003458239f35b634e487b7160e01b600052601160045260246000fd5b825162461bcd60e51b815260206004820152601760248201527f496e76616c69642076616c696469747920706572696f640000000000000000006044820152606490fd5b825162461bcd60e51b815260206004820152600d60248201526c24b73b30b634b21030b236b4b760991b6044820152606490fd5b600080fd5b634e487b7160e01b600052604160045260246000fd5b6001600160a01b031660008181527fad3228b676f7d3cd4284a5443f17f1962b36e491b30a40b2405849e597ba5fb5602052604081205490919060ff166200020157818052816020526040822081835260205260408220600160ff19825416179055339160008051602062001e458339815191528180a4600190565b5090565b6001600160a01b031660008181527f1da0b5176dfe03406af5a6eed66ca01dda9b45ac4da671c3fa379cb93717ef8160205260408120549091907f0ce23c3e399818cfee81a7ab0880f714e53d7672b08df0fa62f2843416e1ea099060ff16620002a257808352826020526040832082845260205260408320600160ff1982541617905560008051602062001e45833981519152339380a4600190565b505090565b6001600160a01b031660008181527ff38da9114e17e4ae38d3015ba64927782cafeac3f9d5b8d2f1e379f197d8f4f360205260408120549091907fce3f34913921da558f105cefb578d87278debbbd073a8d552b5de0d168deee309060ff16620002a257808352826020526040832082845260205260408320600160ff1982541617905560008051602062001e45833981519152339380a460019056fe608080604052600436101561001357600080fd5b60003560e01c90816301ffc9a714611442575080630e0455b11461138c578063228a75601461130b578063248a9ca3146112dc5780632e3b7be01461103f5780632f2ff15d1461100057806336568abe14610fb95780633f4ba83a14610f4f5780634aa4924714610f315780635c975abb14610f0e5780635eb0b78014610de85780637c4acabf14610dad5780637eb606e814610c445780638456cb5914610d545780638ad9769114610d075780639050a11d14610bdf57806391d1485414610cba578063973c156b14610c445780639b14545114610c135780639bd2cb0d14610bdf578063a217fddf14610bc3578063abb382b514610b85578063b6d15c7b14610af2578063c59d484714610aa5578063c5fdc8e214610700578063c7e290131461029f578063cf0e0f9d14610231578063d547741f146101f0578063e62ce7ac146101d2578063e7705db6146101975763fe9eba151461017457600080fd5b34610192576000366003190112610192576020600654604051908152f35b600080fd5b346101925760003660031901126101925760206040517f0ce23c3e399818cfee81a7ab0880f714e53d7672b08df0fa62f2843416e1ea098152f35b34610192576000366003190112610192576020600754604051908152f35b346101925760403660031901126101925761022f60043561020f6114ab565b9080600052600060205261022a6001604060002001546117a4565b611848565b005b34610192576020366003190112610192576001600160a01b03610252611495565b1660005260026020526020604060002080541515908161028c575b8161027e575b506040519015158152f35b600391500154421082610273565b600481015460a01c60ff1615915061026d565b346101925760603660031901126101925760043567ffffffffffffffff8111610192576102d09036906004016116bf565b9060243567ffffffffffffffff8111610192576102f19036906004016116bf565b60449391933567ffffffffffffffff8111610192576103149036906004016116bf565b94909261031f6116f0565b6103276119b3565b828114806106f7575b156106c05760005b81811061034157005b61034c8183886119d1565b356001600160a01b0381168103610192576103688286866119d1565b3590610375838a896119d1565b35906004821015610192576001600160a01b0381161580156106b8575b80156106b0575b6106a4576000838152600360205260409020546001600160a01b03166106a4576001600160a01b03811660009081526002602052604090208054908115159081610691575b5061066e575b506103ee826116a6565b548015610665575b61040090426118f9565b9060405161040d8161152a565b848152602081019061041f8583611906565b426040820152836060820152336080820152600060a082015260405161044481611546565b6000815260c082015260018060a01b0383166000526002602052604060002091815183555190600482101561064f5761048260c09260018501611912565b6040810151600284015560608101516003840155608081015160048401805460a08085015160ff60a01b90151590911b166001600160a01b039093166001600160a81b031990911617919091179055015180519067ffffffffffffffff8211610639576104ff826104f660058601546114f0565b6005860161192a565b602090601f83116001146105b15782600080516020611aab83398151915295936105a19a99989795936005936000926105a6575b50508160011b916000199060031b1c1916179101555b600085815260036020526040902080546001600160a01b0319166001600160a01b0383161790556006805461057d9061197e565b905561059960405192839260018060a01b03169533908461198d565b0390a361197e565b610338565b015190503880610533565b906005840160005260206000209160005b601f19851681106106215750836105a19a9998979593600593600193600080516020611aab8339815191529997601f19811610610608575b505050811b01910155610549565b015160001960f88460031b161c191690553880806105fa565b919260206001819286850151815501940192016105c2565b634e487b7160e01b600052604160045260246000fd5b634e487b7160e01b600052602160045260246000fd5b506004546103f6565b600052600360205260406000206001600160601b0360a01b81541690558a6103e4565b60ff91506004015460a01c16158c6103de565b5050506105a19061197e565b508115610399565b508215610392565b60405162461bcd60e51b815260206004820152600f60248201526e098cadccee8d040dad2e6dac2e8c6d608b1b6044820152606490fd5b50858314610330565b3461019257606036600319011261019257610719611495565b602490813590604435906004821015610192576107346116f0565b61073c6119b3565b6001600160a01b03908116918215610a6f578315610a385761075f8115156118bd565b836000526003916020928084528160406000205416610a00578460005260028452604060002080549081151590816109ed575b506109cc575b506107a2836116a6565b5480156109c3575b6107b490426118f9565b93604051926107c28461152a565b878452818401906107d38683611906565b60408501944286526060810190888252608081019633885260a0820197600089526040519561080187611546565b6000875260c084019687528c60005260028852604060002093518455519460048610156109ae576005946108829361083d600198898801611912565b516002860155518985015560048401915116986001600160601b0360a01b998a83541617825551151581549060ff60a01b90151560a01b169060ff60a01b1916179055565b01915180519a67ffffffffffffffff8c1161099a57506108ac8b6108a685546114f0565b8561192a565b8390601f8c1160011461092a579a80928192600080516020611aab8339815191529b9c9d60009461091f575b50501b9160001990861b1c19161790555b87600052528460406000209182541617905561090660065461197e565b60065561091a60405192839233908461198d565b0390a3005b015192508d806108d8565b9a90601f1982169084600052856000209160005b81811061098557509c83600080516020611aab8339815191529c9d9e1061096d575b505050811b0190556108e9565b015160001983881b60f8161c191690558b8080610960565b8e83015184559285019291870191870161093e565b634e487b7160e01b60009081526041600452fd5b8e634e487b7160e01b60005260216004526000fd5b506004546107aa565b60005280845260406000206001600160601b0360a01b815416905587610798565b60ff91506004015460a01c161589610792565b60405162461bcd60e51b8152600481018590526011818901527012185cda08185b1c9958591e481d5cd959607a1b6044820152606490fd5b60405162461bcd60e51b8152602060048201526010818701526f092dcecc2d8d2c84096b28640d0c2e6d60831b6044820152606490fd5b60405162461bcd60e51b815260206004820152600f818701526e125b9d985b1a59081858d8dbdd5b9d608a1b6044820152606490fd5b346101925760003660031901126101925760065460075490818103818111610adc5760609260405192835260208301526040820152f35b634e487b7160e01b600052601160045260246000fd5b3461019257610b00366114c1565b6001600160a01b039091166000908152600260205260409020805415159081610b72575b81610b64575b81610b3d575b6020826040519015158152f35b60ff9150600101541690600481101561064f57600482101561064f57602091101582610b30565b600381015442109150610b2a565b600481015460a01c60ff16159150610b24565b3461019257602036600319011261019257600435610ba161176a565b8015610bad8115611a6d565b62015180808302928304141715610adc57600455005b3461019257600036600319011261019257602060405160008152f35b34610192576020366003190112610192576004356000526003602052602060018060a01b0360406000205416604051908152f35b3461019257602036600319011261019257600435600481101561019257610c3b6020916116a6565b54604051908152f35b34610192576020366003190112610192576001600160a01b0380610c66611495565b166000526002602052604060002090610cb6825460ff600185015416936002810154916003820154610c9f600560048501549401611562565b9360405197889760ff8660a01c1695169388611624565b0390f35b3461019257604036600319011261019257610cd36114ab565b600435600052600060205260406000209060018060a01b0316600052602052602060ff604060002054166040519015158152f35b34610192576040366003190112610192576001600160a01b03610d28611495565b16600052600260205260206040600020602435815414908161028c578161027e57506040519015158152f35b3461019257600036600319011261019257610d6d61176a565b610d756119b3565b600160ff19815416176001557f62e78cea01bee320cd4e420270b5ea74000d11b0c9f74754ebdbfc544b05a2586020604051338152a1005b346101925760003660031901126101925760206040517fce3f34913921da558f105cefb578d87278debbbd073a8d552b5de0d168deee308152f35b3461019257610df6366114c1565b90610dff6116f0565b610e076119b3565b60018060a01b0316908160005260026020526040600020610e2a815415156119f7565b610e3e60ff600483015460a01c1615611a33565b6001810160ff81541690600482101561064f57600484101561064f5781841115610ed65783604093610e947f4ca2a571fd967853d947cc2267ac9b012d87d9344db4c67af74911c451bdc1f796610eca94611912565b610e9d826116a6565b548015610ecd575b610eb1600391426118f9565b910155610ec084518094611617565b6020830190611617565ba2005b50600454610ea5565b60405162461bcd60e51b815260206004820152601060248201526f43616e206f6e6c79207570677261646560801b6044820152606490fd5b3461019257600036600319011261019257602060ff600154166040519015158152f35b34610192576000366003190112610192576020600454604051908152f35b3461019257600036600319011261019257610f6861176a565b60015460ff811615610fa75760ff19166001557f5db9ee0a495bf2e6ff9c91a7834c1ba4fdd244a5e8aa4e537bd38aeae4b073aa6020604051338152a1005b604051638dfc202b60e01b8152600490fd5b3461019257604036600319011261019257610fd26114ab565b336001600160a01b03821603610fee5761022f90600435611848565b60405163334bd91960e11b8152600490fd5b346101925760403660031901126101925761022f60043561101f6114ab565b9080600052600060205261103a6001604060002001546117a4565b6117ca565b3461019257604036600319011261019257611058611495565b602480359167ffffffffffffffff80841161019257366023850112156101925783600401359081116101925736838286010111610192573360009081527ff38da9114e17e4ae38d3015ba64927782cafeac3f9d5b8d2f1e379f197d8f4f360209081526040909120549092907fce3f34913921da558f105cefb578d87278debbbd073a8d552b5de0d168deee309060ff16156112bf575060018060a01b03169283600052600283526040600020611111815415156119f7565b60048101805460ff8160a01c166112895760ff60a01b1916600160a01b17905560058101805461114c908590611146906114f0565b8361192a565b6000601f85116001146111ee5793837fa31aab39cdf4008c7d82ca632536b58aa15e23e8b6cc1737e9292c7ae132cc2f96938293836060976040996000926111e1575b50508460011b906000198660031b1c19161790555b6111af60075461197e565b6007555498865196879533875286015282604086015201848401376000828201840152601f01601f19168101030190a3005b8d0101359050838d61118f565b87601f1986169183600052876000209260005b81811061126e57509387949387936060987fa31aab39cdf4008c7d82ca632536b58aa15e23e8b6cc1737e9292c7ae132cc2f9b98948860409c9810611252575b50505050600184811b0190556111a4565b60001960f88960031b161c19920101351690558b8b8482611241565b92820187013584556001909301928a92918901918901611201565b60405162461bcd60e51b815260048101879052600f818601526e105b1c9958591e481c995d9bdad959608a1b6044820152606490fd5b846044916040519163e2517d3f60e01b8352336004840152820152fd5b346101925760203660031901126101925760043560005260006020526020600160406000200154604051908152f35b346101925760403660031901126101925760043560048110156101925760407f71ed9e2f42b8ec4e4b48d7636d001ce08742a1fef9bbe0735db30b10776886b09160243561135761176a565b6113628215156118bd565b61136d811515611a6d565b80611377836116a6565b5561138483518093611617565b6020820152a1005b34610192576040366003190112610192576113a5611495565b6113ad6116f0565b6113b56119b3565b60018060a01b03168060005260026020526040600020907f0fc4b70554ebcae80c629797f3cd073fc2e9cb9002c01dd05cb4c135a65fc9bb602060038454946113ff8615156119f7565b61141360ff600483015460a01c1615611a33565b018054428111156114385761142c905b602435906118f9565b809155604051908152a3005b5061142c42611423565b34610192576020366003190112610192576004359063ffffffff60e01b821680920361019257602091637965db0b60e01b8114908115611484575b5015158152f35b6301ffc9a760e01b1490508361147d565b600435906001600160a01b038216820361019257565b602435906001600160a01b038216820361019257565b6040906003190112610192576004356001600160a01b0381168103610192579060243560048110156101925790565b90600182811c92168015611520575b602083101461150a57565b634e487b7160e01b600052602260045260246000fd5b91607f16916114ff565b60e0810190811067ffffffffffffffff82111761063957604052565b6020810190811067ffffffffffffffff82111761063957604052565b9060405191600090805490611576826114f0565b9081865260019283811690816000146115f657506001146115b9575b505050829003601f01601f1916820167ffffffffffffffff81118382101761063957604052565b9092506000526020918260002091836000935b8385106115e25750505050830101388080611592565b8054888601830152930192849082016115cc565b92935050506020925060ff191682850152151560051b830101388080611592565b90600482101561064f5752565b959391949290865261163b60209586880190611617565b604086015260608501526001600160a01b03166080840152151560a083015260e060c0830181905283519083018190529260005b84811061169157505050610100916000838284010152601f8019910116010190565b8181018301518482016101000152820161166f565b600481101561064f576000526005602052604060002090565b9181601f840112156101925782359167ffffffffffffffff8311610192576020808501948460051b01011161019257565b3360009081527f1da0b5176dfe03406af5a6eed66ca01dda9b45ac4da671c3fa379cb93717ef8160205260409020547f0ce23c3e399818cfee81a7ab0880f714e53d7672b08df0fa62f2843416e1ea099060ff161561174c5750565b6044906040519063e2517d3f60e01b82523360048301526024820152fd5b3360009081527fad3228b676f7d3cd4284a5443f17f1962b36e491b30a40b2405849e597ba5fb5602052604081205460ff161561174c5750565b80600052600060205260406000203360005260205260ff604060002054161561174c5750565b9060009180835282602052604083209160018060a01b03169182845260205260ff6040842054161560001461184357808352826020526040832082845260205260408320600160ff198254161790557f2f8788117e7eff1d82e926ec794901d17c78024a50270940304540a733656f0d339380a4600190565b505090565b9060009180835282602052604083209160018060a01b03169182845260205260ff6040842054166000146118435780835282602052604083208284526020526040832060ff1981541690557ff6391f5c32d9c69d2a47ea670b442974b53935d1edc7fd64eb21e047a839171b339380a4600190565b156118c457565b60405162461bcd60e51b815260206004820152600d60248201526c125b9d985b1a59081b195d995b609a1b6044820152606490fd5b91908201809211610adc57565b600482101561064f5752565b90600481101561064f5760ff80198354169116179055565b90601f811161193857505050565b600091825260208220906020601f850160051c83019410611974575b601f0160051c01915b82811061196957505050565b81815560010161195d565b9092508290611954565b6000198114610adc5760010190565b6040919493926119a1826060810197611617565b6001600160a01b031660208201520152565b60ff600154166119bf57565b60405163d93c066560e01b8152600490fd5b91908110156119e15760051b0190565b634e487b7160e01b600052603260045260246000fd5b156119fe57565b60405162461bcd60e51b815260206004820152600d60248201526c139bc812d650c81c9958dbdc99609a1b6044820152606490fd5b15611a3a57565b60405162461bcd60e51b815260206004820152600b60248201526a12d650c81c995d9bdad95960aa1b6044820152606490fd5b15611a7457565b60405162461bcd60e51b815260206004820152600e60248201526d125b9d985b1a59081c195c9a5bd960921b6044820152606490fdfec9c037062e5bc330d3753ad2a431db3adf0c0e06698928df4e9ebcba564c572ca26469706673582212204675058e2508cdef0665d6221a140206d79292ed8df53eb4439b4f0e3d329e8064736f6c634300081400332f8788117e7eff1d82e926ec794901d17c78024a50270940304540a733656f0d","opcodes":"PUSH1 0x80 CALLVALUE PUSH3 0x16A JUMPI PUSH3 0x1E65 SWAP1 PUSH1 0x1F CODESIZE DUP4 SWAP1 SUB SWAP1 DUP2 ADD PUSH1 0x1F NOT AND DUP3 ADD SWAP1 PUSH1 0x1 PUSH1 0x1 PUSH1 0x40 SHL SUB DUP3 GT DUP4 DUP4 LT OR PUSH3 0x16F JUMPI DUP1 DUP4 SWAP2 PUSH1 0x40 SWAP6 DUP7 SWAP5 DUP6 MSTORE DUP4 CODECOPY DUP2 ADD SUB SLT PUSH3 0x16A JUMPI DUP1 MLOAD PUSH1 0x1 PUSH1 0x1 PUSH1 0xA0 SHL SUB DUP2 AND SWAP2 DUP3 DUP3 SUB PUSH3 0x16A JUMPI PUSH1 0x20 ADD MLOAD SWAP2 ISZERO PUSH3 0x136 JUMPI DUP2 ISZERO PUSH3 0xF2 JUMPI PUSH3 0x15180 DUP1 DUP4 MUL SWAP3 DUP4 DIV SUB PUSH3 0xDC JUMPI PUSH3 0xCD SWAP2 PUSH1 0x4 SSTORE PUSH4 0x3C26700 DUP4 PUSH1 0x0 PUSH1 0x1 DUP2 MSTORE PUSH1 0x5 PUSH1 0x20 MSTORE PUSH3 0x76A700 DUP3 DUP3 KECCAK256 SSTORE PUSH1 0x2 DUP2 MSTORE PUSH4 0x1E13380 DUP3 DUP3 KECCAK256 SSTORE PUSH1 0x3 DUP2 MSTORE KECCAK256 SSTORE PUSH3 0xBA DUP2 PUSH3 0x185 JUMP JUMPDEST POP PUSH3 0xC6 DUP2 PUSH3 0x205 JUMP JUMPDEST POP PUSH3 0x2A7 JUMP JUMPDEST POP MLOAD PUSH2 0x1B00 SWAP1 DUP2 PUSH3 0x345 DUP3 CODECOPY RETURN JUMPDEST PUSH4 0x4E487B71 PUSH1 0xE0 SHL PUSH1 0x0 MSTORE PUSH1 0x11 PUSH1 0x4 MSTORE PUSH1 0x24 PUSH1 0x0 REVERT JUMPDEST DUP3 MLOAD PUSH3 0x461BCD PUSH1 0xE5 SHL DUP2 MSTORE PUSH1 0x20 PUSH1 0x4 DUP3 ADD MSTORE PUSH1 0x17 PUSH1 0x24 DUP3 ADD MSTORE PUSH32 0x496E76616C69642076616C696469747920706572696F64000000000000000000 PUSH1 0x44 DUP3 ADD MSTORE PUSH1 0x64 SWAP1 REVERT JUMPDEST DUP3 MLOAD PUSH3 0x461BCD PUSH1 0xE5 SHL DUP2 MSTORE PUSH1 0x20 PUSH1 0x4 DUP3 ADD MSTORE PUSH1 0xD PUSH1 0x24 DUP3 ADD MSTORE PUSH13 0x24B73B30B634B21030B236B4B7 PUSH1 0x99 SHL PUSH1 0x44 DUP3 ADD MSTORE PUSH1 0x64 SWAP1 REVERT JUMPDEST PUSH1 0x0 DUP1 REVERT JUMPDEST PUSH4 0x4E487B71 PUSH1 0xE0 SHL PUSH1 0x0 MSTORE PUSH1 0x41 PUSH1 0x4 MSTORE PUSH1 0x24 PUSH1 0x0 REVERT JUMPDEST PUSH1 0x1 PUSH1 0x1 PUSH1 0xA0 SHL SUB AND PUSH1 0x0 DUP2 DUP2 MSTORE PUSH32 0xAD3228B676F7D3CD4284A5443F17F1962B36E491B30A40B2405849E597BA5FB5 PUSH1 0x20 MSTORE PUSH1 0x40 DUP2 KECCAK256 SLOAD SWAP1 SWAP2 SWAP1 PUSH1 0xFF AND PUSH3 0x201 JUMPI DUP2 DUP1 MSTORE DUP2 PUSH1 0x20 MSTORE PUSH1 0x40 DUP3 KECCAK256 DUP2 DUP4 MSTORE PUSH1 0x20 MSTORE PUSH1 0x40 DUP3 KECCAK256 PUSH1 0x1 PUSH1 0xFF NOT DUP3 SLOAD AND OR SWAP1 SSTORE CALLER SWAP2 PUSH1 0x0 DUP1 MLOAD PUSH1 0x20 PUSH3 0x1E45 DUP4 CODECOPY DUP2 MLOAD SWAP2 MSTORE DUP2 DUP1 LOG4 PUSH1 0x1 SWAP1 JUMP JUMPDEST POP SWAP1 JUMP JUMPDEST PUSH1 0x1 PUSH1 0x1 PUSH1 0xA0 SHL SUB AND PUSH1 0x0 DUP2 DUP2 MSTORE PUSH32 0x1DA0B5176DFE03406AF5A6EED66CA01DDA9B45AC4DA671C3FA379CB93717EF81 PUSH1 0x20 MSTORE PUSH1 0x40 DUP2 KECCAK256 SLOAD SWAP1 SWAP2 SWAP1 PUSH32 0xCE23C3E399818CFEE81A7AB0880F714E53D7672B08DF0FA62F2843416E1EA09 SWAP1 PUSH1 0xFF AND PUSH3 0x2A2 JUMPI DUP1 DUP4 MSTORE DUP3 PUSH1 0x20 MSTORE PUSH1 0x40 DUP4 KECCAK256 DUP3 DUP5 MSTORE PUSH1 0x20 MSTORE PUSH1 0x40 DUP4 KECCAK256 PUSH1 0x1 PUSH1 0xFF NOT DUP3 SLOAD AND OR SWAP1 SSTORE PUSH1 0x0 DUP1 MLOAD PUSH1 0x20 PUSH3 0x1E45 DUP4 CODECOPY DUP2 MLOAD SWAP2 MSTORE CALLER SWAP4 DUP1 LOG4 PUSH1 0x1 SWAP1 JUMP JUMPDEST POP POP SWAP1 JUMP JUMPDEST PUSH1 0x1 PUSH1 0x1 PUSH1 0xA0 SHL SUB AND PUSH1 0x0 DUP2 DUP2 MSTORE PUSH32 0xF38DA9114E17E4AE38D3015BA64927782CAFEAC3F9D5B8D2F1E379F197D8F4F3 PUSH1 0x20 MSTORE PUSH1 0x40 DUP2 KECCAK256 SLOAD SWAP1 SWAP2 SWAP1 PUSH32 0xCE3F34913921DA558F105CEFB578D87278DEBBBD073A8D552B5DE0D168DEEE30 SWAP1 PUSH1 0xFF AND PUSH3 0x2A2 JUMPI DUP1 DUP4 MSTORE DUP3 PUSH1 0x20 MSTORE PUSH1 0x40 DUP4 KECCAK256 DUP3 DUP5 MSTORE PUSH1 0x20 MSTORE PUSH1 0x40 DUP4 KECCAK256 PUSH1 0x1 PUSH1 0xFF NOT DUP3 SLOAD AND OR SWAP1 SSTORE PUSH1 0x0 DUP1 MLOAD PUSH1 0x20 PUSH3 0x1E45 DUP4 CODECOPY DUP2 MLOAD SWAP2 MSTORE CALLER SWAP4 DUP1 LOG4 PUSH1 0x1 SWAP1 JUMP INVALID PUSH1 0x80 DUP1 PUSH1 0x40 MSTORE PUSH1 0x4 CALLDATASIZE LT ISZERO PUSH2 0x13 JUMPI PUSH1 0x0 DUP1 REVERT JUMPDEST PUSH1 0x0 CALLDATALOAD PUSH1 0xE0 SHR SWAP1 DUP2 PUSH4 0x1FFC9A7 EQ PUSH2 0x1442 JUMPI POP DUP1 PUSH4 0xE0455B1 EQ PUSH2 0x138C JUMPI DUP1 PUSH4 0x228A7560 EQ PUSH2 0x130B JUMPI DUP1 PUSH4 0x248A9CA3 EQ PUSH2 0x12DC JUMPI DUP1 PUSH4 0x2E3B7BE0 EQ PUSH2 0x103F JUMPI DUP1 PUSH4 0x2F2FF15D EQ PUSH2 0x1000 JUMPI DUP1 PUSH4 0x36568ABE EQ PUSH2 0xFB9 JUMPI DUP1 PUSH4 0x3F4BA83A EQ PUSH2 0xF4F JUMPI DUP1 PUSH4 0x4AA49247 EQ PUSH2 0xF31 JUMPI DUP1 PUSH4 0x5C975ABB EQ PUSH2 0xF0E JUMPI DUP1 PUSH4 0x5EB0B780 EQ PUSH2 0xDE8 JUMPI DUP1 PUSH4 0x7C4ACABF EQ PUSH2 0xDAD JUMPI DUP1 PUSH4 0x7EB606E8 EQ PUSH2 0xC44 JUMPI DUP1 PUSH4 0x8456CB59 EQ PUSH2 0xD54 JUMPI DUP1 PUSH4 0x8AD97691 EQ PUSH2 0xD07 JUMPI DUP1 PUSH4 0x9050A11D EQ PUSH2 0xBDF JUMPI DUP1 PUSH4 0x91D14854 EQ PUSH2 0xCBA JUMPI DUP1 PUSH4 0x973C156B EQ PUSH2 0xC44 JUMPI DUP1 PUSH4 0x9B145451 EQ PUSH2 0xC13 JUMPI DUP1 PUSH4 0x9BD2CB0D EQ PUSH2 0xBDF JUMPI DUP1 PUSH4 0xA217FDDF EQ PUSH2 0xBC3 JUMPI DUP1 PUSH4 0xABB382B5 EQ PUSH2 0xB85 JUMPI DUP1 PUSH4 0xB6D15C7B EQ PUSH2 0xAF2 JUMPI DUP1 PUSH4 0xC59D4847 EQ PUSH2 0xAA5 JUMPI DUP1 PUSH4 0xC5FDC8E2 EQ PUSH2 0x700 JUMPI DUP1 PUSH4 0xC7E29013 EQ PUSH2 0x29F JUMPI DUP1 PUSH4 0xCF0E0F9D EQ PUSH2 0x231 JUMPI DUP1 PUSH4 0xD547741F EQ PUSH2 0x1F0 JUMPI DUP1 PUSH4 0xE62CE7AC EQ PUSH2 0x1D2 JUMPI DUP1 PUSH4 0xE7705DB6 EQ PUSH2 0x197 JUMPI PUSH4 0xFE9EBA15 EQ PUSH2 0x174 JUMPI PUSH1 0x0 DUP1 REVERT JUMPDEST CALLVALUE PUSH2 0x192 JUMPI PUSH1 0x0 CALLDATASIZE PUSH1 0x3 NOT ADD SLT PUSH2 0x192 JUMPI PUSH1 0x20 PUSH1 0x6 SLOAD PUSH1 0x40 MLOAD SWAP1 DUP2 MSTORE RETURN JUMPDEST PUSH1 0x0 DUP1 REVERT JUMPDEST CALLVALUE PUSH2 0x192 JUMPI PUSH1 0x0 CALLDATASIZE PUSH1 0x3 NOT ADD SLT PUSH2 0x192 JUMPI PUSH1 0x20 PUSH1 0x40 MLOAD PUSH32 0xCE23C3E399818CFEE81A7AB0880F714E53D7672B08DF0FA62F2843416E1EA09 DUP2 MSTORE RETURN JUMPDEST CALLVALUE PUSH2 0x192 JUMPI PUSH1 0x0 CALLDATASIZE PUSH1 0x3 NOT ADD SLT PUSH2 0x192 JUMPI PUSH1 0x20 PUSH1 0x7 SLOAD PUSH1 0x40 MLOAD SWAP1 DUP2 MSTORE RETURN JUMPDEST CALLVALUE PUSH2 0x192 JUMPI PUSH1 0x40 CALLDATASIZE PUSH1 0x3 NOT ADD SLT PUSH2 0x192 JUMPI PUSH2 0x22F PUSH1 0x4 CALLDATALOAD PUSH2 0x20F PUSH2 0x14AB JUMP JUMPDEST SWAP1 DUP1 PUSH1 0x0 MSTORE PUSH1 0x0 PUSH1 0x20 MSTORE PUSH2 0x22A PUSH1 0x1 PUSH1 0x40 PUSH1 0x0 KECCAK256 ADD SLOAD PUSH2 0x17A4 JUMP JUMPDEST PUSH2 0x1848 JUMP JUMPDEST STOP JUMPDEST CALLVALUE PUSH2 0x192 JUMPI PUSH1 0x20 CALLDATASIZE PUSH1 0x3 NOT ADD SLT PUSH2 0x192 JUMPI PUSH1 0x1 PUSH1 0x1 PUSH1 0xA0 SHL SUB PUSH2 0x252 PUSH2 0x1495 JUMP JUMPDEST AND PUSH1 0x0 MSTORE PUSH1 0x2 PUSH1 0x20 MSTORE PUSH1 0x20 PUSH1 0x40 PUSH1 0x0 KECCAK256 DUP1 SLOAD ISZERO ISZERO SWAP1 DUP2 PUSH2 0x28C JUMPI JUMPDEST DUP2 PUSH2 0x27E JUMPI JUMPDEST POP PUSH1 0x40 MLOAD SWAP1 ISZERO ISZERO DUP2 MSTORE RETURN JUMPDEST PUSH1 0x3 SWAP2 POP ADD SLOAD TIMESTAMP LT DUP3 PUSH2 0x273 JUMP JUMPDEST PUSH1 0x4 DUP2 ADD SLOAD PUSH1 0xA0 SHR PUSH1 0xFF AND ISZERO SWAP2 POP PUSH2 0x26D JUMP JUMPDEST CALLVALUE PUSH2 0x192 JUMPI PUSH1 0x60 CALLDATASIZE PUSH1 0x3 NOT ADD SLT PUSH2 0x192 JUMPI PUSH1 0x4 CALLDATALOAD PUSH8 0xFFFFFFFFFFFFFFFF DUP2 GT PUSH2 0x192 JUMPI PUSH2 0x2D0 SWAP1 CALLDATASIZE SWAP1 PUSH1 0x4 ADD PUSH2 0x16BF JUMP JUMPDEST SWAP1 PUSH1 0x24 CALLDATALOAD PUSH8 0xFFFFFFFFFFFFFFFF DUP2 GT PUSH2 0x192 JUMPI PUSH2 0x2F1 SWAP1 CALLDATASIZE SWAP1 PUSH1 0x4 ADD PUSH2 0x16BF JUMP JUMPDEST PUSH1 0x44 SWAP4 SWAP2 SWAP4 CALLDATALOAD PUSH8 0xFFFFFFFFFFFFFFFF DUP2 GT PUSH2 0x192 JUMPI PUSH2 0x314 SWAP1 CALLDATASIZE SWAP1 PUSH1 0x4 ADD PUSH2 0x16BF JUMP JUMPDEST SWAP5 SWAP1 SWAP3 PUSH2 0x31F PUSH2 0x16F0 JUMP JUMPDEST PUSH2 0x327 PUSH2 0x19B3 JUMP JUMPDEST DUP3 DUP2 EQ DUP1 PUSH2 0x6F7 JUMPI JUMPDEST ISZERO PUSH2 0x6C0 JUMPI PUSH1 0x0 JUMPDEST DUP2 DUP2 LT PUSH2 0x341 JUMPI STOP JUMPDEST PUSH2 0x34C DUP2 DUP4 DUP9 PUSH2 0x19D1 JUMP JUMPDEST CALLDATALOAD PUSH1 0x1 PUSH1 0x1 PUSH1 0xA0 SHL SUB DUP2 AND DUP2 SUB PUSH2 0x192 JUMPI PUSH2 0x368 DUP3 DUP7 DUP7 PUSH2 0x19D1 JUMP JUMPDEST CALLDATALOAD SWAP1 PUSH2 0x375 DUP4 DUP11 DUP10 PUSH2 0x19D1 JUMP JUMPDEST CALLDATALOAD SWAP1 PUSH1 0x4 DUP3 LT ISZERO PUSH2 0x192 JUMPI PUSH1 0x1 PUSH1 0x1 PUSH1 0xA0 SHL SUB DUP2 AND ISZERO DUP1 ISZERO PUSH2 0x6B8 JUMPI JUMPDEST DUP1 ISZERO PUSH2 0x6B0 JUMPI JUMPDEST PUSH2 0x6A4 JUMPI PUSH1 0x0 DUP4 DUP2 MSTORE PUSH1 0x3 PUSH1 0x20 MSTORE PUSH1 0x40 SWAP1 KECCAK256 SLOAD PUSH1 0x1 PUSH1 0x1 PUSH1 0xA0 SHL SUB AND PUSH2 0x6A4 JUMPI PUSH1 0x1 PUSH1 0x1 PUSH1 0xA0 SHL SUB DUP2 AND PUSH1 0x0 SWAP1 DUP2 MSTORE PUSH1 0x2 PUSH1 0x20 MSTORE PUSH1 0x40 SWAP1 KECCAK256 DUP1 SLOAD SWAP1 DUP2 ISZERO ISZERO SWAP1 DUP2 PUSH2 0x691 JUMPI JUMPDEST POP PUSH2 0x66E JUMPI JUMPDEST POP PUSH2 0x3EE DUP3 PUSH2 0x16A6 JUMP JUMPDEST SLOAD DUP1 ISZERO PUSH2 0x665 JUMPI JUMPDEST PUSH2 0x400 SWAP1 TIMESTAMP PUSH2 0x18F9 JUMP JUMPDEST SWAP1 PUSH1 0x40 MLOAD PUSH2 0x40D DUP2 PUSH2 0x152A JUMP JUMPDEST DUP5 DUP2 MSTORE PUSH1 0x20 DUP2 ADD SWAP1 PUSH2 0x41F DUP6 DUP4 PUSH2 0x1906 JUMP JUMPDEST TIMESTAMP PUSH1 0x40 DUP3 ADD MSTORE DUP4 PUSH1 0x60 DUP3 ADD MSTORE CALLER PUSH1 0x80 DUP3 ADD MSTORE PUSH1 0x0 PUSH1 0xA0 DUP3 ADD MSTORE PUSH1 0x40 MLOAD PUSH2 0x444 DUP2 PUSH2 0x1546 JUMP JUMPDEST PUSH1 0x0 DUP2 MSTORE PUSH1 0xC0 DUP3 ADD MSTORE PUSH1 0x1 DUP1 PUSH1 0xA0 SHL SUB DUP4 AND PUSH1 0x0 MSTORE PUSH1 0x2 PUSH1 0x20 MSTORE PUSH1 0x40 PUSH1 0x0 KECCAK256 SWAP2 DUP2 MLOAD DUP4 SSTORE MLOAD SWAP1 PUSH1 0x4 DUP3 LT ISZERO PUSH2 0x64F JUMPI PUSH2 0x482 PUSH1 0xC0 SWAP3 PUSH1 0x1 DUP6 ADD PUSH2 0x1912 JUMP JUMPDEST PUSH1 0x40 DUP2 ADD MLOAD PUSH1 0x2 DUP5 ADD SSTORE PUSH1 0x60 DUP2 ADD MLOAD PUSH1 0x3 DUP5 ADD SSTORE PUSH1 0x80 DUP2 ADD MLOAD PUSH1 0x4 DUP5 ADD DUP1 SLOAD PUSH1 0xA0 DUP1 DUP6 ADD MLOAD PUSH1 0xFF PUSH1 0xA0 SHL SWAP1 ISZERO ISZERO SWAP1 SWAP2 SHL AND PUSH1 0x1 PUSH1 0x1 PUSH1 0xA0 SHL SUB SWAP1 SWAP4 AND PUSH1 0x1 PUSH1 0x1 PUSH1 0xA8 SHL SUB NOT SWAP1 SWAP2 AND OR SWAP2 SWAP1 SWAP2 OR SWAP1 SSTORE ADD MLOAD DUP1 MLOAD SWAP1 PUSH8 0xFFFFFFFFFFFFFFFF DUP3 GT PUSH2 0x639 JUMPI PUSH2 0x4FF DUP3 PUSH2 0x4F6 PUSH1 0x5 DUP7 ADD SLOAD PUSH2 0x14F0 JUMP JUMPDEST PUSH1 0x5 DUP7 ADD PUSH2 0x192A JUMP JUMPDEST PUSH1 0x20 SWAP1 PUSH1 0x1F DUP4 GT PUSH1 0x1 EQ PUSH2 0x5B1 JUMPI DUP3 PUSH1 0x0 DUP1 MLOAD PUSH1 0x20 PUSH2 0x1AAB DUP4 CODECOPY DUP2 MLOAD SWAP2 MSTORE SWAP6 SWAP4 PUSH2 0x5A1 SWAP11 SWAP10 SWAP9 SWAP8 SWAP6 SWAP4 PUSH1 0x5 SWAP4 PUSH1 0x0 SWAP3 PUSH2 0x5A6 JUMPI JUMPDEST POP POP DUP2 PUSH1 0x1 SHL SWAP2 PUSH1 0x0 NOT SWAP1 PUSH1 0x3 SHL SHR NOT AND OR SWAP2 ADD SSTORE JUMPDEST PUSH1 0x0 DUP6 DUP2 MSTORE PUSH1 0x3 PUSH1 0x20 MSTORE PUSH1 0x40 SWAP1 KECCAK256 DUP1 SLOAD PUSH1 0x1 PUSH1 0x1 PUSH1 0xA0 SHL SUB NOT AND PUSH1 0x1 PUSH1 0x1 PUSH1 0xA0 SHL SUB DUP4 AND OR SWAP1 SSTORE PUSH1 0x6 DUP1 SLOAD PUSH2 0x57D SWAP1 PUSH2 0x197E JUMP JUMPDEST SWAP1 SSTORE PUSH2 0x599 PUSH1 0x40 MLOAD SWAP3 DUP4 SWAP3 PUSH1 0x1 DUP1 PUSH1 0xA0 SHL SUB AND SWAP6 CALLER SWAP1 DUP5 PUSH2 0x198D JUMP JUMPDEST SUB SWAP1 LOG3 PUSH2 0x197E JUMP JUMPDEST PUSH2 0x338 JUMP JUMPDEST ADD MLOAD SWAP1 POP CODESIZE DUP1 PUSH2 0x533 JUMP JUMPDEST SWAP1 PUSH1 0x5 DUP5 ADD PUSH1 0x0 MSTORE PUSH1 0x20 PUSH1 0x0 KECCAK256 SWAP2 PUSH1 0x0 JUMPDEST PUSH1 0x1F NOT DUP6 AND DUP2 LT PUSH2 0x621 JUMPI POP DUP4 PUSH2 0x5A1 SWAP11 SWAP10 SWAP9 SWAP8 SWAP6 SWAP4 PUSH1 0x5 SWAP4 PUSH1 0x1 SWAP4 PUSH1 0x0 DUP1 MLOAD PUSH1 0x20 PUSH2 0x1AAB DUP4 CODECOPY DUP2 MLOAD SWAP2 MSTORE SWAP10 SWAP8 PUSH1 0x1F NOT DUP2 AND LT PUSH2 0x608 JUMPI JUMPDEST POP POP POP DUP2 SHL ADD SWAP2 ADD SSTORE PUSH2 0x549 JUMP JUMPDEST ADD MLOAD PUSH1 0x0 NOT PUSH1 0xF8 DUP5 PUSH1 0x3 SHL AND SHR NOT AND SWAP1 SSTORE CODESIZE DUP1 DUP1 PUSH2 0x5FA JUMP JUMPDEST SWAP2 SWAP3 PUSH1 0x20 PUSH1 0x1 DUP2 SWAP3 DUP7 DUP6 ADD MLOAD DUP2 SSTORE ADD SWAP5 ADD SWAP3 ADD PUSH2 0x5C2 JUMP JUMPDEST PUSH4 0x4E487B71 PUSH1 0xE0 SHL PUSH1 0x0 MSTORE PUSH1 0x41 PUSH1 0x4 MSTORE PUSH1 0x24 PUSH1 0x0 REVERT JUMPDEST PUSH4 0x4E487B71 PUSH1 0xE0 SHL PUSH1 0x0 MSTORE PUSH1 0x21 PUSH1 0x4 MSTORE PUSH1 0x24 PUSH1 0x0 REVERT JUMPDEST POP PUSH1 0x4 SLOAD PUSH2 0x3F6 JUMP JUMPDEST PUSH1 0x0 MSTORE PUSH1 0x3 PUSH1 0x20 MSTORE PUSH1 0x40 PUSH1 0x0 KECCAK256 PUSH1 0x1 PUSH1 0x1 PUSH1 0x60 SHL SUB PUSH1 0xA0 SHL DUP2 SLOAD AND SWAP1 SSTORE DUP11 PUSH2 0x3E4 JUMP JUMPDEST PUSH1 0xFF SWAP2 POP PUSH1 0x4 ADD SLOAD PUSH1 0xA0 SHR AND ISZERO DUP13 PUSH2 0x3DE JUMP JUMPDEST POP POP POP PUSH2 0x5A1 SWAP1 PUSH2 0x197E JUMP JUMPDEST POP DUP2 ISZERO PUSH2 0x399 JUMP JUMPDEST POP DUP3 ISZERO PUSH2 0x392 JUMP JUMPDEST PUSH1 0x40 MLOAD PUSH3 0x461BCD PUSH1 0xE5 SHL DUP2 MSTORE PUSH1 0x20 PUSH1 0x4 DUP3 ADD MSTORE PUSH1 0xF PUSH1 0x24 DUP3 ADD MSTORE PUSH15 0x98CADCCEE8D040DAD2E6DAC2E8C6D PUSH1 0x8B SHL PUSH1 0x44 DUP3 ADD MSTORE PUSH1 0x64 SWAP1 REVERT JUMPDEST POP DUP6 DUP4 EQ PUSH2 0x330 JUMP JUMPDEST CALLVALUE PUSH2 0x192 JUMPI PUSH1 0x60 CALLDATASIZE PUSH1 0x3 NOT ADD SLT PUSH2 0x192 JUMPI PUSH2 0x719 PUSH2 0x1495 JUMP JUMPDEST PUSH1 0x24 SWAP1 DUP2 CALLDATALOAD SWAP1 PUSH1 0x44 CALLDATALOAD SWAP1 PUSH1 0x4 DUP3 LT ISZERO PUSH2 0x192 JUMPI PUSH2 0x734 PUSH2 0x16F0 JUMP JUMPDEST PUSH2 0x73C PUSH2 0x19B3 JUMP JUMPDEST PUSH1 0x1 PUSH1 0x1 PUSH1 0xA0 SHL SUB SWAP1 DUP2 AND SWAP2 DUP3 ISZERO PUSH2 0xA6F JUMPI DUP4 ISZERO PUSH2 0xA38 JUMPI PUSH2 0x75F DUP2 ISZERO ISZERO PUSH2 0x18BD JUMP JUMPDEST DUP4 PUSH1 0x0 MSTORE PUSH1 0x3 SWAP2 PUSH1 0x20 SWAP3 DUP1 DUP5 MSTORE DUP2 PUSH1 0x40 PUSH1 0x0 KECCAK256 SLOAD AND PUSH2 0xA00 JUMPI DUP5 PUSH1 0x0 MSTORE PUSH1 0x2 DUP5 MSTORE PUSH1 0x40 PUSH1 0x0 KECCAK256 DUP1 SLOAD SWAP1 DUP2 ISZERO ISZERO SWAP1 DUP2 PUSH2 0x9ED JUMPI JUMPDEST POP PUSH2 0x9CC JUMPI JUMPDEST POP PUSH2 0x7A2 DUP4 PUSH2 0x16A6 JUMP JUMPDEST SLOAD DUP1 ISZERO PUSH2 0x9C3 JUMPI JUMPDEST PUSH2 0x7B4 SWAP1 TIMESTAMP PUSH2 0x18F9 JUMP JUMPDEST SWAP4 PUSH1 0x40 MLOAD SWAP3 PUSH2 0x7C2 DUP5 PUSH2 0x152A JUMP JUMPDEST DUP8 DUP5 MSTORE DUP2 DUP5 ADD SWAP1 PUSH2 0x7D3 DUP7 DUP4 PUSH2 0x1906 JUMP JUMPDEST PUSH1 0x40 DUP6 ADD SWAP5 TIMESTAMP DUP7 MSTORE PUSH1 0x60 DUP2 ADD SWAP1 DUP9 DUP3 MSTORE PUSH1 0x80 DUP2 ADD SWAP7 CALLER DUP9 MSTORE PUSH1 0xA0 DUP3 ADD SWAP8 PUSH1 0x0 DUP10 MSTORE PUSH1 0x40 MLOAD SWAP6 PUSH2 0x801 DUP8 PUSH2 0x1546 JUMP JUMPDEST PUSH1 0x0 DUP8 MSTORE PUSH1 0xC0 DUP5 ADD SWAP7 DUP8 MSTORE DUP13 PUSH1 0x0 MSTORE PUSH1 0x2 DUP9 MSTORE PUSH1 0x40 PUSH1 0x0 KECCAK256 SWAP4 MLOAD DUP5 SSTORE MLOAD SWAP5 PUSH1 0x4 DUP7 LT ISZERO PUSH2 0x9AE JUMPI PUSH1 0x5 SWAP5 PUSH2 0x882 SWAP4 PUSH2 0x83D PUSH1 0x1 SWAP9 DUP10 DUP9 ADD PUSH2 0x1912 JUMP JUMPDEST MLOAD PUSH1 0x2 DUP7 ADD SSTORE MLOAD DUP10 DUP6 ADD SSTORE PUSH1 0x4 DUP5 ADD SWAP2 MLOAD AND SWAP9 PUSH1 0x1 PUSH1 0x1 PUSH1 0x60 SHL SUB PUSH1 0xA0 SHL SWAP10 DUP11 DUP4 SLOAD AND OR DUP3 SSTORE MLOAD ISZERO ISZERO DUP2 SLOAD SWAP1 PUSH1 0xFF PUSH1 0xA0 SHL SWAP1 ISZERO ISZERO PUSH1 0xA0 SHL AND SWAP1 PUSH1 0xFF PUSH1 0xA0 SHL NOT AND OR SWAP1 SSTORE JUMP JUMPDEST ADD SWAP2 MLOAD DUP1 MLOAD SWAP11 PUSH8 0xFFFFFFFFFFFFFFFF DUP13 GT PUSH2 0x99A JUMPI POP PUSH2 0x8AC DUP12 PUSH2 0x8A6 DUP6 SLOAD PUSH2 0x14F0 JUMP JUMPDEST DUP6 PUSH2 0x192A JUMP JUMPDEST DUP4 SWAP1 PUSH1 0x1F DUP13 GT PUSH1 0x1 EQ PUSH2 0x92A JUMPI SWAP11 DUP1 SWAP3 DUP2 SWAP3 PUSH1 0x0 DUP1 MLOAD PUSH1 0x20 PUSH2 0x1AAB DUP4 CODECOPY DUP2 MLOAD SWAP2 MSTORE SWAP12 SWAP13 SWAP14 PUSH1 0x0 SWAP5 PUSH2 0x91F JUMPI JUMPDEST POP POP SHL SWAP2 PUSH1 0x0 NOT SWAP1 DUP7 SHL SHR NOT AND OR SWAP1 SSTORE JUMPDEST DUP8 PUSH1 0x0 MSTORE MSTORE DUP5 PUSH1 0x40 PUSH1 0x0 KECCAK256 SWAP2 DUP3 SLOAD AND OR SWAP1 SSTORE PUSH2 0x906 PUSH1 0x6 SLOAD PUSH2 0x197E JUMP JUMPDEST PUSH1 0x6 SSTORE PUSH2 0x91A PUSH1 0x40 MLOAD SWAP3 DUP4 SWAP3 CALLER SWAP1 DUP5 PUSH2 0x198D JUMP JUMPDEST SUB SWAP1 LOG3 STOP JUMPDEST ADD MLOAD SWAP3 POP DUP14 DUP1 PUSH2 0x8D8 JUMP JUMPDEST SWAP11 SWAP1 PUSH1 0x1F NOT DUP3 AND SWAP1 DUP5 PUSH1 0x0 MSTORE DUP6 PUSH1 0x0 KECCAK256 SWAP2 PUSH1 0x0 JUMPDEST DUP2 DUP2 LT PUSH2 0x985 JUMPI POP SWAP13 DUP4 PUSH1 0x0 DUP1 MLOAD PUSH1 0x20 PUSH2 0x1AAB DUP4 CODECOPY DUP2 MLOAD SWAP2 MSTORE SWAP13 SWAP14 SWAP15 LT PUSH2 0x96D JUMPI JUMPDEST POP POP POP DUP2 SHL ADD SWAP1 SSTORE PUSH2 0x8E9 JUMP JUMPDEST ADD MLOAD PUSH1 0x0 NOT DUP4 DUP9 SHL PUSH1 0xF8 AND SHR NOT AND SWAP1 SSTORE DUP12 DUP1 DUP1 PUSH2 0x960 JUMP JUMPDEST DUP15 DUP4 ADD MLOAD DUP5 SSTORE SWAP3 DUP6 ADD SWAP3 SWAP2 DUP8 ADD SWAP2 DUP8 ADD PUSH2 0x93E JUMP JUMPDEST PUSH4 0x4E487B71 PUSH1 0xE0 SHL PUSH1 0x0 SWAP1 DUP2 MSTORE PUSH1 0x41 PUSH1 0x4 MSTORE REVERT JUMPDEST DUP15 PUSH4 0x4E487B71 PUSH1 0xE0 SHL PUSH1 0x0 MSTORE PUSH1 0x21 PUSH1 0x4 MSTORE PUSH1 0x0 REVERT JUMPDEST POP PUSH1 0x4 SLOAD PUSH2 0x7AA JUMP JUMPDEST PUSH1 0x0 MSTORE DUP1 DUP5 MSTORE PUSH1 0x40 PUSH1 0x0 KECCAK256 PUSH1 0x1 PUSH1 0x1 PUSH1 0x60 SHL SUB PUSH1 0xA0 SHL DUP2 SLOAD AND SWAP1 SSTORE DUP8 PUSH2 0x798 JUMP JUMPDEST PUSH1 0xFF SWAP2 POP PUSH1 0x4 ADD SLOAD PUSH1 0xA0 SHR AND ISZERO DUP10 PUSH2 0x792 JUMP JUMPDEST PUSH1 0x40 MLOAD PUSH3 0x461BCD PUSH1 0xE5 SHL DUP2 MSTORE PUSH1 0x4 DUP2 ADD DUP6 SWAP1 MSTORE PUSH1 0x11 DUP2 DUP10 ADD MSTORE PUSH17 0x12185CDA08185B1C9958591E481D5CD959 PUSH1 0x7A SHL PUSH1 0x44 DUP3 ADD MSTORE PUSH1 0x64 SWAP1 REVERT JUMPDEST PUSH1 0x40 MLOAD PUSH3 0x461BCD PUSH1 0xE5 SHL DUP2 MSTORE PUSH1 0x20 PUSH1 0x4 DUP3 ADD MSTORE PUSH1 0x10 DUP2 DUP8 ADD MSTORE PUSH16 0x92DCECC2D8D2C84096B28640D0C2E6D PUSH1 0x83 SHL PUSH1 0x44 DUP3 ADD MSTORE PUSH1 0x64 SWAP1 REVERT JUMPDEST PUSH1 0x40 MLOAD PUSH3 0x461BCD PUSH1 0xE5 SHL DUP2 MSTORE PUSH1 0x20 PUSH1 0x4 DUP3 ADD MSTORE PUSH1 0xF DUP2 DUP8 ADD MSTORE PUSH15 0x125B9D985B1A59081858D8DBDD5B9D PUSH1 0x8A SHL PUSH1 0x44 DUP3 ADD MSTORE PUSH1 0x64 SWAP1 REVERT JUMPDEST CALLVALUE PUSH2 0x192 JUMPI PUSH1 0x0 CALLDATASIZE PUSH1 0x3 NOT ADD SLT PUSH2 0x192 JUMPI PUSH1 0x6 SLOAD PUSH1 0x7 SLOAD SWAP1 DUP2 DUP2 SUB DUP2 DUP2 GT PUSH2 0xADC JUMPI PUSH1 0x60 SWAP3 PUSH1 0x40 MLOAD SWAP3 DUP4 MSTORE PUSH1 0x20 DUP4 ADD MSTORE PUSH1 0x40 DUP3 ADD MSTORE RETURN JUMPDEST PUSH4 0x4E487B71 PUSH1 0xE0 SHL PUSH1 0x0 MSTORE PUSH1 0x11 PUSH1 0x4 MSTORE PUSH1 0x24 PUSH1 0x0 REVERT JUMPDEST CALLVALUE PUSH2 0x192 JUMPI PUSH2 0xB00 CALLDATASIZE PUSH2 0x14C1 JUMP JUMPDEST PUSH1 0x1 PUSH1 0x1 PUSH1 0xA0 SHL SUB SWAP1 SWAP2 AND PUSH1 0x0 SWAP1 DUP2 MSTORE PUSH1 0x2 PUSH1 0x20 MSTORE PUSH1 0x40 SWAP1 KECCAK256 DUP1 SLOAD ISZERO ISZERO SWAP1 DUP2 PUSH2 0xB72 JUMPI JUMPDEST DUP2 PUSH2 0xB64 JUMPI JUMPDEST DUP2 PUSH2 0xB3D JUMPI JUMPDEST PUSH1 0x20 DUP3 PUSH1 0x40 MLOAD SWAP1 ISZERO ISZERO DUP2 MSTORE RETURN JUMPDEST PUSH1 0xFF SWAP2 POP PUSH1 0x1 ADD SLOAD AND SWAP1 PUSH1 0x4 DUP2 LT ISZERO PUSH2 0x64F JUMPI PUSH1 0x4 DUP3 LT ISZERO PUSH2 0x64F JUMPI PUSH1 0x20 SWAP2 LT ISZERO DUP3 PUSH2 0xB30 JUMP JUMPDEST PUSH1 0x3 DUP2 ADD SLOAD TIMESTAMP LT SWAP2 POP PUSH2 0xB2A JUMP JUMPDEST PUSH1 0x4 DUP2 ADD SLOAD PUSH1 0xA0 SHR PUSH1 0xFF AND ISZERO SWAP2 POP PUSH2 0xB24 JUMP JUMPDEST CALLVALUE PUSH2 0x192 JUMPI PUSH1 0x20 CALLDATASIZE PUSH1 0x3 NOT ADD SLT PUSH2 0x192 JUMPI PUSH1 0x4 CALLDATALOAD PUSH2 0xBA1 PUSH2 0x176A JUMP JUMPDEST DUP1 ISZERO PUSH2 0xBAD DUP2 ISZERO PUSH2 0x1A6D JUMP JUMPDEST PUSH3 0x15180 DUP1 DUP4 MUL SWAP3 DUP4 DIV EQ OR ISZERO PUSH2 0xADC JUMPI PUSH1 0x4 SSTORE STOP JUMPDEST CALLVALUE PUSH2 0x192 JUMPI PUSH1 0x0 CALLDATASIZE PUSH1 0x3 NOT ADD SLT PUSH2 0x192 JUMPI PUSH1 0x20 PUSH1 0x40 MLOAD PUSH1 0x0 DUP2 MSTORE RETURN JUMPDEST CALLVALUE PUSH2 0x192 JUMPI PUSH1 0x20 CALLDATASIZE PUSH1 0x3 NOT ADD SLT PUSH2 0x192 JUMPI PUSH1 0x4 CALLDATALOAD PUSH1 0x0 MSTORE PUSH1 0x3 PUSH1 0x20 MSTORE PUSH1 0x20 PUSH1 0x1 DUP1 PUSH1 0xA0 SHL SUB PUSH1 0x40 PUSH1 0x0 KECCAK256 SLOAD AND PUSH1 0x40 MLOAD SWAP1 DUP2 MSTORE RETURN JUMPDEST CALLVALUE PUSH2 0x192 JUMPI PUSH1 0x20 CALLDATASIZE PUSH1 0x3 NOT ADD SLT PUSH2 0x192 JUMPI PUSH1 0x4 CALLDATALOAD PUSH1 0x4 DUP2 LT ISZERO PUSH2 0x192 JUMPI PUSH2 0xC3B PUSH1 0x20 SWAP2 PUSH2 0x16A6 JUMP JUMPDEST SLOAD PUSH1 0x40 MLOAD SWAP1 DUP2 MSTORE RETURN JUMPDEST CALLVALUE PUSH2 0x192 JUMPI PUSH1 0x20 CALLDATASIZE PUSH1 0x3 NOT ADD SLT PUSH2 0x192 JUMPI PUSH1 0x1 PUSH1 0x1 PUSH1 0xA0 SHL SUB DUP1 PUSH2 0xC66 PUSH2 0x1495 JUMP JUMPDEST AND PUSH1 0x0 MSTORE PUSH1 0x2 PUSH1 0x20 MSTORE PUSH1 0x40 PUSH1 0x0 KECCAK256 SWAP1 PUSH2 0xCB6 DUP3 SLOAD PUSH1 0xFF PUSH1 0x1 DUP6 ADD SLOAD AND SWAP4 PUSH1 0x2 DUP2 ADD SLOAD SWAP2 PUSH1 0x3 DUP3 ADD SLOAD PUSH2 0xC9F PUSH1 0x5 PUSH1 0x4 DUP6 ADD SLOAD SWAP5 ADD PUSH2 0x1562 JUMP JUMPDEST SWAP4 PUSH1 0x40 MLOAD SWAP8 DUP9 SWAP8 PUSH1 0xFF DUP7 PUSH1 0xA0 SHR AND SWAP6 AND SWAP4 DUP9 PUSH2 0x1624 JUMP JUMPDEST SUB SWAP1 RETURN JUMPDEST CALLVALUE PUSH2 0x192 JUMPI PUSH1 0x40 CALLDATASIZE PUSH1 0x3 NOT ADD SLT PUSH2 0x192 JUMPI PUSH2 0xCD3 PUSH2 0x14AB JUMP JUMPDEST PUSH1 0x4 CALLDATALOAD PUSH1 0x0 MSTORE PUSH1 0x0 PUSH1 0x20 MSTORE PUSH1 0x40 PUSH1 0x0 KECCAK256 SWAP1 PUSH1 0x1 DUP1 PUSH1 0xA0 SHL SUB AND PUSH1 0x0 MSTORE PUSH1 0x20 MSTORE PUSH1 0x20 PUSH1 0xFF PUSH1 0x40 PUSH1 0x0 KECCAK256 SLOAD AND PUSH1 0x40 MLOAD SWAP1 ISZERO ISZERO DUP2 MSTORE RETURN JUMPDEST CALLVALUE PUSH2 0x192 JUMPI PUSH1 0x40 CALLDATASIZE PUSH1 0x3 NOT ADD SLT PUSH2 0x192 JUMPI PUSH1 0x1 PUSH1 0x1 PUSH1 0xA0 SHL SUB PUSH2 0xD28 PUSH2 0x1495 JUMP JUMPDEST AND PUSH1 0x0 MSTORE PUSH1 0x2 PUSH1 0x20 MSTORE PUSH1 0x20 PUSH1 0x40 PUSH1 0x0 KECCAK256 PUSH1 0x24 CALLDATALOAD DUP2 SLOAD EQ SWAP1 DUP2 PUSH2 0x28C JUMPI DUP2 PUSH2 0x27E JUMPI POP PUSH1 0x40 MLOAD SWAP1 ISZERO ISZERO DUP2 MSTORE RETURN JUMPDEST CALLVALUE PUSH2 0x192 JUMPI PUSH1 0x0 CALLDATASIZE PUSH1 0x3 NOT ADD SLT PUSH2 0x192 JUMPI PUSH2 0xD6D PUSH2 0x176A JUMP JUMPDEST PUSH2 0xD75 PUSH2 0x19B3 JUMP JUMPDEST PUSH1 0x1 PUSH1 0xFF NOT DUP2 SLOAD AND OR PUSH1 0x1 SSTORE PUSH32 0x62E78CEA01BEE320CD4E420270B5EA74000D11B0C9F74754EBDBFC544B05A258 PUSH1 0x20 PUSH1 0x40 MLOAD CALLER DUP2 MSTORE LOG1 STOP JUMPDEST CALLVALUE PUSH2 0x192 JUMPI PUSH1 0x0 CALLDATASIZE PUSH1 0x3 NOT ADD SLT PUSH2 0x192 JUMPI PUSH1 0x20 PUSH1 0x40 MLOAD PUSH32 0xCE3F34913921DA558F105CEFB578D87278DEBBBD073A8D552B5DE0D168DEEE30 DUP2 MSTORE RETURN JUMPDEST CALLVALUE PUSH2 0x192 JUMPI PUSH2 0xDF6 CALLDATASIZE PUSH2 0x14C1 JUMP JUMPDEST SWAP1 PUSH2 0xDFF PUSH2 0x16F0 JUMP JUMPDEST PUSH2 0xE07 PUSH2 0x19B3 JUMP JUMPDEST PUSH1 0x1 DUP1 PUSH1 0xA0 SHL SUB AND SWAP1 DUP2 PUSH1 0x0 MSTORE PUSH1 0x2 PUSH1 0x20 MSTORE PUSH1 0x40 PUSH1 0x0 KECCAK256 PUSH2 0xE2A DUP2 SLOAD ISZERO ISZERO PUSH2 0x19F7 JUMP JUMPDEST PUSH2 0xE3E PUSH1 0xFF PUSH1 0x4 DUP4 ADD SLOAD PUSH1 0xA0 SHR AND ISZERO PUSH2 0x1A33 JUMP JUMPDEST PUSH1 0x1 DUP2 ADD PUSH1 0xFF DUP2 SLOAD AND SWAP1 PUSH1 0x4 DUP3 LT ISZERO PUSH2 0x64F JUMPI PUSH1 0x4 DUP5 LT ISZERO PUSH2 0x64F JUMPI DUP2 DUP5 GT ISZERO PUSH2 0xED6 JUMPI DUP4 PUSH1 0x40 SWAP4 PUSH2 0xE94 PUSH32 0x4CA2A571FD967853D947CC2267AC9B012D87D9344DB4C67AF74911C451BDC1F7 SWAP7 PUSH2 0xECA SWAP5 PUSH2 0x1912 JUMP JUMPDEST PUSH2 0xE9D DUP3 PUSH2 0x16A6 JUMP JUMPDEST SLOAD DUP1 ISZERO PUSH2 0xECD JUMPI JUMPDEST PUSH2 0xEB1 PUSH1 0x3 SWAP2 TIMESTAMP PUSH2 0x18F9 JUMP JUMPDEST SWAP2 ADD SSTORE PUSH2 0xEC0 DUP5 MLOAD DUP1 SWAP5 PUSH2 0x1617 JUMP JUMPDEST PUSH1 0x20 DUP4 ADD SWAP1 PUSH2 0x1617 JUMP JUMPDEST LOG2 STOP JUMPDEST POP PUSH1 0x4 SLOAD PUSH2 0xEA5 JUMP JUMPDEST PUSH1 0x40 MLOAD PUSH3 0x461BCD PUSH1 0xE5 SHL DUP2 MSTORE PUSH1 0x20 PUSH1 0x4 DUP3 ADD MSTORE PUSH1 0x10 PUSH1 0x24 DUP3 ADD MSTORE PUSH16 0x43616E206F6E6C792075706772616465 PUSH1 0x80 SHL PUSH1 0x44 DUP3 ADD MSTORE PUSH1 0x64 SWAP1 REVERT JUMPDEST CALLVALUE PUSH2 0x192 JUMPI PUSH1 0x0 CALLDATASIZE PUSH1 0x3 NOT ADD SLT PUSH2 0x192 JUMPI PUSH1 0x20 PUSH1 0xFF PUSH1 0x1 SLOAD AND PUSH1 0x40 MLOAD SWAP1 ISZERO ISZERO DUP2 MSTORE RETURN JUMPDEST CALLVALUE PUSH2 0x192 JUMPI PUSH1 0x0 CALLDATASIZE PUSH1 0x3 NOT ADD SLT PUSH2 0x192 JUMPI PUSH1 0x20 PUSH1 0x4 SLOAD PUSH1 0x40 MLOAD SWAP1 DUP2 MSTORE RETURN JUMPDEST CALLVALUE PUSH2 0x192 JUMPI PUSH1 0x0 CALLDATASIZE PUSH1 0x3 NOT ADD SLT PUSH2 0x192 JUMPI PUSH2 0xF68 PUSH2 0x176A JUMP JUMPDEST PUSH1 0x1 SLOAD PUSH1 0xFF DUP2 AND ISZERO PUSH2 0xFA7 JUMPI PUSH1 0xFF NOT AND PUSH1 0x1 SSTORE PUSH32 0x5DB9EE0A495BF2E6FF9C91A7834C1BA4FDD244A5E8AA4E537BD38AEAE4B073AA PUSH1 0x20 PUSH1 0x40 MLOAD CALLER DUP2 MSTORE LOG1 STOP JUMPDEST PUSH1 0x40 MLOAD PUSH4 0x8DFC202B PUSH1 0xE0 SHL DUP2 MSTORE PUSH1 0x4 SWAP1 REVERT JUMPDEST CALLVALUE PUSH2 0x192 JUMPI PUSH1 0x40 CALLDATASIZE PUSH1 0x3 NOT ADD SLT PUSH2 0x192 JUMPI PUSH2 0xFD2 PUSH2 0x14AB JUMP JUMPDEST CALLER PUSH1 0x1 PUSH1 0x1 PUSH1 0xA0 SHL SUB DUP3 AND SUB PUSH2 0xFEE JUMPI PUSH2 0x22F SWAP1 PUSH1 0x4 CALLDATALOAD PUSH2 0x1848 JUMP JUMPDEST PUSH1 0x40 MLOAD PUSH4 0x334BD919 PUSH1 0xE1 SHL DUP2 MSTORE PUSH1 0x4 SWAP1 REVERT JUMPDEST CALLVALUE PUSH2 0x192 JUMPI PUSH1 0x40 CALLDATASIZE PUSH1 0x3 NOT ADD SLT PUSH2 0x192 JUMPI PUSH2 0x22F PUSH1 0x4 CALLDATALOAD PUSH2 0x101F PUSH2 0x14AB JUMP JUMPDEST SWAP1 DUP1 PUSH1 0x0 MSTORE PUSH1 0x0 PUSH1 0x20 MSTORE PUSH2 0x103A PUSH1 0x1 PUSH1 0x40 PUSH1 0x0 KECCAK256 ADD SLOAD PUSH2 0x17A4 JUMP JUMPDEST PUSH2 0x17CA JUMP JUMPDEST CALLVALUE PUSH2 0x192 JUMPI PUSH1 0x40 CALLDATASIZE PUSH1 0x3 NOT ADD SLT PUSH2 0x192 JUMPI PUSH2 0x1058 PUSH2 0x1495 JUMP JUMPDEST PUSH1 0x24 DUP1 CALLDATALOAD SWAP2 PUSH8 0xFFFFFFFFFFFFFFFF DUP1 DUP5 GT PUSH2 0x192 JUMPI CALLDATASIZE PUSH1 0x23 DUP6 ADD SLT ISZERO PUSH2 0x192 JUMPI DUP4 PUSH1 0x4 ADD CALLDATALOAD SWAP1 DUP2 GT PUSH2 0x192 JUMPI CALLDATASIZE DUP4 DUP3 DUP7 ADD ADD GT PUSH2 0x192 JUMPI CALLER PUSH1 0x0 SWAP1 DUP2 MSTORE PUSH32 0xF38DA9114E17E4AE38D3015BA64927782CAFEAC3F9D5B8D2F1E379F197D8F4F3 PUSH1 0x20 SWAP1 DUP2 MSTORE PUSH1 0x40 SWAP1 SWAP2 KECCAK256 SLOAD SWAP1 SWAP3 SWAP1 PUSH32 0xCE3F34913921DA558F105CEFB578D87278DEBBBD073A8D552B5DE0D168DEEE30 SWAP1 PUSH1 0xFF AND ISZERO PUSH2 0x12BF JUMPI POP PUSH1 0x1 DUP1 PUSH1 0xA0 SHL SUB AND SWAP3 DUP4 PUSH1 0x0 MSTORE PUSH1 0x2 DUP4 MSTORE PUSH1 0x40 PUSH1 0x0 KECCAK256 PUSH2 0x1111 DUP2 SLOAD ISZERO ISZERO PUSH2 0x19F7 JUMP JUMPDEST PUSH1 0x4 DUP2 ADD DUP1 SLOAD PUSH1 0xFF DUP2 PUSH1 0xA0 SHR AND PUSH2 0x1289 JUMPI PUSH1 0xFF PUSH1 0xA0 SHL NOT AND PUSH1 0x1 PUSH1 0xA0 SHL OR SWAP1 SSTORE PUSH1 0x5 DUP2 ADD DUP1 SLOAD PUSH2 0x114C SWAP1 DUP6 SWAP1 PUSH2 0x1146 SWAP1 PUSH2 0x14F0 JUMP JUMPDEST DUP4 PUSH2 0x192A JUMP JUMPDEST PUSH1 0x0 PUSH1 0x1F DUP6 GT PUSH1 0x1 EQ PUSH2 0x11EE JUMPI SWAP4 DUP4 PUSH32 0xA31AAB39CDF4008C7D82CA632536B58AA15E23E8B6CC1737E9292C7AE132CC2F SWAP7 SWAP4 DUP3 SWAP4 DUP4 PUSH1 0x60 SWAP8 PUSH1 0x40 SWAP10 PUSH1 0x0 SWAP3 PUSH2 0x11E1 JUMPI JUMPDEST POP POP DUP5 PUSH1 0x1 SHL SWAP1 PUSH1 0x0 NOT DUP7 PUSH1 0x3 SHL SHR NOT AND OR SWAP1 SSTORE JUMPDEST PUSH2 0x11AF PUSH1 0x7 SLOAD PUSH2 0x197E JUMP JUMPDEST PUSH1 0x7 SSTORE SLOAD SWAP9 DUP7 MLOAD SWAP7 DUP8 SWAP6 CALLER DUP8 MSTORE DUP7 ADD MSTORE DUP3 PUSH1 0x40 DUP7 ADD MSTORE ADD DUP5 DUP5 ADD CALLDATACOPY PUSH1 0x0 DUP3 DUP3 ADD DUP5 ADD MSTORE PUSH1 0x1F ADD PUSH1 0x1F NOT AND DUP2 ADD SUB ADD SWAP1 LOG3 STOP JUMPDEST DUP14 ADD ADD CALLDATALOAD SWAP1 POP DUP4 DUP14 PUSH2 0x118F JUMP JUMPDEST DUP8 PUSH1 0x1F NOT DUP7 AND SWAP2 DUP4 PUSH1 0x0 MSTORE DUP8 PUSH1 0x0 KECCAK256 SWAP3 PUSH1 0x0 JUMPDEST DUP2 DUP2 LT PUSH2 0x126E JUMPI POP SWAP4 DUP8 SWAP5 SWAP4 DUP8 SWAP4 PUSH1 0x60 SWAP9 PUSH32 0xA31AAB39CDF4008C7D82CA632536B58AA15E23E8B6CC1737E9292C7AE132CC2F SWAP12 SWAP9 SWAP5 DUP9 PUSH1 0x40 SWAP13 SWAP9 LT PUSH2 0x1252 JUMPI JUMPDEST POP POP POP POP PUSH1 0x1 DUP5 DUP2 SHL ADD SWAP1 SSTORE PUSH2 0x11A4 JUMP JUMPDEST PUSH1 0x0 NOT PUSH1 0xF8 DUP10 PUSH1 0x3 SHL AND SHR NOT SWAP3 ADD ADD CALLDATALOAD AND SWAP1 SSTORE DUP12 DUP12 DUP5 DUP3 PUSH2 0x1241 JUMP JUMPDEST SWAP3 DUP3 ADD DUP8 ADD CALLDATALOAD DUP5 SSTORE PUSH1 0x1 SWAP1 SWAP4 ADD SWAP3 DUP11 SWAP3 SWAP2 DUP10 ADD SWAP2 DUP10 ADD PUSH2 0x1201 JUMP JUMPDEST PUSH1 0x40 MLOAD PUSH3 0x461BCD PUSH1 0xE5 SHL DUP2 MSTORE PUSH1 0x4 DUP2 ADD DUP8 SWAP1 MSTORE PUSH1 0xF DUP2 DUP7 ADD MSTORE PUSH15 0x105B1C9958591E481C995D9BDAD959 PUSH1 0x8A SHL PUSH1 0x44 DUP3 ADD MSTORE PUSH1 0x64 SWAP1 REVERT JUMPDEST DUP5 PUSH1 0x44 SWAP2 PUSH1 0x40 MLOAD SWAP2 PUSH4 0xE2517D3F PUSH1 0xE0 SHL DUP4 MSTORE CALLER PUSH1 0x4 DUP5 ADD MSTORE DUP3 ADD MSTORE REVERT JUMPDEST CALLVALUE PUSH2 0x192 JUMPI PUSH1 0x20 CALLDATASIZE PUSH1 0x3 NOT ADD SLT PUSH2 0x192 JUMPI PUSH1 0x4 CALLDATALOAD PUSH1 0x0 MSTORE PUSH1 0x0 PUSH1 0x20 MSTORE PUSH1 0x20 PUSH1 0x1 PUSH1 0x40 PUSH1 0x0 KECCAK256 ADD SLOAD PUSH1 0x40 MLOAD SWAP1 DUP2 MSTORE RETURN JUMPDEST CALLVALUE PUSH2 0x192 JUMPI PUSH1 0x40 CALLDATASIZE PUSH1 0x3 NOT ADD SLT PUSH2 0x192 JUMPI PUSH1 0x4 CALLDATALOAD PUSH1 0x4 DUP2 LT ISZERO PUSH2 0x192 JUMPI PUSH1 0x40 PUSH32 0x71ED9E2F42B8EC4E4B48D7636D001CE08742A1FEF9BBE0735DB30B10776886B0 SWAP2 PUSH1 0x24 CALLDATALOAD PUSH2 0x1357 PUSH2 0x176A JUMP JUMPDEST PUSH2 0x1362 DUP3 ISZERO ISZERO PUSH2 0x18BD JUMP JUMPDEST PUSH2 0x136D DUP2 ISZERO ISZERO PUSH2 0x1A6D JUMP JUMPDEST DUP1 PUSH2 0x1377 DUP4 PUSH2 0x16A6 JUMP JUMPDEST SSTORE PUSH2 0x1384 DUP4 MLOAD DUP1 SWAP4 PUSH2 0x1617 JUMP JUMPDEST PUSH1 0x20 DUP3 ADD MSTORE LOG1 STOP JUMPDEST CALLVALUE PUSH2 0x192 JUMPI PUSH1 0x40 CALLDATASIZE PUSH1 0x3 NOT ADD SLT PUSH2 0x192 JUMPI PUSH2 0x13A5 PUSH2 0x1495 JUMP JUMPDEST PUSH2 0x13AD PUSH2 0x16F0 JUMP JUMPDEST PUSH2 0x13B5 PUSH2 0x19B3 JUMP JUMPDEST PUSH1 0x1 DUP1 PUSH1 0xA0 SHL SUB AND DUP1 PUSH1 0x0 MSTORE PUSH1 0x2 PUSH1 0x20 MSTORE PUSH1 0x40 PUSH1 0x0 KECCAK256 SWAP1 PUSH32 0xFC4B70554EBCAE80C629797F3CD073FC2E9CB9002C01DD05CB4C135A65FC9BB PUSH1 0x20 PUSH1 0x3 DUP5 SLOAD SWAP5 PUSH2 0x13FF DUP7 ISZERO ISZERO PUSH2 0x19F7 JUMP JUMPDEST PUSH2 0x1413 PUSH1 0xFF PUSH1 0x4 DUP4 ADD SLOAD PUSH1 0xA0 SHR AND ISZERO PUSH2 0x1A33 JUMP JUMPDEST ADD DUP1 SLOAD TIMESTAMP DUP2 GT ISZERO PUSH2 0x1438 JUMPI PUSH2 0x142C SWAP1 JUMPDEST PUSH1 0x24 CALLDATALOAD SWAP1 PUSH2 0x18F9 JUMP JUMPDEST DUP1 SWAP2 SSTORE PUSH1 0x40 MLOAD SWAP1 DUP2 MSTORE LOG3 STOP JUMPDEST POP PUSH2 0x142C TIMESTAMP PUSH2 0x1423 JUMP JUMPDEST CALLVALUE PUSH2 0x192 JUMPI PUSH1 0x20 CALLDATASIZE PUSH1 0x3 NOT ADD SLT PUSH2 0x192 JUMPI PUSH1 0x4 CALLDATALOAD SWAP1 PUSH4 0xFFFFFFFF PUSH1 0xE0 SHL DUP3 AND DUP1 SWAP3 SUB PUSH2 0x192 JUMPI PUSH1 0x20 SWAP2 PUSH4 0x7965DB0B PUSH1 0xE0 SHL DUP2 EQ SWAP1 DUP2 ISZERO PUSH2 0x1484 JUMPI JUMPDEST POP ISZERO ISZERO DUP2 MSTORE RETURN JUMPDEST PUSH4 0x1FFC9A7 PUSH1 0xE0 SHL EQ SWAP1 POP DUP4 PUSH2 0x147D JUMP JUMPDEST PUSH1 0x4 CALLDATALOAD SWAP1 PUSH1 0x1 PUSH1 0x1 PUSH1 0xA0 SHL SUB DUP3 AND DUP3 SUB PUSH2 0x192 JUMPI JUMP JUMPDEST PUSH1 0x24 CALLDATALOAD SWAP1 PUSH1 0x1 PUSH1 0x1 PUSH1 0xA0 SHL SUB DUP3 AND DUP3 SUB PUSH2 0x192 JUMPI JUMP JUMPDEST PUSH1 0x40 SWAP1 PUSH1 0x3 NOT ADD SLT PUSH2 0x192 JUMPI PUSH1 0x4 CALLDATALOAD PUSH1 0x1 PUSH1 0x1 PUSH1 0xA0 SHL SUB DUP2 AND DUP2 SUB PUSH2 0x192 JUMPI SWAP1 PUSH1 0x24 CALLDATALOAD PUSH1 0x4 DUP2 LT ISZERO PUSH2 0x192 JUMPI SWAP1 JUMP JUMPDEST SWAP1 PUSH1 0x1 DUP3 DUP2 SHR SWAP3 AND DUP1 ISZERO PUSH2 0x1520 JUMPI JUMPDEST PUSH1 0x20 DUP4 LT EQ PUSH2 0x150A JUMPI JUMP JUMPDEST PUSH4 0x4E487B71 PUSH1 0xE0 SHL PUSH1 0x0 MSTORE PUSH1 0x22 PUSH1 0x4 MSTORE PUSH1 0x24 PUSH1 0x0 REVERT JUMPDEST SWAP2 PUSH1 0x7F AND SWAP2 PUSH2 0x14FF JUMP JUMPDEST PUSH1 0xE0 DUP2 ADD SWAP1 DUP2 LT PUSH8 0xFFFFFFFFFFFFFFFF DUP3 GT OR PUSH2 0x639 JUMPI PUSH1 0x40 MSTORE JUMP JUMPDEST PUSH1 0x20 DUP2 ADD SWAP1 DUP2 LT PUSH8 0xFFFFFFFFFFFFFFFF DUP3 GT OR PUSH2 0x639 JUMPI PUSH1 0x40 MSTORE JUMP JUMPDEST SWAP1 PUSH1 0x40 MLOAD SWAP2 PUSH1 0x0 SWAP1 DUP1 SLOAD SWAP1 PUSH2 0x1576 DUP3 PUSH2 0x14F0 JUMP JUMPDEST SWAP1 DUP2 DUP7 MSTORE PUSH1 0x1 SWAP3 DUP4 DUP2 AND SWAP1 DUP2 PUSH1 0x0 EQ PUSH2 0x15F6 JUMPI POP PUSH1 0x1 EQ PUSH2 0x15B9 JUMPI JUMPDEST POP POP POP DUP3 SWAP1 SUB PUSH1 0x1F ADD PUSH1 0x1F NOT AND DUP3 ADD PUSH8 0xFFFFFFFFFFFFFFFF DUP2 GT DUP4 DUP3 LT OR PUSH2 0x639 JUMPI PUSH1 0x40 MSTORE JUMP JUMPDEST SWAP1 SWAP3 POP PUSH1 0x0 MSTORE PUSH1 0x20 SWAP2 DUP3 PUSH1 0x0 KECCAK256 SWAP2 DUP4 PUSH1 0x0 SWAP4 JUMPDEST DUP4 DUP6 LT PUSH2 0x15E2 JUMPI POP POP POP POP DUP4 ADD ADD CODESIZE DUP1 DUP1 PUSH2 0x1592 JUMP JUMPDEST DUP1 SLOAD DUP9 DUP7 ADD DUP4 ADD MSTORE SWAP4 ADD SWAP3 DUP5 SWAP1 DUP3 ADD PUSH2 0x15CC JUMP JUMPDEST SWAP3 SWAP4 POP POP POP PUSH1 0x20 SWAP3 POP PUSH1 0xFF NOT AND DUP3 DUP6 ADD MSTORE ISZERO ISZERO PUSH1 0x5 SHL DUP4 ADD ADD CODESIZE DUP1 DUP1 PUSH2 0x1592 JUMP JUMPDEST SWAP1 PUSH1 0x4 DUP3 LT ISZERO PUSH2 0x64F JUMPI MSTORE JUMP JUMPDEST SWAP6 SWAP4 SWAP2 SWAP5 SWAP3 SWAP1 DUP7 MSTORE PUSH2 0x163B PUSH1 0x20 SWAP6 DUP7 DUP9 ADD SWAP1 PUSH2 0x1617 JUMP JUMPDEST PUSH1 0x40 DUP7 ADD MSTORE PUSH1 0x60 DUP6 ADD MSTORE PUSH1 0x1 PUSH1 0x1 PUSH1 0xA0 SHL SUB AND PUSH1 0x80 DUP5 ADD MSTORE ISZERO ISZERO PUSH1 0xA0 DUP4 ADD MSTORE PUSH1 0xE0 PUSH1 0xC0 DUP4 ADD DUP2 SWAP1 MSTORE DUP4 MLOAD SWAP1 DUP4 ADD DUP2 SWAP1 MSTORE SWAP3 PUSH1 0x0 JUMPDEST DUP5 DUP2 LT PUSH2 0x1691 JUMPI POP POP POP PUSH2 0x100 SWAP2 PUSH1 0x0 DUP4 DUP3 DUP5 ADD ADD MSTORE PUSH1 0x1F DUP1 NOT SWAP2 ADD AND ADD ADD SWAP1 JUMP JUMPDEST DUP2 DUP2 ADD DUP4 ADD MLOAD DUP5 DUP3 ADD PUSH2 0x100 ADD MSTORE DUP3 ADD PUSH2 0x166F JUMP JUMPDEST PUSH1 0x4 DUP2 LT ISZERO PUSH2 0x64F JUMPI PUSH1 0x0 MSTORE PUSH1 0x5 PUSH1 0x20 MSTORE PUSH1 0x40 PUSH1 0x0 KECCAK256 SWAP1 JUMP JUMPDEST SWAP2 DUP2 PUSH1 0x1F DUP5 ADD SLT ISZERO PUSH2 0x192 JUMPI DUP3 CALLDATALOAD SWAP2 PUSH8 0xFFFFFFFFFFFFFFFF DUP4 GT PUSH2 0x192 JUMPI PUSH1 0x20 DUP1 DUP6 ADD SWAP5 DUP5 PUSH1 0x5 SHL ADD ADD GT PUSH2 0x192 JUMPI JUMP JUMPDEST CALLER PUSH1 0x0 SWAP1 DUP2 MSTORE PUSH32 0x1DA0B5176DFE03406AF5A6EED66CA01DDA9B45AC4DA671C3FA379CB93717EF81 PUSH1 0x20 MSTORE PUSH1 0x40 SWAP1 KECCAK256 SLOAD PUSH32 0xCE23C3E399818CFEE81A7AB0880F714E53D7672B08DF0FA62F2843416E1EA09 SWAP1 PUSH1 0xFF AND ISZERO PUSH2 0x174C JUMPI POP JUMP JUMPDEST PUSH1 0x44 SWAP1 PUSH1 0x40 MLOAD SWAP1 PUSH4 0xE2517D3F PUSH1 0xE0 SHL DUP3 MSTORE CALLER PUSH1 0x4 DUP4 ADD MSTORE PUSH1 0x24 DUP3 ADD MSTORE REVERT JUMPDEST CALLER PUSH1 0x0 SWAP1 DUP2 MSTORE PUSH32 0xAD3228B676F7D3CD4284A5443F17F1962B36E491B30A40B2405849E597BA5FB5 PUSH1 0x20 MSTORE PUSH1 0x40 DUP2 KECCAK256 SLOAD PUSH1 0xFF AND ISZERO PUSH2 0x174C JUMPI POP JUMP JUMPDEST DUP1 PUSH1 0x0 MSTORE PUSH1 0x0 PUSH1 0x20 MSTORE PUSH1 0x40 PUSH1 0x0 KECCAK256 CALLER PUSH1 0x0 MSTORE PUSH1 0x20 MSTORE PUSH1 0xFF PUSH1 0x40 PUSH1 0x0 KECCAK256 SLOAD AND ISZERO PUSH2 0x174C JUMPI POP JUMP JUMPDEST SWAP1 PUSH1 0x0 SWAP2 DUP1 DUP4 MSTORE DUP3 PUSH1 0x20 MSTORE PUSH1 0x40 DUP4 KECCAK256 SWAP2 PUSH1 0x1 DUP1 PUSH1 0xA0 SHL SUB AND SWAP2 DUP3 DUP5 MSTORE PUSH1 0x20 MSTORE PUSH1 0xFF PUSH1 0x40 DUP5 KECCAK256 SLOAD AND ISZERO PUSH1 0x0 EQ PUSH2 0x1843 JUMPI DUP1 DUP4 MSTORE DUP3 PUSH1 0x20 MSTORE PUSH1 0x40 DUP4 KECCAK256 DUP3 DUP5 MSTORE PUSH1 0x20 MSTORE PUSH1 0x40 DUP4 KECCAK256 PUSH1 0x1 PUSH1 0xFF NOT DUP3 SLOAD AND OR SWAP1 SSTORE PUSH32 0x2F8788117E7EFF1D82E926EC794901D17C78024A50270940304540A733656F0D CALLER SWAP4 DUP1 LOG4 PUSH1 0x1 SWAP1 JUMP JUMPDEST POP POP SWAP1 JUMP JUMPDEST SWAP1 PUSH1 0x0 SWAP2 DUP1 DUP4 MSTORE DUP3 PUSH1 0x20 MSTORE PUSH1 0x40 DUP4 KECCAK256 SWAP2 PUSH1 0x1 DUP1 PUSH1 0xA0 SHL SUB AND SWAP2 DUP3 DUP5 MSTORE PUSH1 0x20 MSTORE PUSH1 0xFF PUSH1 0x40 DUP5 KECCAK256 SLOAD AND PUSH1 0x0 EQ PUSH2 0x1843 JUMPI DUP1 DUP4 MSTORE DUP3 PUSH1 0x20 MSTORE PUSH1 0x40 DUP4 KECCAK256 DUP3 DUP5 MSTORE PUSH1 0x20 MSTORE PUSH1 0x40 DUP4 KECCAK256 PUSH1 0xFF NOT DUP2 SLOAD AND SWAP1 SSTORE PUSH32 0xF6391F5C32D9C69D2A47EA670B442974B53935D1EDC7FD64EB21E047A839171B CALLER SWAP4 DUP1 LOG4 PUSH1 0x1 SWAP1 JUMP JUMPDEST ISZERO PUSH2 0x18C4 JUMPI JUMP JUMPDEST PUSH1 0x40 MLOAD PUSH3 0x461BCD PUSH1 0xE5 SHL DUP2 MSTORE PUSH1 0x20 PUSH1 0x4 DUP3 ADD MSTORE PUSH1 0xD PUSH1 0x24 DUP3 ADD MSTORE PUSH13 0x125B9D985B1A59081B195D995B PUSH1 0x9A SHL PUSH1 0x44 DUP3 ADD MSTORE PUSH1 0x64 SWAP1 REVERT JUMPDEST SWAP2 SWAP1 DUP3 ADD DUP1 SWAP3 GT PUSH2 0xADC JUMPI JUMP JUMPDEST PUSH1 0x4 DUP3 LT ISZERO PUSH2 0x64F JUMPI MSTORE JUMP JUMPDEST SWAP1 PUSH1 0x4 DUP2 LT ISZERO PUSH2 0x64F JUMPI PUSH1 0xFF DUP1 NOT DUP4 SLOAD AND SWAP2 AND OR SWAP1 SSTORE JUMP JUMPDEST SWAP1 PUSH1 0x1F DUP2 GT PUSH2 0x1938 JUMPI POP POP POP JUMP JUMPDEST PUSH1 0x0 SWAP2 DUP3 MSTORE PUSH1 0x20 DUP3 KECCAK256 SWAP1 PUSH1 0x20 PUSH1 0x1F DUP6 ADD PUSH1 0x5 SHR DUP4 ADD SWAP5 LT PUSH2 0x1974 JUMPI JUMPDEST PUSH1 0x1F ADD PUSH1 0x5 SHR ADD SWAP2 JUMPDEST DUP3 DUP2 LT PUSH2 0x1969 JUMPI POP POP POP JUMP JUMPDEST DUP2 DUP2 SSTORE PUSH1 0x1 ADD PUSH2 0x195D JUMP JUMPDEST SWAP1 SWAP3 POP DUP3 SWAP1 PUSH2 0x1954 JUMP JUMPDEST PUSH1 0x0 NOT DUP2 EQ PUSH2 0xADC JUMPI PUSH1 0x1 ADD SWAP1 JUMP JUMPDEST PUSH1 0x40 SWAP2 SWAP5 SWAP4 SWAP3 PUSH2 0x19A1 DUP3 PUSH1 0x60 DUP2 ADD SWAP8 PUSH2 0x1617 JUMP JUMPDEST PUSH1 0x1 PUSH1 0x1 PUSH1 0xA0 SHL SUB AND PUSH1 0x20 DUP3 ADD MSTORE ADD MSTORE JUMP JUMPDEST PUSH1 0xFF PUSH1 0x1 SLOAD AND PUSH2 0x19BF JUMPI JUMP JUMPDEST PUSH1 0x40 MLOAD PUSH4 0xD93C0665 PUSH1 0xE0 SHL DUP2 MSTORE PUSH1 0x4 SWAP1 REVERT JUMPDEST SWAP2 SWAP1 DUP2 LT ISZERO PUSH2 0x19E1 JUMPI PUSH1 0x5 SHL ADD SWAP1 JUMP JUMPDEST PUSH4 0x4E487B71 PUSH1 0xE0 SHL PUSH1 0x0 MSTORE PUSH1 0x32 PUSH1 0x4 MSTORE PUSH1 0x24 PUSH1 0x0 REVERT JUMPDEST ISZERO PUSH2 0x19FE JUMPI JUMP JUMPDEST PUSH1 0x40 MLOAD PUSH3 0x461BCD PUSH1 0xE5 SHL DUP2 MSTORE PUSH1 0x20 PUSH1 0x4 DUP3 ADD MSTORE PUSH1 0xD PUSH1 0x24 DUP3 ADD MSTORE PUSH13 0x139BC812D650C81C9958DBDC99 PUSH1 0x9A SHL PUSH1 0x44 DUP3 ADD MSTORE PUSH1 0x64 SWAP1 REVERT JUMPDEST ISZERO PUSH2 0x1A3A JUMPI JUMP JUMPDEST PUSH1 0x40 MLOAD PUSH3 0x461BCD PUSH1 0xE5 SHL DUP2 MSTORE PUSH1 0x20 PUSH1 0x4 DUP3 ADD MSTORE PUSH1 0xB PUSH1 0x24 DUP3 ADD MSTORE PUSH11 0x12D650C81C995D9BDAD959 PUSH1 0xAA SHL PUSH1 0x44 DUP3 ADD MSTORE PUSH1 0x64 SWAP1 REVERT JUMPDEST ISZERO PUSH2 0x1A74 JUMPI JUMP JUMPDEST PUSH1 0x40 MLOAD PUSH3 0x461BCD PUSH1 0xE5 SHL DUP2 MSTORE PUSH1 0x20 PUSH1 0x4 DUP3 ADD MSTORE PUSH1 0xE PUSH1 0x24 DUP3 ADD MSTORE PUSH14 0x125B9D985B1A59081C195C9A5BD9 PUSH1 0x92 SHL PUSH1 0x44 DUP3 ADD MSTORE PUSH1 0x64 SWAP1 REVERT INVALID 0xC9 0xC0 CALLDATACOPY MOD 0x2E JUMPDEST 0xC3 ADDRESS 0xD3 PUSH22 0x3AD2A431DB3ADF0C0E06698928DF4E9EBCBA564C572C LOG2 PUSH5 0x6970667358 0x22 SLT KECCAK256 CHAINID PUSH22 0x58E2508CDEF0665D6221A140206D79292ED8DF53EB4 NUMBER SWAP12 0x4F 0xE RETURNDATASIZE ORIGIN SWAP15 DUP1 PUSH5 0x736F6C6343 STOP ADDMOD EQ STOP CALLER 0x2F DUP8 DUP9 GT PUSH31 0x7EFF1D82E926EC794901D17C78024A50270940304540A733656F0D00000000 "},"methodIdentifiers":{"DEFAULT_ADMIN_ROLE()":"a217fddf","REVOKER_ROLE()":"7c4acabf","VERIFIER_ROLE()":"e7705db6","batchVerifyKYC(address[],bytes32[],uint8[])":"c7e29013","defaultValidityPeriod()":"4aa49247","getAddressForHash(bytes32)":"9bd2cb0d","getKYCRecord(address)":"973c156b","getRoleAdmin(bytes32)":"248a9ca3","getStats()":"c59d4847","grantRole(bytes32,address)":"2f2ff15d","hasMinimumKYCLevel(address,uint8)":"b6d15c7b","hasRole(bytes32,address)":"91d14854","hashToAddress(bytes32)":"9050a11d","isKYCValid(address)":"cf0e0f9d","kycRecords(address)":"7eb606e8","levelValidityPeriods(uint8)":"9b145451","pause()":"8456cb59","paused()":"5c975abb","renewKYC(address,uint256)":"0e0455b1","renounceRole(bytes32,address)":"36568abe","revokeKYC(address,string)":"2e3b7be0","revokeRole(bytes32,address)":"d547741f","setDefaultValidityPeriod(uint256)":"abb382b5","setValidityPeriod(uint8,uint256)":"228a7560","supportsInterface(bytes4)":"01ffc9a7","totalRevoked()":"e62ce7ac","totalVerified()":"fe9eba15","unpause()":"3f4ba83a","upgradeKYCLevel(address,uint8)":"5eb0b780","verifyKYC(address,bytes32,uint8)":"c5fdc8e2","verifyKYCHash(address,bytes32)":"8ad97691"}}}}}