{"src/FinCoreInvestment.sol":{"FinCoreInvestment":{"abi":[{"inputs":[{"internalType":"address","name":"_paymentToken","type":"address"},{"internalType":"uint8","name":"_paymentTokenDecimals","type":"uint8"},{"internalType":"address","name":"_feeRecipient","type":"address"},{"internalType":"address","name":"_admin","type":"address"}],"stateMutability":"nonpayable","type":"constructor"},{"inputs":[],"name":"AccessControlBadConfirmation","type":"error"},{"inputs":[{"internalType":"address","name":"account","type":"address"},{"internalType":"bytes32","name":"neededRole","type":"bytes32"}],"name":"AccessControlUnauthorizedAccount","type":"error"},{"inputs":[],"name":"EnforcedPause","type":"error"},{"inputs":[],"name":"ExpectedPause","type":"error"},{"inputs":[],"name":"ReentrancyGuardReentrantCall","type":"error"},{"inputs":[{"internalType":"address","name":"token","type":"address"}],"name":"SafeERC20FailedOperation","type":"error"},{"anonymous":false,"inputs":[{"indexed":true,"internalType":"bytes32","name":"projectId","type":"bytes32"},{"indexed":false,"internalType":"uint256","name":"totalAmount","type":"uint256"},{"indexed":false,"internalType":"uint256","name":"holdersCount","type":"uint256"}],"name":"DividendDistributed","type":"event"},{"anonymous":false,"inputs":[{"indexed":false,"internalType":"uint256","name":"newFeePercent","type":"uint256"}],"name":"FeeUpdated","type":"event"},{"anonymous":false,"inputs":[{"indexed":true,"internalType":"bytes32","name":"projectId","type":"bytes32"},{"indexed":false,"internalType":"address","name":"recipient","type":"address"},{"indexed":false,"internalType":"uint256","name":"amount","type":"uint256"}],"name":"FundsReleased","type":"event"},{"anonymous":false,"inputs":[{"indexed":true,"internalType":"uint256","name":"investmentId","type":"uint256"},{"indexed":true,"internalType":"bytes32","name":"projectId","type":"bytes32"},{"indexed":true,"internalType":"address","name":"investor","type":"address"},{"indexed":false,"internalType":"uint256","name":"amount","type":"uint256"},{"indexed":false,"internalType":"uint256","name":"tokenAmount","type":"uint256"}],"name":"InvestmentCreated","type":"event"},{"anonymous":false,"inputs":[{"indexed":true,"internalType":"uint256","name":"investmentId","type":"uint256"},{"indexed":true,"internalType":"address","name":"investor","type":"address"},{"indexed":false,"internalType":"uint256","name":"amount","type":"uint256"}],"name":"InvestmentRefunded","type":"event"},{"anonymous":false,"inputs":[{"indexed":true,"internalType":"uint256","name":"investmentId","type":"uint256"},{"indexed":true,"internalType":"bytes32","name":"projectId","type":"bytes32"}],"name":"InvestmentReleased","type":"event"},{"anonymous":false,"inputs":[{"indexed":false,"internalType":"address","name":"account","type":"address"}],"name":"Paused","type":"event"},{"anonymous":false,"inputs":[{"indexed":false,"internalType":"address","name":"newToken","type":"address"}],"name":"PaymentTokenUpdated","type":"event"},{"anonymous":false,"inputs":[{"indexed":true,"internalType":"bytes32","name":"projectId","type":"bytes32"},{"indexed":false,"internalType":"address","name":"tokenContract","type":"address"},{"indexed":false,"internalType":"uint256","name":"targetAmount","type":"uint256"}],"name":"ProjectCreated","type":"event"},{"anonymous":false,"inputs":[{"indexed":true,"internalType":"bytes32","name":"projectId","type":"bytes32"},{"indexed":false,"internalType":"enum FinCoreInvestment.ProjectStatus","name":"status","type":"uint8"}],"name":"ProjectStatusUpdated","type":"event"},{"anonymous":false,"inputs":[{"indexed":true,"internalType":"bytes32","name":"role","type":"bytes32"},{"indexed":true,"internalType":"bytes32","name":"previousAdminRole","type":"bytes32"},{"indexed":true,"internalType":"bytes32","name":"newAdminRole","type":"bytes32"}],"name":"RoleAdminChanged","type":"event"},{"anonymous":false,"inputs":[{"indexed":true,"internalType":"bytes32","name":"role","type":"bytes32"},{"indexed":true,"internalType":"address","name":"account","type":"address"},{"indexed":true,"internalType":"address","name":"sender","type":"address"}],"name":"RoleGranted","type":"event"},{"anonymous":false,"inputs":[{"indexed":true,"internalType":"bytes32","name":"role","type":"bytes32"},{"indexed":true,"internalType":"address","name":"account","type":"address"},{"indexed":true,"internalType":"address","name":"sender","type":"address"}],"name":"RoleRevoked","type":"event"},{"anonymous":false,"inputs":[{"indexed":false,"internalType":"address","name":"account","type":"address"}],"name":"Unpaused","type":"event"},{"inputs":[],"name":"DEFAULT_ADMIN_ROLE","outputs":[{"internalType":"bytes32","name":"","type":"bytes32"}],"stateMutability":"view","type":"function"},{"inputs":[],"name":"DIVIDEND_MANAGER_ROLE","outputs":[{"internalType":"bytes32","name":"","type":"bytes32"}],"stateMutability":"view","type":"function"},{"inputs":[],"name":"OPERATOR_ROLE","outputs":[{"internalType":"bytes32","name":"","type":"bytes32"}],"stateMutability":"view","type":"function"},{"inputs":[{"internalType":"bytes32","name":"projectId","type":"bytes32"}],"name":"activateProject","outputs":[],"stateMutability":"nonpayable","type":"function"},{"inputs":[{"internalType":"bytes32","name":"projectId","type":"bytes32"}],"name":"cancelProject","outputs":[],"stateMutability":"nonpayable","type":"function"},{"inputs":[{"internalType":"bytes32","name":"projectId","type":"bytes32"},{"internalType":"address","name":"tokenContract","type":"address"},{"internalType":"uint256","name":"targetAmount","type":"uint256"},{"internalType":"uint256","name":"startTime","type":"uint256"},{"internalType":"uint256","name":"endTime","type":"uint256"}],"name":"createProject","outputs":[],"stateMutability":"nonpayable","type":"function"},{"inputs":[{"internalType":"bytes32","name":"projectId","type":"bytes32"},{"internalType":"uint256","name":"totalAmount","type":"uint256"},{"internalType":"address[]","name":"holders","type":"address[]"},{"internalType":"uint256[]","name":"amounts","type":"uint256[]"}],"name":"distributeDividends","outputs":[],"stateMutability":"nonpayable","type":"function"},{"inputs":[],"name":"feeRecipient","outputs":[{"internalType":"address","name":"","type":"address"}],"stateMutability":"view","type":"function"},{"inputs":[],"name":"getEscrowBalance","outputs":[{"internalType":"uint256","name":"","type":"uint256"}],"stateMutability":"view","type":"function"},{"inputs":[{"internalType":"address","name":"investor","type":"address"}],"name":"getInvestorInvestments","outputs":[{"internalType":"uint256[]","name":"","type":"uint256[]"}],"stateMutability":"view","type":"function"},{"inputs":[{"internalType":"bytes32","name":"projectId","type":"bytes32"}],"name":"getProject","outputs":[{"internalType":"address","name":"tokenContract","type":"address"},{"internalType":"uint256","name":"targetAmount","type":"uint256"},{"internalType":"uint256","name":"raisedAmount","type":"uint256"},{"internalType":"uint256","name":"startTime","type":"uint256"},{"internalType":"uint256","name":"endTime","type":"uint256"},{"internalType":"bool","name":"fundingComplete","type":"bool"},{"internalType":"bool","name":"fundsReleased","type":"bool"},{"internalType":"enum FinCoreInvestment.ProjectStatus","name":"status","type":"uint8"}],"stateMutability":"view","type":"function"},{"inputs":[{"internalType":"bytes32","name":"projectId","type":"bytes32"}],"name":"getProjectInvestments","outputs":[{"internalType":"uint256[]","name":"","type":"uint256[]"}],"stateMutability":"view","type":"function"},{"inputs":[{"internalType":"bytes32","name":"role","type":"bytes32"}],"name":"getRoleAdmin","outputs":[{"internalType":"bytes32","name":"","type":"bytes32"}],"stateMutability":"view","type":"function"},{"inputs":[{"internalType":"bytes32","name":"role","type":"bytes32"},{"internalType":"address","name":"account","type":"address"}],"name":"grantRole","outputs":[],"stateMutability":"nonpayable","type":"function"},{"inputs":[{"internalType":"bytes32","name":"role","type":"bytes32"},{"internalType":"address","name":"account","type":"address"}],"name":"hasRole","outputs":[{"internalType":"bool","name":"","type":"bool"}],"stateMutability":"view","type":"function"},{"inputs":[{"internalType":"bytes32","name":"projectId","type":"bytes32"},{"internalType":"uint256","name":"amount","type":"uint256"},{"internalType":"uint256","name":"tokenAmount","type":"uint256"}],"name":"invest","outputs":[],"stateMutability":"nonpayable","type":"function"},{"inputs":[{"internalType":"uint256","name":"","type":"uint256"}],"name":"investments","outputs":[{"internalType":"bytes32","name":"projectId","type":"bytes32"},{"internalType":"address","name":"investor","type":"address"},{"internalType":"uint256","name":"amount","type":"uint256"},{"internalType":"uint256","name":"tokenAmount","type":"uint256"},{"internalType":"uint256","name":"createdAt","type":"uint256"},{"internalType":"bool","name":"released","type":"bool"},{"internalType":"bool","name":"refunded","type":"bool"}],"stateMutability":"view","type":"function"},{"inputs":[{"internalType":"address","name":"","type":"address"},{"internalType":"uint256","name":"","type":"uint256"}],"name":"investorInvestments","outputs":[{"internalType":"uint256","name":"","type":"uint256"}],"stateMutability":"view","type":"function"},{"inputs":[{"internalType":"bytes32","name":"","type":"bytes32"},{"internalType":"address","name":"","type":"address"}],"name":"investorProjectBalance","outputs":[{"internalType":"uint256","name":"","type":"uint256"}],"stateMutability":"view","type":"function"},{"inputs":[],"name":"maxInvestmentAmount","outputs":[{"internalType":"uint256","name":"","type":"uint256"}],"stateMutability":"view","type":"function"},{"inputs":[],"name":"minInvestmentAmount","outputs":[{"internalType":"uint256","name":"","type":"uint256"}],"stateMutability":"view","type":"function"},{"inputs":[],"name":"nextInvestmentId","outputs":[{"internalType":"uint256","name":"","type":"uint256"}],"stateMutability":"view","type":"function"},{"inputs":[],"name":"pause","outputs":[],"stateMutability":"nonpayable","type":"function"},{"inputs":[],"name":"paused","outputs":[{"internalType":"bool","name":"","type":"bool"}],"stateMutability":"view","type":"function"},{"inputs":[],"name":"paymentToken","outputs":[{"internalType":"contract IERC20","name":"","type":"address"}],"stateMutability":"view","type":"function"},{"inputs":[],"name":"paymentTokenDecimals","outputs":[{"internalType":"uint8","name":"","type":"uint8"}],"stateMutability":"view","type":"function"},{"inputs":[],"name":"platformFeePercent","outputs":[{"internalType":"uint256","name":"","type":"uint256"}],"stateMutability":"view","type":"function"},{"inputs":[{"internalType":"bytes32","name":"","type":"bytes32"},{"internalType":"uint256","name":"","type":"uint256"}],"name":"projectInvestments","outputs":[{"internalType":"uint256","name":"","type":"uint256"}],"stateMutability":"view","type":"function"},{"inputs":[{"internalType":"bytes32","name":"","type":"bytes32"}],"name":"projects","outputs":[{"internalType":"bytes32","name":"id","type":"bytes32"},{"internalType":"address","name":"tokenContract","type":"address"},{"internalType":"uint256","name":"targetAmount","type":"uint256"},{"internalType":"uint256","name":"raisedAmount","type":"uint256"},{"internalType":"uint256","name":"startTime","type":"uint256"},{"internalType":"uint256","name":"endTime","type":"uint256"},{"internalType":"bool","name":"fundingComplete","type":"bool"},{"internalType":"bool","name":"fundsReleased","type":"bool"},{"internalType":"enum FinCoreInvestment.ProjectStatus","name":"status","type":"uint8"}],"stateMutability":"view","type":"function"},{"inputs":[{"internalType":"uint256","name":"investmentId","type":"uint256"}],"name":"refundInvestment","outputs":[],"stateMutability":"nonpayable","type":"function"},{"inputs":[{"internalType":"bytes32","name":"projectId","type":"bytes32"},{"internalType":"address","name":"recipient","type":"address"}],"name":"releaseFunds","outputs":[],"stateMutability":"nonpayable","type":"function"},{"inputs":[{"internalType":"bytes32","name":"role","type":"bytes32"},{"internalType":"address","name":"callerConfirmation","type":"address"}],"name":"renounceRole","outputs":[],"stateMutability":"nonpayable","type":"function"},{"inputs":[{"internalType":"bytes32","name":"role","type":"bytes32"},{"internalType":"address","name":"account","type":"address"}],"name":"revokeRole","outputs":[],"stateMutability":"nonpayable","type":"function"},{"inputs":[{"internalType":"uint256","name":"newFeePercent","type":"uint256"}],"name":"setFee","outputs":[],"stateMutability":"nonpayable","type":"function"},{"inputs":[{"internalType":"address","name":"newRecipient","type":"address"}],"name":"setFeeRecipient","outputs":[],"stateMutability":"nonpayable","type":"function"},{"inputs":[{"internalType":"uint256","name":"minAmount","type":"uint256"},{"internalType":"uint256","name":"maxAmount","type":"uint256"}],"name":"setInvestmentLimits","outputs":[],"stateMutability":"nonpayable","type":"function"},{"inputs":[{"internalType":"address","name":"newToken","type":"address"},{"internalType":"uint8","name":"decimals","type":"uint8"}],"name":"setPaymentToken","outputs":[],"stateMutability":"nonpayable","type":"function"},{"inputs":[{"internalType":"bytes4","name":"interfaceId","type":"bytes4"}],"name":"supportsInterface","outputs":[{"internalType":"bool","name":"","type":"bool"}],"stateMutability":"view","type":"function"},{"inputs":[],"name":"unpause","outputs":[],"stateMutability":"nonpayable","type":"function"}],"evm":{"bytecode":{"linkReferences":{},"object":"6080346200024f57601f6200262638819003918201601f191683019291906001600160401b03841183851017620002545781608092849260409687528339810103126200024f5762000051816200026a565b9060208101519060ff821682036200024f576200007e6060620000768684016200026a565b92016200026a565b60017f9b779b17422d0df92223018b32b4d1fa46e071723d6817e2486d003becc55f0055926001600160a01b0391828216156200020b578216918215620001c757841615620001935760018054610100600160b01b031916600892831b610100600160a81b03161760a885901b60ff60a81b16179055600980546001600160a01b031916929092179091556064905562000118816200027f565b90816064029160648304036200017d576200013691600a556200027f565b90620f424091808302928304036200017d576200016e91600b556200015b8162000291565b50620001678162000311565b50620003b3565b50516121b59081620004518239f35b634e487b7160e01b600052601160045260246000fd5b845162461bcd60e51b815260206004820152600d60248201526c24b73b30b634b21030b236b4b760991b6044820152606490fd5b855162461bcd60e51b815260206004820152601560248201527f496e76616c69642066656520726563697069656e7400000000000000000000006044820152606490fd5b855162461bcd60e51b815260206004820152601560248201527f496e76616c6964207061796d656e7420746f6b656e00000000000000000000006044820152606490fd5b600080fd5b634e487b7160e01b600052604160045260246000fd5b51906001600160a01b03821682036200024f57565b60ff16604d81116200017d57600a0a90565b6001600160a01b031660008181527fad3228b676f7d3cd4284a5443f17f1962b36e491b30a40b2405849e597ba5fb5602052604081205490919060ff166200030d57818052816020526040822081835260205260408220600160ff198254161790553391600080516020620026068339815191528180a4600190565b5090565b6001600160a01b031660008181527fee57cd81e84075558e8fcc182a1f4393f91fc97f963a136e66b7f949a62f319f60205260408120549091907f97667070c54ef182b0f5858b034beac1b6f3089aa2d3188bb1e8929f4fa9b9299060ff16620003ae57808352826020526040832082845260205260408320600160ff1982541617905560008051602062002606833981519152339380a4600190565b505090565b6001600160a01b031660008181527f792c0af42d95a40a8803de265a2327cabbb80439e83c29fee7e193bb1ea9e42360205260408120549091907f983122906625f2f7c0e71d99e0185fea9817cf07cd649b03ca16d13a0a12976c9060ff16620003ae57808352826020526040832082845260205260408320600160ff1982541617905560008051602062002606833981519152339380a460019056fe608060408181526004908136101561001657600080fd5b600060e0938135851c90816301ffc9a714611b74575080630f1af43914611a68578063248a9ca314611a3e5780632e1aaf5a146119665780632f2ff15d1461193c5780633013ce291461190f578063325cd796146118ea57806333c910551461188657806336568abe146118405780633f4ba83a146117d657806346904840146117ad5780634b5f748a146117205780634c431f001461169e5780634d298a071461167f578063562509f6146116495780635b2440f21461160e5780635c975abb146115ea57806369fe0e2d1461155f5780637b6a686e1461151d5780637d25e89d146112db5780638456cb59146112815780638a027cb314610e9f5780638c639a8514610e8057806391d1485414610e3a578063a217fddf14610e1f578063a6685c4614610b23578063b96ea12d14610a89578063c56e610e146109ee578063d547741f146109af578063db64239414610990578063dfabb02614610971578063e358f6a2146108a9578063e74b981b1461085d578063eef90b6214610807578063f4154fbd1461050a578063f5b541a6146104cb578063fb903b1d14610463578063fcf3a4c2146102495763fd345c8a146101d257600080fd5b3461024657602036600319011261024657908060ff928435815260036020522080549360018060a01b03600183015416926002830154906005600385015493850154940154948151978852602088015286015260608501526080840152818116151560a084015260081c16151560c0820152f35b80fd5b50913461045f5760208060031936011261045b57813591610268612012565b8285526003825283852060018101546001600160a01b039190821633036104225760058101805461029c60ff821615612042565b60ff8160081c166103ec57825494858a5260028752888a2060068101549060ff8260101c169160058310156103d957600383149283156103a3575b50505015610369575061034b927fc6a2f493a6e1d86aa8d73122837edb3ae830ccf081d0b273177ed6f6ea2b43bd9695949261010060029361ff0019161790550192835490895260068552878920338a528552610338888a209182546120c1565b905560015460081c1682549033906120ce565b5493519384523393a360016000805160206121608339815191525580f35b885162461bcd60e51b81529081018790526014602482015273526566756e64206e6f7420617661696c61626c6560601b6044820152606490fd5b600114925090826103cb575b50816103bf575b508b80806102d7565b60ff915016158b6103b6565b60050154421191508c6103af565b634e487b7160e01b8d526021845260248dfd5b875162461bcd60e51b8152808601879052601060248201526f105b1c9958591e481c99599d5b99195960821b6044820152606490fd5b855162461bcd60e51b81528084018590526013602482015272139bdd081e5bdd5c881a5b9d995cdd1b595b9d606a1b6044820152606490fd5b8380fd5b8280fd5b50913461045f578160031936011261045f5780359060243592610484611d30565b83831015610497575050600a55600b5580f35b906020606492519162461bcd60e51b8352820152600e60248201526d496e76616c6964206c696d69747360901b6044820152fd5b509034610506578160031936011261050657602090517f97667070c54ef182b0f5858b034beac1b6f3089aa2d3188bb1e8929f4fa9b9298152f35b5080fd5b508234610506576080366003190112610506578035602493843560449384359667ffffffffffffffff97888111610803576105489036908401611c85565b9290986064359081116107ff576105629036908301611c85565b9190977f983122906625f2f7c0e71d99e0185fea9817cf07cd649b03ca16d13a0a12976c93848b526020948b8652888c20338d52865260ff898d205416156107e857506105ad612012565b8386036107b557851561078757888b526002855260ff6006898d206105d481541515611ebb565b015460101c16600581101561077557830361073c57868b8c5b868d81831061071257505050036106df5750506001805490986008936001600160a01b0393509161062790889030903390881c8716611f67565b8a5b868110610674578b8b8b7f42825cab1bcf7f1b4d38787f69d4eecb7fdf52e229c08ffaeb247e32e4ae6ea08c8c8c8c8351928352820152a26000805160206121608339815191525580f35b8c87858d61068385888861212f565b3561069b575b5050505061069690611f1e565b610629565b54881c16916106ab91849161212f565b3585811681036106db5782916106d0916106c961069695888861212f565b35916120ce565b90508c87858d610689565b8d80fd5b875162461bcd60e51b8152928301859052600f908301526e082dadeeadce840dad2e6dac2e8c6d608b1b90820152606490fd5b8261072e93955061073494926107279261212f565b3590611efb565b91611f1e565b9088916105ed565b875162461bcd60e51b815292830185905260159083015274141c9bda9958dd081b9bdd0818dbdb5c1b195d1959605a1b90820152606490fd5b50634e487b7160e01b8b52602183528afd5b875162461bcd60e51b8152928301859052600a90830152694e6f20686f6c6465727360b01b90820152606490fd5b875162461bcd60e51b8152928301859052600f908301526e098cadccee8d040dad2e6dac2e8c6d608b1b90820152606490fd5b885163e2517d3f60e01b8152338186015291820152fd5b8880fd5b8780fd5b509034610506578060031936011261050657610821611bc8565b6001600160a01b03168252600560205280822080546024359390841015610246575060209261084f91611c57565b91905490519160031b1c8152f35b503461024657602036600319011261024657610877611bc8565b61087f611d30565b6001600160a01b0316610893811515612081565b6001600160601b0360a01b600954161760095580f35b5092503461045f57602036600319011261045f578135916108c8611cb6565b828452600260205260068285206108e181541515611ebb565b019081549060ff8260101c16600581101561095e57610924575062ff0000191662010000179055516001815260008051602061214083398151915290602090a280f35b606490602085519162461bcd60e51b83528201526014602482015273141c9bda9958dd081b9bdd081a5b88191c98599d60621b6044820152fd5b634e487b7160e01b875260218252602487fd5b509034610506578160031936011261050657602090600b549051908152f35b5090346105065781600319360112610506576020906007549051908152f35b5092503461045f578060031936011261045f576109ea91356109e560016109d4611be3565b938387528660205286200154611d6a565b611e0e565b5080f35b5092503461045f578260031936011261045f5760015481516370a0823160e01b815230938101939093526020908390602490829060081c6001600160a01b03165afa918215610a7f578392610a48575b6020838351908152f35b9091506020813d8211610a77575b81610a6360209383611e83565b8101031261045f5760209250519038610a3e565b3d9150610a56565b81513d85823e3d90fd5b5091833461045b57602036600319011261045b5790610b219183610120958335815260026020522080549460018060a01b036001830154169360028301546003840154918401549260066005860154950154968151998a5260208a01528801526060870152608086015260a085015260ff8216151560c085015260ff8260081c1615159084015260ff61010084019160101c16611c34565bf35b5091923461045f5760a036600319011261045f57833591610b42611be3565b90604492833593606490813560843590610b5a611cb6565b888a5260209360028552868b2054610de7576001600160a01b03888116949091908515610daf578a15610d7057428410610d315783851115610cf2575050865193610120850185811067ffffffffffffffff821117610cde57918c918c97969594938a52878652868601908152898601918c83528a60608801948086526080890196875260a0890197885260c089019b818d52890199818b526101008a019b828d528252600290522096518755600187019151166001600160601b0360a01b825416179055516002850155516003840155518b83015551600582015560060192511515610c5390849060ff801983541691151516179055565b51825461ff00191690151560081b61ff0016178255516005811015610ccb57815462ff0000191660109190911b62ff000016179055516001600160a01b03909116815260208101919091527f0180774375ef39389cb651d758650eb357746210f60ee333a675d3b6c4343b259080604081010390a280f35b634e487b7160e01b875260218852602487fd5b50634e487b7160e01b8c5260418d5260248cfd5b7f456e64206d7573742062652061667465722073746172740000000000000000008e91888b519362461bcd60e51b855284015260176024840152820152fd5b7f53746172742074696d65206d75737420626520696e20667574757265000000008e91888b519362461bcd60e51b8552840152601c6024840152820152fd5b7f546172676574206d75737420626520706f7369746976650000000000000000008e91888b519362461bcd60e51b855284015260176024840152820152fd5b75125b9d985b1a59081d1bdad95b8818dbdb9d1c9858dd60521b8e91888b519362461bcd60e51b855284015260166024840152820152fd5b865162461bcd60e51b8152808d01869052601660248201527550726f6a65637420616c72656164792065786973747360501b81860152fd5b50903461050657816003193601126105065751908152602090f35b50913461045f578160031936011261045f578160209360ff92610e5b611be3565b903582528186528282206001600160a01b039091168252855220549151911615158152f35b5090346105065781600319360112610506576020906008549051908152f35b5082843461045f57606036600319011261045f578135906024948535936044803591610ec9612012565b610ed1611ff4565b85885260209160028352848920610eea81541515611ebb565b600681019260ff845460101c16600581101561126f576001036112395780820154421061120257600582015442116111d157600a548a1061119057600b548a1161114f5760038201926002610f408c8654611efb565b93019283541061111d57506001546001600160a01b039890610f6c908c903090339060081c8d16611f67565b60075498610f798a611f1e565b600755885191820182811067ffffffffffffffff82111761110b578d9e509c61104d60058e9f948e9f9d9e8f907feaab3ffedef9a605a09e866a86cc8123e3247e2730ea9b6e8ff01c3aadd0c6739f8f8f92988f91899a6110649c8252875289600384890194338652838a0196875260608a0197885260808a0198428a5260a08b019e8f5260c08b019d8e528352522095518655600186019151166001600160601b0360a01b82541617905551600284015551600383015551878201550192511515839060ff801983541691151516179055565b51815461ff00191690151560081b61ff0016179055565b898c52845261107588878d20611f2d565b338b526005845261108888878d20611f2d565b888b5260068452858b20338c528452858b206110a58b8254611efb565b90556110b28a8354611efb565b8092555411156110de575b5082519687528601523394a460016000805160206121608339815191525580f35b6202000162ff00ff198254161790558560008051602061214083398151915282855160028152a2886110bd565b634e487b7160e01b8e52604184528e8efd5b875162461bcd60e51b8152918201869052600e828e01526d115e18d959591cc81d185c99d95d60921b90820152606490fd5b865162461bcd60e51b81529081018590526018818d01527f41626f7665206d6178696d756d20696e766573746d656e74000000000000000081840152606490fd5b865162461bcd60e51b81529081018590526018818d01527f42656c6f77206d696e696d756d20696e766573746d656e74000000000000000081840152606490fd5b865162461bcd60e51b8152908101859052600d818d01526c119d5b991a5b99c8195b991959609a1b81840152606490fd5b865162461bcd60e51b81529081018590526013818d015272119d5b991a5b99c81b9bdd081cdd185c9d1959606a1b81840152606490fd5b865162461bcd60e51b81529081018590526012818d01527150726f6a656374206e6f742061637469766560701b81840152606490fd5b634e487b7160e01b8c52602182528c8cfd5b50903461050657816003193601126105065760207f62e78cea01bee320cd4e420270b5ea74000d11b0c9f74754ebdbfc544b05a258916112bf611d30565b6112c7611ff4565b600160ff198154161760015551338152a180f35b5092503461045f578060031936011261045f578135906112f9611be3565b611301611cb6565b611309612012565b828552602093600285528286209261132384541515611ebb565b600684019586549260ff8460101c16936005948581101561150a576002036114db5761135560ff8260081c1615612042565b6001600160a01b039561136b8188161515612081565b60038098015499600854808c02908c8204148c1517156114c857611398612710620401009204809d6120c1565b9362ffff001916179055888b52828452848b20968b5b8c895482101561142257908b61141d927f97baecea6c563f419056a279e67e77ede2ae5ea626790b8c2b1ec451d3121c7d8d611410858f8f8f8f86906113f48686611c57565b905490831b1c8a5252872001805460ff19166001179055611c57565b9054911b1c9180a3611f1e565b6113ae565b8b600080516020612140833981519152888f8b847f75d86e5bfa1175e2dc677f3abe3aebba3069f2db6ae492f1734d4b4bc65f61c18b8b6114758f96828e8592806114ab575b5060015460081c166120ce565b84516001600160a01b039190911681526020810191909152604090a251908152a260016000805160206121608339815191525580f35b6114c2908260015460081c168360095416906120ce565b8e611468565b634e487b7160e01b8d526011855260248dfd5b50915162461bcd60e51b815291820152600a602482015269139bdd08199d5b99195960b21b6044820152606490fd5b634e487b7160e01b8b526021835260248bfd5b50913461045f578160031936011261045f57602092829161153c611be3565b90358252600685528282206001600160a01b039091168252845220549051908152f35b5092503461045f57602036600319011261045f5781359161157e611d30565b6103e883116115b95750816020917f8c4d35e54a3f2ef1134138fd8ea3daee6a3c89e10d2665996babdf70261e2c769360085551908152a180f35b6020606492519162461bcd60e51b8352820152600c60248201526b08ccaca40e8dede40d0d2ced60a31b6044820152fd5b50903461050657816003193601126105065760209060ff6001541690519015158152f35b509034610506578160031936011261050657602090517f983122906625f2f7c0e71d99e0185fea9817cf07cd649b03ca16d13a0a12976c8152f35b50346102465781600319360112610246576024359280358252602052818120908154841015610246575060209261084f91611c57565b509034610506578160031936011261050657602090600a549051908152f35b509034610506576020908160031936011261045f576001600160a01b036116c3611bc8565b168352600582528083209281518093808654928381520195835280832092905b8282106117095761170586866116fb828b0383611e83565b5191829182611bf9565b0390f35b8354875295860195600193840193909101906116e3565b5091833461045b57602036600319011261045b579060ff610b219284610100968435815260026020522060018060a01b03600182015416956002820154946003830154908301549160066005850154940154968151998a5260208a015288015260608701526080860152818316151560a0860152818360081c16151560c086015284019160101c16611c34565b50903461050657816003193601126105065760095490516001600160a01b039091168152602090f35b50913461045f578260031936011261045f576117f0611d30565b6001549060ff821615611832575060ff1916600155513381527f5db9ee0a495bf2e6ff9c91a7834c1ba4fdd244a5e8aa4e537bd38aeae4b073aa90602090a180f35b8251638dfc202b60e01b8152fd5b50903461050657806003193601126105065761185a611be3565b90336001600160a01b0383160361187757506109ea919235611e0e565b5163334bd91960e11b81528390fd5b5092503461045f576020918260031936011261045b578035845282528083209281518093808654928381520195835280832092905b8282106118d35761170586866116fb828b0383611e83565b8354875295860195600193840193909101906118bb565b50903461050657816003193601126105065760209060ff60015460a81c169051908152f35b509034610506578160031936011261050657600154905160089190911c6001600160a01b03168152602090f35b5092503461045f578060031936011261045f576109ea913561196160016109d4611be3565b611d90565b5092503461045f578060031936011261045f57611981611bc8565b60243560ff81168103611a3a57611996611d30565b6001600160a01b038216938415611a07575060018054610100600160b01b03191660089390931b610100600160a81b03169290921760a89190911b60ff60a81b16179055519081527fbd4032c1c91da2791730ea1bbc82c6b6f857da7c0a8318143d19ef74e62cd91390602090a180f35b606490602085519162461bcd60e51b8352820152600d60248201526c24b73b30b634b2103a37b5b2b760991b6044820152fd5b8480fd5b50913461045f57602036600319011261045f57816020936001923581528085522001549051908152f35b5092503461045f57602036600319011261045f57813591611a87611cb6565b82845260026020526006828520611aa081541515611ebb565b019081549060ff8260101c16600581101561095e578015908115611b69575b5015611b365760ff8260081c16611afa575062ff0000191662030000179055516003815260008051602061214083398151915290602090a280f35b606490602085519162461bcd60e51b83528201526016602482015275119d5b991cc8185b1c9958591e481c995b19585cd95960521b6044820152fd5b606490602085519162461bcd60e51b8352820152600d60248201526c10d85b9b9bdd0818d85b98d95b609a1b6044820152fd5b600191501438611abf565b9050833461045f57602036600319011261045f573563ffffffff60e01b811680910361045f5760209250637965db0b60e01b8114908115611bb7575b5015158152f35b6301ffc9a760e01b14905083611bb0565b600435906001600160a01b0382168203611bde57565b600080fd5b602435906001600160a01b0382168203611bde57565b6020908160408183019282815285518094520193019160005b828110611c20575050505090565b835185529381019392810192600101611c12565b906005821015611c415752565b634e487b7160e01b600052602160045260246000fd5b8054821015611c6f5760005260206000200190600090565b634e487b7160e01b600052603260045260246000fd5b9181601f84011215611bde5782359167ffffffffffffffff8311611bde576020808501948460051b010111611bde57565b3360009081527fee57cd81e84075558e8fcc182a1f4393f91fc97f963a136e66b7f949a62f319f60205260409020547f97667070c54ef182b0f5858b034beac1b6f3089aa2d3188bb1e8929f4fa9b9299060ff1615611d125750565b6044906040519063e2517d3f60e01b82523360048301526024820152fd5b3360009081527fad3228b676f7d3cd4284a5443f17f1962b36e491b30a40b2405849e597ba5fb5602052604081205460ff1615611d125750565b80600052600060205260406000203360005260205260ff6040600020541615611d125750565b9060009180835282602052604083209160018060a01b03169182845260205260ff60408420541615600014611e0957808352826020526040832082845260205260408320600160ff198254161790557f2f8788117e7eff1d82e926ec794901d17c78024a50270940304540a733656f0d339380a4600190565b505090565b9060009180835282602052604083209160018060a01b03169182845260205260ff604084205416600014611e095780835282602052604083208284526020526040832060ff1981541690557ff6391f5c32d9c69d2a47ea670b442974b53935d1edc7fd64eb21e047a839171b339380a4600190565b90601f8019910116810190811067ffffffffffffffff821117611ea557604052565b634e487b7160e01b600052604160045260246000fd5b15611ec257565b60405162461bcd60e51b8152602060048201526011602482015270141c9bda9958dd081b9bdd08199bdd5b99607a1b6044820152606490fd5b91908201809211611f0857565b634e487b7160e01b600052601160045260246000fd5b6000198114611f085760010190565b805468010000000000000000811015611ea557611f4f91600182018155611c57565b819291549060031b91821b91600019901b1916179055565b6040516323b872dd60e01b60009081526001600160a01b03938416600452938316602452604494909452909160209060648180855af1600160005114811615611fd4575b83604052600060605215611fbe57505050565b635274afe760e01b835216600482015260249150fd5b6001811516611fea57813b15153d151616611fab565b833d6000823e3d90fd5b60ff6001541661200057565b60405163d93c066560e01b8152600490fd5b60008051602061216083398151915260028154146120305760029055565b604051633ee5aeb560e01b8152600490fd5b1561204957565b60405162461bcd60e51b815260206004820152601060248201526f105b1c9958591e481c995b19585cd95960821b6044820152606490fd5b1561208857565b60405162461bcd60e51b8152602060048201526011602482015270125b9d985b1a59081c9958da5c1a595b9d607a1b6044820152606490fd5b91908203918211611f0857565b60405163a9059cbb60e01b60009081526001600160a01b039384166004526024949094529260209060448180855af1600160005114811615612119575b8360405215611fbe57505050565b6001811516611fea57813b15153d15161661210b565b9190811015611c6f5760051b019056fe9429ffd66955b0a50202aef461a5c7cc17723d8735de36b6119776d3511d7c4f9b779b17422d0df92223018b32b4d1fa46e071723d6817e2486d003becc55f00a26469706673582212203135324b60ee8e77d20cf6a67ad1c4ae356ee7b078f9bd48deb95969afd146ef64736f6c634300081400332f8788117e7eff1d82e926ec794901d17c78024a50270940304540a733656f0d","opcodes":"PUSH1 0x80 CALLVALUE PUSH3 0x24F JUMPI PUSH1 0x1F PUSH3 0x2626 CODESIZE DUP2 SWAP1 SUB SWAP2 DUP3 ADD PUSH1 0x1F NOT AND DUP4 ADD SWAP3 SWAP2 SWAP1 PUSH1 0x1 PUSH1 0x1 PUSH1 0x40 SHL SUB DUP5 GT DUP4 DUP6 LT OR PUSH3 0x254 JUMPI DUP2 PUSH1 0x80 SWAP3 DUP5 SWAP3 PUSH1 0x40 SWAP7 DUP8 MSTORE DUP4 CODECOPY DUP2 ADD SUB SLT PUSH3 0x24F JUMPI PUSH3 0x51 DUP2 PUSH3 0x26A JUMP JUMPDEST SWAP1 PUSH1 0x20 DUP2 ADD MLOAD SWAP1 PUSH1 0xFF DUP3 AND DUP3 SUB PUSH3 0x24F JUMPI PUSH3 0x7E PUSH1 0x60 PUSH3 0x76 DUP7 DUP5 ADD PUSH3 0x26A JUMP JUMPDEST SWAP3 ADD PUSH3 0x26A JUMP JUMPDEST PUSH1 0x1 PUSH32 0x9B779B17422D0DF92223018B32B4D1FA46E071723D6817E2486D003BECC55F00 SSTORE SWAP3 PUSH1 0x1 PUSH1 0x1 PUSH1 0xA0 SHL SUB SWAP2 DUP3 DUP3 AND ISZERO PUSH3 0x20B JUMPI DUP3 AND SWAP2 DUP3 ISZERO PUSH3 0x1C7 JUMPI DUP5 AND ISZERO PUSH3 0x193 JUMPI PUSH1 0x1 DUP1 SLOAD PUSH2 0x100 PUSH1 0x1 PUSH1 0xB0 SHL SUB NOT AND PUSH1 0x8 SWAP3 DUP4 SHL PUSH2 0x100 PUSH1 0x1 PUSH1 0xA8 SHL SUB AND OR PUSH1 0xA8 DUP6 SWAP1 SHL PUSH1 0xFF PUSH1 0xA8 SHL AND OR SWAP1 SSTORE PUSH1 0x9 DUP1 SLOAD PUSH1 0x1 PUSH1 0x1 PUSH1 0xA0 SHL SUB NOT AND SWAP3 SWAP1 SWAP3 OR SWAP1 SWAP2 SSTORE PUSH1 0x64 SWAP1 SSTORE PUSH3 0x118 DUP2 PUSH3 0x27F JUMP JUMPDEST SWAP1 DUP2 PUSH1 0x64 MUL SWAP2 PUSH1 0x64 DUP4 DIV SUB PUSH3 0x17D JUMPI PUSH3 0x136 SWAP2 PUSH1 0xA SSTORE PUSH3 0x27F JUMP JUMPDEST SWAP1 PUSH3 0xF4240 SWAP2 DUP1 DUP4 MUL SWAP3 DUP4 DIV SUB PUSH3 0x17D JUMPI PUSH3 0x16E SWAP2 PUSH1 0xB SSTORE PUSH3 0x15B DUP2 PUSH3 0x291 JUMP JUMPDEST POP PUSH3 0x167 DUP2 PUSH3 0x311 JUMP JUMPDEST POP PUSH3 0x3B3 JUMP JUMPDEST POP MLOAD PUSH2 0x21B5 SWAP1 DUP2 PUSH3 0x451 DUP3 CODECOPY RETURN JUMPDEST PUSH4 0x4E487B71 PUSH1 0xE0 SHL PUSH1 0x0 MSTORE PUSH1 0x11 PUSH1 0x4 MSTORE PUSH1 0x24 PUSH1 0x0 REVERT JUMPDEST DUP5 MLOAD PUSH3 0x461BCD PUSH1 0xE5 SHL DUP2 MSTORE PUSH1 0x20 PUSH1 0x4 DUP3 ADD MSTORE PUSH1 0xD PUSH1 0x24 DUP3 ADD MSTORE PUSH13 0x24B73B30B634B21030B236B4B7 PUSH1 0x99 SHL PUSH1 0x44 DUP3 ADD MSTORE PUSH1 0x64 SWAP1 REVERT JUMPDEST DUP6 MLOAD PUSH3 0x461BCD PUSH1 0xE5 SHL DUP2 MSTORE PUSH1 0x20 PUSH1 0x4 DUP3 ADD MSTORE PUSH1 0x15 PUSH1 0x24 DUP3 ADD MSTORE PUSH32 0x496E76616C69642066656520726563697069656E740000000000000000000000 PUSH1 0x44 DUP3 ADD MSTORE PUSH1 0x64 SWAP1 REVERT JUMPDEST DUP6 MLOAD PUSH3 0x461BCD PUSH1 0xE5 SHL DUP2 MSTORE PUSH1 0x20 PUSH1 0x4 DUP3 ADD MSTORE PUSH1 0x15 PUSH1 0x24 DUP3 ADD MSTORE PUSH32 0x496E76616C6964207061796D656E7420746F6B656E0000000000000000000000 PUSH1 0x44 DUP3 ADD MSTORE PUSH1 0x64 SWAP1 REVERT JUMPDEST PUSH1 0x0 DUP1 REVERT JUMPDEST PUSH4 0x4E487B71 PUSH1 0xE0 SHL PUSH1 0x0 MSTORE PUSH1 0x41 PUSH1 0x4 MSTORE PUSH1 0x24 PUSH1 0x0 REVERT JUMPDEST MLOAD SWAP1 PUSH1 0x1 PUSH1 0x1 PUSH1 0xA0 SHL SUB DUP3 AND DUP3 SUB PUSH3 0x24F JUMPI JUMP JUMPDEST PUSH1 0xFF AND PUSH1 0x4D DUP2 GT PUSH3 0x17D JUMPI PUSH1 0xA EXP SWAP1 JUMP JUMPDEST PUSH1 0x1 PUSH1 0x1 PUSH1 0xA0 SHL SUB AND PUSH1 0x0 DUP2 DUP2 MSTORE PUSH32 0xAD3228B676F7D3CD4284A5443F17F1962B36E491B30A40B2405849E597BA5FB5 PUSH1 0x20 MSTORE PUSH1 0x40 DUP2 KECCAK256 SLOAD SWAP1 SWAP2 SWAP1 PUSH1 0xFF AND PUSH3 0x30D JUMPI DUP2 DUP1 MSTORE DUP2 PUSH1 0x20 MSTORE PUSH1 0x40 DUP3 KECCAK256 DUP2 DUP4 MSTORE PUSH1 0x20 MSTORE PUSH1 0x40 DUP3 KECCAK256 PUSH1 0x1 PUSH1 0xFF NOT DUP3 SLOAD AND OR SWAP1 SSTORE CALLER SWAP2 PUSH1 0x0 DUP1 MLOAD PUSH1 0x20 PUSH3 0x2606 DUP4 CODECOPY DUP2 MLOAD SWAP2 MSTORE DUP2 DUP1 LOG4 PUSH1 0x1 SWAP1 JUMP JUMPDEST POP SWAP1 JUMP JUMPDEST PUSH1 0x1 PUSH1 0x1 PUSH1 0xA0 SHL SUB AND PUSH1 0x0 DUP2 DUP2 MSTORE PUSH32 0xEE57CD81E84075558E8FCC182A1F4393F91FC97F963A136E66B7F949A62F319F PUSH1 0x20 MSTORE PUSH1 0x40 DUP2 KECCAK256 SLOAD SWAP1 SWAP2 SWAP1 PUSH32 0x97667070C54EF182B0F5858B034BEAC1B6F3089AA2D3188BB1E8929F4FA9B929 SWAP1 PUSH1 0xFF AND PUSH3 0x3AE JUMPI DUP1 DUP4 MSTORE DUP3 PUSH1 0x20 MSTORE PUSH1 0x40 DUP4 KECCAK256 DUP3 DUP5 MSTORE PUSH1 0x20 MSTORE PUSH1 0x40 DUP4 KECCAK256 PUSH1 0x1 PUSH1 0xFF NOT DUP3 SLOAD AND OR SWAP1 SSTORE PUSH1 0x0 DUP1 MLOAD PUSH1 0x20 PUSH3 0x2606 DUP4 CODECOPY DUP2 MLOAD SWAP2 MSTORE CALLER SWAP4 DUP1 LOG4 PUSH1 0x1 SWAP1 JUMP JUMPDEST POP POP SWAP1 JUMP JUMPDEST PUSH1 0x1 PUSH1 0x1 PUSH1 0xA0 SHL SUB AND PUSH1 0x0 DUP2 DUP2 MSTORE PUSH32 0x792C0AF42D95A40A8803DE265A2327CABBB80439E83C29FEE7E193BB1EA9E423 PUSH1 0x20 MSTORE PUSH1 0x40 DUP2 KECCAK256 SLOAD SWAP1 SWAP2 SWAP1 PUSH32 0x983122906625F2F7C0E71D99E0185FEA9817CF07CD649B03CA16D13A0A12976C SWAP1 PUSH1 0xFF AND PUSH3 0x3AE JUMPI DUP1 DUP4 MSTORE DUP3 PUSH1 0x20 MSTORE PUSH1 0x40 DUP4 KECCAK256 DUP3 DUP5 MSTORE PUSH1 0x20 MSTORE PUSH1 0x40 DUP4 KECCAK256 PUSH1 0x1 PUSH1 0xFF NOT DUP3 SLOAD AND OR SWAP1 SSTORE PUSH1 0x0 DUP1 MLOAD PUSH1 0x20 PUSH3 0x2606 DUP4 CODECOPY DUP2 MLOAD SWAP2 MSTORE CALLER SWAP4 DUP1 LOG4 PUSH1 0x1 SWAP1 JUMP INVALID PUSH1 0x80 PUSH1 0x40 DUP2 DUP2 MSTORE PUSH1 0x4 SWAP1 DUP2 CALLDATASIZE LT ISZERO PUSH2 0x16 JUMPI PUSH1 0x0 DUP1 REVERT JUMPDEST PUSH1 0x0 PUSH1 0xE0 SWAP4 DUP2 CALLDATALOAD DUP6 SHR SWAP1 DUP2 PUSH4 0x1FFC9A7 EQ PUSH2 0x1B74 JUMPI POP DUP1 PUSH4 0xF1AF439 EQ PUSH2 0x1A68 JUMPI DUP1 PUSH4 0x248A9CA3 EQ PUSH2 0x1A3E JUMPI DUP1 PUSH4 0x2E1AAF5A EQ PUSH2 0x1966 JUMPI DUP1 PUSH4 0x2F2FF15D EQ PUSH2 0x193C JUMPI DUP1 PUSH4 0x3013CE29 EQ PUSH2 0x190F JUMPI DUP1 PUSH4 0x325CD796 EQ PUSH2 0x18EA JUMPI DUP1 PUSH4 0x33C91055 EQ PUSH2 0x1886 JUMPI DUP1 PUSH4 0x36568ABE EQ PUSH2 0x1840 JUMPI DUP1 PUSH4 0x3F4BA83A EQ PUSH2 0x17D6 JUMPI DUP1 PUSH4 0x46904840 EQ PUSH2 0x17AD JUMPI DUP1 PUSH4 0x4B5F748A EQ PUSH2 0x1720 JUMPI DUP1 PUSH4 0x4C431F00 EQ PUSH2 0x169E JUMPI DUP1 PUSH4 0x4D298A07 EQ PUSH2 0x167F JUMPI DUP1 PUSH4 0x562509F6 EQ PUSH2 0x1649 JUMPI DUP1 PUSH4 0x5B2440F2 EQ PUSH2 0x160E JUMPI DUP1 PUSH4 0x5C975ABB EQ PUSH2 0x15EA JUMPI DUP1 PUSH4 0x69FE0E2D EQ PUSH2 0x155F JUMPI DUP1 PUSH4 0x7B6A686E EQ PUSH2 0x151D JUMPI DUP1 PUSH4 0x7D25E89D EQ PUSH2 0x12DB JUMPI DUP1 PUSH4 0x8456CB59 EQ PUSH2 0x1281 JUMPI DUP1 PUSH4 0x8A027CB3 EQ PUSH2 0xE9F JUMPI DUP1 PUSH4 0x8C639A85 EQ PUSH2 0xE80 JUMPI DUP1 PUSH4 0x91D14854 EQ PUSH2 0xE3A JUMPI DUP1 PUSH4 0xA217FDDF EQ PUSH2 0xE1F JUMPI DUP1 PUSH4 0xA6685C46 EQ PUSH2 0xB23 JUMPI DUP1 PUSH4 0xB96EA12D EQ PUSH2 0xA89 JUMPI DUP1 PUSH4 0xC56E610E EQ PUSH2 0x9EE JUMPI DUP1 PUSH4 0xD547741F EQ PUSH2 0x9AF JUMPI DUP1 PUSH4 0xDB642394 EQ PUSH2 0x990 JUMPI DUP1 PUSH4 0xDFABB026 EQ PUSH2 0x971 JUMPI DUP1 PUSH4 0xE358F6A2 EQ PUSH2 0x8A9 JUMPI DUP1 PUSH4 0xE74B981B EQ PUSH2 0x85D JUMPI DUP1 PUSH4 0xEEF90B62 EQ PUSH2 0x807 JUMPI DUP1 PUSH4 0xF4154FBD EQ PUSH2 0x50A JUMPI DUP1 PUSH4 0xF5B541A6 EQ PUSH2 0x4CB JUMPI DUP1 PUSH4 0xFB903B1D EQ PUSH2 0x463 JUMPI DUP1 PUSH4 0xFCF3A4C2 EQ PUSH2 0x249 JUMPI PUSH4 0xFD345C8A EQ PUSH2 0x1D2 JUMPI PUSH1 0x0 DUP1 REVERT JUMPDEST CALLVALUE PUSH2 0x246 JUMPI PUSH1 0x20 CALLDATASIZE PUSH1 0x3 NOT ADD SLT PUSH2 0x246 JUMPI SWAP1 DUP1 PUSH1 0xFF SWAP3 DUP5 CALLDATALOAD DUP2 MSTORE PUSH1 0x3 PUSH1 0x20 MSTORE KECCAK256 DUP1 SLOAD SWAP4 PUSH1 0x1 DUP1 PUSH1 0xA0 SHL SUB PUSH1 0x1 DUP4 ADD SLOAD AND SWAP3 PUSH1 0x2 DUP4 ADD SLOAD SWAP1 PUSH1 0x5 PUSH1 0x3 DUP6 ADD SLOAD SWAP4 DUP6 ADD SLOAD SWAP5 ADD SLOAD SWAP5 DUP2 MLOAD SWAP8 DUP9 MSTORE PUSH1 0x20 DUP9 ADD MSTORE DUP7 ADD MSTORE PUSH1 0x60 DUP6 ADD MSTORE PUSH1 0x80 DUP5 ADD MSTORE DUP2 DUP2 AND ISZERO ISZERO PUSH1 0xA0 DUP5 ADD MSTORE PUSH1 0x8 SHR AND ISZERO ISZERO PUSH1 0xC0 DUP3 ADD MSTORE RETURN JUMPDEST DUP1 REVERT JUMPDEST POP SWAP2 CALLVALUE PUSH2 0x45F JUMPI PUSH1 0x20 DUP1 PUSH1 0x3 NOT CALLDATASIZE ADD SLT PUSH2 0x45B JUMPI DUP2 CALLDATALOAD SWAP2 PUSH2 0x268 PUSH2 0x2012 JUMP JUMPDEST DUP3 DUP6 MSTORE PUSH1 0x3 DUP3 MSTORE DUP4 DUP6 KECCAK256 PUSH1 0x1 DUP2 ADD SLOAD PUSH1 0x1 PUSH1 0x1 PUSH1 0xA0 SHL SUB SWAP2 SWAP1 DUP3 AND CALLER SUB PUSH2 0x422 JUMPI PUSH1 0x5 DUP2 ADD DUP1 SLOAD PUSH2 0x29C PUSH1 0xFF DUP3 AND ISZERO PUSH2 0x2042 JUMP JUMPDEST PUSH1 0xFF DUP2 PUSH1 0x8 SHR AND PUSH2 0x3EC JUMPI DUP3 SLOAD SWAP5 DUP6 DUP11 MSTORE PUSH1 0x2 DUP8 MSTORE DUP9 DUP11 KECCAK256 PUSH1 0x6 DUP2 ADD SLOAD SWAP1 PUSH1 0xFF DUP3 PUSH1 0x10 SHR AND SWAP2 PUSH1 0x5 DUP4 LT ISZERO PUSH2 0x3D9 JUMPI PUSH1 0x3 DUP4 EQ SWAP3 DUP4 ISZERO PUSH2 0x3A3 JUMPI JUMPDEST POP POP POP ISZERO PUSH2 0x369 JUMPI POP PUSH2 0x34B SWAP3 PUSH32 0xC6A2F493A6E1D86AA8D73122837EDB3AE830CCF081D0B273177ED6F6EA2B43BD SWAP7 SWAP6 SWAP5 SWAP3 PUSH2 0x100 PUSH1 0x2 SWAP4 PUSH2 0xFF00 NOT AND OR SWAP1 SSTORE ADD SWAP3 DUP4 SLOAD SWAP1 DUP10 MSTORE PUSH1 0x6 DUP6 MSTORE DUP8 DUP10 KECCAK256 CALLER DUP11 MSTORE DUP6 MSTORE PUSH2 0x338 DUP9 DUP11 KECCAK256 SWAP2 DUP3 SLOAD PUSH2 0x20C1 JUMP JUMPDEST SWAP1 SSTORE PUSH1 0x1 SLOAD PUSH1 0x8 SHR AND DUP3 SLOAD SWAP1 CALLER SWAP1 PUSH2 0x20CE JUMP JUMPDEST SLOAD SWAP4 MLOAD SWAP4 DUP5 MSTORE CALLER SWAP4 LOG3 PUSH1 0x1 PUSH1 0x0 DUP1 MLOAD PUSH1 0x20 PUSH2 0x2160 DUP4 CODECOPY DUP2 MLOAD SWAP2 MSTORE SSTORE DUP1 RETURN JUMPDEST DUP9 MLOAD PUSH3 0x461BCD PUSH1 0xE5 SHL DUP2 MSTORE SWAP1 DUP2 ADD DUP8 SWAP1 MSTORE PUSH1 0x14 PUSH1 0x24 DUP3 ADD MSTORE PUSH20 0x526566756E64206E6F7420617661696C61626C65 PUSH1 0x60 SHL PUSH1 0x44 DUP3 ADD MSTORE PUSH1 0x64 SWAP1 REVERT JUMPDEST PUSH1 0x1 EQ SWAP3 POP SWAP1 DUP3 PUSH2 0x3CB JUMPI JUMPDEST POP DUP2 PUSH2 0x3BF JUMPI JUMPDEST POP DUP12 DUP1 DUP1 PUSH2 0x2D7 JUMP JUMPDEST PUSH1 0xFF SWAP2 POP AND ISZERO DUP12 PUSH2 0x3B6 JUMP JUMPDEST PUSH1 0x5 ADD SLOAD TIMESTAMP GT SWAP2 POP DUP13 PUSH2 0x3AF JUMP JUMPDEST PUSH4 0x4E487B71 PUSH1 0xE0 SHL DUP14 MSTORE PUSH1 0x21 DUP5 MSTORE PUSH1 0x24 DUP14 REVERT JUMPDEST DUP8 MLOAD PUSH3 0x461BCD PUSH1 0xE5 SHL DUP2 MSTORE DUP1 DUP7 ADD DUP8 SWAP1 MSTORE PUSH1 0x10 PUSH1 0x24 DUP3 ADD MSTORE PUSH16 0x105B1C9958591E481C99599D5B991959 PUSH1 0x82 SHL PUSH1 0x44 DUP3 ADD MSTORE PUSH1 0x64 SWAP1 REVERT JUMPDEST DUP6 MLOAD PUSH3 0x461BCD PUSH1 0xE5 SHL DUP2 MSTORE DUP1 DUP5 ADD DUP6 SWAP1 MSTORE PUSH1 0x13 PUSH1 0x24 DUP3 ADD MSTORE PUSH19 0x139BDD081E5BDD5C881A5B9D995CDD1B595B9D PUSH1 0x6A SHL PUSH1 0x44 DUP3 ADD MSTORE PUSH1 0x64 SWAP1 REVERT JUMPDEST DUP4 DUP1 REVERT JUMPDEST DUP3 DUP1 REVERT JUMPDEST POP SWAP2 CALLVALUE PUSH2 0x45F JUMPI DUP2 PUSH1 0x3 NOT CALLDATASIZE ADD SLT PUSH2 0x45F JUMPI DUP1 CALLDATALOAD SWAP1 PUSH1 0x24 CALLDATALOAD SWAP3 PUSH2 0x484 PUSH2 0x1D30 JUMP JUMPDEST DUP4 DUP4 LT ISZERO PUSH2 0x497 JUMPI POP POP PUSH1 0xA SSTORE PUSH1 0xB SSTORE DUP1 RETURN JUMPDEST SWAP1 PUSH1 0x20 PUSH1 0x64 SWAP3 MLOAD SWAP2 PUSH3 0x461BCD PUSH1 0xE5 SHL DUP4 MSTORE DUP3 ADD MSTORE PUSH1 0xE PUSH1 0x24 DUP3 ADD MSTORE PUSH14 0x496E76616C6964206C696D697473 PUSH1 0x90 SHL PUSH1 0x44 DUP3 ADD MSTORE REVERT JUMPDEST POP SWAP1 CALLVALUE PUSH2 0x506 JUMPI DUP2 PUSH1 0x3 NOT CALLDATASIZE ADD SLT PUSH2 0x506 JUMPI PUSH1 0x20 SWAP1 MLOAD PUSH32 0x97667070C54EF182B0F5858B034BEAC1B6F3089AA2D3188BB1E8929F4FA9B929 DUP2 MSTORE RETURN JUMPDEST POP DUP1 REVERT JUMPDEST POP DUP3 CALLVALUE PUSH2 0x506 JUMPI PUSH1 0x80 CALLDATASIZE PUSH1 0x3 NOT ADD SLT PUSH2 0x506 JUMPI DUP1 CALLDATALOAD PUSH1 0x24 SWAP4 DUP5 CALLDATALOAD PUSH1 0x44 SWAP4 DUP5 CALLDATALOAD SWAP7 PUSH8 0xFFFFFFFFFFFFFFFF SWAP8 DUP9 DUP2 GT PUSH2 0x803 JUMPI PUSH2 0x548 SWAP1 CALLDATASIZE SWAP1 DUP5 ADD PUSH2 0x1C85 JUMP JUMPDEST SWAP3 SWAP1 SWAP9 PUSH1 0x64 CALLDATALOAD SWAP1 DUP2 GT PUSH2 0x7FF JUMPI PUSH2 0x562 SWAP1 CALLDATASIZE SWAP1 DUP4 ADD PUSH2 0x1C85 JUMP JUMPDEST SWAP2 SWAP1 SWAP8 PUSH32 0x983122906625F2F7C0E71D99E0185FEA9817CF07CD649B03CA16D13A0A12976C SWAP4 DUP5 DUP12 MSTORE PUSH1 0x20 SWAP5 DUP12 DUP7 MSTORE DUP9 DUP13 KECCAK256 CALLER DUP14 MSTORE DUP7 MSTORE PUSH1 0xFF DUP10 DUP14 KECCAK256 SLOAD AND ISZERO PUSH2 0x7E8 JUMPI POP PUSH2 0x5AD PUSH2 0x2012 JUMP JUMPDEST DUP4 DUP7 SUB PUSH2 0x7B5 JUMPI DUP6 ISZERO PUSH2 0x787 JUMPI DUP9 DUP12 MSTORE PUSH1 0x2 DUP6 MSTORE PUSH1 0xFF PUSH1 0x6 DUP10 DUP14 KECCAK256 PUSH2 0x5D4 DUP2 SLOAD ISZERO ISZERO PUSH2 0x1EBB JUMP JUMPDEST ADD SLOAD PUSH1 0x10 SHR AND PUSH1 0x5 DUP2 LT ISZERO PUSH2 0x775 JUMPI DUP4 SUB PUSH2 0x73C JUMPI DUP7 DUP12 DUP13 JUMPDEST DUP7 DUP14 DUP2 DUP4 LT PUSH2 0x712 JUMPI POP POP POP SUB PUSH2 0x6DF JUMPI POP POP PUSH1 0x1 DUP1 SLOAD SWAP1 SWAP9 PUSH1 0x8 SWAP4 PUSH1 0x1 PUSH1 0x1 PUSH1 0xA0 SHL SUB SWAP4 POP SWAP2 PUSH2 0x627 SWAP1 DUP9 SWAP1 ADDRESS SWAP1 CALLER SWAP1 DUP9 SHR DUP8 AND PUSH2 0x1F67 JUMP JUMPDEST DUP11 JUMPDEST DUP7 DUP2 LT PUSH2 0x674 JUMPI DUP12 DUP12 DUP12 PUSH32 0x42825CAB1BCF7F1B4D38787F69D4EECB7FDF52E229C08FFAEB247E32E4AE6EA0 DUP13 DUP13 DUP13 DUP13 DUP4 MLOAD SWAP3 DUP4 MSTORE DUP3 ADD MSTORE LOG2 PUSH1 0x0 DUP1 MLOAD PUSH1 0x20 PUSH2 0x2160 DUP4 CODECOPY DUP2 MLOAD SWAP2 MSTORE SSTORE DUP1 RETURN JUMPDEST DUP13 DUP8 DUP6 DUP14 PUSH2 0x683 DUP6 DUP9 DUP9 PUSH2 0x212F JUMP JUMPDEST CALLDATALOAD PUSH2 0x69B JUMPI JUMPDEST POP POP POP POP PUSH2 0x696 SWAP1 PUSH2 0x1F1E JUMP JUMPDEST PUSH2 0x629 JUMP JUMPDEST SLOAD DUP9 SHR AND SWAP2 PUSH2 0x6AB SWAP2 DUP5 SWAP2 PUSH2 0x212F JUMP JUMPDEST CALLDATALOAD DUP6 DUP2 AND DUP2 SUB PUSH2 0x6DB JUMPI DUP3 SWAP2 PUSH2 0x6D0 SWAP2 PUSH2 0x6C9 PUSH2 0x696 SWAP6 DUP9 DUP9 PUSH2 0x212F JUMP JUMPDEST CALLDATALOAD SWAP2 PUSH2 0x20CE JUMP JUMPDEST SWAP1 POP DUP13 DUP8 DUP6 DUP14 PUSH2 0x689 JUMP JUMPDEST DUP14 DUP1 REVERT JUMPDEST DUP8 MLOAD PUSH3 0x461BCD PUSH1 0xE5 SHL DUP2 MSTORE SWAP3 DUP4 ADD DUP6 SWAP1 MSTORE PUSH1 0xF SWAP1 DUP4 ADD MSTORE PUSH15 0x82DADEEADCE840DAD2E6DAC2E8C6D PUSH1 0x8B SHL SWAP1 DUP3 ADD MSTORE PUSH1 0x64 SWAP1 REVERT JUMPDEST DUP3 PUSH2 0x72E SWAP4 SWAP6 POP PUSH2 0x734 SWAP5 SWAP3 PUSH2 0x727 SWAP3 PUSH2 0x212F JUMP JUMPDEST CALLDATALOAD SWAP1 PUSH2 0x1EFB JUMP JUMPDEST SWAP2 PUSH2 0x1F1E JUMP JUMPDEST SWAP1 DUP9 SWAP2 PUSH2 0x5ED JUMP JUMPDEST DUP8 MLOAD PUSH3 0x461BCD PUSH1 0xE5 SHL DUP2 MSTORE SWAP3 DUP4 ADD DUP6 SWAP1 MSTORE PUSH1 0x15 SWAP1 DUP4 ADD MSTORE PUSH21 0x141C9BDA9958DD081B9BDD0818DBDB5C1B195D1959 PUSH1 0x5A SHL SWAP1 DUP3 ADD MSTORE PUSH1 0x64 SWAP1 REVERT JUMPDEST POP PUSH4 0x4E487B71 PUSH1 0xE0 SHL DUP12 MSTORE PUSH1 0x21 DUP4 MSTORE DUP11 REVERT JUMPDEST DUP8 MLOAD PUSH3 0x461BCD PUSH1 0xE5 SHL DUP2 MSTORE SWAP3 DUP4 ADD DUP6 SWAP1 MSTORE PUSH1 0xA SWAP1 DUP4 ADD MSTORE PUSH10 0x4E6F20686F6C64657273 PUSH1 0xB0 SHL SWAP1 DUP3 ADD MSTORE PUSH1 0x64 SWAP1 REVERT JUMPDEST DUP8 MLOAD PUSH3 0x461BCD PUSH1 0xE5 SHL DUP2 MSTORE SWAP3 DUP4 ADD DUP6 SWAP1 MSTORE PUSH1 0xF SWAP1 DUP4 ADD MSTORE PUSH15 0x98CADCCEE8D040DAD2E6DAC2E8C6D PUSH1 0x8B SHL SWAP1 DUP3 ADD MSTORE PUSH1 0x64 SWAP1 REVERT JUMPDEST DUP9 MLOAD PUSH4 0xE2517D3F PUSH1 0xE0 SHL DUP2 MSTORE CALLER DUP2 DUP7 ADD MSTORE SWAP2 DUP3 ADD MSTORE REVERT JUMPDEST DUP9 DUP1 REVERT JUMPDEST DUP8 DUP1 REVERT JUMPDEST POP SWAP1 CALLVALUE PUSH2 0x506 JUMPI DUP1 PUSH1 0x3 NOT CALLDATASIZE ADD SLT PUSH2 0x506 JUMPI PUSH2 0x821 PUSH2 0x1BC8 JUMP JUMPDEST PUSH1 0x1 PUSH1 0x1 PUSH1 0xA0 SHL SUB AND DUP3 MSTORE PUSH1 0x5 PUSH1 0x20 MSTORE DUP1 DUP3 KECCAK256 DUP1 SLOAD PUSH1 0x24 CALLDATALOAD SWAP4 SWAP1 DUP5 LT ISZERO PUSH2 0x246 JUMPI POP PUSH1 0x20 SWAP3 PUSH2 0x84F SWAP2 PUSH2 0x1C57 JUMP JUMPDEST SWAP2 SWAP1 SLOAD SWAP1 MLOAD SWAP2 PUSH1 0x3 SHL SHR DUP2 MSTORE RETURN JUMPDEST POP CALLVALUE PUSH2 0x246 JUMPI PUSH1 0x20 CALLDATASIZE PUSH1 0x3 NOT ADD SLT PUSH2 0x246 JUMPI PUSH2 0x877 PUSH2 0x1BC8 JUMP JUMPDEST PUSH2 0x87F PUSH2 0x1D30 JUMP JUMPDEST PUSH1 0x1 PUSH1 0x1 PUSH1 0xA0 SHL SUB AND PUSH2 0x893 DUP2 ISZERO ISZERO PUSH2 0x2081 JUMP JUMPDEST PUSH1 0x1 PUSH1 0x1 PUSH1 0x60 SHL SUB PUSH1 0xA0 SHL PUSH1 0x9 SLOAD AND OR PUSH1 0x9 SSTORE DUP1 RETURN JUMPDEST POP SWAP3 POP CALLVALUE PUSH2 0x45F JUMPI PUSH1 0x20 CALLDATASIZE PUSH1 0x3 NOT ADD SLT PUSH2 0x45F JUMPI DUP2 CALLDATALOAD SWAP2 PUSH2 0x8C8 PUSH2 0x1CB6 JUMP JUMPDEST DUP3 DUP5 MSTORE PUSH1 0x2 PUSH1 0x20 MSTORE PUSH1 0x6 DUP3 DUP6 KECCAK256 PUSH2 0x8E1 DUP2 SLOAD ISZERO ISZERO PUSH2 0x1EBB JUMP JUMPDEST ADD SWAP1 DUP2 SLOAD SWAP1 PUSH1 0xFF DUP3 PUSH1 0x10 SHR AND PUSH1 0x5 DUP2 LT ISZERO PUSH2 0x95E JUMPI PUSH2 0x924 JUMPI POP PUSH3 0xFF0000 NOT AND PUSH3 0x10000 OR SWAP1 SSTORE MLOAD PUSH1 0x1 DUP2 MSTORE PUSH1 0x0 DUP1 MLOAD PUSH1 0x20 PUSH2 0x2140 DUP4 CODECOPY DUP2 MLOAD SWAP2 MSTORE SWAP1 PUSH1 0x20 SWAP1 LOG2 DUP1 RETURN JUMPDEST PUSH1 0x64 SWAP1 PUSH1 0x20 DUP6 MLOAD SWAP2 PUSH3 0x461BCD PUSH1 0xE5 SHL DUP4 MSTORE DUP3 ADD MSTORE PUSH1 0x14 PUSH1 0x24 DUP3 ADD MSTORE PUSH20 0x141C9BDA9958DD081B9BDD081A5B88191C98599D PUSH1 0x62 SHL PUSH1 0x44 DUP3 ADD MSTORE REVERT JUMPDEST PUSH4 0x4E487B71 PUSH1 0xE0 SHL DUP8 MSTORE PUSH1 0x21 DUP3 MSTORE PUSH1 0x24 DUP8 REVERT JUMPDEST POP SWAP1 CALLVALUE PUSH2 0x506 JUMPI DUP2 PUSH1 0x3 NOT CALLDATASIZE ADD SLT PUSH2 0x506 JUMPI PUSH1 0x20 SWAP1 PUSH1 0xB SLOAD SWAP1 MLOAD SWAP1 DUP2 MSTORE RETURN JUMPDEST POP SWAP1 CALLVALUE PUSH2 0x506 JUMPI DUP2 PUSH1 0x3 NOT CALLDATASIZE ADD SLT PUSH2 0x506 JUMPI PUSH1 0x20 SWAP1 PUSH1 0x7 SLOAD SWAP1 MLOAD SWAP1 DUP2 MSTORE RETURN JUMPDEST POP SWAP3 POP CALLVALUE PUSH2 0x45F JUMPI DUP1 PUSH1 0x3 NOT CALLDATASIZE ADD SLT PUSH2 0x45F JUMPI PUSH2 0x9EA SWAP2 CALLDATALOAD PUSH2 0x9E5 PUSH1 0x1 PUSH2 0x9D4 PUSH2 0x1BE3 JUMP JUMPDEST SWAP4 DUP4 DUP8 MSTORE DUP7 PUSH1 0x20 MSTORE DUP7 KECCAK256 ADD SLOAD PUSH2 0x1D6A JUMP JUMPDEST PUSH2 0x1E0E JUMP JUMPDEST POP DUP1 RETURN JUMPDEST POP SWAP3 POP CALLVALUE PUSH2 0x45F JUMPI DUP3 PUSH1 0x3 NOT CALLDATASIZE ADD SLT PUSH2 0x45F JUMPI PUSH1 0x1 SLOAD DUP2 MLOAD PUSH4 0x70A08231 PUSH1 0xE0 SHL DUP2 MSTORE ADDRESS SWAP4 DUP2 ADD SWAP4 SWAP1 SWAP4 MSTORE PUSH1 0x20 SWAP1 DUP4 SWAP1 PUSH1 0x24 SWAP1 DUP3 SWAP1 PUSH1 0x8 SHR PUSH1 0x1 PUSH1 0x1 PUSH1 0xA0 SHL SUB AND GAS STATICCALL SWAP2 DUP3 ISZERO PUSH2 0xA7F JUMPI DUP4 SWAP3 PUSH2 0xA48 JUMPI JUMPDEST PUSH1 0x20 DUP4 DUP4 MLOAD SWAP1 DUP2 MSTORE RETURN JUMPDEST SWAP1 SWAP2 POP PUSH1 0x20 DUP2 RETURNDATASIZE DUP3 GT PUSH2 0xA77 JUMPI JUMPDEST DUP2 PUSH2 0xA63 PUSH1 0x20 SWAP4 DUP4 PUSH2 0x1E83 JUMP JUMPDEST DUP2 ADD SUB SLT PUSH2 0x45F JUMPI PUSH1 0x20 SWAP3 POP MLOAD SWAP1 CODESIZE PUSH2 0xA3E JUMP JUMPDEST RETURNDATASIZE SWAP2 POP PUSH2 0xA56 JUMP JUMPDEST DUP2 MLOAD RETURNDATASIZE DUP6 DUP3 RETURNDATACOPY RETURNDATASIZE SWAP1 REVERT JUMPDEST POP SWAP2 DUP4 CALLVALUE PUSH2 0x45B JUMPI PUSH1 0x20 CALLDATASIZE PUSH1 0x3 NOT ADD SLT PUSH2 0x45B JUMPI SWAP1 PUSH2 0xB21 SWAP2 DUP4 PUSH2 0x120 SWAP6 DUP4 CALLDATALOAD DUP2 MSTORE PUSH1 0x2 PUSH1 0x20 MSTORE KECCAK256 DUP1 SLOAD SWAP5 PUSH1 0x1 DUP1 PUSH1 0xA0 SHL SUB PUSH1 0x1 DUP4 ADD SLOAD AND SWAP4 PUSH1 0x2 DUP4 ADD SLOAD PUSH1 0x3 DUP5 ADD SLOAD SWAP2 DUP5 ADD SLOAD SWAP3 PUSH1 0x6 PUSH1 0x5 DUP7 ADD SLOAD SWAP6 ADD SLOAD SWAP7 DUP2 MLOAD SWAP10 DUP11 MSTORE PUSH1 0x20 DUP11 ADD MSTORE DUP9 ADD MSTORE PUSH1 0x60 DUP8 ADD MSTORE PUSH1 0x80 DUP7 ADD MSTORE PUSH1 0xA0 DUP6 ADD MSTORE PUSH1 0xFF DUP3 AND ISZERO ISZERO PUSH1 0xC0 DUP6 ADD MSTORE PUSH1 0xFF DUP3 PUSH1 0x8 SHR AND ISZERO ISZERO SWAP1 DUP5 ADD MSTORE PUSH1 0xFF PUSH2 0x100 DUP5 ADD SWAP2 PUSH1 0x10 SHR AND PUSH2 0x1C34 JUMP JUMPDEST RETURN JUMPDEST POP SWAP2 SWAP3 CALLVALUE PUSH2 0x45F JUMPI PUSH1 0xA0 CALLDATASIZE PUSH1 0x3 NOT ADD SLT PUSH2 0x45F JUMPI DUP4 CALLDATALOAD SWAP2 PUSH2 0xB42 PUSH2 0x1BE3 JUMP JUMPDEST SWAP1 PUSH1 0x44 SWAP3 DUP4 CALLDATALOAD SWAP4 PUSH1 0x64 SWAP1 DUP2 CALLDATALOAD PUSH1 0x84 CALLDATALOAD SWAP1 PUSH2 0xB5A PUSH2 0x1CB6 JUMP JUMPDEST DUP9 DUP11 MSTORE PUSH1 0x20 SWAP4 PUSH1 0x2 DUP6 MSTORE DUP7 DUP12 KECCAK256 SLOAD PUSH2 0xDE7 JUMPI PUSH1 0x1 PUSH1 0x1 PUSH1 0xA0 SHL SUB DUP9 DUP2 AND SWAP5 SWAP1 SWAP2 SWAP1 DUP6 ISZERO PUSH2 0xDAF JUMPI DUP11 ISZERO PUSH2 0xD70 JUMPI TIMESTAMP DUP5 LT PUSH2 0xD31 JUMPI DUP4 DUP6 GT ISZERO PUSH2 0xCF2 JUMPI POP POP DUP7 MLOAD SWAP4 PUSH2 0x120 DUP6 ADD DUP6 DUP2 LT PUSH8 0xFFFFFFFFFFFFFFFF DUP3 GT OR PUSH2 0xCDE JUMPI SWAP2 DUP13 SWAP2 DUP13 SWAP8 SWAP7 SWAP6 SWAP5 SWAP4 DUP11 MSTORE DUP8 DUP7 MSTORE DUP7 DUP7 ADD SWAP1 DUP2 MSTORE DUP10 DUP7 ADD SWAP2 DUP13 DUP4 MSTORE DUP11 PUSH1 0x60 DUP9 ADD SWAP5 DUP1 DUP7 MSTORE PUSH1 0x80 DUP10 ADD SWAP7 DUP8 MSTORE PUSH1 0xA0 DUP10 ADD SWAP8 DUP9 MSTORE PUSH1 0xC0 DUP10 ADD SWAP12 DUP2 DUP14 MSTORE DUP10 ADD SWAP10 DUP2 DUP12 MSTORE PUSH2 0x100 DUP11 ADD SWAP12 DUP3 DUP14 MSTORE DUP3 MSTORE PUSH1 0x2 SWAP1 MSTORE KECCAK256 SWAP7 MLOAD DUP8 SSTORE PUSH1 0x1 DUP8 ADD SWAP2 MLOAD AND PUSH1 0x1 PUSH1 0x1 PUSH1 0x60 SHL SUB PUSH1 0xA0 SHL DUP3 SLOAD AND OR SWAP1 SSTORE MLOAD PUSH1 0x2 DUP6 ADD SSTORE MLOAD PUSH1 0x3 DUP5 ADD SSTORE MLOAD DUP12 DUP4 ADD SSTORE MLOAD PUSH1 0x5 DUP3 ADD SSTORE PUSH1 0x6 ADD SWAP3 MLOAD ISZERO ISZERO PUSH2 0xC53 SWAP1 DUP5 SWAP1 PUSH1 0xFF DUP1 NOT DUP4 SLOAD AND SWAP2 ISZERO ISZERO AND OR SWAP1 SSTORE JUMP JUMPDEST MLOAD DUP3 SLOAD PUSH2 0xFF00 NOT AND SWAP1 ISZERO ISZERO PUSH1 0x8 SHL PUSH2 0xFF00 AND OR DUP3 SSTORE MLOAD PUSH1 0x5 DUP2 LT ISZERO PUSH2 0xCCB JUMPI DUP2 SLOAD PUSH3 0xFF0000 NOT AND PUSH1 0x10 SWAP2 SWAP1 SWAP2 SHL PUSH3 0xFF0000 AND OR SWAP1 SSTORE MLOAD PUSH1 0x1 PUSH1 0x1 PUSH1 0xA0 SHL SUB SWAP1 SWAP2 AND DUP2 MSTORE PUSH1 0x20 DUP2 ADD SWAP2 SWAP1 SWAP2 MSTORE PUSH32 0x180774375EF39389CB651D758650EB357746210F60EE333A675D3B6C4343B25 SWAP1 DUP1 PUSH1 0x40 DUP2 ADD SUB SWAP1 LOG2 DUP1 RETURN JUMPDEST PUSH4 0x4E487B71 PUSH1 0xE0 SHL DUP8 MSTORE PUSH1 0x21 DUP9 MSTORE PUSH1 0x24 DUP8 REVERT JUMPDEST POP PUSH4 0x4E487B71 PUSH1 0xE0 SHL DUP13 MSTORE PUSH1 0x41 DUP14 MSTORE PUSH1 0x24 DUP13 REVERT JUMPDEST PUSH32 0x456E64206D757374206265206166746572207374617274000000000000000000 DUP15 SWAP2 DUP9 DUP12 MLOAD SWAP4 PUSH3 0x461BCD PUSH1 0xE5 SHL DUP6 MSTORE DUP5 ADD MSTORE PUSH1 0x17 PUSH1 0x24 DUP5 ADD MSTORE DUP3 ADD MSTORE REVERT JUMPDEST PUSH32 0x53746172742074696D65206D75737420626520696E2066757475726500000000 DUP15 SWAP2 DUP9 DUP12 MLOAD SWAP4 PUSH3 0x461BCD PUSH1 0xE5 SHL DUP6 MSTORE DUP5 ADD MSTORE PUSH1 0x1C PUSH1 0x24 DUP5 ADD MSTORE DUP3 ADD MSTORE REVERT JUMPDEST PUSH32 0x546172676574206D75737420626520706F736974697665000000000000000000 DUP15 SWAP2 DUP9 DUP12 MLOAD SWAP4 PUSH3 0x461BCD PUSH1 0xE5 SHL DUP6 MSTORE DUP5 ADD MSTORE PUSH1 0x17 PUSH1 0x24 DUP5 ADD MSTORE DUP3 ADD MSTORE REVERT JUMPDEST PUSH22 0x125B9D985B1A59081D1BDAD95B8818DBDB9D1C9858DD PUSH1 0x52 SHL DUP15 SWAP2 DUP9 DUP12 MLOAD SWAP4 PUSH3 0x461BCD PUSH1 0xE5 SHL DUP6 MSTORE DUP5 ADD MSTORE PUSH1 0x16 PUSH1 0x24 DUP5 ADD MSTORE DUP3 ADD MSTORE REVERT JUMPDEST DUP7 MLOAD PUSH3 0x461BCD PUSH1 0xE5 SHL DUP2 MSTORE DUP1 DUP14 ADD DUP7 SWAP1 MSTORE PUSH1 0x16 PUSH1 0x24 DUP3 ADD MSTORE PUSH22 0x50726F6A65637420616C726561647920657869737473 PUSH1 0x50 SHL DUP2 DUP7 ADD MSTORE REVERT JUMPDEST POP SWAP1 CALLVALUE PUSH2 0x506 JUMPI DUP2 PUSH1 0x3 NOT CALLDATASIZE ADD SLT PUSH2 0x506 JUMPI MLOAD SWAP1 DUP2 MSTORE PUSH1 0x20 SWAP1 RETURN JUMPDEST POP SWAP2 CALLVALUE PUSH2 0x45F JUMPI DUP2 PUSH1 0x3 NOT CALLDATASIZE ADD SLT PUSH2 0x45F JUMPI DUP2 PUSH1 0x20 SWAP4 PUSH1 0xFF SWAP3 PUSH2 0xE5B PUSH2 0x1BE3 JUMP JUMPDEST SWAP1 CALLDATALOAD DUP3 MSTORE DUP2 DUP7 MSTORE DUP3 DUP3 KECCAK256 PUSH1 0x1 PUSH1 0x1 PUSH1 0xA0 SHL SUB SWAP1 SWAP2 AND DUP3 MSTORE DUP6 MSTORE KECCAK256 SLOAD SWAP2 MLOAD SWAP2 AND ISZERO ISZERO DUP2 MSTORE RETURN JUMPDEST POP SWAP1 CALLVALUE PUSH2 0x506 JUMPI DUP2 PUSH1 0x3 NOT CALLDATASIZE ADD SLT PUSH2 0x506 JUMPI PUSH1 0x20 SWAP1 PUSH1 0x8 SLOAD SWAP1 MLOAD SWAP1 DUP2 MSTORE RETURN JUMPDEST POP DUP3 DUP5 CALLVALUE PUSH2 0x45F JUMPI PUSH1 0x60 CALLDATASIZE PUSH1 0x3 NOT ADD SLT PUSH2 0x45F JUMPI DUP2 CALLDATALOAD SWAP1 PUSH1 0x24 SWAP5 DUP6 CALLDATALOAD SWAP4 PUSH1 0x44 DUP1 CALLDATALOAD SWAP2 PUSH2 0xEC9 PUSH2 0x2012 JUMP JUMPDEST PUSH2 0xED1 PUSH2 0x1FF4 JUMP JUMPDEST DUP6 DUP9 MSTORE PUSH1 0x20 SWAP2 PUSH1 0x2 DUP4 MSTORE DUP5 DUP10 KECCAK256 PUSH2 0xEEA DUP2 SLOAD ISZERO ISZERO PUSH2 0x1EBB JUMP JUMPDEST PUSH1 0x6 DUP2 ADD SWAP3 PUSH1 0xFF DUP5 SLOAD PUSH1 0x10 SHR AND PUSH1 0x5 DUP2 LT ISZERO PUSH2 0x126F JUMPI PUSH1 0x1 SUB PUSH2 0x1239 JUMPI DUP1 DUP3 ADD SLOAD TIMESTAMP LT PUSH2 0x1202 JUMPI PUSH1 0x5 DUP3 ADD SLOAD TIMESTAMP GT PUSH2 0x11D1 JUMPI PUSH1 0xA SLOAD DUP11 LT PUSH2 0x1190 JUMPI PUSH1 0xB SLOAD DUP11 GT PUSH2 0x114F JUMPI PUSH1 0x3 DUP3 ADD SWAP3 PUSH1 0x2 PUSH2 0xF40 DUP13 DUP7 SLOAD PUSH2 0x1EFB JUMP JUMPDEST SWAP4 ADD SWAP3 DUP4 SLOAD LT PUSH2 0x111D JUMPI POP PUSH1 0x1 SLOAD PUSH1 0x1 PUSH1 0x1 PUSH1 0xA0 SHL SUB SWAP9 SWAP1 PUSH2 0xF6C SWAP1 DUP13 SWAP1 ADDRESS SWAP1 CALLER SWAP1 PUSH1 0x8 SHR DUP14 AND PUSH2 0x1F67 JUMP JUMPDEST PUSH1 0x7 SLOAD SWAP9 PUSH2 0xF79 DUP11 PUSH2 0x1F1E JUMP JUMPDEST PUSH1 0x7 SSTORE DUP9 MLOAD SWAP2 DUP3 ADD DUP3 DUP2 LT PUSH8 0xFFFFFFFFFFFFFFFF DUP3 GT OR PUSH2 0x110B JUMPI DUP14 SWAP15 POP SWAP13 PUSH2 0x104D PUSH1 0x5 DUP15 SWAP16 SWAP5 DUP15 SWAP16 SWAP14 SWAP15 DUP16 SWAP1 PUSH32 0xEAAB3FFEDEF9A605A09E866A86CC8123E3247E2730EA9B6E8FF01C3AADD0C673 SWAP16 DUP16 DUP16 SWAP3 SWAP9 DUP16 SWAP2 DUP10 SWAP11 PUSH2 0x1064 SWAP13 DUP3 MSTORE DUP8 MSTORE DUP10 PUSH1 0x3 DUP5 DUP10 ADD SWAP5 CALLER DUP7 MSTORE DUP4 DUP11 ADD SWAP7 DUP8 MSTORE PUSH1 0x60 DUP11 ADD SWAP8 DUP9 MSTORE PUSH1 0x80 DUP11 ADD SWAP9 TIMESTAMP DUP11 MSTORE PUSH1 0xA0 DUP12 ADD SWAP15 DUP16 MSTORE PUSH1 0xC0 DUP12 ADD SWAP14 DUP15 MSTORE DUP4 MSTORE MSTORE KECCAK256 SWAP6 MLOAD DUP7 SSTORE PUSH1 0x1 DUP7 ADD SWAP2 MLOAD AND PUSH1 0x1 PUSH1 0x1 PUSH1 0x60 SHL SUB PUSH1 0xA0 SHL DUP3 SLOAD AND OR SWAP1 SSTORE MLOAD PUSH1 0x2 DUP5 ADD SSTORE MLOAD PUSH1 0x3 DUP4 ADD SSTORE MLOAD DUP8 DUP3 ADD SSTORE ADD SWAP3 MLOAD ISZERO ISZERO DUP4 SWAP1 PUSH1 0xFF DUP1 NOT DUP4 SLOAD AND SWAP2 ISZERO ISZERO AND OR SWAP1 SSTORE JUMP JUMPDEST MLOAD DUP2 SLOAD PUSH2 0xFF00 NOT AND SWAP1 ISZERO ISZERO PUSH1 0x8 SHL PUSH2 0xFF00 AND OR SWAP1 SSTORE JUMP JUMPDEST DUP10 DUP13 MSTORE DUP5 MSTORE PUSH2 0x1075 DUP9 DUP8 DUP14 KECCAK256 PUSH2 0x1F2D JUMP JUMPDEST CALLER DUP12 MSTORE PUSH1 0x5 DUP5 MSTORE PUSH2 0x1088 DUP9 DUP8 DUP14 KECCAK256 PUSH2 0x1F2D JUMP JUMPDEST DUP9 DUP12 MSTORE PUSH1 0x6 DUP5 MSTORE DUP6 DUP12 KECCAK256 CALLER DUP13 MSTORE DUP5 MSTORE DUP6 DUP12 KECCAK256 PUSH2 0x10A5 DUP12 DUP3 SLOAD PUSH2 0x1EFB JUMP JUMPDEST SWAP1 SSTORE PUSH2 0x10B2 DUP11 DUP4 SLOAD PUSH2 0x1EFB JUMP JUMPDEST DUP1 SWAP3 SSTORE SLOAD GT ISZERO PUSH2 0x10DE JUMPI JUMPDEST POP DUP3 MLOAD SWAP7 DUP8 MSTORE DUP7 ADD MSTORE CALLER SWAP5 LOG4 PUSH1 0x1 PUSH1 0x0 DUP1 MLOAD PUSH1 0x20 PUSH2 0x2160 DUP4 CODECOPY DUP2 MLOAD SWAP2 MSTORE SSTORE DUP1 RETURN JUMPDEST PUSH3 0x20001 PUSH3 0xFF00FF NOT DUP3 SLOAD AND OR SWAP1 SSTORE DUP6 PUSH1 0x0 DUP1 MLOAD PUSH1 0x20 PUSH2 0x2140 DUP4 CODECOPY DUP2 MLOAD SWAP2 MSTORE DUP3 DUP6 MLOAD PUSH1 0x2 DUP2 MSTORE LOG2 DUP9 PUSH2 0x10BD JUMP JUMPDEST PUSH4 0x4E487B71 PUSH1 0xE0 SHL DUP15 MSTORE PUSH1 0x41 DUP5 MSTORE DUP15 DUP15 REVERT JUMPDEST DUP8 MLOAD PUSH3 0x461BCD PUSH1 0xE5 SHL DUP2 MSTORE SWAP2 DUP3 ADD DUP7 SWAP1 MSTORE PUSH1 0xE DUP3 DUP15 ADD MSTORE PUSH14 0x115E18D959591CC81D185C99D95D PUSH1 0x92 SHL SWAP1 DUP3 ADD MSTORE PUSH1 0x64 SWAP1 REVERT JUMPDEST DUP7 MLOAD PUSH3 0x461BCD PUSH1 0xE5 SHL DUP2 MSTORE SWAP1 DUP2 ADD DUP6 SWAP1 MSTORE PUSH1 0x18 DUP2 DUP14 ADD MSTORE PUSH32 0x41626F7665206D6178696D756D20696E766573746D656E740000000000000000 DUP2 DUP5 ADD MSTORE PUSH1 0x64 SWAP1 REVERT JUMPDEST DUP7 MLOAD PUSH3 0x461BCD PUSH1 0xE5 SHL DUP2 MSTORE SWAP1 DUP2 ADD DUP6 SWAP1 MSTORE PUSH1 0x18 DUP2 DUP14 ADD MSTORE PUSH32 0x42656C6F77206D696E696D756D20696E766573746D656E740000000000000000 DUP2 DUP5 ADD MSTORE PUSH1 0x64 SWAP1 REVERT JUMPDEST DUP7 MLOAD PUSH3 0x461BCD PUSH1 0xE5 SHL DUP2 MSTORE SWAP1 DUP2 ADD DUP6 SWAP1 MSTORE PUSH1 0xD DUP2 DUP14 ADD MSTORE PUSH13 0x119D5B991A5B99C8195B991959 PUSH1 0x9A SHL DUP2 DUP5 ADD MSTORE PUSH1 0x64 SWAP1 REVERT JUMPDEST DUP7 MLOAD PUSH3 0x461BCD PUSH1 0xE5 SHL DUP2 MSTORE SWAP1 DUP2 ADD DUP6 SWAP1 MSTORE PUSH1 0x13 DUP2 DUP14 ADD MSTORE PUSH19 0x119D5B991A5B99C81B9BDD081CDD185C9D1959 PUSH1 0x6A SHL DUP2 DUP5 ADD MSTORE PUSH1 0x64 SWAP1 REVERT JUMPDEST DUP7 MLOAD PUSH3 0x461BCD PUSH1 0xE5 SHL DUP2 MSTORE SWAP1 DUP2 ADD DUP6 SWAP1 MSTORE PUSH1 0x12 DUP2 DUP14 ADD MSTORE PUSH18 0x50726F6A656374206E6F7420616374697665 PUSH1 0x70 SHL DUP2 DUP5 ADD MSTORE PUSH1 0x64 SWAP1 REVERT JUMPDEST PUSH4 0x4E487B71 PUSH1 0xE0 SHL DUP13 MSTORE PUSH1 0x21 DUP3 MSTORE DUP13 DUP13 REVERT JUMPDEST POP SWAP1 CALLVALUE PUSH2 0x506 JUMPI DUP2 PUSH1 0x3 NOT CALLDATASIZE ADD SLT PUSH2 0x506 JUMPI PUSH1 0x20 PUSH32 0x62E78CEA01BEE320CD4E420270B5EA74000D11B0C9F74754EBDBFC544B05A258 SWAP2 PUSH2 0x12BF PUSH2 0x1D30 JUMP JUMPDEST PUSH2 0x12C7 PUSH2 0x1FF4 JUMP JUMPDEST PUSH1 0x1 PUSH1 0xFF NOT DUP2 SLOAD AND OR PUSH1 0x1 SSTORE MLOAD CALLER DUP2 MSTORE LOG1 DUP1 RETURN JUMPDEST POP SWAP3 POP CALLVALUE PUSH2 0x45F JUMPI DUP1 PUSH1 0x3 NOT CALLDATASIZE ADD SLT PUSH2 0x45F JUMPI DUP2 CALLDATALOAD SWAP1 PUSH2 0x12F9 PUSH2 0x1BE3 JUMP JUMPDEST PUSH2 0x1301 PUSH2 0x1CB6 JUMP JUMPDEST PUSH2 0x1309 PUSH2 0x2012 JUMP JUMPDEST DUP3 DUP6 MSTORE PUSH1 0x20 SWAP4 PUSH1 0x2 DUP6 MSTORE DUP3 DUP7 KECCAK256 SWAP3 PUSH2 0x1323 DUP5 SLOAD ISZERO ISZERO PUSH2 0x1EBB JUMP JUMPDEST PUSH1 0x6 DUP5 ADD SWAP6 DUP7 SLOAD SWAP3 PUSH1 0xFF DUP5 PUSH1 0x10 SHR AND SWAP4 PUSH1 0x5 SWAP5 DUP6 DUP2 LT ISZERO PUSH2 0x150A JUMPI PUSH1 0x2 SUB PUSH2 0x14DB JUMPI PUSH2 0x1355 PUSH1 0xFF DUP3 PUSH1 0x8 SHR AND ISZERO PUSH2 0x2042 JUMP JUMPDEST PUSH1 0x1 PUSH1 0x1 PUSH1 0xA0 SHL SUB SWAP6 PUSH2 0x136B DUP2 DUP9 AND ISZERO ISZERO PUSH2 0x2081 JUMP JUMPDEST PUSH1 0x3 DUP1 SWAP9 ADD SLOAD SWAP10 PUSH1 0x8 SLOAD DUP1 DUP13 MUL SWAP1 DUP13 DUP3 DIV EQ DUP13 ISZERO OR ISZERO PUSH2 0x14C8 JUMPI PUSH2 0x1398 PUSH2 0x2710 PUSH3 0x40100 SWAP3 DIV DUP1 SWAP14 PUSH2 0x20C1 JUMP JUMPDEST SWAP4 PUSH3 0xFFFF00 NOT AND OR SWAP1 SSTORE DUP9 DUP12 MSTORE DUP3 DUP5 MSTORE DUP5 DUP12 KECCAK256 SWAP7 DUP12 JUMPDEST DUP13 DUP10 SLOAD DUP3 LT ISZERO PUSH2 0x1422 JUMPI SWAP1 DUP12 PUSH2 0x141D SWAP3 PUSH32 0x97BAECEA6C563F419056A279E67E77EDE2AE5EA626790B8C2B1EC451D3121C7D DUP14 PUSH2 0x1410 DUP6 DUP16 DUP16 DUP16 DUP16 DUP7 SWAP1 PUSH2 0x13F4 DUP7 DUP7 PUSH2 0x1C57 JUMP JUMPDEST SWAP1 SLOAD SWAP1 DUP4 SHL SHR DUP11 MSTORE MSTORE DUP8 KECCAK256 ADD DUP1 SLOAD PUSH1 0xFF NOT AND PUSH1 0x1 OR SWAP1 SSTORE PUSH2 0x1C57 JUMP JUMPDEST SWAP1 SLOAD SWAP2 SHL SHR SWAP2 DUP1 LOG3 PUSH2 0x1F1E JUMP JUMPDEST PUSH2 0x13AE JUMP JUMPDEST DUP12 PUSH1 0x0 DUP1 MLOAD PUSH1 0x20 PUSH2 0x2140 DUP4 CODECOPY DUP2 MLOAD SWAP2 MSTORE DUP9 DUP16 DUP12 DUP5 PUSH32 0x75D86E5BFA1175E2DC677F3ABE3AEBBA3069F2DB6AE492F1734D4B4BC65F61C1 DUP12 DUP12 PUSH2 0x1475 DUP16 SWAP7 DUP3 DUP15 DUP6 SWAP3 DUP1 PUSH2 0x14AB JUMPI JUMPDEST POP PUSH1 0x1 SLOAD PUSH1 0x8 SHR AND PUSH2 0x20CE JUMP JUMPDEST DUP5 MLOAD PUSH1 0x1 PUSH1 0x1 PUSH1 0xA0 SHL SUB SWAP2 SWAP1 SWAP2 AND DUP2 MSTORE PUSH1 0x20 DUP2 ADD SWAP2 SWAP1 SWAP2 MSTORE PUSH1 0x40 SWAP1 LOG2 MLOAD SWAP1 DUP2 MSTORE LOG2 PUSH1 0x1 PUSH1 0x0 DUP1 MLOAD PUSH1 0x20 PUSH2 0x2160 DUP4 CODECOPY DUP2 MLOAD SWAP2 MSTORE SSTORE DUP1 RETURN JUMPDEST PUSH2 0x14C2 SWAP1 DUP3 PUSH1 0x1 SLOAD PUSH1 0x8 SHR AND DUP4 PUSH1 0x9 SLOAD AND SWAP1 PUSH2 0x20CE JUMP JUMPDEST DUP15 PUSH2 0x1468 JUMP JUMPDEST PUSH4 0x4E487B71 PUSH1 0xE0 SHL DUP14 MSTORE PUSH1 0x11 DUP6 MSTORE PUSH1 0x24 DUP14 REVERT JUMPDEST POP SWAP2 MLOAD PUSH3 0x461BCD PUSH1 0xE5 SHL DUP2 MSTORE SWAP2 DUP3 ADD MSTORE PUSH1 0xA PUSH1 0x24 DUP3 ADD MSTORE PUSH10 0x139BDD08199D5B991959 PUSH1 0xB2 SHL PUSH1 0x44 DUP3 ADD MSTORE PUSH1 0x64 SWAP1 REVERT JUMPDEST PUSH4 0x4E487B71 PUSH1 0xE0 SHL DUP12 MSTORE PUSH1 0x21 DUP4 MSTORE PUSH1 0x24 DUP12 REVERT JUMPDEST POP SWAP2 CALLVALUE PUSH2 0x45F JUMPI DUP2 PUSH1 0x3 NOT CALLDATASIZE ADD SLT PUSH2 0x45F JUMPI PUSH1 0x20 SWAP3 DUP3 SWAP2 PUSH2 0x153C PUSH2 0x1BE3 JUMP JUMPDEST SWAP1 CALLDATALOAD DUP3 MSTORE PUSH1 0x6 DUP6 MSTORE DUP3 DUP3 KECCAK256 PUSH1 0x1 PUSH1 0x1 PUSH1 0xA0 SHL SUB SWAP1 SWAP2 AND DUP3 MSTORE DUP5 MSTORE KECCAK256 SLOAD SWAP1 MLOAD SWAP1 DUP2 MSTORE RETURN JUMPDEST POP SWAP3 POP CALLVALUE PUSH2 0x45F JUMPI PUSH1 0x20 CALLDATASIZE PUSH1 0x3 NOT ADD SLT PUSH2 0x45F JUMPI DUP2 CALLDATALOAD SWAP2 PUSH2 0x157E PUSH2 0x1D30 JUMP JUMPDEST PUSH2 0x3E8 DUP4 GT PUSH2 0x15B9 JUMPI POP DUP2 PUSH1 0x20 SWAP2 PUSH32 0x8C4D35E54A3F2EF1134138FD8EA3DAEE6A3C89E10D2665996BABDF70261E2C76 SWAP4 PUSH1 0x8 SSTORE MLOAD SWAP1 DUP2 MSTORE LOG1 DUP1 RETURN JUMPDEST PUSH1 0x20 PUSH1 0x64 SWAP3 MLOAD SWAP2 PUSH3 0x461BCD PUSH1 0xE5 SHL DUP4 MSTORE DUP3 ADD MSTORE PUSH1 0xC PUSH1 0x24 DUP3 ADD MSTORE PUSH12 0x8CCACA40E8DEDE40D0D2CED PUSH1 0xA3 SHL PUSH1 0x44 DUP3 ADD MSTORE REVERT JUMPDEST POP SWAP1 CALLVALUE PUSH2 0x506 JUMPI DUP2 PUSH1 0x3 NOT CALLDATASIZE ADD SLT PUSH2 0x506 JUMPI PUSH1 0x20 SWAP1 PUSH1 0xFF PUSH1 0x1 SLOAD AND SWAP1 MLOAD SWAP1 ISZERO ISZERO DUP2 MSTORE RETURN JUMPDEST POP SWAP1 CALLVALUE PUSH2 0x506 JUMPI DUP2 PUSH1 0x3 NOT CALLDATASIZE ADD SLT PUSH2 0x506 JUMPI PUSH1 0x20 SWAP1 MLOAD PUSH32 0x983122906625F2F7C0E71D99E0185FEA9817CF07CD649B03CA16D13A0A12976C DUP2 MSTORE RETURN JUMPDEST POP CALLVALUE PUSH2 0x246 JUMPI DUP2 PUSH1 0x3 NOT CALLDATASIZE ADD SLT PUSH2 0x246 JUMPI PUSH1 0x24 CALLDATALOAD SWAP3 DUP1 CALLDATALOAD DUP3 MSTORE PUSH1 0x20 MSTORE DUP2 DUP2 KECCAK256 SWAP1 DUP2 SLOAD DUP5 LT ISZERO PUSH2 0x246 JUMPI POP PUSH1 0x20 SWAP3 PUSH2 0x84F SWAP2 PUSH2 0x1C57 JUMP JUMPDEST POP SWAP1 CALLVALUE PUSH2 0x506 JUMPI DUP2 PUSH1 0x3 NOT CALLDATASIZE ADD SLT PUSH2 0x506 JUMPI PUSH1 0x20 SWAP1 PUSH1 0xA SLOAD SWAP1 MLOAD SWAP1 DUP2 MSTORE RETURN JUMPDEST POP SWAP1 CALLVALUE PUSH2 0x506 JUMPI PUSH1 0x20 SWAP1 DUP2 PUSH1 0x3 NOT CALLDATASIZE ADD SLT PUSH2 0x45F JUMPI PUSH1 0x1 PUSH1 0x1 PUSH1 0xA0 SHL SUB PUSH2 0x16C3 PUSH2 0x1BC8 JUMP JUMPDEST AND DUP4 MSTORE PUSH1 0x5 DUP3 MSTORE DUP1 DUP4 KECCAK256 SWAP3 DUP2 MLOAD DUP1 SWAP4 DUP1 DUP7 SLOAD SWAP3 DUP4 DUP2 MSTORE ADD SWAP6 DUP4 MSTORE DUP1 DUP4 KECCAK256 SWAP3 SWAP1 JUMPDEST DUP3 DUP3 LT PUSH2 0x1709 JUMPI PUSH2 0x1705 DUP7 DUP7 PUSH2 0x16FB DUP3 DUP12 SUB DUP4 PUSH2 0x1E83 JUMP JUMPDEST MLOAD SWAP2 DUP3 SWAP2 DUP3 PUSH2 0x1BF9 JUMP JUMPDEST SUB SWAP1 RETURN JUMPDEST DUP4 SLOAD DUP8 MSTORE SWAP6 DUP7 ADD SWAP6 PUSH1 0x1 SWAP4 DUP5 ADD SWAP4 SWAP1 SWAP2 ADD SWAP1 PUSH2 0x16E3 JUMP JUMPDEST POP SWAP2 DUP4 CALLVALUE PUSH2 0x45B JUMPI PUSH1 0x20 CALLDATASIZE PUSH1 0x3 NOT ADD SLT PUSH2 0x45B JUMPI SWAP1 PUSH1 0xFF PUSH2 0xB21 SWAP3 DUP5 PUSH2 0x100 SWAP7 DUP5 CALLDATALOAD DUP2 MSTORE PUSH1 0x2 PUSH1 0x20 MSTORE KECCAK256 PUSH1 0x1 DUP1 PUSH1 0xA0 SHL SUB PUSH1 0x1 DUP3 ADD SLOAD AND SWAP6 PUSH1 0x2 DUP3 ADD SLOAD SWAP5 PUSH1 0x3 DUP4 ADD SLOAD SWAP1 DUP4 ADD SLOAD SWAP2 PUSH1 0x6 PUSH1 0x5 DUP6 ADD SLOAD SWAP5 ADD SLOAD SWAP7 DUP2 MLOAD SWAP10 DUP11 MSTORE PUSH1 0x20 DUP11 ADD MSTORE DUP9 ADD MSTORE PUSH1 0x60 DUP8 ADD MSTORE PUSH1 0x80 DUP7 ADD MSTORE DUP2 DUP4 AND ISZERO ISZERO PUSH1 0xA0 DUP7 ADD MSTORE DUP2 DUP4 PUSH1 0x8 SHR AND ISZERO ISZERO PUSH1 0xC0 DUP7 ADD MSTORE DUP5 ADD SWAP2 PUSH1 0x10 SHR AND PUSH2 0x1C34 JUMP JUMPDEST POP SWAP1 CALLVALUE PUSH2 0x506 JUMPI DUP2 PUSH1 0x3 NOT CALLDATASIZE ADD SLT PUSH2 0x506 JUMPI PUSH1 0x9 SLOAD SWAP1 MLOAD PUSH1 0x1 PUSH1 0x1 PUSH1 0xA0 SHL SUB SWAP1 SWAP2 AND DUP2 MSTORE PUSH1 0x20 SWAP1 RETURN JUMPDEST POP SWAP2 CALLVALUE PUSH2 0x45F JUMPI DUP3 PUSH1 0x3 NOT CALLDATASIZE ADD SLT PUSH2 0x45F JUMPI PUSH2 0x17F0 PUSH2 0x1D30 JUMP JUMPDEST PUSH1 0x1 SLOAD SWAP1 PUSH1 0xFF DUP3 AND ISZERO PUSH2 0x1832 JUMPI POP PUSH1 0xFF NOT AND PUSH1 0x1 SSTORE MLOAD CALLER DUP2 MSTORE PUSH32 0x5DB9EE0A495BF2E6FF9C91A7834C1BA4FDD244A5E8AA4E537BD38AEAE4B073AA SWAP1 PUSH1 0x20 SWAP1 LOG1 DUP1 RETURN JUMPDEST DUP3 MLOAD PUSH4 0x8DFC202B PUSH1 0xE0 SHL DUP2 MSTORE REVERT JUMPDEST POP SWAP1 CALLVALUE PUSH2 0x506 JUMPI DUP1 PUSH1 0x3 NOT CALLDATASIZE ADD SLT PUSH2 0x506 JUMPI PUSH2 0x185A PUSH2 0x1BE3 JUMP JUMPDEST SWAP1 CALLER PUSH1 0x1 PUSH1 0x1 PUSH1 0xA0 SHL SUB DUP4 AND SUB PUSH2 0x1877 JUMPI POP PUSH2 0x9EA SWAP2 SWAP3 CALLDATALOAD PUSH2 0x1E0E JUMP JUMPDEST MLOAD PUSH4 0x334BD919 PUSH1 0xE1 SHL DUP2 MSTORE DUP4 SWAP1 REVERT JUMPDEST POP SWAP3 POP CALLVALUE PUSH2 0x45F JUMPI PUSH1 0x20 SWAP2 DUP3 PUSH1 0x3 NOT CALLDATASIZE ADD SLT PUSH2 0x45B JUMPI DUP1 CALLDATALOAD DUP5 MSTORE DUP3 MSTORE DUP1 DUP4 KECCAK256 SWAP3 DUP2 MLOAD DUP1 SWAP4 DUP1 DUP7 SLOAD SWAP3 DUP4 DUP2 MSTORE ADD SWAP6 DUP4 MSTORE DUP1 DUP4 KECCAK256 SWAP3 SWAP1 JUMPDEST DUP3 DUP3 LT PUSH2 0x18D3 JUMPI PUSH2 0x1705 DUP7 DUP7 PUSH2 0x16FB DUP3 DUP12 SUB DUP4 PUSH2 0x1E83 JUMP JUMPDEST DUP4 SLOAD DUP8 MSTORE SWAP6 DUP7 ADD SWAP6 PUSH1 0x1 SWAP4 DUP5 ADD SWAP4 SWAP1 SWAP2 ADD SWAP1 PUSH2 0x18BB JUMP JUMPDEST POP SWAP1 CALLVALUE PUSH2 0x506 JUMPI DUP2 PUSH1 0x3 NOT CALLDATASIZE ADD SLT PUSH2 0x506 JUMPI PUSH1 0x20 SWAP1 PUSH1 0xFF PUSH1 0x1 SLOAD PUSH1 0xA8 SHR AND SWAP1 MLOAD SWAP1 DUP2 MSTORE RETURN JUMPDEST POP SWAP1 CALLVALUE PUSH2 0x506 JUMPI DUP2 PUSH1 0x3 NOT CALLDATASIZE ADD SLT PUSH2 0x506 JUMPI PUSH1 0x1 SLOAD SWAP1 MLOAD PUSH1 0x8 SWAP2 SWAP1 SWAP2 SHR PUSH1 0x1 PUSH1 0x1 PUSH1 0xA0 SHL SUB AND DUP2 MSTORE PUSH1 0x20 SWAP1 RETURN JUMPDEST POP SWAP3 POP CALLVALUE PUSH2 0x45F JUMPI DUP1 PUSH1 0x3 NOT CALLDATASIZE ADD SLT PUSH2 0x45F JUMPI PUSH2 0x9EA SWAP2 CALLDATALOAD PUSH2 0x1961 PUSH1 0x1 PUSH2 0x9D4 PUSH2 0x1BE3 JUMP JUMPDEST PUSH2 0x1D90 JUMP JUMPDEST POP SWAP3 POP CALLVALUE PUSH2 0x45F JUMPI DUP1 PUSH1 0x3 NOT CALLDATASIZE ADD SLT PUSH2 0x45F JUMPI PUSH2 0x1981 PUSH2 0x1BC8 JUMP JUMPDEST PUSH1 0x24 CALLDATALOAD PUSH1 0xFF DUP2 AND DUP2 SUB PUSH2 0x1A3A JUMPI PUSH2 0x1996 PUSH2 0x1D30 JUMP JUMPDEST PUSH1 0x1 PUSH1 0x1 PUSH1 0xA0 SHL SUB DUP3 AND SWAP4 DUP5 ISZERO PUSH2 0x1A07 JUMPI POP PUSH1 0x1 DUP1 SLOAD PUSH2 0x100 PUSH1 0x1 PUSH1 0xB0 SHL SUB NOT AND PUSH1 0x8 SWAP4 SWAP1 SWAP4 SHL PUSH2 0x100 PUSH1 0x1 PUSH1 0xA8 SHL SUB AND SWAP3 SWAP1 SWAP3 OR PUSH1 0xA8 SWAP2 SWAP1 SWAP2 SHL PUSH1 0xFF PUSH1 0xA8 SHL AND OR SWAP1 SSTORE MLOAD SWAP1 DUP2 MSTORE PUSH32 0xBD4032C1C91DA2791730EA1BBC82C6B6F857DA7C0A8318143D19EF74E62CD913 SWAP1 PUSH1 0x20 SWAP1 LOG1 DUP1 RETURN JUMPDEST PUSH1 0x64 SWAP1 PUSH1 0x20 DUP6 MLOAD SWAP2 PUSH3 0x461BCD PUSH1 0xE5 SHL DUP4 MSTORE DUP3 ADD MSTORE PUSH1 0xD PUSH1 0x24 DUP3 ADD MSTORE PUSH13 0x24B73B30B634B2103A37B5B2B7 PUSH1 0x99 SHL PUSH1 0x44 DUP3 ADD MSTORE REVERT JUMPDEST DUP5 DUP1 REVERT JUMPDEST POP SWAP2 CALLVALUE PUSH2 0x45F JUMPI PUSH1 0x20 CALLDATASIZE PUSH1 0x3 NOT ADD SLT PUSH2 0x45F JUMPI DUP2 PUSH1 0x20 SWAP4 PUSH1 0x1 SWAP3 CALLDATALOAD DUP2 MSTORE DUP1 DUP6 MSTORE KECCAK256 ADD SLOAD SWAP1 MLOAD SWAP1 DUP2 MSTORE RETURN JUMPDEST POP SWAP3 POP CALLVALUE PUSH2 0x45F JUMPI PUSH1 0x20 CALLDATASIZE PUSH1 0x3 NOT ADD SLT PUSH2 0x45F JUMPI DUP2 CALLDATALOAD SWAP2 PUSH2 0x1A87 PUSH2 0x1CB6 JUMP JUMPDEST DUP3 DUP5 MSTORE PUSH1 0x2 PUSH1 0x20 MSTORE PUSH1 0x6 DUP3 DUP6 KECCAK256 PUSH2 0x1AA0 DUP2 SLOAD ISZERO ISZERO PUSH2 0x1EBB JUMP JUMPDEST ADD SWAP1 DUP2 SLOAD SWAP1 PUSH1 0xFF DUP3 PUSH1 0x10 SHR AND PUSH1 0x5 DUP2 LT ISZERO PUSH2 0x95E JUMPI DUP1 ISZERO SWAP1 DUP2 ISZERO PUSH2 0x1B69 JUMPI JUMPDEST POP ISZERO PUSH2 0x1B36 JUMPI PUSH1 0xFF DUP3 PUSH1 0x8 SHR AND PUSH2 0x1AFA JUMPI POP PUSH3 0xFF0000 NOT AND PUSH3 0x30000 OR SWAP1 SSTORE MLOAD PUSH1 0x3 DUP2 MSTORE PUSH1 0x0 DUP1 MLOAD PUSH1 0x20 PUSH2 0x2140 DUP4 CODECOPY DUP2 MLOAD SWAP2 MSTORE SWAP1 PUSH1 0x20 SWAP1 LOG2 DUP1 RETURN JUMPDEST PUSH1 0x64 SWAP1 PUSH1 0x20 DUP6 MLOAD SWAP2 PUSH3 0x461BCD PUSH1 0xE5 SHL DUP4 MSTORE DUP3 ADD MSTORE PUSH1 0x16 PUSH1 0x24 DUP3 ADD MSTORE PUSH22 0x119D5B991CC8185B1C9958591E481C995B19585CD959 PUSH1 0x52 SHL PUSH1 0x44 DUP3 ADD MSTORE REVERT JUMPDEST PUSH1 0x64 SWAP1 PUSH1 0x20 DUP6 MLOAD SWAP2 PUSH3 0x461BCD PUSH1 0xE5 SHL DUP4 MSTORE DUP3 ADD MSTORE PUSH1 0xD PUSH1 0x24 DUP3 ADD MSTORE PUSH13 0x10D85B9B9BDD0818D85B98D95B PUSH1 0x9A SHL PUSH1 0x44 DUP3 ADD MSTORE REVERT JUMPDEST PUSH1 0x1 SWAP2 POP EQ CODESIZE PUSH2 0x1ABF JUMP JUMPDEST SWAP1 POP DUP4 CALLVALUE PUSH2 0x45F JUMPI PUSH1 0x20 CALLDATASIZE PUSH1 0x3 NOT ADD SLT PUSH2 0x45F JUMPI CALLDATALOAD PUSH4 0xFFFFFFFF PUSH1 0xE0 SHL DUP2 AND DUP1 SWAP2 SUB PUSH2 0x45F JUMPI PUSH1 0x20 SWAP3 POP PUSH4 0x7965DB0B PUSH1 0xE0 SHL DUP2 EQ SWAP1 DUP2 ISZERO PUSH2 0x1BB7 JUMPI JUMPDEST POP ISZERO ISZERO DUP2 MSTORE RETURN JUMPDEST PUSH4 0x1FFC9A7 PUSH1 0xE0 SHL EQ SWAP1 POP DUP4 PUSH2 0x1BB0 JUMP JUMPDEST PUSH1 0x4 CALLDATALOAD SWAP1 PUSH1 0x1 PUSH1 0x1 PUSH1 0xA0 SHL SUB DUP3 AND DUP3 SUB PUSH2 0x1BDE JUMPI JUMP JUMPDEST PUSH1 0x0 DUP1 REVERT JUMPDEST PUSH1 0x24 CALLDATALOAD SWAP1 PUSH1 0x1 PUSH1 0x1 PUSH1 0xA0 SHL SUB DUP3 AND DUP3 SUB PUSH2 0x1BDE JUMPI JUMP JUMPDEST PUSH1 0x20 SWAP1 DUP2 PUSH1 0x40 DUP2 DUP4 ADD SWAP3 DUP3 DUP2 MSTORE DUP6 MLOAD DUP1 SWAP5 MSTORE ADD SWAP4 ADD SWAP2 PUSH1 0x0 JUMPDEST DUP3 DUP2 LT PUSH2 0x1C20 JUMPI POP POP POP POP SWAP1 JUMP JUMPDEST DUP4 MLOAD DUP6 MSTORE SWAP4 DUP2 ADD SWAP4 SWAP3 DUP2 ADD SWAP3 PUSH1 0x1 ADD PUSH2 0x1C12 JUMP JUMPDEST SWAP1 PUSH1 0x5 DUP3 LT ISZERO PUSH2 0x1C41 JUMPI MSTORE JUMP JUMPDEST PUSH4 0x4E487B71 PUSH1 0xE0 SHL PUSH1 0x0 MSTORE PUSH1 0x21 PUSH1 0x4 MSTORE PUSH1 0x24 PUSH1 0x0 REVERT JUMPDEST DUP1 SLOAD DUP3 LT ISZERO PUSH2 0x1C6F JUMPI PUSH1 0x0 MSTORE PUSH1 0x20 PUSH1 0x0 KECCAK256 ADD SWAP1 PUSH1 0x0 SWAP1 JUMP JUMPDEST PUSH4 0x4E487B71 PUSH1 0xE0 SHL PUSH1 0x0 MSTORE PUSH1 0x32 PUSH1 0x4 MSTORE PUSH1 0x24 PUSH1 0x0 REVERT JUMPDEST SWAP2 DUP2 PUSH1 0x1F DUP5 ADD SLT ISZERO PUSH2 0x1BDE JUMPI DUP3 CALLDATALOAD SWAP2 PUSH8 0xFFFFFFFFFFFFFFFF DUP4 GT PUSH2 0x1BDE JUMPI PUSH1 0x20 DUP1 DUP6 ADD SWAP5 DUP5 PUSH1 0x5 SHL ADD ADD GT PUSH2 0x1BDE JUMPI JUMP JUMPDEST CALLER PUSH1 0x0 SWAP1 DUP2 MSTORE PUSH32 0xEE57CD81E84075558E8FCC182A1F4393F91FC97F963A136E66B7F949A62F319F PUSH1 0x20 MSTORE PUSH1 0x40 SWAP1 KECCAK256 SLOAD PUSH32 0x97667070C54EF182B0F5858B034BEAC1B6F3089AA2D3188BB1E8929F4FA9B929 SWAP1 PUSH1 0xFF AND ISZERO PUSH2 0x1D12 JUMPI POP JUMP JUMPDEST PUSH1 0x44 SWAP1 PUSH1 0x40 MLOAD SWAP1 PUSH4 0xE2517D3F PUSH1 0xE0 SHL DUP3 MSTORE CALLER PUSH1 0x4 DUP4 ADD MSTORE PUSH1 0x24 DUP3 ADD MSTORE REVERT JUMPDEST CALLER PUSH1 0x0 SWAP1 DUP2 MSTORE PUSH32 0xAD3228B676F7D3CD4284A5443F17F1962B36E491B30A40B2405849E597BA5FB5 PUSH1 0x20 MSTORE PUSH1 0x40 DUP2 KECCAK256 SLOAD PUSH1 0xFF AND ISZERO PUSH2 0x1D12 JUMPI POP JUMP JUMPDEST DUP1 PUSH1 0x0 MSTORE PUSH1 0x0 PUSH1 0x20 MSTORE PUSH1 0x40 PUSH1 0x0 KECCAK256 CALLER PUSH1 0x0 MSTORE PUSH1 0x20 MSTORE PUSH1 0xFF PUSH1 0x40 PUSH1 0x0 KECCAK256 SLOAD AND ISZERO PUSH2 0x1D12 JUMPI POP JUMP JUMPDEST SWAP1 PUSH1 0x0 SWAP2 DUP1 DUP4 MSTORE DUP3 PUSH1 0x20 MSTORE PUSH1 0x40 DUP4 KECCAK256 SWAP2 PUSH1 0x1 DUP1 PUSH1 0xA0 SHL SUB AND SWAP2 DUP3 DUP5 MSTORE PUSH1 0x20 MSTORE PUSH1 0xFF PUSH1 0x40 DUP5 KECCAK256 SLOAD AND ISZERO PUSH1 0x0 EQ PUSH2 0x1E09 JUMPI DUP1 DUP4 MSTORE DUP3 PUSH1 0x20 MSTORE PUSH1 0x40 DUP4 KECCAK256 DUP3 DUP5 MSTORE PUSH1 0x20 MSTORE PUSH1 0x40 DUP4 KECCAK256 PUSH1 0x1 PUSH1 0xFF NOT DUP3 SLOAD AND OR SWAP1 SSTORE PUSH32 0x2F8788117E7EFF1D82E926EC794901D17C78024A50270940304540A733656F0D CALLER SWAP4 DUP1 LOG4 PUSH1 0x1 SWAP1 JUMP JUMPDEST POP POP SWAP1 JUMP JUMPDEST SWAP1 PUSH1 0x0 SWAP2 DUP1 DUP4 MSTORE DUP3 PUSH1 0x20 MSTORE PUSH1 0x40 DUP4 KECCAK256 SWAP2 PUSH1 0x1 DUP1 PUSH1 0xA0 SHL SUB AND SWAP2 DUP3 DUP5 MSTORE PUSH1 0x20 MSTORE PUSH1 0xFF PUSH1 0x40 DUP5 KECCAK256 SLOAD AND PUSH1 0x0 EQ PUSH2 0x1E09 JUMPI DUP1 DUP4 MSTORE DUP3 PUSH1 0x20 MSTORE PUSH1 0x40 DUP4 KECCAK256 DUP3 DUP5 MSTORE PUSH1 0x20 MSTORE PUSH1 0x40 DUP4 KECCAK256 PUSH1 0xFF NOT DUP2 SLOAD AND SWAP1 SSTORE PUSH32 0xF6391F5C32D9C69D2A47EA670B442974B53935D1EDC7FD64EB21E047A839171B CALLER SWAP4 DUP1 LOG4 PUSH1 0x1 SWAP1 JUMP JUMPDEST SWAP1 PUSH1 0x1F DUP1 NOT SWAP2 ADD AND DUP2 ADD SWAP1 DUP2 LT PUSH8 0xFFFFFFFFFFFFFFFF DUP3 GT OR PUSH2 0x1EA5 JUMPI PUSH1 0x40 MSTORE JUMP JUMPDEST PUSH4 0x4E487B71 PUSH1 0xE0 SHL PUSH1 0x0 MSTORE PUSH1 0x41 PUSH1 0x4 MSTORE PUSH1 0x24 PUSH1 0x0 REVERT JUMPDEST ISZERO PUSH2 0x1EC2 JUMPI JUMP JUMPDEST PUSH1 0x40 MLOAD PUSH3 0x461BCD PUSH1 0xE5 SHL DUP2 MSTORE PUSH1 0x20 PUSH1 0x4 DUP3 ADD MSTORE PUSH1 0x11 PUSH1 0x24 DUP3 ADD MSTORE PUSH17 0x141C9BDA9958DD081B9BDD08199BDD5B99 PUSH1 0x7A SHL PUSH1 0x44 DUP3 ADD MSTORE PUSH1 0x64 SWAP1 REVERT JUMPDEST SWAP2 SWAP1 DUP3 ADD DUP1 SWAP3 GT PUSH2 0x1F08 JUMPI JUMP JUMPDEST PUSH4 0x4E487B71 PUSH1 0xE0 SHL PUSH1 0x0 MSTORE PUSH1 0x11 PUSH1 0x4 MSTORE PUSH1 0x24 PUSH1 0x0 REVERT JUMPDEST PUSH1 0x0 NOT DUP2 EQ PUSH2 0x1F08 JUMPI PUSH1 0x1 ADD SWAP1 JUMP JUMPDEST DUP1 SLOAD PUSH9 0x10000000000000000 DUP2 LT ISZERO PUSH2 0x1EA5 JUMPI PUSH2 0x1F4F SWAP2 PUSH1 0x1 DUP3 ADD DUP2 SSTORE PUSH2 0x1C57 JUMP JUMPDEST DUP2 SWAP3 SWAP2 SLOAD SWAP1 PUSH1 0x3 SHL SWAP2 DUP3 SHL SWAP2 PUSH1 0x0 NOT SWAP1 SHL NOT AND OR SWAP1 SSTORE JUMP JUMPDEST PUSH1 0x40 MLOAD PUSH4 0x23B872DD PUSH1 0xE0 SHL PUSH1 0x0 SWAP1 DUP2 MSTORE PUSH1 0x1 PUSH1 0x1 PUSH1 0xA0 SHL SUB SWAP4 DUP5 AND PUSH1 0x4 MSTORE SWAP4 DUP4 AND PUSH1 0x24 MSTORE PUSH1 0x44 SWAP5 SWAP1 SWAP5 MSTORE SWAP1 SWAP2 PUSH1 0x20 SWAP1 PUSH1 0x64 DUP2 DUP1 DUP6 GAS CALL PUSH1 0x1 PUSH1 0x0 MLOAD EQ DUP2 AND ISZERO PUSH2 0x1FD4 JUMPI JUMPDEST DUP4 PUSH1 0x40 MSTORE PUSH1 0x0 PUSH1 0x60 MSTORE ISZERO PUSH2 0x1FBE JUMPI POP POP POP JUMP JUMPDEST PUSH4 0x5274AFE7 PUSH1 0xE0 SHL DUP4 MSTORE AND PUSH1 0x4 DUP3 ADD MSTORE PUSH1 0x24 SWAP2 POP REVERT JUMPDEST PUSH1 0x1 DUP2 ISZERO AND PUSH2 0x1FEA JUMPI DUP2 EXTCODESIZE ISZERO ISZERO RETURNDATASIZE ISZERO AND AND PUSH2 0x1FAB JUMP JUMPDEST DUP4 RETURNDATASIZE PUSH1 0x0 DUP3 RETURNDATACOPY RETURNDATASIZE SWAP1 REVERT JUMPDEST PUSH1 0xFF PUSH1 0x1 SLOAD AND PUSH2 0x2000 JUMPI JUMP JUMPDEST PUSH1 0x40 MLOAD PUSH4 0xD93C0665 PUSH1 0xE0 SHL DUP2 MSTORE PUSH1 0x4 SWAP1 REVERT JUMPDEST PUSH1 0x0 DUP1 MLOAD PUSH1 0x20 PUSH2 0x2160 DUP4 CODECOPY DUP2 MLOAD SWAP2 MSTORE PUSH1 0x2 DUP2 SLOAD EQ PUSH2 0x2030 JUMPI PUSH1 0x2 SWAP1 SSTORE JUMP JUMPDEST PUSH1 0x40 MLOAD PUSH4 0x3EE5AEB5 PUSH1 0xE0 SHL DUP2 MSTORE PUSH1 0x4 SWAP1 REVERT JUMPDEST ISZERO PUSH2 0x2049 JUMPI JUMP JUMPDEST PUSH1 0x40 MLOAD PUSH3 0x461BCD PUSH1 0xE5 SHL DUP2 MSTORE PUSH1 0x20 PUSH1 0x4 DUP3 ADD MSTORE PUSH1 0x10 PUSH1 0x24 DUP3 ADD MSTORE PUSH16 0x105B1C9958591E481C995B19585CD959 PUSH1 0x82 SHL PUSH1 0x44 DUP3 ADD MSTORE PUSH1 0x64 SWAP1 REVERT JUMPDEST ISZERO PUSH2 0x2088 JUMPI JUMP JUMPDEST PUSH1 0x40 MLOAD PUSH3 0x461BCD PUSH1 0xE5 SHL DUP2 MSTORE PUSH1 0x20 PUSH1 0x4 DUP3 ADD MSTORE PUSH1 0x11 PUSH1 0x24 DUP3 ADD MSTORE PUSH17 0x125B9D985B1A59081C9958DA5C1A595B9D PUSH1 0x7A SHL PUSH1 0x44 DUP3 ADD MSTORE PUSH1 0x64 SWAP1 REVERT JUMPDEST SWAP2 SWAP1 DUP3 SUB SWAP2 DUP3 GT PUSH2 0x1F08 JUMPI JUMP JUMPDEST PUSH1 0x40 MLOAD PUSH4 0xA9059CBB PUSH1 0xE0 SHL PUSH1 0x0 SWAP1 DUP2 MSTORE PUSH1 0x1 PUSH1 0x1 PUSH1 0xA0 SHL SUB SWAP4 DUP5 AND PUSH1 0x4 MSTORE PUSH1 0x24 SWAP5 SWAP1 SWAP5 MSTORE SWAP3 PUSH1 0x20 SWAP1 PUSH1 0x44 DUP2 DUP1 DUP6 GAS CALL PUSH1 0x1 PUSH1 0x0 MLOAD EQ DUP2 AND ISZERO PUSH2 0x2119 JUMPI JUMPDEST DUP4 PUSH1 0x40 MSTORE ISZERO PUSH2 0x1FBE JUMPI POP POP POP JUMP JUMPDEST PUSH1 0x1 DUP2 ISZERO AND PUSH2 0x1FEA JUMPI DUP2 EXTCODESIZE ISZERO ISZERO RETURNDATASIZE ISZERO AND AND PUSH2 0x210B JUMP JUMPDEST SWAP2 SWAP1 DUP2 LT ISZERO PUSH2 0x1C6F JUMPI PUSH1 0x5 SHL ADD SWAP1 JUMP INVALID SWAP5 0x29 SELFDESTRUCT 0xD6 PUSH10 0x55B0A50202AEF461A5C7 0xCC OR PUSH19 0x3D8735DE36B6119776D3511D7C4F9B779B1742 0x2D 0xD 0xF9 0x22 0x23 ADD DUP12 ORIGIN 0xB4 0xD1 STATICCALL CHAINID 0xE0 PUSH18 0x723D6817E2486D003BECC55F00A264697066 PUSH20 0x582212203135324B60EE8E77D20CF6A67AD1C4AE CALLDATALOAD PUSH15 0xE7B078F9BD48DEB95969AFD146EF64 PUSH20 0x6F6C634300081400332F8788117E7EFF1D82E926 0xEC PUSH26 0x4901D17C78024A50270940304540A733656F0D00000000000000 "},"methodIdentifiers":{"DEFAULT_ADMIN_ROLE()":"a217fddf","DIVIDEND_MANAGER_ROLE()":"5b2440f2","OPERATOR_ROLE()":"f5b541a6","activateProject(bytes32)":"e358f6a2","cancelProject(bytes32)":"0f1af439","createProject(bytes32,address,uint256,uint256,uint256)":"a6685c46","distributeDividends(bytes32,uint256,address[],uint256[])":"f4154fbd","feeRecipient()":"46904840","getEscrowBalance()":"c56e610e","getInvestorInvestments(address)":"4c431f00","getProject(bytes32)":"4b5f748a","getProjectInvestments(bytes32)":"33c91055","getRoleAdmin(bytes32)":"248a9ca3","grantRole(bytes32,address)":"2f2ff15d","hasRole(bytes32,address)":"91d14854","invest(bytes32,uint256,uint256)":"8a027cb3","investments(uint256)":"fd345c8a","investorInvestments(address,uint256)":"eef90b62","investorProjectBalance(bytes32,address)":"7b6a686e","maxInvestmentAmount()":"dfabb026","minInvestmentAmount()":"4d298a07","nextInvestmentId()":"db642394","pause()":"8456cb59","paused()":"5c975abb","paymentToken()":"3013ce29","paymentTokenDecimals()":"325cd796","platformFeePercent()":"8c639a85","projectInvestments(bytes32,uint256)":"562509f6","projects(bytes32)":"b96ea12d","refundInvestment(uint256)":"fcf3a4c2","releaseFunds(bytes32,address)":"7d25e89d","renounceRole(bytes32,address)":"36568abe","revokeRole(bytes32,address)":"d547741f","setFee(uint256)":"69fe0e2d","setFeeRecipient(address)":"e74b981b","setInvestmentLimits(uint256,uint256)":"fb903b1d","setPaymentToken(address,uint8)":"2e1aaf5a","supportsInterface(bytes4)":"01ffc9a7","unpause()":"3f4ba83a"}}}}}