{"src/FinCoreDividends.sol":{"FinCoreDividends":{"abi":[{"inputs":[{"internalType":"address","name":"_paymentToken","type":"address"},{"internalType":"uint256","name":"_claimExpirationDays","type":"uint256"},{"internalType":"address","name":"admin","type":"address"}],"stateMutability":"nonpayable","type":"constructor"},{"inputs":[],"name":"AccessControlBadConfirmation","type":"error"},{"inputs":[{"internalType":"address","name":"account","type":"address"},{"internalType":"bytes32","name":"neededRole","type":"bytes32"}],"name":"AccessControlUnauthorizedAccount","type":"error"},{"inputs":[],"name":"EnforcedPause","type":"error"},{"inputs":[],"name":"ExpectedPause","type":"error"},{"inputs":[],"name":"ReentrancyGuardReentrantCall","type":"error"},{"inputs":[{"internalType":"address","name":"token","type":"address"}],"name":"SafeERC20FailedOperation","type":"error"},{"anonymous":false,"inputs":[{"indexed":true,"internalType":"uint256","name":"distributionId","type":"uint256"}],"name":"DistributionCancelled","type":"event"},{"anonymous":false,"inputs":[{"indexed":true,"internalType":"uint256","name":"distributionId","type":"uint256"},{"indexed":true,"internalType":"bytes32","name":"projectId","type":"bytes32"},{"indexed":false,"internalType":"bytes32","name":"merkleRoot","type":"bytes32"},{"indexed":false,"internalType":"uint256","name":"totalAmount","type":"uint256"},{"indexed":false,"internalType":"uint256","name":"expiresAt","type":"uint256"}],"name":"DistributionCreated","type":"event"},{"anonymous":false,"inputs":[{"indexed":true,"internalType":"uint256","name":"distributionId","type":"uint256"},{"indexed":true,"internalType":"address","name":"account","type":"address"},{"indexed":false,"internalType":"uint256","name":"amount","type":"uint256"}],"name":"DividendClaimed","type":"event"},{"anonymous":false,"inputs":[{"indexed":false,"internalType":"uint256","name":"newPeriod","type":"uint256"}],"name":"ExpirationPeriodUpdated","type":"event"},{"anonymous":false,"inputs":[{"indexed":false,"internalType":"address","name":"account","type":"address"}],"name":"Paused","type":"event"},{"anonymous":false,"inputs":[{"indexed":true,"internalType":"bytes32","name":"role","type":"bytes32"},{"indexed":true,"internalType":"bytes32","name":"previousAdminRole","type":"bytes32"},{"indexed":true,"internalType":"bytes32","name":"newAdminRole","type":"bytes32"}],"name":"RoleAdminChanged","type":"event"},{"anonymous":false,"inputs":[{"indexed":true,"internalType":"bytes32","name":"role","type":"bytes32"},{"indexed":true,"internalType":"address","name":"account","type":"address"},{"indexed":true,"internalType":"address","name":"sender","type":"address"}],"name":"RoleGranted","type":"event"},{"anonymous":false,"inputs":[{"indexed":true,"internalType":"bytes32","name":"role","type":"bytes32"},{"indexed":true,"internalType":"address","name":"account","type":"address"},{"indexed":true,"internalType":"address","name":"sender","type":"address"}],"name":"RoleRevoked","type":"event"},{"anonymous":false,"inputs":[{"indexed":true,"internalType":"uint256","name":"distributionId","type":"uint256"},{"indexed":false,"internalType":"uint256","name":"amount","type":"uint256"}],"name":"UnclaimedFundsRecovered","type":"event"},{"anonymous":false,"inputs":[{"indexed":false,"internalType":"address","name":"account","type":"address"}],"name":"Unpaused","type":"event"},{"inputs":[],"name":"DEFAULT_ADMIN_ROLE","outputs":[{"internalType":"bytes32","name":"","type":"bytes32"}],"stateMutability":"view","type":"function"},{"inputs":[],"name":"DISTRIBUTOR_ROLE","outputs":[{"internalType":"bytes32","name":"","type":"bytes32"}],"stateMutability":"view","type":"function"},{"inputs":[{"internalType":"uint256[]","name":"distributionIds","type":"uint256[]"},{"internalType":"uint256[]","name":"amounts","type":"uint256[]"},{"internalType":"bytes32[][]","name":"merkleProofs","type":"bytes32[][]"}],"name":"batchClaimDividends","outputs":[],"stateMutability":"nonpayable","type":"function"},{"inputs":[{"internalType":"uint256","name":"distributionId","type":"uint256"},{"internalType":"address","name":"account","type":"address"},{"internalType":"uint256","name":"amount","type":"uint256"},{"internalType":"bytes32[]","name":"merkleProof","type":"bytes32[]"}],"name":"canClaim","outputs":[{"internalType":"bool","name":"","type":"bool"}],"stateMutability":"view","type":"function"},{"inputs":[{"internalType":"uint256","name":"distributionId","type":"uint256"}],"name":"cancelDistribution","outputs":[],"stateMutability":"nonpayable","type":"function"},{"inputs":[{"internalType":"uint256","name":"distributionId","type":"uint256"},{"internalType":"uint256","name":"amount","type":"uint256"},{"internalType":"bytes32[]","name":"merkleProof","type":"bytes32[]"}],"name":"claimDividend","outputs":[],"stateMutability":"nonpayable","type":"function"},{"inputs":[],"name":"claimExpirationPeriod","outputs":[{"internalType":"uint256","name":"","type":"uint256"}],"stateMutability":"view","type":"function"},{"inputs":[{"internalType":"bytes32","name":"projectId","type":"bytes32"},{"internalType":"bytes32","name":"merkleRoot","type":"bytes32"},{"internalType":"uint256","name":"totalAmount","type":"uint256"},{"internalType":"uint256","name":"periodStart","type":"uint256"},{"internalType":"uint256","name":"periodEnd","type":"uint256"},{"internalType":"string","name":"description","type":"string"}],"name":"createDistribution","outputs":[{"internalType":"uint256","name":"","type":"uint256"}],"stateMutability":"nonpayable","type":"function"},{"inputs":[{"internalType":"uint256","name":"","type":"uint256"}],"name":"distributions","outputs":[{"internalType":"bytes32","name":"projectId","type":"bytes32"},{"internalType":"bytes32","name":"merkleRoot","type":"bytes32"},{"internalType":"uint256","name":"totalAmount","type":"uint256"},{"internalType":"uint256","name":"claimedAmount","type":"uint256"},{"internalType":"uint256","name":"periodStart","type":"uint256"},{"internalType":"uint256","name":"periodEnd","type":"uint256"},{"internalType":"uint256","name":"createdAt","type":"uint256"},{"internalType":"uint256","name":"expiresAt","type":"uint256"},{"internalType":"bool","name":"active","type":"bool"},{"internalType":"string","name":"description","type":"string"}],"stateMutability":"view","type":"function"},{"inputs":[],"name":"getContractBalance","outputs":[{"internalType":"uint256","name":"","type":"uint256"}],"stateMutability":"view","type":"function"},{"inputs":[{"internalType":"uint256","name":"distributionId","type":"uint256"}],"name":"getDistribution","outputs":[{"internalType":"bytes32","name":"projectId","type":"bytes32"},{"internalType":"bytes32","name":"merkleRoot","type":"bytes32"},{"internalType":"uint256","name":"totalAmount","type":"uint256"},{"internalType":"uint256","name":"claimedAmount","type":"uint256"},{"internalType":"uint256","name":"periodStart","type":"uint256"},{"internalType":"uint256","name":"periodEnd","type":"uint256"},{"internalType":"uint256","name":"createdAt","type":"uint256"},{"internalType":"uint256","name":"expiresAt","type":"uint256"},{"internalType":"bool","name":"active","type":"bool"}],"stateMutability":"view","type":"function"},{"inputs":[{"internalType":"bytes32","name":"projectId","type":"bytes32"}],"name":"getProjectDistributions","outputs":[{"internalType":"uint256[]","name":"","type":"uint256[]"}],"stateMutability":"view","type":"function"},{"inputs":[{"internalType":"bytes32","name":"role","type":"bytes32"}],"name":"getRoleAdmin","outputs":[{"internalType":"bytes32","name":"","type":"bytes32"}],"stateMutability":"view","type":"function"},{"inputs":[],"name":"getStats","outputs":[{"internalType":"uint256","name":"_totalDistributed","type":"uint256"},{"internalType":"uint256","name":"_totalClaimed","type":"uint256"},{"internalType":"uint256","name":"_totalPending","type":"uint256"},{"internalType":"uint256","name":"_distributionCount","type":"uint256"}],"stateMutability":"view","type":"function"},{"inputs":[{"internalType":"uint256","name":"distributionId","type":"uint256"}],"name":"getUnclaimedAmount","outputs":[{"internalType":"uint256","name":"","type":"uint256"}],"stateMutability":"view","type":"function"},{"inputs":[{"internalType":"bytes32","name":"role","type":"bytes32"},{"internalType":"address","name":"account","type":"address"}],"name":"grantRole","outputs":[],"stateMutability":"nonpayable","type":"function"},{"inputs":[{"internalType":"uint256","name":"","type":"uint256"},{"internalType":"address","name":"","type":"address"}],"name":"hasClaimed","outputs":[{"internalType":"bool","name":"","type":"bool"}],"stateMutability":"view","type":"function"},{"inputs":[{"internalType":"bytes32","name":"role","type":"bytes32"},{"internalType":"address","name":"account","type":"address"}],"name":"hasRole","outputs":[{"internalType":"bool","name":"","type":"bool"}],"stateMutability":"view","type":"function"},{"inputs":[],"name":"nextDistributionId","outputs":[{"internalType":"uint256","name":"","type":"uint256"}],"stateMutability":"view","type":"function"},{"inputs":[],"name":"pause","outputs":[],"stateMutability":"nonpayable","type":"function"},{"inputs":[],"name":"paused","outputs":[{"internalType":"bool","name":"","type":"bool"}],"stateMutability":"view","type":"function"},{"inputs":[],"name":"paymentToken","outputs":[{"internalType":"contract IERC20","name":"","type":"address"}],"stateMutability":"view","type":"function"},{"inputs":[{"internalType":"bytes32","name":"","type":"bytes32"},{"internalType":"uint256","name":"","type":"uint256"}],"name":"projectDistributions","outputs":[{"internalType":"uint256","name":"","type":"uint256"}],"stateMutability":"view","type":"function"},{"inputs":[{"internalType":"uint256[]","name":"distributionIds","type":"uint256[]"}],"name":"recoverUnclaimedFunds","outputs":[],"stateMutability":"nonpayable","type":"function"},{"inputs":[{"internalType":"bytes32","name":"role","type":"bytes32"},{"internalType":"address","name":"callerConfirmation","type":"address"}],"name":"renounceRole","outputs":[],"stateMutability":"nonpayable","type":"function"},{"inputs":[{"internalType":"bytes32","name":"role","type":"bytes32"},{"internalType":"address","name":"account","type":"address"}],"name":"revokeRole","outputs":[],"stateMutability":"nonpayable","type":"function"},{"inputs":[{"internalType":"uint256","name":"newPeriodDays","type":"uint256"}],"name":"setClaimExpirationPeriod","outputs":[],"stateMutability":"nonpayable","type":"function"},{"inputs":[{"internalType":"bytes4","name":"interfaceId","type":"bytes4"}],"name":"supportsInterface","outputs":[{"internalType":"bool","name":"","type":"bool"}],"stateMutability":"view","type":"function"},{"inputs":[],"name":"totalClaimed","outputs":[{"internalType":"uint256","name":"","type":"uint256"}],"stateMutability":"view","type":"function"},{"inputs":[],"name":"totalDistributed","outputs":[{"internalType":"uint256","name":"","type":"uint256"}],"stateMutability":"view","type":"function"},{"inputs":[],"name":"unpause","outputs":[],"stateMutability":"nonpayable","type":"function"}],"evm":{"bytecode":{"linkReferences":{},"object":"6080346200019557601f62001edb38819003918201601f19168301916001600160401b038311848410176200019a5780849260609460405283398101031262000195576200004d81620001b0565b62000060604060208401519301620001b0565b60017f9b779b17422d0df92223018b32b4d1fa46e071723d6817e2486d003becc55f0055906001600160a01b038082161562000150578216156200011b5760018054610100600160a81b03191660089290921b610100600160a81b03169190911790556201518082810292801590840490911417156200010557620000f491600655620000ed81620001c5565b5062000245565b50604051611bd39081620002e88239f35b634e487b7160e01b600052601160045260246000fd5b60405162461bcd60e51b815260206004820152600d60248201526c24b73b30b634b21030b236b4b760991b6044820152606490fd5b60405162461bcd60e51b815260206004820152601560248201527f496e76616c6964207061796d656e7420746f6b656e00000000000000000000006044820152606490fd5b600080fd5b634e487b7160e01b600052604160045260246000fd5b51906001600160a01b03821682036200019557565b6001600160a01b031660008181527fad3228b676f7d3cd4284a5443f17f1962b36e491b30a40b2405849e597ba5fb5602052604081205490919060ff166200024157818052816020526040822081835260205260408220600160ff19825416179055339160008051602062001ebb8339815191528180a4600190565b5090565b6001600160a01b031660008181527f37775adb12013835ce20d78b1c52193dd1da3dc792bc1ec9a2d7427221516c8a60205260408120549091907ffbd454f36a7e1a388bd6fc3ab10d434aa4578f811acbbcf33afb1c697486313c9060ff16620002e257808352826020526040832082845260205260408320600160ff1982541617905560008051602062001ebb833981519152339380a4600190565b50509056fe608080604052600436101561001357600080fd5b60003560e01c90816301ffc9a71461160c5750806305bd1a46146115665780630b26aa0d146114e657806318d474e3146114a8578063248a9ca3146114795780632f2ff15d1461143a5780633013ce291461140d57806336568abe146113c65780633b345a871461133d5780633f4ba83a146112d35780634487d3df1461115e5780635c177608146110885780635c975abb146110655780636f9fb98a14610fce578063795be4b914610fb05780638456cb5914610f5757806386198b9214610cde578063873f6f9e14610c915780638a08564014610c7357806391d1485414610c26578063925eb2e414610aef57806397a80cd114610a9a5780639ed875c114610798578063a217fddf1461077c578063af78b382146102b6578063b81fb2191461026f578063c59d484714610231578063d547741f146101f0578063d54ad2a1146101d2578063efca2eed146101b45763f0bd87cc1461017457600080fd5b346101af5760003660031901126101af5760206040517ffbd454f36a7e1a388bd6fc3ab10d434aa4578f811acbbcf33afb1c697486313c8152f35b600080fd5b346101af5760003660031901126101af576020600754604051908152f35b346101af5760003660031901126101af576020600854604051908152f35b346101af5760403660031901126101af5761022f60043561020f61165f565b9080600052600060205261022a60016040600020015461176d565b611811565b005b346101af5760003660031901126101af5760806007546008546102548183611aab565b60055491604051938452602084015260408301526060820152f35b346101af5760403660031901126101af576024356004356000526004602052604060002080548210156101af576020916102a89161171b565b90546040519160031b1c8152f35b346101af5760c03660031901126101af576001600160401b0360a435116101af5736602360a4350112156101af576001600160401b0360a43560040135116101af5736602460a4356004013560a4350101116101af573360009081527f37775adb12013835ce20d78b1c52193dd1da3dc792bc1ec9a2d7427221516c8a60205260409020547ffbd454f36a7e1a388bd6fc3ab10d434aa4578f811acbbcf33afb1c697486313c9060ff161561075e5761036d61191c565b60243515610723576103826044351515611886565b610391608435606435106118c3565b60018060a01b0360015460081c166040516323b872dd60e01b60005233600452306024526044356044526020600060648180865af1600160005114811615610703575b816040526000606052156106ef576005546103ee81611900565b6005556103fd6006544261190f565b90604051806101408101106001600160401b036101408301111761061957610140810160405260043581526024356020820152604435604082015260006060820152606435608082015260843560a08201524260c08201528260e082015260016101008201526040516104806020601f19601f60a43560040135011601826116ca565b60a43560048101358083529060240160208301376000602060a43560040135830101526101208201908152826000526002602052604060002091805183556020810151600184015560408101516002840155606081015160038401556080810151600484015560a0810151600584015560c0810151600684015560e0810151600784015561010060088401910151151560ff80198354169116179055518051906001600160401b0382116106195761053b6009840154611675565b601f81116106a8575b50602090601f831160011461063a57600992916000918361062f575b50508160011b916000199060031b1c1916179101555b60043560005260046020526040600020918254926801000000000000000084101561061957836105ad91600160209601815561171b565b81549060031b9084821b91600019901b19161790556105d060443560075461190f565b600755604051906024358252604435848301526040820152817f0f7741bfe8a43e2254a194d8724faf0cfbadc74b52858bf5a5feaf25ef519e6c606060043593a3604051908152f35b634e487b7160e01b600052604160045260246000fd5b015190508680610560565b90601f198316916009850160005260206000209260005b81811061069057509160019391856009969410610677575b505050811b01910155610576565b015160001960f88460031b161c19169055868080610669565b92936020600181928786015181550195019301610651565b600984016000526020600020601f840160051c8101602085106106e8575b601f830160051c820181106106dc575050610544565b600081556001016106c6565b50806106c6565b602491635274afe760e01b82526004820152fd5b600181151661071957823b15153d1516166103d4565b503d6000823e3d90fd5b60405162461bcd60e51b8152602060048201526013602482015272125b9d985b1a59081b595c9adb19481c9bdbdd606a1b6044820152606490fd5b6044906040519063e2517d3f60e01b82523360048301526024820152fd5b346101af5760003660031901126101af57602060405160008152f35b346101af5760603660031901126101af576004356001600160401b0381116101af576107c89036906004016116eb565b906024356001600160401b0381116101af576107e89036906004016116eb565b91906044356001600160401b0381116101af576108099036906004016116eb565b919093610814611a11565b61081c61191c565b80861480610a91575b15610a5a5760009560005b818110610873578780610852575b6001600080516020611b7e83398151915255005b60015461086d9190339060081c6001600160a01b0316611990565b8061083e565b61087e818388611a9b565b359761088b828587611a9b565b359086831015610a44578260051b890135601e198a3603018112156101af576001600160401b03818b0135116101af57808a013560051b36036020828c0101136101af578a600052600260205260406000209060ff600883015416158015610a37575b610a2157600360205260406000203360005260205260ff604060002054168015610a2f575b610a215760408051336020820190815291810186905261098592918d91610980919061094c81606081015b03601f1981018352826116ca565b5190206040516020810191825260208152610966816116af565b51902092600186015492602036928083013592010161193a565b611a41565b15610a145782610a0f94939260036109dd938e600052816020526040600020336000526020526040600020600160ff19825416179055016109c783825461190f565b90556109d58260085461190f565b60085561190f565b996040519182527fa1594d215a577c1905bcb0b5b186a40a0104714277441d4b2ac428c89bf7f4b160203393a3611900565b610830565b50985050610a0f90611900565b5050985050610a0f90611900565b508315610913565b50600782015442116108ee565b634e487b7160e01b600052603260045260246000fd5b60405162461bcd60e51b815260206004820152600f60248201526e098cadccee8d040dad2e6dac2e8c6d608b1b6044820152606490fd5b50828114610825565b346101af5760803660031901126101af57610ab361165f565b6064356001600160401b0381116101af57602091610ad8610ae59236906004016116eb565b9160443590600435611ab8565b6040519015158152f35b346101af576020806003193601126101af576004356001600160401b0381116101af57610b209036906004016116eb565b610b2b929192611733565b610b33611a11565b60009260005b828110610b5a578480610852576001600080516020611b7e83398151915255005b610b65818484611a9b565b3560005260028085526040600020600881019081549260ff8416158015610c18575b610c0b57810154600390910154610b9d91611aab565b9182610bb5575b505050610bb090611900565b610b39565b60ff1916905594610bb09190610bcc90879061190f565b957f26acaca85a5745825e50dbddbc6951579ed8521fa9090236a53c78706c3d021586610bfa848888611a9b565b3592604051908152a2908680610ba4565b50505050610bb090611900565b506007820154421115610b87565b346101af5760403660031901126101af57610c3f61165f565b600435600052600060205260406000209060018060a01b0316600052602052602060ff604060002054166040519015158152f35b346101af5760003660031901126101af576020600654604051908152f35b346101af5760403660031901126101af57610caa61165f565b600435600052600360205260406000209060018060a01b0316600052602052602060ff604060002054166040519015158152f35b346101af5760603660031901126101af576024356004356044356001600160401b0381116101af57610d149036906004016116eb565b610d1c611a11565b610d2461191c565b826000526020916002835260406000209160ff60088401541615610f125760078301544211610ed6578460005260038452604060002033600052845260ff60406000205416610e9f5790610dcc91610d7d871515611886565b6040805133878201908152602081018a905261098092909190610da3908290840161093e565b519020604051878101918252878152610dbb816116af565b51902092600186015492369161193a565b15610e6a579060037fa1594d215a577c1905bcb0b5b186a40a0104714277441d4b2ac428c89bf7f4b1928460005281835260406000203360005283526040600020600160ff1982541617905501610e2485825461190f565b9055610e328460085461190f565b600855610e4d843360018060a01b0360015460081c16611990565b6040519384523393a36001600080516020611b7e83398151915255005b60405162461bcd60e51b815260048101839052600d60248201526c24b73b30b634b210383937b7b360991b6044820152606490fd5b60405162461bcd60e51b815260048101859052600f60248201526e105b1c9958591e4818db185a5b5959608a1b6044820152606490fd5b60405162461bcd60e51b8152600481018590526014602482015273111a5cdd1c9a589d5d1a5bdb88195e1c1a5c995960621b6044820152606490fd5b60405162461bcd60e51b815260048101859052601760248201527f446973747269627574696f6e206e6f74206163746976650000000000000000006044820152606490fd5b346101af5760003660031901126101af57610f70611733565b610f7861191c565b600160ff19815416176001557f62e78cea01bee320cd4e420270b5ea74000d11b0c9f74754ebdbfc544b05a2586020604051338152a1005b346101af5760003660031901126101af576020600554604051908152f35b346101af5760003660031901126101af576001546040516370a0823160e01b8152306004820152906020908290602490829060081c6001600160a01b03165afa801561105957600090611027575b602090604051908152f35b506020813d8211611051575b81611040602093836116ca565b810103126101af576020905161101c565b3d9150611033565b6040513d6000823e3d90fd5b346101af5760003660031901126101af57602060ff600154166040519015158152f35b346101af5760203660031901126101af576004356110a4611733565b8060005260026020526040600020600881019081549160ff83161561112c576110dd9260ff191690556003600282015491015490611aab565b8061110b575b507f301b79d5a6d67c8b210ac38661dbc6a6018558ec5b10dd5dab04ff3c98f4d018600080a2005b6001546111269190339060081c6001600160a01b0316611990565b816110e3565b60405162461bcd60e51b815260206004820152600a6024820152694e6f742061637469766560b01b6044820152606490fd5b346101af576020806003193601126101af576004356000526002815260406000208054916001918281015460028201546003830154600484015460058501549160068601549360078701549588600960ff60088b01541699019a6040519b8c9160009180546111cc81611675565b808652958184169182156112b1575050600114611271575b50506111f29250038b6116ca565b6040519a8b52888b015260408a01526060890152608088015260a087015260c086015260e0850152151561010084015261014091826101208501528051809385015260005b83811061125c5750505081610160916000838284010152601f80199101168101030190f35b81810183015185820161016001528201611237565b8d925060005281600020906000915b8583106112985750506111f293508201018e806111e4565b819484848396959654920101520191018d928d92611280565b92509350506111f294915060ff191682840152151560051b8201018e806111e4565b346101af5760003660031901126101af576112ec611733565b60015460ff81161561132b5760ff19166001557f5db9ee0a495bf2e6ff9c91a7834c1ba4fdd244a5e8aa4e537bd38aeae4b073aa6020604051338152a1005b604051638dfc202b60e01b8152600490fd5b346101af5760203660031901126101af576004356000526002602052610120604060002080549060018101549060028101546003820154600483015460058401549160068501549360ff600860078801549701541696604051988952602089015260408801526060870152608086015260a085015260c084015260e08301521515610100820152f35b346101af5760403660031901126101af576113df61165f565b336001600160a01b038216036113fb5761022f90600435611811565b60405163334bd91960e11b8152600490fd5b346101af5760003660031901126101af5760015460405160089190911c6001600160a01b03168152602090f35b346101af5760403660031901126101af5761022f60043561145961165f565b9080600052600060205261147460016040600020015461176d565b611793565b346101af5760203660031901126101af5760043560005260006020526020600160406000200154604051908152f35b346101af5760203660031901126101af57600435600052600260205260206114de60406000206003600282015491015490611aab565b604051908152f35b346101af5760203660031901126101af57600435611502611733565b801561150e81156118c3565b62015180808302928304141715611550576020817f76d8424a884e28db7e90e432ac1d427e98ff82b7a50c54396ec417873a8a985592600655604051908152a1005b634e487b7160e01b600052601160045260246000fd5b346101af576020806003193601126101af5760043560005260048152604060002060405190818382549182815201908192600052846000209060005b868282106115f85786866115b8828803836116ca565b604051928392818401908285525180915260408401929160005b8281106115e157505050500390f35b8351855286955093810193928101926001016115d2565b8354855290930192600192830192016115a2565b346101af5760203660031901126101af576004359063ffffffff60e01b82168092036101af57602091637965db0b60e01b811490811561164e575b5015158152f35b6301ffc9a760e01b14905083611647565b602435906001600160a01b03821682036101af57565b90600182811c921680156116a5575b602083101461168f57565b634e487b7160e01b600052602260045260246000fd5b91607f1691611684565b604081019081106001600160401b0382111761061957604052565b90601f801991011681019081106001600160401b0382111761061957604052565b9181601f840112156101af578235916001600160401b0383116101af576020808501948460051b0101116101af57565b8054821015610a445760005260206000200190600090565b3360009081527fad3228b676f7d3cd4284a5443f17f1962b36e491b30a40b2405849e597ba5fb5602052604081205460ff161561075e5750565b80600052600060205260406000203360005260205260ff604060002054161561075e5750565b9060009180835282602052604083209160018060a01b03169182845260205260ff6040842054161560001461180c57808352826020526040832082845260205260408320600160ff198254161790557f2f8788117e7eff1d82e926ec794901d17c78024a50270940304540a733656f0d339380a4600190565b505090565b9060009180835282602052604083209160018060a01b03169182845260205260ff60408420541660001461180c5780835282602052604083208284526020526040832060ff1981541690557ff6391f5c32d9c69d2a47ea670b442974b53935d1edc7fd64eb21e047a839171b339380a4600190565b1561188d57565b60405162461bcd60e51b815260206004820152600e60248201526d125b9d985b1a5908185b5bdd5b9d60921b6044820152606490fd5b156118ca57565b60405162461bcd60e51b815260206004820152600e60248201526d125b9d985b1a59081c195c9a5bd960921b6044820152606490fd5b60001981146115505760010190565b9190820180921161155057565b60ff6001541661192857565b60405163d93c066560e01b8152600490fd5b9092916001600160401b038411610619578360051b6040519260208094611963828501826116ca565b80978152019181019283116101af57905b8282106119815750505050565b81358152908301908301611974565b60405163a9059cbb60e01b60009081526001600160a01b039384166004526024949094529260209060448180855af16001600051148116156119f1575b83604052156119db57505050565b635274afe760e01b835216600482015260249150fd5b6001811516611a0757813b15153d1516166119cd565b833d6000823e3d90fd5b600080516020611b7e8339815191526002815414611a2f5760029055565b604051633ee5aeb560e01b8152600490fd5b9091906000915b8151831015611a94576020808460051b84010151916000838210600014611a83575060005252611a7d60406000205b92611900565b91611a48565b90604092611a7d9483525220611a77565b9150501490565b9190811015610a445760051b0190565b9190820391821161155057565b92939190600093845260209160028352604085209460ff600887015416158015611b70575b611b66576003845260408082206001600160a01b0385168352855281205460ff16611b665750604080516001600160a01b039093168385019081526020810192909252611b63966109809490936001939192611b3c908290840161093e565b51902090604051908082019283528152611b55816116af565b51902094015492369161193a565b90565b9550505050505090565b5060078601544211611add56fe9b779b17422d0df92223018b32b4d1fa46e071723d6817e2486d003becc55f00a2646970667358221220f4954b23bbf76c6570fd7137152b0b6ffdd0531dd8a8020838140cc7bc41d12964736f6c634300081400332f8788117e7eff1d82e926ec794901d17c78024a50270940304540a733656f0d","opcodes":"PUSH1 0x80 CALLVALUE PUSH3 0x195 JUMPI PUSH1 0x1F PUSH3 0x1EDB CODESIZE DUP2 SWAP1 SUB SWAP2 DUP3 ADD PUSH1 0x1F NOT AND DUP4 ADD SWAP2 PUSH1 0x1 PUSH1 0x1 PUSH1 0x40 SHL SUB DUP4 GT DUP5 DUP5 LT OR PUSH3 0x19A JUMPI DUP1 DUP5 SWAP3 PUSH1 0x60 SWAP5 PUSH1 0x40 MSTORE DUP4 CODECOPY DUP2 ADD SUB SLT PUSH3 0x195 JUMPI PUSH3 0x4D DUP2 PUSH3 0x1B0 JUMP JUMPDEST PUSH3 0x60 PUSH1 0x40 PUSH1 0x20 DUP5 ADD MLOAD SWAP4 ADD PUSH3 0x1B0 JUMP JUMPDEST PUSH1 0x1 PUSH32 0x9B779B17422D0DF92223018B32B4D1FA46E071723D6817E2486D003BECC55F00 SSTORE SWAP1 PUSH1 0x1 PUSH1 0x1 PUSH1 0xA0 SHL SUB DUP1 DUP3 AND ISZERO PUSH3 0x150 JUMPI DUP3 AND ISZERO PUSH3 0x11B JUMPI PUSH1 0x1 DUP1 SLOAD PUSH2 0x100 PUSH1 0x1 PUSH1 0xA8 SHL SUB NOT AND PUSH1 0x8 SWAP3 SWAP1 SWAP3 SHL PUSH2 0x100 PUSH1 0x1 PUSH1 0xA8 SHL SUB AND SWAP2 SWAP1 SWAP2 OR SWAP1 SSTORE PUSH3 0x15180 DUP3 DUP2 MUL SWAP3 DUP1 ISZERO SWAP1 DUP5 DIV SWAP1 SWAP2 EQ OR ISZERO PUSH3 0x105 JUMPI PUSH3 0xF4 SWAP2 PUSH1 0x6 SSTORE PUSH3 0xED DUP2 PUSH3 0x1C5 JUMP JUMPDEST POP PUSH3 0x245 JUMP JUMPDEST POP PUSH1 0x40 MLOAD PUSH2 0x1BD3 SWAP1 DUP2 PUSH3 0x2E8 DUP3 CODECOPY RETURN JUMPDEST PUSH4 0x4E487B71 PUSH1 0xE0 SHL PUSH1 0x0 MSTORE PUSH1 0x11 PUSH1 0x4 MSTORE PUSH1 0x24 PUSH1 0x0 REVERT JUMPDEST PUSH1 0x40 MLOAD PUSH3 0x461BCD PUSH1 0xE5 SHL DUP2 MSTORE PUSH1 0x20 PUSH1 0x4 DUP3 ADD MSTORE PUSH1 0xD PUSH1 0x24 DUP3 ADD MSTORE PUSH13 0x24B73B30B634B21030B236B4B7 PUSH1 0x99 SHL PUSH1 0x44 DUP3 ADD MSTORE PUSH1 0x64 SWAP1 REVERT JUMPDEST PUSH1 0x40 MLOAD PUSH3 0x461BCD PUSH1 0xE5 SHL DUP2 MSTORE PUSH1 0x20 PUSH1 0x4 DUP3 ADD MSTORE PUSH1 0x15 PUSH1 0x24 DUP3 ADD MSTORE PUSH32 0x496E76616C6964207061796D656E7420746F6B656E0000000000000000000000 PUSH1 0x44 DUP3 ADD MSTORE PUSH1 0x64 SWAP1 REVERT JUMPDEST PUSH1 0x0 DUP1 REVERT JUMPDEST PUSH4 0x4E487B71 PUSH1 0xE0 SHL PUSH1 0x0 MSTORE PUSH1 0x41 PUSH1 0x4 MSTORE PUSH1 0x24 PUSH1 0x0 REVERT JUMPDEST MLOAD SWAP1 PUSH1 0x1 PUSH1 0x1 PUSH1 0xA0 SHL SUB DUP3 AND DUP3 SUB PUSH3 0x195 JUMPI JUMP JUMPDEST PUSH1 0x1 PUSH1 0x1 PUSH1 0xA0 SHL SUB AND PUSH1 0x0 DUP2 DUP2 MSTORE PUSH32 0xAD3228B676F7D3CD4284A5443F17F1962B36E491B30A40B2405849E597BA5FB5 PUSH1 0x20 MSTORE PUSH1 0x40 DUP2 KECCAK256 SLOAD SWAP1 SWAP2 SWAP1 PUSH1 0xFF AND PUSH3 0x241 JUMPI DUP2 DUP1 MSTORE DUP2 PUSH1 0x20 MSTORE PUSH1 0x40 DUP3 KECCAK256 DUP2 DUP4 MSTORE PUSH1 0x20 MSTORE PUSH1 0x40 DUP3 KECCAK256 PUSH1 0x1 PUSH1 0xFF NOT DUP3 SLOAD AND OR SWAP1 SSTORE CALLER SWAP2 PUSH1 0x0 DUP1 MLOAD PUSH1 0x20 PUSH3 0x1EBB DUP4 CODECOPY DUP2 MLOAD SWAP2 MSTORE DUP2 DUP1 LOG4 PUSH1 0x1 SWAP1 JUMP JUMPDEST POP SWAP1 JUMP JUMPDEST PUSH1 0x1 PUSH1 0x1 PUSH1 0xA0 SHL SUB AND PUSH1 0x0 DUP2 DUP2 MSTORE PUSH32 0x37775ADB12013835CE20D78B1C52193DD1DA3DC792BC1EC9A2D7427221516C8A PUSH1 0x20 MSTORE PUSH1 0x40 DUP2 KECCAK256 SLOAD SWAP1 SWAP2 SWAP1 PUSH32 0xFBD454F36A7E1A388BD6FC3AB10D434AA4578F811ACBBCF33AFB1C697486313C SWAP1 PUSH1 0xFF AND PUSH3 0x2E2 JUMPI DUP1 DUP4 MSTORE DUP3 PUSH1 0x20 MSTORE PUSH1 0x40 DUP4 KECCAK256 DUP3 DUP5 MSTORE PUSH1 0x20 MSTORE PUSH1 0x40 DUP4 KECCAK256 PUSH1 0x1 PUSH1 0xFF NOT DUP3 SLOAD AND OR SWAP1 SSTORE PUSH1 0x0 DUP1 MLOAD PUSH1 0x20 PUSH3 0x1EBB DUP4 CODECOPY DUP2 MLOAD SWAP2 MSTORE CALLER SWAP4 DUP1 LOG4 PUSH1 0x1 SWAP1 JUMP JUMPDEST POP POP SWAP1 JUMP INVALID PUSH1 0x80 DUP1 PUSH1 0x40 MSTORE PUSH1 0x4 CALLDATASIZE LT ISZERO PUSH2 0x13 JUMPI PUSH1 0x0 DUP1 REVERT JUMPDEST PUSH1 0x0 CALLDATALOAD PUSH1 0xE0 SHR SWAP1 DUP2 PUSH4 0x1FFC9A7 EQ PUSH2 0x160C JUMPI POP DUP1 PUSH4 0x5BD1A46 EQ PUSH2 0x1566 JUMPI DUP1 PUSH4 0xB26AA0D EQ PUSH2 0x14E6 JUMPI DUP1 PUSH4 0x18D474E3 EQ PUSH2 0x14A8 JUMPI DUP1 PUSH4 0x248A9CA3 EQ PUSH2 0x1479 JUMPI DUP1 PUSH4 0x2F2FF15D EQ PUSH2 0x143A JUMPI DUP1 PUSH4 0x3013CE29 EQ PUSH2 0x140D JUMPI DUP1 PUSH4 0x36568ABE EQ PUSH2 0x13C6 JUMPI DUP1 PUSH4 0x3B345A87 EQ PUSH2 0x133D JUMPI DUP1 PUSH4 0x3F4BA83A EQ PUSH2 0x12D3 JUMPI DUP1 PUSH4 0x4487D3DF EQ PUSH2 0x115E JUMPI DUP1 PUSH4 0x5C177608 EQ PUSH2 0x1088 JUMPI DUP1 PUSH4 0x5C975ABB EQ PUSH2 0x1065 JUMPI DUP1 PUSH4 0x6F9FB98A EQ PUSH2 0xFCE JUMPI DUP1 PUSH4 0x795BE4B9 EQ PUSH2 0xFB0 JUMPI DUP1 PUSH4 0x8456CB59 EQ PUSH2 0xF57 JUMPI DUP1 PUSH4 0x86198B92 EQ PUSH2 0xCDE JUMPI DUP1 PUSH4 0x873F6F9E EQ PUSH2 0xC91 JUMPI DUP1 PUSH4 0x8A085640 EQ PUSH2 0xC73 JUMPI DUP1 PUSH4 0x91D14854 EQ PUSH2 0xC26 JUMPI DUP1 PUSH4 0x925EB2E4 EQ PUSH2 0xAEF JUMPI DUP1 PUSH4 0x97A80CD1 EQ PUSH2 0xA9A JUMPI DUP1 PUSH4 0x9ED875C1 EQ PUSH2 0x798 JUMPI DUP1 PUSH4 0xA217FDDF EQ PUSH2 0x77C JUMPI DUP1 PUSH4 0xAF78B382 EQ PUSH2 0x2B6 JUMPI DUP1 PUSH4 0xB81FB219 EQ PUSH2 0x26F JUMPI DUP1 PUSH4 0xC59D4847 EQ PUSH2 0x231 JUMPI DUP1 PUSH4 0xD547741F EQ PUSH2 0x1F0 JUMPI DUP1 PUSH4 0xD54AD2A1 EQ PUSH2 0x1D2 JUMPI DUP1 PUSH4 0xEFCA2EED EQ PUSH2 0x1B4 JUMPI PUSH4 0xF0BD87CC EQ PUSH2 0x174 JUMPI PUSH1 0x0 DUP1 REVERT JUMPDEST CALLVALUE PUSH2 0x1AF JUMPI PUSH1 0x0 CALLDATASIZE PUSH1 0x3 NOT ADD SLT PUSH2 0x1AF JUMPI PUSH1 0x20 PUSH1 0x40 MLOAD PUSH32 0xFBD454F36A7E1A388BD6FC3AB10D434AA4578F811ACBBCF33AFB1C697486313C DUP2 MSTORE RETURN JUMPDEST PUSH1 0x0 DUP1 REVERT JUMPDEST CALLVALUE PUSH2 0x1AF JUMPI PUSH1 0x0 CALLDATASIZE PUSH1 0x3 NOT ADD SLT PUSH2 0x1AF JUMPI PUSH1 0x20 PUSH1 0x7 SLOAD PUSH1 0x40 MLOAD SWAP1 DUP2 MSTORE RETURN JUMPDEST CALLVALUE PUSH2 0x1AF JUMPI PUSH1 0x0 CALLDATASIZE PUSH1 0x3 NOT ADD SLT PUSH2 0x1AF JUMPI PUSH1 0x20 PUSH1 0x8 SLOAD PUSH1 0x40 MLOAD SWAP1 DUP2 MSTORE RETURN JUMPDEST CALLVALUE PUSH2 0x1AF JUMPI PUSH1 0x40 CALLDATASIZE PUSH1 0x3 NOT ADD SLT PUSH2 0x1AF JUMPI PUSH2 0x22F PUSH1 0x4 CALLDATALOAD PUSH2 0x20F PUSH2 0x165F JUMP JUMPDEST SWAP1 DUP1 PUSH1 0x0 MSTORE PUSH1 0x0 PUSH1 0x20 MSTORE PUSH2 0x22A PUSH1 0x1 PUSH1 0x40 PUSH1 0x0 KECCAK256 ADD SLOAD PUSH2 0x176D JUMP JUMPDEST PUSH2 0x1811 JUMP JUMPDEST STOP JUMPDEST CALLVALUE PUSH2 0x1AF JUMPI PUSH1 0x0 CALLDATASIZE PUSH1 0x3 NOT ADD SLT PUSH2 0x1AF JUMPI PUSH1 0x80 PUSH1 0x7 SLOAD PUSH1 0x8 SLOAD PUSH2 0x254 DUP2 DUP4 PUSH2 0x1AAB JUMP JUMPDEST PUSH1 0x5 SLOAD SWAP2 PUSH1 0x40 MLOAD SWAP4 DUP5 MSTORE PUSH1 0x20 DUP5 ADD MSTORE PUSH1 0x40 DUP4 ADD MSTORE PUSH1 0x60 DUP3 ADD MSTORE RETURN JUMPDEST CALLVALUE PUSH2 0x1AF JUMPI PUSH1 0x40 CALLDATASIZE PUSH1 0x3 NOT ADD SLT PUSH2 0x1AF JUMPI PUSH1 0x24 CALLDATALOAD PUSH1 0x4 CALLDATALOAD PUSH1 0x0 MSTORE PUSH1 0x4 PUSH1 0x20 MSTORE PUSH1 0x40 PUSH1 0x0 KECCAK256 DUP1 SLOAD DUP3 LT ISZERO PUSH2 0x1AF JUMPI PUSH1 0x20 SWAP2 PUSH2 0x2A8 SWAP2 PUSH2 0x171B JUMP JUMPDEST SWAP1 SLOAD PUSH1 0x40 MLOAD SWAP2 PUSH1 0x3 SHL SHR DUP2 MSTORE RETURN JUMPDEST CALLVALUE PUSH2 0x1AF JUMPI PUSH1 0xC0 CALLDATASIZE PUSH1 0x3 NOT ADD SLT PUSH2 0x1AF JUMPI PUSH1 0x1 PUSH1 0x1 PUSH1 0x40 SHL SUB PUSH1 0xA4 CALLDATALOAD GT PUSH2 0x1AF JUMPI CALLDATASIZE PUSH1 0x23 PUSH1 0xA4 CALLDATALOAD ADD SLT ISZERO PUSH2 0x1AF JUMPI PUSH1 0x1 PUSH1 0x1 PUSH1 0x40 SHL SUB PUSH1 0xA4 CALLDATALOAD PUSH1 0x4 ADD CALLDATALOAD GT PUSH2 0x1AF JUMPI CALLDATASIZE PUSH1 0x24 PUSH1 0xA4 CALLDATALOAD PUSH1 0x4 ADD CALLDATALOAD PUSH1 0xA4 CALLDATALOAD ADD ADD GT PUSH2 0x1AF JUMPI CALLER PUSH1 0x0 SWAP1 DUP2 MSTORE PUSH32 0x37775ADB12013835CE20D78B1C52193DD1DA3DC792BC1EC9A2D7427221516C8A PUSH1 0x20 MSTORE PUSH1 0x40 SWAP1 KECCAK256 SLOAD PUSH32 0xFBD454F36A7E1A388BD6FC3AB10D434AA4578F811ACBBCF33AFB1C697486313C SWAP1 PUSH1 0xFF AND ISZERO PUSH2 0x75E JUMPI PUSH2 0x36D PUSH2 0x191C JUMP JUMPDEST PUSH1 0x24 CALLDATALOAD ISZERO PUSH2 0x723 JUMPI PUSH2 0x382 PUSH1 0x44 CALLDATALOAD ISZERO ISZERO PUSH2 0x1886 JUMP JUMPDEST PUSH2 0x391 PUSH1 0x84 CALLDATALOAD PUSH1 0x64 CALLDATALOAD LT PUSH2 0x18C3 JUMP JUMPDEST PUSH1 0x1 DUP1 PUSH1 0xA0 SHL SUB PUSH1 0x1 SLOAD PUSH1 0x8 SHR AND PUSH1 0x40 MLOAD PUSH4 0x23B872DD PUSH1 0xE0 SHL PUSH1 0x0 MSTORE CALLER PUSH1 0x4 MSTORE ADDRESS PUSH1 0x24 MSTORE PUSH1 0x44 CALLDATALOAD PUSH1 0x44 MSTORE PUSH1 0x20 PUSH1 0x0 PUSH1 0x64 DUP2 DUP1 DUP7 GAS CALL PUSH1 0x1 PUSH1 0x0 MLOAD EQ DUP2 AND ISZERO PUSH2 0x703 JUMPI JUMPDEST DUP2 PUSH1 0x40 MSTORE PUSH1 0x0 PUSH1 0x60 MSTORE ISZERO PUSH2 0x6EF JUMPI PUSH1 0x5 SLOAD PUSH2 0x3EE DUP2 PUSH2 0x1900 JUMP JUMPDEST PUSH1 0x5 SSTORE PUSH2 0x3FD PUSH1 0x6 SLOAD TIMESTAMP PUSH2 0x190F JUMP JUMPDEST SWAP1 PUSH1 0x40 MLOAD DUP1 PUSH2 0x140 DUP2 ADD LT PUSH1 0x1 PUSH1 0x1 PUSH1 0x40 SHL SUB PUSH2 0x140 DUP4 ADD GT OR PUSH2 0x619 JUMPI PUSH2 0x140 DUP2 ADD PUSH1 0x40 MSTORE PUSH1 0x4 CALLDATALOAD DUP2 MSTORE PUSH1 0x24 CALLDATALOAD PUSH1 0x20 DUP3 ADD MSTORE PUSH1 0x44 CALLDATALOAD PUSH1 0x40 DUP3 ADD MSTORE PUSH1 0x0 PUSH1 0x60 DUP3 ADD MSTORE PUSH1 0x64 CALLDATALOAD PUSH1 0x80 DUP3 ADD MSTORE PUSH1 0x84 CALLDATALOAD PUSH1 0xA0 DUP3 ADD MSTORE TIMESTAMP PUSH1 0xC0 DUP3 ADD MSTORE DUP3 PUSH1 0xE0 DUP3 ADD MSTORE PUSH1 0x1 PUSH2 0x100 DUP3 ADD MSTORE PUSH1 0x40 MLOAD PUSH2 0x480 PUSH1 0x20 PUSH1 0x1F NOT PUSH1 0x1F PUSH1 0xA4 CALLDATALOAD PUSH1 0x4 ADD CALLDATALOAD ADD AND ADD DUP3 PUSH2 0x16CA JUMP JUMPDEST PUSH1 0xA4 CALLDATALOAD PUSH1 0x4 DUP2 ADD CALLDATALOAD DUP1 DUP4 MSTORE SWAP1 PUSH1 0x24 ADD PUSH1 0x20 DUP4 ADD CALLDATACOPY PUSH1 0x0 PUSH1 0x20 PUSH1 0xA4 CALLDATALOAD PUSH1 0x4 ADD CALLDATALOAD DUP4 ADD ADD MSTORE PUSH2 0x120 DUP3 ADD SWAP1 DUP2 MSTORE DUP3 PUSH1 0x0 MSTORE PUSH1 0x2 PUSH1 0x20 MSTORE PUSH1 0x40 PUSH1 0x0 KECCAK256 SWAP2 DUP1 MLOAD DUP4 SSTORE PUSH1 0x20 DUP2 ADD MLOAD PUSH1 0x1 DUP5 ADD SSTORE PUSH1 0x40 DUP2 ADD MLOAD PUSH1 0x2 DUP5 ADD SSTORE PUSH1 0x60 DUP2 ADD MLOAD PUSH1 0x3 DUP5 ADD SSTORE PUSH1 0x80 DUP2 ADD MLOAD PUSH1 0x4 DUP5 ADD SSTORE PUSH1 0xA0 DUP2 ADD MLOAD PUSH1 0x5 DUP5 ADD SSTORE PUSH1 0xC0 DUP2 ADD MLOAD PUSH1 0x6 DUP5 ADD SSTORE PUSH1 0xE0 DUP2 ADD MLOAD PUSH1 0x7 DUP5 ADD SSTORE PUSH2 0x100 PUSH1 0x8 DUP5 ADD SWAP2 ADD MLOAD ISZERO ISZERO PUSH1 0xFF DUP1 NOT DUP4 SLOAD AND SWAP2 AND OR SWAP1 SSTORE MLOAD DUP1 MLOAD SWAP1 PUSH1 0x1 PUSH1 0x1 PUSH1 0x40 SHL SUB DUP3 GT PUSH2 0x619 JUMPI PUSH2 0x53B PUSH1 0x9 DUP5 ADD SLOAD PUSH2 0x1675 JUMP JUMPDEST PUSH1 0x1F DUP2 GT PUSH2 0x6A8 JUMPI JUMPDEST POP PUSH1 0x20 SWAP1 PUSH1 0x1F DUP4 GT PUSH1 0x1 EQ PUSH2 0x63A JUMPI PUSH1 0x9 SWAP3 SWAP2 PUSH1 0x0 SWAP2 DUP4 PUSH2 0x62F JUMPI JUMPDEST POP POP DUP2 PUSH1 0x1 SHL SWAP2 PUSH1 0x0 NOT SWAP1 PUSH1 0x3 SHL SHR NOT AND OR SWAP2 ADD SSTORE JUMPDEST PUSH1 0x4 CALLDATALOAD PUSH1 0x0 MSTORE PUSH1 0x4 PUSH1 0x20 MSTORE PUSH1 0x40 PUSH1 0x0 KECCAK256 SWAP2 DUP3 SLOAD SWAP3 PUSH9 0x10000000000000000 DUP5 LT ISZERO PUSH2 0x619 JUMPI DUP4 PUSH2 0x5AD SWAP2 PUSH1 0x1 PUSH1 0x20 SWAP7 ADD DUP2 SSTORE PUSH2 0x171B JUMP JUMPDEST DUP2 SLOAD SWAP1 PUSH1 0x3 SHL SWAP1 DUP5 DUP3 SHL SWAP2 PUSH1 0x0 NOT SWAP1 SHL NOT AND OR SWAP1 SSTORE PUSH2 0x5D0 PUSH1 0x44 CALLDATALOAD PUSH1 0x7 SLOAD PUSH2 0x190F JUMP JUMPDEST PUSH1 0x7 SSTORE PUSH1 0x40 MLOAD SWAP1 PUSH1 0x24 CALLDATALOAD DUP3 MSTORE PUSH1 0x44 CALLDATALOAD DUP5 DUP4 ADD MSTORE PUSH1 0x40 DUP3 ADD MSTORE DUP2 PUSH32 0xF7741BFE8A43E2254A194D8724FAF0CFBADC74B52858BF5A5FEAF25EF519E6C PUSH1 0x60 PUSH1 0x4 CALLDATALOAD SWAP4 LOG3 PUSH1 0x40 MLOAD SWAP1 DUP2 MSTORE RETURN JUMPDEST PUSH4 0x4E487B71 PUSH1 0xE0 SHL PUSH1 0x0 MSTORE PUSH1 0x41 PUSH1 0x4 MSTORE PUSH1 0x24 PUSH1 0x0 REVERT JUMPDEST ADD MLOAD SWAP1 POP DUP7 DUP1 PUSH2 0x560 JUMP JUMPDEST SWAP1 PUSH1 0x1F NOT DUP4 AND SWAP2 PUSH1 0x9 DUP6 ADD PUSH1 0x0 MSTORE PUSH1 0x20 PUSH1 0x0 KECCAK256 SWAP3 PUSH1 0x0 JUMPDEST DUP2 DUP2 LT PUSH2 0x690 JUMPI POP SWAP2 PUSH1 0x1 SWAP4 SWAP2 DUP6 PUSH1 0x9 SWAP7 SWAP5 LT PUSH2 0x677 JUMPI JUMPDEST POP POP POP DUP2 SHL ADD SWAP2 ADD SSTORE PUSH2 0x576 JUMP JUMPDEST ADD MLOAD PUSH1 0x0 NOT PUSH1 0xF8 DUP5 PUSH1 0x3 SHL AND SHR NOT AND SWAP1 SSTORE DUP7 DUP1 DUP1 PUSH2 0x669 JUMP JUMPDEST SWAP3 SWAP4 PUSH1 0x20 PUSH1 0x1 DUP2 SWAP3 DUP8 DUP7 ADD MLOAD DUP2 SSTORE ADD SWAP6 ADD SWAP4 ADD PUSH2 0x651 JUMP JUMPDEST PUSH1 0x9 DUP5 ADD PUSH1 0x0 MSTORE PUSH1 0x20 PUSH1 0x0 KECCAK256 PUSH1 0x1F DUP5 ADD PUSH1 0x5 SHR DUP2 ADD PUSH1 0x20 DUP6 LT PUSH2 0x6E8 JUMPI JUMPDEST PUSH1 0x1F DUP4 ADD PUSH1 0x5 SHR DUP3 ADD DUP2 LT PUSH2 0x6DC JUMPI POP POP PUSH2 0x544 JUMP JUMPDEST PUSH1 0x0 DUP2 SSTORE PUSH1 0x1 ADD PUSH2 0x6C6 JUMP JUMPDEST POP DUP1 PUSH2 0x6C6 JUMP JUMPDEST PUSH1 0x24 SWAP2 PUSH4 0x5274AFE7 PUSH1 0xE0 SHL DUP3 MSTORE PUSH1 0x4 DUP3 ADD MSTORE REVERT JUMPDEST PUSH1 0x1 DUP2 ISZERO AND PUSH2 0x719 JUMPI DUP3 EXTCODESIZE ISZERO ISZERO RETURNDATASIZE ISZERO AND AND PUSH2 0x3D4 JUMP JUMPDEST POP RETURNDATASIZE PUSH1 0x0 DUP3 RETURNDATACOPY RETURNDATASIZE SWAP1 REVERT JUMPDEST PUSH1 0x40 MLOAD PUSH3 0x461BCD PUSH1 0xE5 SHL DUP2 MSTORE PUSH1 0x20 PUSH1 0x4 DUP3 ADD MSTORE PUSH1 0x13 PUSH1 0x24 DUP3 ADD MSTORE PUSH19 0x125B9D985B1A59081B595C9ADB19481C9BDBDD PUSH1 0x6A SHL PUSH1 0x44 DUP3 ADD MSTORE PUSH1 0x64 SWAP1 REVERT JUMPDEST PUSH1 0x44 SWAP1 PUSH1 0x40 MLOAD SWAP1 PUSH4 0xE2517D3F PUSH1 0xE0 SHL DUP3 MSTORE CALLER PUSH1 0x4 DUP4 ADD MSTORE PUSH1 0x24 DUP3 ADD MSTORE REVERT JUMPDEST CALLVALUE PUSH2 0x1AF JUMPI PUSH1 0x0 CALLDATASIZE PUSH1 0x3 NOT ADD SLT PUSH2 0x1AF JUMPI PUSH1 0x20 PUSH1 0x40 MLOAD PUSH1 0x0 DUP2 MSTORE RETURN JUMPDEST CALLVALUE PUSH2 0x1AF JUMPI PUSH1 0x60 CALLDATASIZE PUSH1 0x3 NOT ADD SLT PUSH2 0x1AF JUMPI PUSH1 0x4 CALLDATALOAD PUSH1 0x1 PUSH1 0x1 PUSH1 0x40 SHL SUB DUP2 GT PUSH2 0x1AF JUMPI PUSH2 0x7C8 SWAP1 CALLDATASIZE SWAP1 PUSH1 0x4 ADD PUSH2 0x16EB JUMP JUMPDEST SWAP1 PUSH1 0x24 CALLDATALOAD PUSH1 0x1 PUSH1 0x1 PUSH1 0x40 SHL SUB DUP2 GT PUSH2 0x1AF JUMPI PUSH2 0x7E8 SWAP1 CALLDATASIZE SWAP1 PUSH1 0x4 ADD PUSH2 0x16EB JUMP JUMPDEST SWAP2 SWAP1 PUSH1 0x44 CALLDATALOAD PUSH1 0x1 PUSH1 0x1 PUSH1 0x40 SHL SUB DUP2 GT PUSH2 0x1AF JUMPI PUSH2 0x809 SWAP1 CALLDATASIZE SWAP1 PUSH1 0x4 ADD PUSH2 0x16EB JUMP JUMPDEST SWAP2 SWAP1 SWAP4 PUSH2 0x814 PUSH2 0x1A11 JUMP JUMPDEST PUSH2 0x81C PUSH2 0x191C JUMP JUMPDEST DUP1 DUP7 EQ DUP1 PUSH2 0xA91 JUMPI JUMPDEST ISZERO PUSH2 0xA5A JUMPI PUSH1 0x0 SWAP6 PUSH1 0x0 JUMPDEST DUP2 DUP2 LT PUSH2 0x873 JUMPI DUP8 DUP1 PUSH2 0x852 JUMPI JUMPDEST PUSH1 0x1 PUSH1 0x0 DUP1 MLOAD PUSH1 0x20 PUSH2 0x1B7E DUP4 CODECOPY DUP2 MLOAD SWAP2 MSTORE SSTORE STOP JUMPDEST PUSH1 0x1 SLOAD PUSH2 0x86D SWAP2 SWAP1 CALLER SWAP1 PUSH1 0x8 SHR PUSH1 0x1 PUSH1 0x1 PUSH1 0xA0 SHL SUB AND PUSH2 0x1990 JUMP JUMPDEST DUP1 PUSH2 0x83E JUMP JUMPDEST PUSH2 0x87E DUP2 DUP4 DUP9 PUSH2 0x1A9B JUMP JUMPDEST CALLDATALOAD SWAP8 PUSH2 0x88B DUP3 DUP6 DUP8 PUSH2 0x1A9B JUMP JUMPDEST CALLDATALOAD SWAP1 DUP7 DUP4 LT ISZERO PUSH2 0xA44 JUMPI DUP3 PUSH1 0x5 SHL DUP10 ADD CALLDATALOAD PUSH1 0x1E NOT DUP11 CALLDATASIZE SUB ADD DUP2 SLT ISZERO PUSH2 0x1AF JUMPI PUSH1 0x1 PUSH1 0x1 PUSH1 0x40 SHL SUB DUP2 DUP12 ADD CALLDATALOAD GT PUSH2 0x1AF JUMPI DUP1 DUP11 ADD CALLDATALOAD PUSH1 0x5 SHL CALLDATASIZE SUB PUSH1 0x20 DUP3 DUP13 ADD ADD SGT PUSH2 0x1AF JUMPI DUP11 PUSH1 0x0 MSTORE PUSH1 0x2 PUSH1 0x20 MSTORE PUSH1 0x40 PUSH1 0x0 KECCAK256 SWAP1 PUSH1 0xFF PUSH1 0x8 DUP4 ADD SLOAD AND ISZERO DUP1 ISZERO PUSH2 0xA37 JUMPI JUMPDEST PUSH2 0xA21 JUMPI PUSH1 0x3 PUSH1 0x20 MSTORE PUSH1 0x40 PUSH1 0x0 KECCAK256 CALLER PUSH1 0x0 MSTORE PUSH1 0x20 MSTORE PUSH1 0xFF PUSH1 0x40 PUSH1 0x0 KECCAK256 SLOAD AND DUP1 ISZERO PUSH2 0xA2F JUMPI JUMPDEST PUSH2 0xA21 JUMPI PUSH1 0x40 DUP1 MLOAD CALLER PUSH1 0x20 DUP3 ADD SWAP1 DUP2 MSTORE SWAP2 DUP2 ADD DUP7 SWAP1 MSTORE PUSH2 0x985 SWAP3 SWAP2 DUP14 SWAP2 PUSH2 0x980 SWAP2 SWAP1 PUSH2 0x94C DUP2 PUSH1 0x60 DUP2 ADD JUMPDEST SUB PUSH1 0x1F NOT DUP2 ADD DUP4 MSTORE DUP3 PUSH2 0x16CA JUMP JUMPDEST MLOAD SWAP1 KECCAK256 PUSH1 0x40 MLOAD PUSH1 0x20 DUP2 ADD SWAP2 DUP3 MSTORE PUSH1 0x20 DUP2 MSTORE PUSH2 0x966 DUP2 PUSH2 0x16AF JUMP JUMPDEST MLOAD SWAP1 KECCAK256 SWAP3 PUSH1 0x1 DUP7 ADD SLOAD SWAP3 PUSH1 0x20 CALLDATASIZE SWAP3 DUP1 DUP4 ADD CALLDATALOAD SWAP3 ADD ADD PUSH2 0x193A JUMP JUMPDEST PUSH2 0x1A41 JUMP JUMPDEST ISZERO PUSH2 0xA14 JUMPI DUP3 PUSH2 0xA0F SWAP5 SWAP4 SWAP3 PUSH1 0x3 PUSH2 0x9DD SWAP4 DUP15 PUSH1 0x0 MSTORE DUP2 PUSH1 0x20 MSTORE PUSH1 0x40 PUSH1 0x0 KECCAK256 CALLER PUSH1 0x0 MSTORE PUSH1 0x20 MSTORE PUSH1 0x40 PUSH1 0x0 KECCAK256 PUSH1 0x1 PUSH1 0xFF NOT DUP3 SLOAD AND OR SWAP1 SSTORE ADD PUSH2 0x9C7 DUP4 DUP3 SLOAD PUSH2 0x190F JUMP JUMPDEST SWAP1 SSTORE PUSH2 0x9D5 DUP3 PUSH1 0x8 SLOAD PUSH2 0x190F JUMP JUMPDEST PUSH1 0x8 SSTORE PUSH2 0x190F JUMP JUMPDEST SWAP10 PUSH1 0x40 MLOAD SWAP2 DUP3 MSTORE PUSH32 0xA1594D215A577C1905BCB0B5B186A40A0104714277441D4B2AC428C89BF7F4B1 PUSH1 0x20 CALLER SWAP4 LOG3 PUSH2 0x1900 JUMP JUMPDEST PUSH2 0x830 JUMP JUMPDEST POP SWAP9 POP POP PUSH2 0xA0F SWAP1 PUSH2 0x1900 JUMP JUMPDEST POP POP SWAP9 POP POP PUSH2 0xA0F SWAP1 PUSH2 0x1900 JUMP JUMPDEST POP DUP4 ISZERO PUSH2 0x913 JUMP JUMPDEST POP PUSH1 0x7 DUP3 ADD SLOAD TIMESTAMP GT PUSH2 0x8EE JUMP JUMPDEST PUSH4 0x4E487B71 PUSH1 0xE0 SHL PUSH1 0x0 MSTORE PUSH1 0x32 PUSH1 0x4 MSTORE PUSH1 0x24 PUSH1 0x0 REVERT JUMPDEST PUSH1 0x40 MLOAD PUSH3 0x461BCD PUSH1 0xE5 SHL DUP2 MSTORE PUSH1 0x20 PUSH1 0x4 DUP3 ADD MSTORE PUSH1 0xF PUSH1 0x24 DUP3 ADD MSTORE PUSH15 0x98CADCCEE8D040DAD2E6DAC2E8C6D PUSH1 0x8B SHL PUSH1 0x44 DUP3 ADD MSTORE PUSH1 0x64 SWAP1 REVERT JUMPDEST POP DUP3 DUP2 EQ PUSH2 0x825 JUMP JUMPDEST CALLVALUE PUSH2 0x1AF JUMPI PUSH1 0x80 CALLDATASIZE PUSH1 0x3 NOT ADD SLT PUSH2 0x1AF JUMPI PUSH2 0xAB3 PUSH2 0x165F JUMP JUMPDEST PUSH1 0x64 CALLDATALOAD PUSH1 0x1 PUSH1 0x1 PUSH1 0x40 SHL SUB DUP2 GT PUSH2 0x1AF JUMPI PUSH1 0x20 SWAP2 PUSH2 0xAD8 PUSH2 0xAE5 SWAP3 CALLDATASIZE SWAP1 PUSH1 0x4 ADD PUSH2 0x16EB JUMP JUMPDEST SWAP2 PUSH1 0x44 CALLDATALOAD SWAP1 PUSH1 0x4 CALLDATALOAD PUSH2 0x1AB8 JUMP JUMPDEST PUSH1 0x40 MLOAD SWAP1 ISZERO ISZERO DUP2 MSTORE RETURN JUMPDEST CALLVALUE PUSH2 0x1AF JUMPI PUSH1 0x20 DUP1 PUSH1 0x3 NOT CALLDATASIZE ADD SLT PUSH2 0x1AF JUMPI PUSH1 0x4 CALLDATALOAD PUSH1 0x1 PUSH1 0x1 PUSH1 0x40 SHL SUB DUP2 GT PUSH2 0x1AF JUMPI PUSH2 0xB20 SWAP1 CALLDATASIZE SWAP1 PUSH1 0x4 ADD PUSH2 0x16EB JUMP JUMPDEST PUSH2 0xB2B SWAP3 SWAP2 SWAP3 PUSH2 0x1733 JUMP JUMPDEST PUSH2 0xB33 PUSH2 0x1A11 JUMP JUMPDEST PUSH1 0x0 SWAP3 PUSH1 0x0 JUMPDEST DUP3 DUP2 LT PUSH2 0xB5A JUMPI DUP5 DUP1 PUSH2 0x852 JUMPI PUSH1 0x1 PUSH1 0x0 DUP1 MLOAD PUSH1 0x20 PUSH2 0x1B7E DUP4 CODECOPY DUP2 MLOAD SWAP2 MSTORE SSTORE STOP JUMPDEST PUSH2 0xB65 DUP2 DUP5 DUP5 PUSH2 0x1A9B JUMP JUMPDEST CALLDATALOAD PUSH1 0x0 MSTORE PUSH1 0x2 DUP1 DUP6 MSTORE PUSH1 0x40 PUSH1 0x0 KECCAK256 PUSH1 0x8 DUP2 ADD SWAP1 DUP2 SLOAD SWAP3 PUSH1 0xFF DUP5 AND ISZERO DUP1 ISZERO PUSH2 0xC18 JUMPI JUMPDEST PUSH2 0xC0B JUMPI DUP2 ADD SLOAD PUSH1 0x3 SWAP1 SWAP2 ADD SLOAD PUSH2 0xB9D SWAP2 PUSH2 0x1AAB JUMP JUMPDEST SWAP2 DUP3 PUSH2 0xBB5 JUMPI JUMPDEST POP POP POP PUSH2 0xBB0 SWAP1 PUSH2 0x1900 JUMP JUMPDEST PUSH2 0xB39 JUMP JUMPDEST PUSH1 0xFF NOT AND SWAP1 SSTORE SWAP5 PUSH2 0xBB0 SWAP2 SWAP1 PUSH2 0xBCC SWAP1 DUP8 SWAP1 PUSH2 0x190F JUMP JUMPDEST SWAP6 PUSH32 0x26ACACA85A5745825E50DBDDBC6951579ED8521FA9090236A53C78706C3D0215 DUP7 PUSH2 0xBFA DUP5 DUP9 DUP9 PUSH2 0x1A9B JUMP JUMPDEST CALLDATALOAD SWAP3 PUSH1 0x40 MLOAD SWAP1 DUP2 MSTORE LOG2 SWAP1 DUP7 DUP1 PUSH2 0xBA4 JUMP JUMPDEST POP POP POP POP PUSH2 0xBB0 SWAP1 PUSH2 0x1900 JUMP JUMPDEST POP PUSH1 0x7 DUP3 ADD SLOAD TIMESTAMP GT ISZERO PUSH2 0xB87 JUMP JUMPDEST CALLVALUE PUSH2 0x1AF JUMPI PUSH1 0x40 CALLDATASIZE PUSH1 0x3 NOT ADD SLT PUSH2 0x1AF JUMPI PUSH2 0xC3F PUSH2 0x165F JUMP JUMPDEST PUSH1 0x4 CALLDATALOAD PUSH1 0x0 MSTORE PUSH1 0x0 PUSH1 0x20 MSTORE PUSH1 0x40 PUSH1 0x0 KECCAK256 SWAP1 PUSH1 0x1 DUP1 PUSH1 0xA0 SHL SUB AND PUSH1 0x0 MSTORE PUSH1 0x20 MSTORE PUSH1 0x20 PUSH1 0xFF PUSH1 0x40 PUSH1 0x0 KECCAK256 SLOAD AND PUSH1 0x40 MLOAD SWAP1 ISZERO ISZERO DUP2 MSTORE RETURN JUMPDEST CALLVALUE PUSH2 0x1AF JUMPI PUSH1 0x0 CALLDATASIZE PUSH1 0x3 NOT ADD SLT PUSH2 0x1AF JUMPI PUSH1 0x20 PUSH1 0x6 SLOAD PUSH1 0x40 MLOAD SWAP1 DUP2 MSTORE RETURN JUMPDEST CALLVALUE PUSH2 0x1AF JUMPI PUSH1 0x40 CALLDATASIZE PUSH1 0x3 NOT ADD SLT PUSH2 0x1AF JUMPI PUSH2 0xCAA PUSH2 0x165F JUMP JUMPDEST PUSH1 0x4 CALLDATALOAD PUSH1 0x0 MSTORE PUSH1 0x3 PUSH1 0x20 MSTORE PUSH1 0x40 PUSH1 0x0 KECCAK256 SWAP1 PUSH1 0x1 DUP1 PUSH1 0xA0 SHL SUB AND PUSH1 0x0 MSTORE PUSH1 0x20 MSTORE PUSH1 0x20 PUSH1 0xFF PUSH1 0x40 PUSH1 0x0 KECCAK256 SLOAD AND PUSH1 0x40 MLOAD SWAP1 ISZERO ISZERO DUP2 MSTORE RETURN JUMPDEST CALLVALUE PUSH2 0x1AF JUMPI PUSH1 0x60 CALLDATASIZE PUSH1 0x3 NOT ADD SLT PUSH2 0x1AF JUMPI PUSH1 0x24 CALLDATALOAD PUSH1 0x4 CALLDATALOAD PUSH1 0x44 CALLDATALOAD PUSH1 0x1 PUSH1 0x1 PUSH1 0x40 SHL SUB DUP2 GT PUSH2 0x1AF JUMPI PUSH2 0xD14 SWAP1 CALLDATASIZE SWAP1 PUSH1 0x4 ADD PUSH2 0x16EB JUMP JUMPDEST PUSH2 0xD1C PUSH2 0x1A11 JUMP JUMPDEST PUSH2 0xD24 PUSH2 0x191C JUMP JUMPDEST DUP3 PUSH1 0x0 MSTORE PUSH1 0x20 SWAP2 PUSH1 0x2 DUP4 MSTORE PUSH1 0x40 PUSH1 0x0 KECCAK256 SWAP2 PUSH1 0xFF PUSH1 0x8 DUP5 ADD SLOAD AND ISZERO PUSH2 0xF12 JUMPI PUSH1 0x7 DUP4 ADD SLOAD TIMESTAMP GT PUSH2 0xED6 JUMPI DUP5 PUSH1 0x0 MSTORE PUSH1 0x3 DUP5 MSTORE PUSH1 0x40 PUSH1 0x0 KECCAK256 CALLER PUSH1 0x0 MSTORE DUP5 MSTORE PUSH1 0xFF PUSH1 0x40 PUSH1 0x0 KECCAK256 SLOAD AND PUSH2 0xE9F JUMPI SWAP1 PUSH2 0xDCC SWAP2 PUSH2 0xD7D DUP8 ISZERO ISZERO PUSH2 0x1886 JUMP JUMPDEST PUSH1 0x40 DUP1 MLOAD CALLER DUP8 DUP3 ADD SWAP1 DUP2 MSTORE PUSH1 0x20 DUP2 ADD DUP11 SWAP1 MSTORE PUSH2 0x980 SWAP3 SWAP1 SWAP2 SWAP1 PUSH2 0xDA3 SWAP1 DUP3 SWAP1 DUP5 ADD PUSH2 0x93E JUMP JUMPDEST MLOAD SWAP1 KECCAK256 PUSH1 0x40 MLOAD DUP8 DUP2 ADD SWAP2 DUP3 MSTORE DUP8 DUP2 MSTORE PUSH2 0xDBB DUP2 PUSH2 0x16AF JUMP JUMPDEST MLOAD SWAP1 KECCAK256 SWAP3 PUSH1 0x1 DUP7 ADD SLOAD SWAP3 CALLDATASIZE SWAP2 PUSH2 0x193A JUMP JUMPDEST ISZERO PUSH2 0xE6A JUMPI SWAP1 PUSH1 0x3 PUSH32 0xA1594D215A577C1905BCB0B5B186A40A0104714277441D4B2AC428C89BF7F4B1 SWAP3 DUP5 PUSH1 0x0 MSTORE DUP2 DUP4 MSTORE PUSH1 0x40 PUSH1 0x0 KECCAK256 CALLER PUSH1 0x0 MSTORE DUP4 MSTORE PUSH1 0x40 PUSH1 0x0 KECCAK256 PUSH1 0x1 PUSH1 0xFF NOT DUP3 SLOAD AND OR SWAP1 SSTORE ADD PUSH2 0xE24 DUP6 DUP3 SLOAD PUSH2 0x190F JUMP JUMPDEST SWAP1 SSTORE PUSH2 0xE32 DUP5 PUSH1 0x8 SLOAD PUSH2 0x190F JUMP JUMPDEST PUSH1 0x8 SSTORE PUSH2 0xE4D DUP5 CALLER PUSH1 0x1 DUP1 PUSH1 0xA0 SHL SUB PUSH1 0x1 SLOAD PUSH1 0x8 SHR AND PUSH2 0x1990 JUMP JUMPDEST PUSH1 0x40 MLOAD SWAP4 DUP5 MSTORE CALLER SWAP4 LOG3 PUSH1 0x1 PUSH1 0x0 DUP1 MLOAD PUSH1 0x20 PUSH2 0x1B7E DUP4 CODECOPY DUP2 MLOAD SWAP2 MSTORE SSTORE STOP JUMPDEST PUSH1 0x40 MLOAD PUSH3 0x461BCD PUSH1 0xE5 SHL DUP2 MSTORE PUSH1 0x4 DUP2 ADD DUP4 SWAP1 MSTORE PUSH1 0xD PUSH1 0x24 DUP3 ADD MSTORE PUSH13 0x24B73B30B634B210383937B7B3 PUSH1 0x99 SHL PUSH1 0x44 DUP3 ADD MSTORE PUSH1 0x64 SWAP1 REVERT JUMPDEST PUSH1 0x40 MLOAD PUSH3 0x461BCD PUSH1 0xE5 SHL DUP2 MSTORE PUSH1 0x4 DUP2 ADD DUP6 SWAP1 MSTORE PUSH1 0xF PUSH1 0x24 DUP3 ADD MSTORE PUSH15 0x105B1C9958591E4818DB185A5B5959 PUSH1 0x8A SHL PUSH1 0x44 DUP3 ADD MSTORE PUSH1 0x64 SWAP1 REVERT JUMPDEST PUSH1 0x40 MLOAD PUSH3 0x461BCD PUSH1 0xE5 SHL DUP2 MSTORE PUSH1 0x4 DUP2 ADD DUP6 SWAP1 MSTORE PUSH1 0x14 PUSH1 0x24 DUP3 ADD MSTORE PUSH20 0x111A5CDD1C9A589D5D1A5BDB88195E1C1A5C9959 PUSH1 0x62 SHL PUSH1 0x44 DUP3 ADD MSTORE PUSH1 0x64 SWAP1 REVERT JUMPDEST PUSH1 0x40 MLOAD PUSH3 0x461BCD PUSH1 0xE5 SHL DUP2 MSTORE PUSH1 0x4 DUP2 ADD DUP6 SWAP1 MSTORE PUSH1 0x17 PUSH1 0x24 DUP3 ADD MSTORE PUSH32 0x446973747269627574696F6E206E6F7420616374697665000000000000000000 PUSH1 0x44 DUP3 ADD MSTORE PUSH1 0x64 SWAP1 REVERT JUMPDEST CALLVALUE PUSH2 0x1AF JUMPI PUSH1 0x0 CALLDATASIZE PUSH1 0x3 NOT ADD SLT PUSH2 0x1AF JUMPI PUSH2 0xF70 PUSH2 0x1733 JUMP JUMPDEST PUSH2 0xF78 PUSH2 0x191C JUMP JUMPDEST PUSH1 0x1 PUSH1 0xFF NOT DUP2 SLOAD AND OR PUSH1 0x1 SSTORE PUSH32 0x62E78CEA01BEE320CD4E420270B5EA74000D11B0C9F74754EBDBFC544B05A258 PUSH1 0x20 PUSH1 0x40 MLOAD CALLER DUP2 MSTORE LOG1 STOP JUMPDEST CALLVALUE PUSH2 0x1AF JUMPI PUSH1 0x0 CALLDATASIZE PUSH1 0x3 NOT ADD SLT PUSH2 0x1AF JUMPI PUSH1 0x20 PUSH1 0x5 SLOAD PUSH1 0x40 MLOAD SWAP1 DUP2 MSTORE RETURN JUMPDEST CALLVALUE PUSH2 0x1AF JUMPI PUSH1 0x0 CALLDATASIZE PUSH1 0x3 NOT ADD SLT PUSH2 0x1AF JUMPI PUSH1 0x1 SLOAD PUSH1 0x40 MLOAD PUSH4 0x70A08231 PUSH1 0xE0 SHL DUP2 MSTORE ADDRESS PUSH1 0x4 DUP3 ADD MSTORE SWAP1 PUSH1 0x20 SWAP1 DUP3 SWAP1 PUSH1 0x24 SWAP1 DUP3 SWAP1 PUSH1 0x8 SHR PUSH1 0x1 PUSH1 0x1 PUSH1 0xA0 SHL SUB AND GAS STATICCALL DUP1 ISZERO PUSH2 0x1059 JUMPI PUSH1 0x0 SWAP1 PUSH2 0x1027 JUMPI JUMPDEST PUSH1 0x20 SWAP1 PUSH1 0x40 MLOAD SWAP1 DUP2 MSTORE RETURN JUMPDEST POP PUSH1 0x20 DUP2 RETURNDATASIZE DUP3 GT PUSH2 0x1051 JUMPI JUMPDEST DUP2 PUSH2 0x1040 PUSH1 0x20 SWAP4 DUP4 PUSH2 0x16CA JUMP JUMPDEST DUP2 ADD SUB SLT PUSH2 0x1AF JUMPI PUSH1 0x20 SWAP1 MLOAD PUSH2 0x101C JUMP JUMPDEST RETURNDATASIZE SWAP2 POP PUSH2 0x1033 JUMP JUMPDEST PUSH1 0x40 MLOAD RETURNDATASIZE PUSH1 0x0 DUP3 RETURNDATACOPY RETURNDATASIZE SWAP1 REVERT JUMPDEST CALLVALUE PUSH2 0x1AF JUMPI PUSH1 0x0 CALLDATASIZE PUSH1 0x3 NOT ADD SLT PUSH2 0x1AF JUMPI PUSH1 0x20 PUSH1 0xFF PUSH1 0x1 SLOAD AND PUSH1 0x40 MLOAD SWAP1 ISZERO ISZERO DUP2 MSTORE RETURN JUMPDEST CALLVALUE PUSH2 0x1AF JUMPI PUSH1 0x20 CALLDATASIZE PUSH1 0x3 NOT ADD SLT PUSH2 0x1AF JUMPI PUSH1 0x4 CALLDATALOAD PUSH2 0x10A4 PUSH2 0x1733 JUMP JUMPDEST DUP1 PUSH1 0x0 MSTORE PUSH1 0x2 PUSH1 0x20 MSTORE PUSH1 0x40 PUSH1 0x0 KECCAK256 PUSH1 0x8 DUP2 ADD SWAP1 DUP2 SLOAD SWAP2 PUSH1 0xFF DUP4 AND ISZERO PUSH2 0x112C JUMPI PUSH2 0x10DD SWAP3 PUSH1 0xFF NOT AND SWAP1 SSTORE PUSH1 0x3 PUSH1 0x2 DUP3 ADD SLOAD SWAP2 ADD SLOAD SWAP1 PUSH2 0x1AAB JUMP JUMPDEST DUP1 PUSH2 0x110B JUMPI JUMPDEST POP PUSH32 0x301B79D5A6D67C8B210AC38661DBC6A6018558EC5B10DD5DAB04FF3C98F4D018 PUSH1 0x0 DUP1 LOG2 STOP JUMPDEST PUSH1 0x1 SLOAD PUSH2 0x1126 SWAP2 SWAP1 CALLER SWAP1 PUSH1 0x8 SHR PUSH1 0x1 PUSH1 0x1 PUSH1 0xA0 SHL SUB AND PUSH2 0x1990 JUMP JUMPDEST DUP2 PUSH2 0x10E3 JUMP JUMPDEST PUSH1 0x40 MLOAD PUSH3 0x461BCD PUSH1 0xE5 SHL DUP2 MSTORE PUSH1 0x20 PUSH1 0x4 DUP3 ADD MSTORE PUSH1 0xA PUSH1 0x24 DUP3 ADD MSTORE PUSH10 0x4E6F7420616374697665 PUSH1 0xB0 SHL PUSH1 0x44 DUP3 ADD MSTORE PUSH1 0x64 SWAP1 REVERT JUMPDEST CALLVALUE PUSH2 0x1AF JUMPI PUSH1 0x20 DUP1 PUSH1 0x3 NOT CALLDATASIZE ADD SLT PUSH2 0x1AF JUMPI PUSH1 0x4 CALLDATALOAD PUSH1 0x0 MSTORE PUSH1 0x2 DUP2 MSTORE PUSH1 0x40 PUSH1 0x0 KECCAK256 DUP1 SLOAD SWAP2 PUSH1 0x1 SWAP2 DUP3 DUP2 ADD SLOAD PUSH1 0x2 DUP3 ADD SLOAD PUSH1 0x3 DUP4 ADD SLOAD PUSH1 0x4 DUP5 ADD SLOAD PUSH1 0x5 DUP6 ADD SLOAD SWAP2 PUSH1 0x6 DUP7 ADD SLOAD SWAP4 PUSH1 0x7 DUP8 ADD SLOAD SWAP6 DUP9 PUSH1 0x9 PUSH1 0xFF PUSH1 0x8 DUP12 ADD SLOAD AND SWAP10 ADD SWAP11 PUSH1 0x40 MLOAD SWAP12 DUP13 SWAP2 PUSH1 0x0 SWAP2 DUP1 SLOAD PUSH2 0x11CC DUP2 PUSH2 0x1675 JUMP JUMPDEST DUP1 DUP7 MSTORE SWAP6 DUP2 DUP5 AND SWAP2 DUP3 ISZERO PUSH2 0x12B1 JUMPI POP POP PUSH1 0x1 EQ PUSH2 0x1271 JUMPI JUMPDEST POP POP PUSH2 0x11F2 SWAP3 POP SUB DUP12 PUSH2 0x16CA JUMP JUMPDEST PUSH1 0x40 MLOAD SWAP11 DUP12 MSTORE DUP9 DUP12 ADD MSTORE PUSH1 0x40 DUP11 ADD MSTORE PUSH1 0x60 DUP10 ADD MSTORE PUSH1 0x80 DUP9 ADD MSTORE PUSH1 0xA0 DUP8 ADD MSTORE PUSH1 0xC0 DUP7 ADD MSTORE PUSH1 0xE0 DUP6 ADD MSTORE ISZERO ISZERO PUSH2 0x100 DUP5 ADD MSTORE PUSH2 0x140 SWAP2 DUP3 PUSH2 0x120 DUP6 ADD MSTORE DUP1 MLOAD DUP1 SWAP4 DUP6 ADD MSTORE PUSH1 0x0 JUMPDEST DUP4 DUP2 LT PUSH2 0x125C JUMPI POP POP POP DUP2 PUSH2 0x160 SWAP2 PUSH1 0x0 DUP4 DUP3 DUP5 ADD ADD MSTORE PUSH1 0x1F DUP1 NOT SWAP2 ADD AND DUP2 ADD SUB ADD SWAP1 RETURN JUMPDEST DUP2 DUP2 ADD DUP4 ADD MLOAD DUP6 DUP3 ADD PUSH2 0x160 ADD MSTORE DUP3 ADD PUSH2 0x1237 JUMP JUMPDEST DUP14 SWAP3 POP PUSH1 0x0 MSTORE DUP2 PUSH1 0x0 KECCAK256 SWAP1 PUSH1 0x0 SWAP2 JUMPDEST DUP6 DUP4 LT PUSH2 0x1298 JUMPI POP POP PUSH2 0x11F2 SWAP4 POP DUP3 ADD ADD DUP15 DUP1 PUSH2 0x11E4 JUMP JUMPDEST DUP2 SWAP5 DUP5 DUP5 DUP4 SWAP7 SWAP6 SWAP7 SLOAD SWAP3 ADD ADD MSTORE ADD SWAP2 ADD DUP14 SWAP3 DUP14 SWAP3 PUSH2 0x1280 JUMP JUMPDEST SWAP3 POP SWAP4 POP POP PUSH2 0x11F2 SWAP5 SWAP2 POP PUSH1 0xFF NOT AND DUP3 DUP5 ADD MSTORE ISZERO ISZERO PUSH1 0x5 SHL DUP3 ADD ADD DUP15 DUP1 PUSH2 0x11E4 JUMP JUMPDEST CALLVALUE PUSH2 0x1AF JUMPI PUSH1 0x0 CALLDATASIZE PUSH1 0x3 NOT ADD SLT PUSH2 0x1AF JUMPI PUSH2 0x12EC PUSH2 0x1733 JUMP JUMPDEST PUSH1 0x1 SLOAD PUSH1 0xFF DUP2 AND ISZERO PUSH2 0x132B JUMPI PUSH1 0xFF NOT AND PUSH1 0x1 SSTORE PUSH32 0x5DB9EE0A495BF2E6FF9C91A7834C1BA4FDD244A5E8AA4E537BD38AEAE4B073AA PUSH1 0x20 PUSH1 0x40 MLOAD CALLER DUP2 MSTORE LOG1 STOP JUMPDEST PUSH1 0x40 MLOAD PUSH4 0x8DFC202B PUSH1 0xE0 SHL DUP2 MSTORE PUSH1 0x4 SWAP1 REVERT JUMPDEST CALLVALUE PUSH2 0x1AF JUMPI PUSH1 0x20 CALLDATASIZE PUSH1 0x3 NOT ADD SLT PUSH2 0x1AF JUMPI PUSH1 0x4 CALLDATALOAD PUSH1 0x0 MSTORE PUSH1 0x2 PUSH1 0x20 MSTORE PUSH2 0x120 PUSH1 0x40 PUSH1 0x0 KECCAK256 DUP1 SLOAD SWAP1 PUSH1 0x1 DUP2 ADD SLOAD SWAP1 PUSH1 0x2 DUP2 ADD SLOAD PUSH1 0x3 DUP3 ADD SLOAD PUSH1 0x4 DUP4 ADD SLOAD PUSH1 0x5 DUP5 ADD SLOAD SWAP2 PUSH1 0x6 DUP6 ADD SLOAD SWAP4 PUSH1 0xFF PUSH1 0x8 PUSH1 0x7 DUP9 ADD SLOAD SWAP8 ADD SLOAD AND SWAP7 PUSH1 0x40 MLOAD SWAP9 DUP10 MSTORE PUSH1 0x20 DUP10 ADD MSTORE PUSH1 0x40 DUP9 ADD MSTORE PUSH1 0x60 DUP8 ADD MSTORE PUSH1 0x80 DUP7 ADD MSTORE PUSH1 0xA0 DUP6 ADD MSTORE PUSH1 0xC0 DUP5 ADD MSTORE PUSH1 0xE0 DUP4 ADD MSTORE ISZERO ISZERO PUSH2 0x100 DUP3 ADD MSTORE RETURN JUMPDEST CALLVALUE PUSH2 0x1AF JUMPI PUSH1 0x40 CALLDATASIZE PUSH1 0x3 NOT ADD SLT PUSH2 0x1AF JUMPI PUSH2 0x13DF PUSH2 0x165F JUMP JUMPDEST CALLER PUSH1 0x1 PUSH1 0x1 PUSH1 0xA0 SHL SUB DUP3 AND SUB PUSH2 0x13FB JUMPI PUSH2 0x22F SWAP1 PUSH1 0x4 CALLDATALOAD PUSH2 0x1811 JUMP JUMPDEST PUSH1 0x40 MLOAD PUSH4 0x334BD919 PUSH1 0xE1 SHL DUP2 MSTORE PUSH1 0x4 SWAP1 REVERT JUMPDEST CALLVALUE PUSH2 0x1AF JUMPI PUSH1 0x0 CALLDATASIZE PUSH1 0x3 NOT ADD SLT PUSH2 0x1AF JUMPI PUSH1 0x1 SLOAD PUSH1 0x40 MLOAD PUSH1 0x8 SWAP2 SWAP1 SWAP2 SHR PUSH1 0x1 PUSH1 0x1 PUSH1 0xA0 SHL SUB AND DUP2 MSTORE PUSH1 0x20 SWAP1 RETURN JUMPDEST CALLVALUE PUSH2 0x1AF JUMPI PUSH1 0x40 CALLDATASIZE PUSH1 0x3 NOT ADD SLT PUSH2 0x1AF JUMPI PUSH2 0x22F PUSH1 0x4 CALLDATALOAD PUSH2 0x1459 PUSH2 0x165F JUMP JUMPDEST SWAP1 DUP1 PUSH1 0x0 MSTORE PUSH1 0x0 PUSH1 0x20 MSTORE PUSH2 0x1474 PUSH1 0x1 PUSH1 0x40 PUSH1 0x0 KECCAK256 ADD SLOAD PUSH2 0x176D JUMP JUMPDEST PUSH2 0x1793 JUMP JUMPDEST CALLVALUE PUSH2 0x1AF JUMPI PUSH1 0x20 CALLDATASIZE PUSH1 0x3 NOT ADD SLT PUSH2 0x1AF JUMPI PUSH1 0x4 CALLDATALOAD PUSH1 0x0 MSTORE PUSH1 0x0 PUSH1 0x20 MSTORE PUSH1 0x20 PUSH1 0x1 PUSH1 0x40 PUSH1 0x0 KECCAK256 ADD SLOAD PUSH1 0x40 MLOAD SWAP1 DUP2 MSTORE RETURN JUMPDEST CALLVALUE PUSH2 0x1AF JUMPI PUSH1 0x20 CALLDATASIZE PUSH1 0x3 NOT ADD SLT PUSH2 0x1AF JUMPI PUSH1 0x4 CALLDATALOAD PUSH1 0x0 MSTORE PUSH1 0x2 PUSH1 0x20 MSTORE PUSH1 0x20 PUSH2 0x14DE PUSH1 0x40 PUSH1 0x0 KECCAK256 PUSH1 0x3 PUSH1 0x2 DUP3 ADD SLOAD SWAP2 ADD SLOAD SWAP1 PUSH2 0x1AAB JUMP JUMPDEST PUSH1 0x40 MLOAD SWAP1 DUP2 MSTORE RETURN JUMPDEST CALLVALUE PUSH2 0x1AF JUMPI PUSH1 0x20 CALLDATASIZE PUSH1 0x3 NOT ADD SLT PUSH2 0x1AF JUMPI PUSH1 0x4 CALLDATALOAD PUSH2 0x1502 PUSH2 0x1733 JUMP JUMPDEST DUP1 ISZERO PUSH2 0x150E DUP2 ISZERO PUSH2 0x18C3 JUMP JUMPDEST PUSH3 0x15180 DUP1 DUP4 MUL SWAP3 DUP4 DIV EQ OR ISZERO PUSH2 0x1550 JUMPI PUSH1 0x20 DUP2 PUSH32 0x76D8424A884E28DB7E90E432AC1D427E98FF82B7A50C54396EC417873A8A9855 SWAP3 PUSH1 0x6 SSTORE PUSH1 0x40 MLOAD SWAP1 DUP2 MSTORE LOG1 STOP JUMPDEST PUSH4 0x4E487B71 PUSH1 0xE0 SHL PUSH1 0x0 MSTORE PUSH1 0x11 PUSH1 0x4 MSTORE PUSH1 0x24 PUSH1 0x0 REVERT JUMPDEST CALLVALUE PUSH2 0x1AF JUMPI PUSH1 0x20 DUP1 PUSH1 0x3 NOT CALLDATASIZE ADD SLT PUSH2 0x1AF JUMPI PUSH1 0x4 CALLDATALOAD PUSH1 0x0 MSTORE PUSH1 0x4 DUP2 MSTORE PUSH1 0x40 PUSH1 0x0 KECCAK256 PUSH1 0x40 MLOAD SWAP1 DUP2 DUP4 DUP3 SLOAD SWAP2 DUP3 DUP2 MSTORE ADD SWAP1 DUP2 SWAP3 PUSH1 0x0 MSTORE DUP5 PUSH1 0x0 KECCAK256 SWAP1 PUSH1 0x0 JUMPDEST DUP7 DUP3 DUP3 LT PUSH2 0x15F8 JUMPI DUP7 DUP7 PUSH2 0x15B8 DUP3 DUP9 SUB DUP4 PUSH2 0x16CA JUMP JUMPDEST PUSH1 0x40 MLOAD SWAP3 DUP4 SWAP3 DUP2 DUP5 ADD SWAP1 DUP3 DUP6 MSTORE MLOAD DUP1 SWAP2 MSTORE PUSH1 0x40 DUP5 ADD SWAP3 SWAP2 PUSH1 0x0 JUMPDEST DUP3 DUP2 LT PUSH2 0x15E1 JUMPI POP POP POP POP SUB SWAP1 RETURN JUMPDEST DUP4 MLOAD DUP6 MSTORE DUP7 SWAP6 POP SWAP4 DUP2 ADD SWAP4 SWAP3 DUP2 ADD SWAP3 PUSH1 0x1 ADD PUSH2 0x15D2 JUMP JUMPDEST DUP4 SLOAD DUP6 MSTORE SWAP1 SWAP4 ADD SWAP3 PUSH1 0x1 SWAP3 DUP4 ADD SWAP3 ADD PUSH2 0x15A2 JUMP JUMPDEST CALLVALUE PUSH2 0x1AF JUMPI PUSH1 0x20 CALLDATASIZE PUSH1 0x3 NOT ADD SLT PUSH2 0x1AF JUMPI PUSH1 0x4 CALLDATALOAD SWAP1 PUSH4 0xFFFFFFFF PUSH1 0xE0 SHL DUP3 AND DUP1 SWAP3 SUB PUSH2 0x1AF JUMPI PUSH1 0x20 SWAP2 PUSH4 0x7965DB0B PUSH1 0xE0 SHL DUP2 EQ SWAP1 DUP2 ISZERO PUSH2 0x164E JUMPI JUMPDEST POP ISZERO ISZERO DUP2 MSTORE RETURN JUMPDEST PUSH4 0x1FFC9A7 PUSH1 0xE0 SHL EQ SWAP1 POP DUP4 PUSH2 0x1647 JUMP JUMPDEST PUSH1 0x24 CALLDATALOAD SWAP1 PUSH1 0x1 PUSH1 0x1 PUSH1 0xA0 SHL SUB DUP3 AND DUP3 SUB PUSH2 0x1AF JUMPI JUMP JUMPDEST SWAP1 PUSH1 0x1 DUP3 DUP2 SHR SWAP3 AND DUP1 ISZERO PUSH2 0x16A5 JUMPI JUMPDEST PUSH1 0x20 DUP4 LT EQ PUSH2 0x168F JUMPI JUMP JUMPDEST PUSH4 0x4E487B71 PUSH1 0xE0 SHL PUSH1 0x0 MSTORE PUSH1 0x22 PUSH1 0x4 MSTORE PUSH1 0x24 PUSH1 0x0 REVERT JUMPDEST SWAP2 PUSH1 0x7F AND SWAP2 PUSH2 0x1684 JUMP JUMPDEST PUSH1 0x40 DUP2 ADD SWAP1 DUP2 LT PUSH1 0x1 PUSH1 0x1 PUSH1 0x40 SHL SUB DUP3 GT OR PUSH2 0x619 JUMPI PUSH1 0x40 MSTORE JUMP JUMPDEST SWAP1 PUSH1 0x1F DUP1 NOT SWAP2 ADD AND DUP2 ADD SWAP1 DUP2 LT PUSH1 0x1 PUSH1 0x1 PUSH1 0x40 SHL SUB DUP3 GT OR PUSH2 0x619 JUMPI PUSH1 0x40 MSTORE JUMP JUMPDEST SWAP2 DUP2 PUSH1 0x1F DUP5 ADD SLT ISZERO PUSH2 0x1AF JUMPI DUP3 CALLDATALOAD SWAP2 PUSH1 0x1 PUSH1 0x1 PUSH1 0x40 SHL SUB DUP4 GT PUSH2 0x1AF JUMPI PUSH1 0x20 DUP1 DUP6 ADD SWAP5 DUP5 PUSH1 0x5 SHL ADD ADD GT PUSH2 0x1AF JUMPI JUMP JUMPDEST DUP1 SLOAD DUP3 LT ISZERO PUSH2 0xA44 JUMPI PUSH1 0x0 MSTORE PUSH1 0x20 PUSH1 0x0 KECCAK256 ADD SWAP1 PUSH1 0x0 SWAP1 JUMP JUMPDEST CALLER PUSH1 0x0 SWAP1 DUP2 MSTORE PUSH32 0xAD3228B676F7D3CD4284A5443F17F1962B36E491B30A40B2405849E597BA5FB5 PUSH1 0x20 MSTORE PUSH1 0x40 DUP2 KECCAK256 SLOAD PUSH1 0xFF AND ISZERO PUSH2 0x75E JUMPI POP JUMP JUMPDEST DUP1 PUSH1 0x0 MSTORE PUSH1 0x0 PUSH1 0x20 MSTORE PUSH1 0x40 PUSH1 0x0 KECCAK256 CALLER PUSH1 0x0 MSTORE PUSH1 0x20 MSTORE PUSH1 0xFF PUSH1 0x40 PUSH1 0x0 KECCAK256 SLOAD AND ISZERO PUSH2 0x75E JUMPI POP JUMP JUMPDEST SWAP1 PUSH1 0x0 SWAP2 DUP1 DUP4 MSTORE DUP3 PUSH1 0x20 MSTORE PUSH1 0x40 DUP4 KECCAK256 SWAP2 PUSH1 0x1 DUP1 PUSH1 0xA0 SHL SUB AND SWAP2 DUP3 DUP5 MSTORE PUSH1 0x20 MSTORE PUSH1 0xFF PUSH1 0x40 DUP5 KECCAK256 SLOAD AND ISZERO PUSH1 0x0 EQ PUSH2 0x180C JUMPI DUP1 DUP4 MSTORE DUP3 PUSH1 0x20 MSTORE PUSH1 0x40 DUP4 KECCAK256 DUP3 DUP5 MSTORE PUSH1 0x20 MSTORE PUSH1 0x40 DUP4 KECCAK256 PUSH1 0x1 PUSH1 0xFF NOT DUP3 SLOAD AND OR SWAP1 SSTORE PUSH32 0x2F8788117E7EFF1D82E926EC794901D17C78024A50270940304540A733656F0D CALLER SWAP4 DUP1 LOG4 PUSH1 0x1 SWAP1 JUMP JUMPDEST POP POP SWAP1 JUMP JUMPDEST SWAP1 PUSH1 0x0 SWAP2 DUP1 DUP4 MSTORE DUP3 PUSH1 0x20 MSTORE PUSH1 0x40 DUP4 KECCAK256 SWAP2 PUSH1 0x1 DUP1 PUSH1 0xA0 SHL SUB AND SWAP2 DUP3 DUP5 MSTORE PUSH1 0x20 MSTORE PUSH1 0xFF PUSH1 0x40 DUP5 KECCAK256 SLOAD AND PUSH1 0x0 EQ PUSH2 0x180C JUMPI DUP1 DUP4 MSTORE DUP3 PUSH1 0x20 MSTORE PUSH1 0x40 DUP4 KECCAK256 DUP3 DUP5 MSTORE PUSH1 0x20 MSTORE PUSH1 0x40 DUP4 KECCAK256 PUSH1 0xFF NOT DUP2 SLOAD AND SWAP1 SSTORE PUSH32 0xF6391F5C32D9C69D2A47EA670B442974B53935D1EDC7FD64EB21E047A839171B CALLER SWAP4 DUP1 LOG4 PUSH1 0x1 SWAP1 JUMP JUMPDEST ISZERO PUSH2 0x188D JUMPI JUMP JUMPDEST PUSH1 0x40 MLOAD PUSH3 0x461BCD PUSH1 0xE5 SHL DUP2 MSTORE PUSH1 0x20 PUSH1 0x4 DUP3 ADD MSTORE PUSH1 0xE PUSH1 0x24 DUP3 ADD MSTORE PUSH14 0x125B9D985B1A5908185B5BDD5B9D PUSH1 0x92 SHL PUSH1 0x44 DUP3 ADD MSTORE PUSH1 0x64 SWAP1 REVERT JUMPDEST ISZERO PUSH2 0x18CA JUMPI JUMP JUMPDEST PUSH1 0x40 MLOAD PUSH3 0x461BCD PUSH1 0xE5 SHL DUP2 MSTORE PUSH1 0x20 PUSH1 0x4 DUP3 ADD MSTORE PUSH1 0xE PUSH1 0x24 DUP3 ADD MSTORE PUSH14 0x125B9D985B1A59081C195C9A5BD9 PUSH1 0x92 SHL PUSH1 0x44 DUP3 ADD MSTORE PUSH1 0x64 SWAP1 REVERT JUMPDEST PUSH1 0x0 NOT DUP2 EQ PUSH2 0x1550 JUMPI PUSH1 0x1 ADD SWAP1 JUMP JUMPDEST SWAP2 SWAP1 DUP3 ADD DUP1 SWAP3 GT PUSH2 0x1550 JUMPI JUMP JUMPDEST PUSH1 0xFF PUSH1 0x1 SLOAD AND PUSH2 0x1928 JUMPI JUMP JUMPDEST PUSH1 0x40 MLOAD PUSH4 0xD93C0665 PUSH1 0xE0 SHL DUP2 MSTORE PUSH1 0x4 SWAP1 REVERT JUMPDEST SWAP1 SWAP3 SWAP2 PUSH1 0x1 PUSH1 0x1 PUSH1 0x40 SHL SUB DUP5 GT PUSH2 0x619 JUMPI DUP4 PUSH1 0x5 SHL PUSH1 0x40 MLOAD SWAP3 PUSH1 0x20 DUP1 SWAP5 PUSH2 0x1963 DUP3 DUP6 ADD DUP3 PUSH2 0x16CA JUMP JUMPDEST DUP1 SWAP8 DUP2 MSTORE ADD SWAP2 DUP2 ADD SWAP3 DUP4 GT PUSH2 0x1AF JUMPI SWAP1 JUMPDEST DUP3 DUP3 LT PUSH2 0x1981 JUMPI POP POP POP POP JUMP JUMPDEST DUP2 CALLDATALOAD DUP2 MSTORE SWAP1 DUP4 ADD SWAP1 DUP4 ADD PUSH2 0x1974 JUMP JUMPDEST PUSH1 0x40 MLOAD PUSH4 0xA9059CBB PUSH1 0xE0 SHL PUSH1 0x0 SWAP1 DUP2 MSTORE PUSH1 0x1 PUSH1 0x1 PUSH1 0xA0 SHL SUB SWAP4 DUP5 AND PUSH1 0x4 MSTORE PUSH1 0x24 SWAP5 SWAP1 SWAP5 MSTORE SWAP3 PUSH1 0x20 SWAP1 PUSH1 0x44 DUP2 DUP1 DUP6 GAS CALL PUSH1 0x1 PUSH1 0x0 MLOAD EQ DUP2 AND ISZERO PUSH2 0x19F1 JUMPI JUMPDEST DUP4 PUSH1 0x40 MSTORE ISZERO PUSH2 0x19DB JUMPI POP POP POP JUMP JUMPDEST PUSH4 0x5274AFE7 PUSH1 0xE0 SHL DUP4 MSTORE AND PUSH1 0x4 DUP3 ADD MSTORE PUSH1 0x24 SWAP2 POP REVERT JUMPDEST PUSH1 0x1 DUP2 ISZERO AND PUSH2 0x1A07 JUMPI DUP2 EXTCODESIZE ISZERO ISZERO RETURNDATASIZE ISZERO AND AND PUSH2 0x19CD JUMP JUMPDEST DUP4 RETURNDATASIZE PUSH1 0x0 DUP3 RETURNDATACOPY RETURNDATASIZE SWAP1 REVERT JUMPDEST PUSH1 0x0 DUP1 MLOAD PUSH1 0x20 PUSH2 0x1B7E DUP4 CODECOPY DUP2 MLOAD SWAP2 MSTORE PUSH1 0x2 DUP2 SLOAD EQ PUSH2 0x1A2F JUMPI PUSH1 0x2 SWAP1 SSTORE JUMP JUMPDEST PUSH1 0x40 MLOAD PUSH4 0x3EE5AEB5 PUSH1 0xE0 SHL DUP2 MSTORE PUSH1 0x4 SWAP1 REVERT JUMPDEST SWAP1 SWAP2 SWAP1 PUSH1 0x0 SWAP2 JUMPDEST DUP2 MLOAD DUP4 LT ISZERO PUSH2 0x1A94 JUMPI PUSH1 0x20 DUP1 DUP5 PUSH1 0x5 SHL DUP5 ADD ADD MLOAD SWAP2 PUSH1 0x0 DUP4 DUP3 LT PUSH1 0x0 EQ PUSH2 0x1A83 JUMPI POP PUSH1 0x0 MSTORE MSTORE PUSH2 0x1A7D PUSH1 0x40 PUSH1 0x0 KECCAK256 JUMPDEST SWAP3 PUSH2 0x1900 JUMP JUMPDEST SWAP2 PUSH2 0x1A48 JUMP JUMPDEST SWAP1 PUSH1 0x40 SWAP3 PUSH2 0x1A7D SWAP5 DUP4 MSTORE MSTORE KECCAK256 PUSH2 0x1A77 JUMP JUMPDEST SWAP2 POP POP EQ SWAP1 JUMP JUMPDEST SWAP2 SWAP1 DUP2 LT ISZERO PUSH2 0xA44 JUMPI PUSH1 0x5 SHL ADD SWAP1 JUMP JUMPDEST SWAP2 SWAP1 DUP3 SUB SWAP2 DUP3 GT PUSH2 0x1550 JUMPI JUMP JUMPDEST SWAP3 SWAP4 SWAP2 SWAP1 PUSH1 0x0 SWAP4 DUP5 MSTORE PUSH1 0x20 SWAP2 PUSH1 0x2 DUP4 MSTORE PUSH1 0x40 DUP6 KECCAK256 SWAP5 PUSH1 0xFF PUSH1 0x8 DUP8 ADD SLOAD AND ISZERO DUP1 ISZERO PUSH2 0x1B70 JUMPI JUMPDEST PUSH2 0x1B66 JUMPI PUSH1 0x3 DUP5 MSTORE PUSH1 0x40 DUP1 DUP3 KECCAK256 PUSH1 0x1 PUSH1 0x1 PUSH1 0xA0 SHL SUB DUP6 AND DUP4 MSTORE DUP6 MSTORE DUP2 KECCAK256 SLOAD PUSH1 0xFF AND PUSH2 0x1B66 JUMPI POP PUSH1 0x40 DUP1 MLOAD PUSH1 0x1 PUSH1 0x1 PUSH1 0xA0 SHL SUB SWAP1 SWAP4 AND DUP4 DUP6 ADD SWAP1 DUP2 MSTORE PUSH1 0x20 DUP2 ADD SWAP3 SWAP1 SWAP3 MSTORE PUSH2 0x1B63 SWAP7 PUSH2 0x980 SWAP5 SWAP1 SWAP4 PUSH1 0x1 SWAP4 SWAP2 SWAP3 PUSH2 0x1B3C SWAP1 DUP3 SWAP1 DUP5 ADD PUSH2 0x93E JUMP JUMPDEST MLOAD SWAP1 KECCAK256 SWAP1 PUSH1 0x40 MLOAD SWAP1 DUP1 DUP3 ADD SWAP3 DUP4 MSTORE DUP2 MSTORE PUSH2 0x1B55 DUP2 PUSH2 0x16AF JUMP JUMPDEST MLOAD SWAP1 KECCAK256 SWAP5 ADD SLOAD SWAP3 CALLDATASIZE SWAP2 PUSH2 0x193A JUMP JUMPDEST SWAP1 JUMP JUMPDEST SWAP6 POP POP POP POP POP POP SWAP1 JUMP JUMPDEST POP PUSH1 0x7 DUP7 ADD SLOAD TIMESTAMP GT PUSH2 0x1ADD JUMP INVALID SWAP12 PUSH24 0x9B17422D0DF92223018B32B4D1FA46E071723D6817E2486D STOP EXTCODESIZE 0xEC 0xC5 PUSH0 STOP LOG2 PUSH5 0x6970667358 0x22 SLT KECCAK256 DELEGATECALL SWAP6 0x4B 0x23 0xBB 0xF7 PUSH13 0x6570FD7137152B0B6FFDD0531D 0xD8 0xA8 MUL ADDMOD CODESIZE EQ 0xC 0xC7 0xBC COINBASE 0xD1 0x29 PUSH5 0x736F6C6343 STOP ADDMOD EQ STOP CALLER 0x2F DUP8 DUP9 GT PUSH31 0x7EFF1D82E926EC794901D17C78024A50270940304540A733656F0D00000000 "},"methodIdentifiers":{"DEFAULT_ADMIN_ROLE()":"a217fddf","DISTRIBUTOR_ROLE()":"f0bd87cc","batchClaimDividends(uint256[],uint256[],bytes32[][])":"9ed875c1","canClaim(uint256,address,uint256,bytes32[])":"97a80cd1","cancelDistribution(uint256)":"5c177608","claimDividend(uint256,uint256,bytes32[])":"86198b92","claimExpirationPeriod()":"8a085640","createDistribution(bytes32,bytes32,uint256,uint256,uint256,string)":"af78b382","distributions(uint256)":"4487d3df","getContractBalance()":"6f9fb98a","getDistribution(uint256)":"3b345a87","getProjectDistributions(bytes32)":"05bd1a46","getRoleAdmin(bytes32)":"248a9ca3","getStats()":"c59d4847","getUnclaimedAmount(uint256)":"18d474e3","grantRole(bytes32,address)":"2f2ff15d","hasClaimed(uint256,address)":"873f6f9e","hasRole(bytes32,address)":"91d14854","nextDistributionId()":"795be4b9","pause()":"8456cb59","paused()":"5c975abb","paymentToken()":"3013ce29","projectDistributions(bytes32,uint256)":"b81fb219","recoverUnclaimedFunds(uint256[])":"925eb2e4","renounceRole(bytes32,address)":"36568abe","revokeRole(bytes32,address)":"d547741f","setClaimExpirationPeriod(uint256)":"0b26aa0d","supportsInterface(bytes4)":"01ffc9a7","totalClaimed()":"d54ad2a1","totalDistributed()":"efca2eed","unpause()":"3f4ba83a"}}}}}